:020000040800F2
:10000000002000200D450008B5410008BB41000854
:10001000C1410008C7410008CD41000800000000B0
:10002000000000000000000000000000D3410008B4
:10003000DF41000800000000EB410008F741000824
:100040005545000855450008554500085545000828
:100050005545000855450008554500085545000818
:100060005545000855450008554500085545000808
:1000700055450008554500085545000855450008F8
:10008000554500085545000855450008000000008A
:1000900000000000000000000000000055450008BE
:1000A00055450008554500085545000855450008C8
:1000B000054200085545000855450008554500080B
:1000C00055450008000000000000000055450008EC
:1000D0005545000855450008554500085545000898
:1000E000554500085545000855450008000000002A
:1000F0000000000000000000000000000000000000
:1001000000000000000000000000000000000000EF
:100110000000000000000000194200082D42000805
:1001200000000000000000000000000000000000CF
:1001300000000000000000000000000000000000BF
:1001400000000000000000000000000000000000AF
:10015000000000000000000000000000000000009F
:10016000000000000000000000000000000000008F
:10017000000000000000000000000000000000007F
:10018000000000000000000000000000000000006F
:10019000000000000000000000000000000000005F
:1001A000000000000000000000000000000000004F
:1001B000000000000000000000000000000000003F
:1001C0000000000000000000000000005FF808F1DF
:1001D00010B5054C237833B9044B13B10448AFF381
:1001E00000800123237010BD1000002000000000DB
:1001F000C07E000808B5034B1BB103490348AFF3A9
:10020000008008BD0000000014000020C07E00082F
:10021000034613F8012B002AFBD1181A0138704746
:1002200081F0004102E000BF83F0004330B54FEAA7
:1002300041044FEA430594EA050F08BF90EA020F14
:100240001FBF54EA000C55EA020C7FEA645C7FEAA7
:10025000655C00F0E2804FEA5454D4EB5555B8BFCA
:100260006D420CDD2C4480EA020281EA030382EA3B
:10027000000083EA010180EA020281EA0303362DCD
:1002800088BF30BD11F0004F4FEA01314FF4801CA0
:100290004CEA113102D0404261EB410113F0004FB2
:1002A0004FEA03334CEA133302D0524263EB430369
:1002B00094EA050F00F0A780A4F10104D5F1200E07
:1002C0000DDB02FA0EFC22FA05F2801841F1000162
:1002D00003FA0EF2801843FA05F359410EE0A5F136
:1002E00020050EF1200E012A03FA0EFC28BF4CF067
:1002F000020C43FA05F3C01851EBE37101F000451D
:1003000007D54FF0000EDCF1000C7EEB00006EEB29
:100310000101B1F5801F1BD3B1F5001F0CD34908B3
:100320005FEA30004FEA3C0C04F101044FEA44520A
:1003300012F5800F80F09A80BCF1004F08BF5FEA91
:10034000500C50F1000041EB045141EA050130BD71
:100350005FEA4C0C404141EB0101013C28BFB1F583
:10036000801FE9D291F0000F04BF01460020B1FACE
:1003700081F308BF2033A3F10B03B3F120020CDAA1
:100380000C3208DD02F1140CC2F10C0201FA0CF07F
:1003900021FA02F10CE002F11402D8BFC2F1200CE4
:1003A00001FA02F120FA0CFCDCBF41EA0C0190409A
:1003B000E41AA2BF01EB0451294330BD6FEA0404E3
:1003C0001F3C1CDA0C340EDC04F11404C4F12002CE
:1003D00020FA04F001FA02F340EA030021FA04F3E0
:1003E00045EA030130BDC4F10C04C4F1200220FA37
:1003F00002F001FA04F340EA0300294630BD21FA75
:1004000004F0294630BD94F0000F83F4801306BF3A
:1004100081F480110134013D4EE77FEA645C18BF2E
:100420007FEA655C29D094EA050F08BF90EA020FC5
:1004300005D054EA000C04BF1946104630BD91EABD
:10044000030F1EBF0021002030BD5FEA545C05D1C0
:100450004000494128BF41F0004130BD14F58004FF
:100460003CBF01F5801130BD01F0004545F0FE4173
:1004700041F470014FF0000030BD7FEA645C1ABFA8
:10048000194610467FEA655C1CBF0B46024650EADF
:10049000013406BF52EA033591EA030F41F400210B
:1004A00030BD00BF90F0000F04BF0021704730B591
:1004B0004FF4806404F132044FF000054FF0000166
:1004C00050E700BF90F0000F04BF0021704730B527
:1004D0004FF4806404F1320410F0004548BF4042FC
:1004E0004FF000013EE700BF42004FEAE2014FEA51
:1004F00031014FEA02701FBF12F07F4393F07F4F2C
:1005000081F06051704732F07F4208BF704793F02E
:100510007F4F04BF41F40021704730B54FF4607441
:1005200001F0004521F000411CE700BF50EA010244
:1005300008BF704730B54FF000050AE050EA0102ED
:1005400008BF704730B511F0004502D5404261EB5D
:1005500041014FF4806404F132045FEA915C3FF49E
:10056000D8AE4FF003025FEADC0C18BF03325FEA3B
:10057000DC0C18BF033202EBDC02C2F1200300FAEC
:1005800003FC20FA02F001FA03FE40EA0E0021FA11
:1005900002F11444BDE600BF70B54FF0FF0C4CF4FF
:1005A000E06C1CEA11541DBF1CEA135594EA0C0FB1
:1005B00095EA0C0F00F0DEF82C4481EA030621EAEC
:1005C0004C5123EA4C5350EA013518BF52EA033527
:1005D00041F4801143F4801338D0A0FB02CE4FF0D9
:1005E0000005E1FB02E506F00042E0FB03E54FF009
:1005F0000006E1FB03569CF0000F18BF4EF0010E01
:10060000A4F1FF04B6F5007F64F5407404D25FEAFC
:100610004E0E6D4146EB060642EAC62141EA5551AF
:100620004FEAC52040EA5E504FEACE2EB4F1FD0CF1
:1006300088BFBCF5E06F1ED8BEF1004F08BF5FEA6F
:10064000500E50F1000041EB045170BD06F0004621
:1006500046EA010140EA020081EA0301B4EB5C04CE
:10066000C2BFD4EB0C0541EA045170BD41F48011C6
:100670004FF0000E013C00F3AB8014F1360FDEBFEB
:10068000002001F0004170BDC4F10004203C35DAC7
:100690000C341BDC04F11404C4F1200500FA05F34A
:1006A00020FA04F001FA05F240EA020001F00042EB
:1006B00021F0004110EBD37021FA04F642EB060161
:1006C0005EEA430E08BF20EAD37070BDC4F10C048B
:1006D000C4F1200500FA04F320FA05F001FA04F24F
:1006E00040EA020001F0004110EBD37041F100013B
:1006F0005EEA430E08BF20EAD37070BDC4F1200546
:1007000000FA05F24EEA020E20FA04F301FA05F2AD
:1007100043EA020321FA04F001F0004121FA04F255
:1007200020EA020000EBD3705EEA430E08BF20EA25
:10073000D37070BD94F0000F0FD101F0004640005F
:1007400041EB010111F4801F08BF013CF7D041EAE1
:10075000060195F0000F18BF704703F000465200E5
:1007600043EB030313F4801F08BF013DF7D043EAB6
:100770000603704794EA0C0F0CEA135518BF95EA6C
:100780000C0F0CD050EA410618BF52EA4306D1D1F3
:1007900081EA030101F000414FF0000070BD50EA12
:1007A000410606BF1046194652EA430619D094EA9C
:1007B0000C0F02D150EA013613D195EA0C0F05D186
:1007C00052EA03361CBF104619460AD181EA0301DA
:1007D00001F0004141F0FE4141F470014FF0000092
:1007E00070BD41F0FE4141F4780170BD70B54FF02D
:1007F000FF0C4CF4E06C1CEA11541DBF1CEA1355AD
:1008000094EA0C0F95EA0C0F00F0A7F8A4EB05048E
:1008100081EA030E52EA03354FEA013100F0888085
:100820004FEA03334FF0805545EA131343EA12634E
:100830004FEA022245EA111545EA10654FEA002603
:100840000EF000419D4208BF964244F1FD0404F5BC
:10085000407402D25B084FEA3202B61A65EB030518
:100860005B084FEA32024FF480104FF4002CB6EBD5
:10087000020E75EB030E22BFB61A754640EA0C0055
:100880005B084FEA3202B6EB020E75EB030E22BF95
:10089000B61A754640EA5C005B084FEA3202B6EBD6
:1008A000020E75EB030E22BFB61A754640EA9C0095
:1008B0005B084FEA3202B6EB020E75EB030E22BF65
:1008C000B61A754640EADC0055EA060E18D04FEA23
:1008D000051545EA16754FEA06164FEAC30343EAC3
:1008E00052734FEAC2025FEA1C1CC0D111F4801F90
:1008F0000BD141EA00014FF000004FF0004CB6E789
:1009000011F4801F04BF01430020B4F1FD0C88BF27
:10091000BCF5E06F3FF6AFAEB5EB030C04BFB6EB32
:10092000020C5FEA500C50F1000041EB045170BD25
:100930000EF0004E4EEA113114EB5C04C2BFD4EB52
:100940000C0541EA045170BD41F480114FF0000ED6
:10095000013C90E645EA060E8DE60CEA135594EA52
:100960000C0F08BF95EA0C0F3FF43BAF94EA0C0F55
:100970000AD150EA01347FF434AF95EA0C0F7FF4CA
:1009800025AF104619462CE795EA0C0F06D152EA1E
:1009900003353FF4FDAE1046194622E750EA410602
:1009A00018BF52EA43067FF4C5AE50EA41047FF413
:1009B0000DAF52EA43057FF4EBAE12E74FEA410276
:1009C000B2F1E04324BFB3F5001CDCF1FE5C0DD9AD
:1009D00001F0004C4FEAC0024CEA5070B2F1004FF7
:1009E00040EB830008BF20F00100704711F0804FFA
:1009F00021D113F13872BCBF01F00040704741F4BF
:100A000080114FEA5252C2F11802C2F1200C10FAC2
:100A10000CF320FA02F018BF40F001004FEAC123A6
:100A20004FEAD32303FA0CFC40EA0C0023FA02F34A
:100A30004FEA4303CCE77FEA625307D150EA013320
:100A40001EBF4FF0FE4040F44000704701F00040F0
:100A500040F0FE4040F40000704700BF80F00040CE
:100A600002E000BF81F0004142001FBF5FEA410386
:100A700092EA030F7FEA226C7FEA236C6AD04FEA86
:100A80001262D2EB1363C1BFD218414048404140CB
:100A9000B8BF5B42192B88BF704710F0004F40F47D
:100AA000000020F07F4018BF404211F0004F41F499
:100AB000000121F07F4118BF494292EA030F3FD065
:100AC000A2F1010241FA03FC10EB0C00C3F1200378
:100AD00001FA03F100F0004302D5494260EB400007
:100AE000B0F5000F13D3B0F1807F06D340084FEA72
:100AF000310102F10102FE2A51D2B1F1004F40EB67
:100B0000C25008BF20F0010040EA030070474900CE
:100B100040EB0000013A28BFB0F5000FEDD2B0FA6B
:100B200080FCACF1080CB2EB0C0200FA0CF0AABF8E
:100B300000EBC25052421843BCBFD040184370472C
:100B400092F0000F81F4000106BF80F40000013232
:100B5000013BB5E74FEA41037FEA226C18BF7FEA09
:100B6000236C21D092EA030F04D092F0000F08BF4B
:100B70000846704790EA010F1CBF0020704712F032
:100B80007F4F04D1400028BF40F00040704712F171
:100B900000723CBF00F50000704700F0004343F0D6
:100BA000FE4040F4000070477FEA226216BF08460C
:100BB0007FEA23630146420206BF5FEA412390EACF
:100BC000010F40F4800070474FF0000304E000BFC5
:100BD00010F0004348BF40425FEA000C08BF704776
:100BE00043F0964301464FF000001CE050EA01023A
:100BF00008BF70474FF000030AE000BF50EA01024F
:100C000008BF704711F0004302D5404261EB41013B
:100C10005FEA010C02BF84460146002043F0B64360
:100C200008BFA3F18053A3F50003BCFA8CF2083A85
:100C3000A3EBC25310DB01FA02FC634400FA02FC8E
:100C4000C2F12002BCF1004F20FA02F243EB020095
:100C500008BF20F00100704702F1200201FA02FCF7
:100C6000C2F1200250EA4C0021FA02F243EB0200EA
:100C700008BF20EADC7070474FF0FF0C1CEAD0522E
:100C80001EBF1CEAD15392EA0C0F93EA0C0F6FD0EF
:100C90001A4480EA010C400218BF5FEA41211ED0CD
:100CA0004FF0006343EA501043EA5111A0FB0131B9
:100CB0000CF00040B1F5000F3EBF490041EAD3718E
:100CC0005B0040EA010062F17F02FD2A1DD8B3F10A
:100CD000004F40EBC25008BF20F00100704790F079
:100CE000000F0CF0004C08BF49024CEA502040EACB
:100CF00051207F3AC2BFD2F1FF0340EAC250704791
:100D000040F400004FF00003013A5DDC12F1190FCE
:100D1000DCBF00F000407047C2F10002410021FA40
:100D200002F1C2F1200200FA02FC5FEA310040F158
:100D3000000053EA4C0308BF20EADC70704792F0D1
:100D4000000F00F0004C02BF400010F4000F013A09
:100D5000F9D040EA0C0093F0000F01F0004C02BF04
:100D6000490011F4000F013BF9D041EA0C018FE773
:100D70000CEAD15392EA0C0F18BF93EA0C0F0AD079
:100D800030F0004C18BF31F0004CD8D180EA01009F
:100D900000F00040704790F0000F17BF90F0004F38
:100DA000084691F0000F91F0004F14D092EA0C0F1A
:100DB00001D142020FD193EA0C0F03D14B0218BFAD
:100DC000084608D180EA010000F0004040F0FE40F3
:100DD00040F40000704740F0FE4040F4400070478F
:100DE0004FF0FF0C1CEAD0521EBF1CEAD15392EA0E
:100DF0000C0F93EA0C0F69D0A2EB030280EA010CFE
:100E000049024FEA402037D04FF0805343EA111196
:100E100043EA10130CF000408B4238BF5B0042F1F4
:100E20007D024FF4000C8B4224BF5B1A40EA0C0099
:100E3000B3EB510F24BFA3EB510340EA5C00B3EBCB
:100E4000910F24BFA3EB910340EA9C00B3EBD10FB9
:100E500024BFA3EBD10340EADC001B0118BF5FEA0B
:100E60001C1CE0D1FD2A3FF650AF8B4240EBC25034
:100E700008BF20F0010070470CF0004C4CEA5020F5
:100E80007F32C2BFD2F1FF0340EAC250704740F444
:100E900000004FF00003013A37E792F0000F00F036
:100EA000004C02BF400010F4000F013AF9D040EAB4
:100EB0000C0093F0000F01F0004C02BF490011F448
:100EC000000F013BF9D041EA0C0195E70CEAD15340
:100ED00092EA0C0F08D142027FF47DAF93EA0C0F27
:100EE0007FF470AF084676E793EA0C0F04D14B020B
:100EF0003FF44CAF08466EE730F0004C18BF31F0BD
:100F0000004CCAD130F000427FF45CAF31F00043B6
:100F10007FF43CAF5FE700BF4FF0FF3C06E000BF4F
:100F20004FF0010C02E000BF4FF0010C4DF804CD72
:100F30004FEA40024FEA41037FEA226C18BF7FEA82
:100F4000236C11D001B052EA530C18BF90EA010F84
:100F500058BFB2EB030088BFC81738BF6FEAE17013
:100F600018BF40F0010070477FEA226C02D15FEAAF
:100F7000402C05D17FEA236CE4D15FEA412CE1D01B
:100F80005DF8040B704700BF844608466146FFE7E2
:100F90000FB5FFF7C9FF002848BF10F1000F0FBDC4
:100FA0004DF808EDFFF7F4FF0CBF012000205DF8BD
:100FB00008FB00BF4DF808EDFFF7EAFF34BF012042
:100FC00000205DF808FB00BF4DF808EDFFF7E0FFDB
:100FD00094BF012000205DF808FB00BF4DF808ED2C
:100FE000FFF7D2FF94BF012000205DF808FB00BF8F
:100FF0004DF808EDFFF7C8FF34BF012000205DF871
:1010000008FB00BF42000ED2B2F1FE4F0BD34FF0EF
:101010009E03B3EB126209D44FEA002343F000436E
:1010200023FA02F070474FF00000704712F1610F91
:1010300001D1420202D14FF0FF3070474FF0000063
:10104000704700BF80B485B000AF78600023FB60BC
:1010500002E0FB680133FB60FA687B689A42F8DBC8
:1010600000BF00BF1437BD4680BC704780B5ADF5EA
:10107000227D00AF07F52273A3F5217318600023CA
:1010800087F88732002387F8773207F52273A3F5B4
:101090002073474A184611464FF413731A4606F058
:1010A0009DFE444A07F52273A3F521731B68136064
:1010B0000023C7F880326CE00023C7F87C322BE0B5
:1010C000002204213C4804F015F93A4B186807F156
:1010D0000801D7F880221346DB009B1AD7F87C2240
:1010E00013449B0019444FF47A73012204F0F2FE7A
:1010F000034687F8773297F87732002B02D0012326
:1011000087F88732012204212B4804F0F3F8D7F83E
:101110007C320133C7F87C32D7F87C32062BCFDD26
:101120004FF49670FFF78EFF0023C7F8783224E063
:1011300000220421204804F0DDF81E4B186807F552
:101140001572D7F87832D1184FF47A73012205F06E
:1011500004F8034687F8773297F87732002B02D0ED
:10116000012387F8873201220421134804F0C2F8D2
:10117000D7F878320133C7F87832D7F87832202B95
:10118000D6DD322003F010FAD7F880320133C7F8E9
:101190008032D7F88032142B8EDD4FF48C7003F040
:1011A00003FA97F88732184607F52277BD4680BDC7
:1011B000D87E00082C000020000C014080B594B0BF
:1011C00000AF7860002387F84F304FF00003BB6119
:1011D0004F4A07F1100392E80300186004331970B6
:1011E0004C4A07F1080392E80300186004331970B1
:1011F00001220421484804F07DF80023BB6421E06B
:1012000000220421444804F075F8444B186807F1A3
:101210001002BB6CD1184FF47A73012204F05AFE0D
:10122000034687F83F3097F83F30002B02D0012368
:1012300087F84F3001220421374804F05BF8BB6C7B
:101240000133BB64BB6C042BDAD9C12003F0ACF9C9
:1012500000237B6421E0002204212F4804F04AF897
:101260002E4B186807F108027B6CD1184FF47A7383
:10127000012204F02FFE034687F83F3097F83F30F5
:10128000002B02D0012387F84F300122042122488D
:1012900004F030F87B6C01337B647B6C042BDAD96F
:1012A00040F21310FFF7CEFE00233B641AE0002249
:1012B0000421194804F01EF8184B186807F11C02A5
:1012C0003B6CD1184FF47A73012204F046FF0346B9
:1012D00087F83F30012204210F4804F00BF83B6CE3
:1012E00001333B643B6C202BE1DD3B7FFF2B03D1C3
:1012F000012387F84F3005E0D7F82F30BB61BA697A
:101300007B681A6097F84F3018465037BD4680BD4D
:10131000248100082C810008000C01402C000020D2
:1013200090B59BB000AF7860396001237B660023E5
:10133000A7F8623007F1080310220021184606F0D2
:101340005BFD386803F02CFA6421386803F0C8FAB2
:10135000034687F8613097F86130002B4FD1386829
:1013600003F0C4FBF865386803F08EFAF86DFFF7F8
:101370002BFC034640491846FFF732FD0346194649
:101380001846FFF771FB03461846FFF7ADF836A382
:10139000D3E90023FFF700F902460B461046194631
:1013A00033A3D3E90023FFF7F7F802460B461046B4
:1013B0001946FFF703FB0346BB653049B86DFFF7DD
:1013C00051FB0346BB652E49B86DFFF755FC03463C
:1013D0001846FFF789F802460B461046194606F0F4
:1013E00027FD4FF00002274BFFF700FA02460B469D
:1013F00010461946FFF7E2FA0346C7F80A30882379
:101400003B810623A7F86230B7F8622007F1080392
:101410001146184600F02CFB0346FB8107F1080338
:1014200007F108010822786800F0D2FD07F11804DE
:1014300007F108030FCB84E80F0007F11803102110
:10144000184602F0EFFA034687F86130642003F093
:10145000ABF897F86130002B01D000237B667B6EE0
:1014600018466C37BD4690BD6666666666660A407D
:101470009A9999999999F13F00F07F458FC2F53E6D
:10148000000020410000244080B487B000AFF86025
:10149000B9607A6000237B610CE07B699B007A680D
:1014A0001A447B699B00B9680B4412681A607B6917
:1014B00001337B617B690F2BEFDD00BF00BF1C3761
:1014C000BD4680BC704780B485B000AF786039609D
:1014D0000023FB6008E0FB689B003A68134400228D
:1014E0001A60FB680133FB60FB680F2BF3DD00BF64
:1014F00000BF1437BD4680BC704780B5A6B000AFB2
:10150000F860B9607A603B600023C7F894300BE064
:10151000D7F894309B00BA68134400221A60D7F8B9
:1015200094300133C7F89430D7F894301F2BEFDD97
:101530000023C7F8943096E01023C7F890300CE0F1
:10154000D7F890309B0098333B44002243F8882C16
:10155000D7F890300133C7F89030D7F890301F2B70
:10156000EEDD0023C7F890301CE0D7F890309B00E8
:101570003A6813441968D7F894309B007A6813448A
:101580001B681A46F86800F00CFE0246D7F8903047
:101590009B0098333B4443F8882CD7F890300133B4
:1015A000C7F89030D7F890300F2BDEDD1F23C7F837
:1015B000903015E0D7F89020D7F89430D31A9B00DC
:1015C00098333B4453F8882CD7F890309B009833DD
:1015D0003B4443F8882CD7F89030013BC7F8903053
:1015E000D7F89020D7F894309A42E3DA0023C7F86E
:1015F00090300CE0D7F890309B0098333B440022A9
:1016000043F8882CD7F890300133C7F89030D7F8DA
:101610009020D7F894309A42ECDB0023C7F8903042
:1016200018E0D7F890309B00BA6813441968D7F8CF
:1016300090309B0098333B4453F8882CD7F8903077
:101640009B00B86803444A401A60D7F890300133D1
:10165000C7F89030D7F890301F2BE2DDD7F89430E0
:101660000133C7F89430D7F894300F2B7FF764AF6D
:1016700000BF00BF9837BD4680BD0000B0B59CB02C
:1016800000AF78600123FB660023A7F86A3007F1FA
:101690000C0319220021184606F0AEFB4423BB813F
:1016A0000623BB73BB7B1A4607F10C030333304997
:1016B000184606F093FB0F23A7F86A30B7F86A20A4
:1016C00007F10C031146184600F0D2F90346A7F8BB
:1016D0001B3007F10C0307F10C011122786800F0B0
:1016E00077FC07F1280407F10C050FCD0FC495E82E
:1016F000070003C4227007F128031921184602F0DD
:1017000091F9034687F8693097F86930002B01D0CA
:101710000023FB6601F0A8FF034687F8693097F8BD
:101720006930002B01D00023FB660621104800F031
:101730001FFC4FF4967002F037FF01F0B1FF034633
:1017400087F8693097F86930002B01D00023FB66D9
:1017500001F098FF034687F8693097F86930002B4D
:1017600001D00023FB66FB6E18467037BD46B0BD46
:1017700034810008F0B5A5B000AF7860002387F889
:101780008F300023A7F88C300023A7F88A3000237D
:10179000A7F88830AD4B1B78032B00F2518101A2D2
:1017A00052F823F0B5170008BD1700086B180008A1
:1017B000AB190008A54B01221A7041E1A44B00228D
:1017C0001A8047F60843A7F88C30A24B00221A80F3
:1017D00011220021A04806F00FFB9F4BFF221A8028
:1017E0009E4B1A789C4B9A70B7F88C309A4AC2F884
:1017F00003300723A7F88830B7F888301946964891
:1018000000F036F903461A46934BA3F80720924B93
:1018100009229149786800F0DBFB07F1440340227C
:101820000021184606F0E8FA8B4B07F144041D46E8
:101830000FCD0FC42B68237007F144031121184604
:1018400002F0F0F8034687F887304FF4FA7002F0A0
:10185000ABFE97F88730002B03D07C4B00221A7028
:10186000EEE07A4B02221A70EAE0794B1B881A46A6
:101870007B4B13441C4607F10C0604F1300C354633
:101880002346186859689A68DB680FC5103410360B
:101890006445F4D1334622461068516803C31420CE
:1018A00002F082FE3823A7F88A30694B1B88383350
:1018B0009AB2674B1A80664B1B881A46664BD3F860
:1018C00003309A4202D1022387F88F3097F88F3085
:1018D000022B07D0022B00F3B280002B02D0012B89
:1018E0005ED0ACE05F4BEE221A805C4B1A785D4B09
:1018F0009A70584B1A885B4BA3F80320B7F88A30CC
:10190000DAB2584B5A71574B5B791A4607F10C0300
:101910001946554806F062FA3E23A7F88830B7F812
:10192000883019464F4800F0A3F803461A464D4B3D
:10193000DA8707F1440340220021184606F05CFADA
:10194000484B07F144041D460FCD0FC40FCD0FC403
:101950000FCD0FC495E80F0084E80F0007F1440392
:101960004021184602F05EF8034687F887300F20C2
:1019700002F01AFE97F88730002B03D0334B002279
:101980001A7006E097F88F30022B02D12F4B0322FA
:101990001A70304B1B8801339AB22E4B1A8003E029
:1019A0002A4B01221A7000BF49E0304BDD221A8019
:1019B0002A4B1A782D4B9A700323A7F88830B7F872
:1019C00088301946294800F053F803461A46274B39
:1019D000A3F80320254B05222449786800F0F8FA83
:1019E00007F1440340220021184606F005FA64205E
:1019F00002F0DAFD1D4B07F144040FCB07C423703E
:101A000007F144030D21184602F00CF8034687F84D
:101A100087304FF4FA7002F0C7FD97F88730002B3B
:101A200009D10A4B01221A700C4B1B780133DAB230
:101A30000A4B1A7004E0054B01221A7000E000BF47
:101A400097F88F3018469437BD46F0BD91000020BE
:101A500092000020940000207000002096000020DA
:101A60006081000830000020360000208400002043
:101A700080B586B000AF78603960174B1B7883F073
:101A80000103DBB2002B01D000F02AF80023FB8217
:101A90007B683B613B69002B18D00023FB6011E0A1
:101AA000FB8A1B0A9AB2F98A3B69581C38611B7879
:101AB0004B40DBB2094931F813305340FB82FB68DD
:101AC0000133FB60FA683B689A42E9D3FB8A184607
:101AD0001837BD4680BD00BF970000209800002049
:101AE00080B483B000AF0023FB8029E000237B801B
:101AF000FB883B800023BB8017E07A883B885340FB
:101B00009BB203F00103002B06D07B885B089AB2DE
:101B1000114B53407B8002E07B885B087B803B88D5
:101B20005B083B80BB880133BB80BB88072BE4D9B3
:101B3000FB880A497A8821F81320FB880133FB804F
:101B4000FB88FF2BD2D9064B01221A7000BF0C373D
:101B5000BD4680BC704700BF01A0FFFF9800002079
:101B60009700002080B500AF034B1B68184602F0B9
:101B70001BFD00BF80BD00BF0000002080B500AF8E
:101B8000044B1A681346DB001344184602F00CFDA0
:101B900000BF80BD0000002080B500AF6021342070
:101BA00001F0CCFD03461A46064B1A700121064887
:101BB00001F038FF03461A46024B1A70FFF7D2FFB6
:101BC00000BF80BD980200209C02002080B500AFBD
:101BD000FF21342001F0B2FD03461A46064B1A706D
:101BE0000121064801F01EFF03461A46024B1A70F7
:101BF000FFF7B8FF00BF80BD980200209C020020C4
:101C000080B582B000AF0346FB71FB79203B3A2BD5
:101C100000F2A88101A252F823F000BF5F1F000864
:101C2000651F0008651F0008651F0008651F000884
:101C3000651F0008651F0008651F0008651F000874
:101C4000651F0008651F0008651F0008651F000864
:101C5000651F0008651F0008651F0008491F000870
:101C6000831E0008991E0008AF1E0008C51E00084C
:101C7000DB1E0008F11E0008071F00081D1F0008DA
:101C8000331F0008651F0008651F0008651F000856
:101C9000651F0008651F0008651F0008651F000814
:101CA000091D0008131D0008251D0008371D000828
:101CB000451D00084B1D00085B1D0008691D00083C
:101CC0007B1D0008851D0008971D0008A51D000844
:101CD000B71D0008C11D0008CB1D0008D91D000854
:101CE000EB1D0008FD1D00080B1E0008191E000852
:101CF0001F1E00082D1E00083F1E00084D1E000874
:101D00005F1E0008711E0008FFF746FFFFF75EFF29
:101D100028E1FFF75BFFFFF73FFFFFF73DFFFFF70E
:101D20003BFF1FE1FFF752FFFFF736FFFFF74EFFC4
:101D3000FFF732FF16E1FFF749FFFFF72DFFFFF72F
:101D40002BFF0FE1FFF728FF0CE1FFF725FFFFF75F
:101D500023FFFFF73BFFFFF71FFFFFF737FFFFF7FB
:101D600035FFFFF719FFFDE0FFF716FFFFF714FF40
:101D7000FFF712FFFFF710FFF4E0FFF70DFFFFF78B
:101D80000BFFEFE0FFF708FFFFF720FFFFF71EFF55
:101D9000FFF71CFFE6E0FFF719FFFFF7FDFEFFF777
:101DA00015FFDFE0FFF7F8FEFFF710FFFFF7F4FE87
:101DB000FFF7F2FED6E0FFF709FFFFF707FFD1E0DC
:101DC000FFF704FFFFF7E8FECCE0FFF7FFFEFFF7A9
:101DD000FDFEFFF7FBFEC5E0FFF7DEFEFFF7F6FEB8
:101DE000FFF7F4FEFFF7D8FEBCE0FFF7EFFEFFF7CA
:101DF000EDFEFFF7D1FEFFF7E9FEB3E0FFF7CCFE03
:101E0000FFF7E4FEFFF7C8FEACE0FFF7C5FEFFF703
:101E1000C3FEFFF7C1FEA5E0FFF7D8FEA2E0FFF783
:101E2000BBFEFFF7B9FEFFF7D1FE9BE0FFF7B4FE64
:101E3000FFF7B2FEFFF7B0FEFFF7C8FE92E0FFF734
:101E4000ABFEFFF7C3FEFFF7C1FE8BE0FFF7BEFE60
:101E5000FFF7A2FEFFF7A0FEFFF7B8FE82E0FFF754
:101E6000B5FEFFF799FEFFF7B1FEFFF7AFFE79E091
:101E7000FFF7ACFEFFF7AAFEFFF78EFEFFF78CFE22
:101E800070E0FFF789FEFFF7A1FEFFF79FFEFFF767
:101E90009DFEFFF79BFE65E0FFF77EFEFFF77CFEF1
:101EA000FFF794FEFFF792FEFFF790FE5AE0FFF770
:101EB00073FEFFF771FEFFF76FFEFFF787FEFFF778
:101EC00085FE4FE0FFF768FEFFF766FEFFF764FE52
:101ED000FFF762FEFFF77AFE44E0FFF75DFEFFF7D3
:101EE0005BFEFFF759FEFFF757FEFFF755FE39E09F
:101EF000FFF76CFEFFF750FEFFF74EFEFFF74CFEBC
:101F0000FFF74AFE2EE0FFF761FEFFF75FFEFFF7E7
:101F100043FEFFF741FEFFF73FFE23E0FFF756FECB
:101F2000FFF754FEFFF752FEFFF736FEFFF734FED1
:101F300018E0FFF74BFEFFF749FEFFF747FEFFF7FC
:101F400045FEFFF729FE0DE0FFF740FEFFF73EFEDE
:101F5000FFF73CFEFFF73AFEFFF738FE02E0FFF71F
:101F60000DFE00BFFFF70AFE00BF0837BD4680BD6B
:101F700080B584B000AF78603960FFF7FFFDFFF7F0
:101F8000FDFD0023FB6009E0FB687A6813441B78C1
:101F90001846FFF735FEFB680133FB60FA683B68C3
:101FA0009A42F1DB00BF00BF1037BD4680BD80B54F
:101FB00082B000AF786040F688120021786801F0A6
:101FC0009DFD786801F08CFD00BF0837BD4680BDDF
:101FD00080B584B000AFF860B9607A603B603B6860
:101FE0007A68B968F86801F053FE00BF1037BD4643
:101FF00080BD00000000000090B59DB000AF78608B
:1020000039600123FB660023A7F86A304FF0000314
:102010007B664FF000033B6607F10C0310220021A2
:10202000184605F0E9FE39682D48FEF71BFD03460A
:102030002C491846FEF7D4FE03467B66786EFEF701
:1020400053FA25A3D3E90023FEF7A6FA02460B466E
:10205000104619464FF00002234BFEF7E7F8024600
:102060000B4610461946FEF7A9FC03463B6699232A
:10207000BB813B6EC7F80E300623A7F86A30B7F86D
:102080006A2007F10C0311461846FFF7F1FC0346DE
:102090007B8207F10C0307F10C0108227868FFF737
:1020A00097FF07F11C0407F10C030FCB84E80F0026
:1020B00007F11C031021184601F0B4FC034687F811
:1020C0005F30642002F070FAFB6E18467437BD462C
:1020D00090BD00BFAFF30080CDCCCCCCCCCCFC3FCE
:1020E0000072834700005C430000404080B48FB022
:1020F00000AF7860396001233B6100237B617B691D
:10210000BB61BB69FB61FB693B623B6A7B627B6ACB
:10211000BB62BB6AFB62FB6AFB6001233B633B68FB
:10212000002B38D001237B631AE07B69FB60BB691D
:102130007B61FB69BB613B6AFB617A6AFB68534068
:102140003B62BA6AFB6853407B62FA6AFB685340A1
:10215000BB623B6BFB62FB683B637B6B01337B6366
:102160007A6B3B689A42E0DDFB6A5A003B6B1A448B
:10217000BB6A9B001A447B6ADB001A443B6A1B0162
:102180001A44FB695B011A44BB699B011A447B69D1
:10219000DB0113443B613B6918463C37BD4680BCBC
:1021A000704780B493B000AFF860B9607A60BB68E4
:1021B000002B02D07B68002B01D100235AE00823BA
:1021C0007B6300237B6400233B6420E03B6C9B002B
:1021D00048333B447A6843F8382C7B6B013B7A6880
:1021E00042FA03F303F00103002B0AD07B685B0083
:1021F0007B607B6883F48E7383F00103DBB27B60CA
:1022000002E07B685B007B603B6C01333B643A6CB3
:102210007B6B9A42DADB00233B6426E001223B6CB5
:1022200002FA03F33B633A6BBB681340002B19D0EF
:102230000123FB630023BB6310E03B6C9B0048332E
:102240003B4453F8382CFB6B13407A6C53407B644F
:10225000FB6B5B00FB63BB6B0133BB63BA6B7B6BDC
:102260009A42EADB3B6C01333B643A6C7B6B9A42EB
:10227000D4DB7B6C18464C37BD4680BC70470000F1
:10228000B0B5ADF5067D02AF07F50473A3F5037392
:102290001860002387F807320023C7F80C3207F5CF
:1022A000017307F1880107F50472A2F5037040F687
:1022B000B83200924FF49672006805F044FB034672
:1022C00087F80632642002F06FF997F80632002B87
:1022D00079D10023C7F808326DE007F50473A3F540
:1022E000C472D7F808321344197807F5DA72D7F8B0
:1022F0000C3213440A461A70D7F80C320133C7F86F
:102300000C3207F50473A3F5C472D7F808321344EE
:102310001B780A2B0CBF01230023DAB2D7F80C324A
:102320004F2BCCBF01230023DBB21343DBB2002BC6
:102330003CD097F8B431242B35D107F5DA73033349
:10234000032219468E4805F05FFD0346002B0FD18E
:10235000502200218B4805F04FFDD7F80C2207F5DD
:10236000DA731946874805F039FD874B01221A6058
:1023700007F5DA73033303221946844805F044FD58
:102380000346002B0FD150220021814805F034FD77
:10239000D7F80C2207F5DA7319467D4805F01EFDC3
:1023A0007C4B01221A600023C7F80C32D7F80832A0
:1023B0000133C7F80832B7F804321A46D7F80832A2
:1023C00093428ADB02E0012002F0EEF86E4B1B68BC
:1023D000012B40F07E816F4B1B68012B40F079810F
:1023E0006B48FDF715FF03469AB26B4B1A806548A0
:1023F000FDF70EFF03469AB2684B1A8007F10803F7
:1024000040220021184605F0F7FC644B1B883E2B48
:102410000CD907F50473A3F50273C2221A8007F5DD
:102420000473A3F502733D229A700DE007F504735F
:10243000A3F50273C1221A80584B1B88DAB207F544
:102440000473A3F502739A7007F50473A3F502737E
:102450009B781A4607F1080303334A49184605F0EA
:10246000BDFC07F50473A3F5E47207F50473A3F547
:10247000027314461D460FCD0FC40FCD0FC40FCDF0
:102480000FC495E80F0084E80F0007F50473A3F567
:1024900002739B780333DAB207F1480311461846FA
:1024A00001F0C0FA034687F80632642002F07CF897
:1024B0003A4B1B883E2B4AD907F1080340220021E2
:1024C000184605F099FC07F50473A3F50273C322BF
:1024D0001A80324B1B88DBB23D3BDAB207F504733E
:1024E000A3F502739A7007F50473A3F502739B7842
:1024F0001A4607F1080303332949184605F06EFC14
:1025000007F50473A3F5E47207F50473A3F50273EA
:1025100014461D460FCD0FC40FCD0FC40FCD0FC4F1
:1025200095E80F0084E80F0007F50473A3F5027324
:102530009B780333DAB207F148031146184601F0DD
:1025400071FA034687F80632642002F02DF807F18D
:10255000080340220021184605F04EFC0E4B1B8854
:102560003E2B1FD907F50473A3F50273B2221A801C
:1025700007F50473A3F502733D229A7020E000BFB3
:102580003C810008A0020020F002002040810008E9
:10259000F402002044030020480300204A030020E6
:1025A000DD02002007F50473A3F50273B1221A803F
:1025B0004B4B1B88DAB207F50473A3F502739A70CC
:1025C00007F50473A3F502739B781A4607F1080315
:1025D00003334449184605F001FC07F50473A3F5DD
:1025E000E47207F50473A3F5027314461D460FCD7C
:1025F0000FC40FCD0FC40FCD0FC495E80F0084E8B2
:102600000F0007F50473A3F502739B780333DAB266
:1026100007F148031146184601F004FA034687F80B
:102620000632642001F0C0FF2F4B1B883E2B4AD995
:1026300007F1080340220021184605F0DDFB07F5ED
:102640000473A3F50273B3221A80254B1B88DBB2F7
:102650003D3BDAB207F50473A3F502739A7007F5F0
:102660000473A3F502739B781A4607F1080303333A
:102670001E49184605F0B2FB07F50473A3F5E47292
:1026800007F50473A3F5027314461D460FCD0FC45E
:102690000FCD0FC40FCD0FC495E80F0084E80F00D5
:1026A00007F50473A3F502739B780333DAB207F1DD
:1026B00048031146184601F0B5F9034687F806327B
:1026C000642001F071FF0A4B00221A60094B0022BE
:1026D0001A6097F80732184607F50477BD46B0BD73
:1026E00048030020F40200204A03002031030020A8
:1026F000F00200204403002090B59BB000AF78604A
:10270000396001237B660023A7F862304FF0000395
:10271000FB6507F1080310220021184605F06CFB49
:1027200021493868FEF79EF9034620491846FEF70E
:1027300057FB0346FB65F96D1D48FEF793F9034609
:10274000FB6566233B81FB6DC7F80A300623A7F8BB
:102750006230B7F8622007F1080311461846FFF708
:1027600087F90346FB8107F1080307F108010822F6
:102770007868FFF72DFC07F1180407F108030FCB69
:1027800084E80F0007F118031021184601F04AF9F8
:10279000034687F85B30642001F006FF7B6E184625
:1027A0006C37BD4690BD00BF00D32947EC51D840DF
:1027B0000000C842B0B5A0B000AF78600123FB674D
:1027C0000023A7F87A3007F108032D2200211846CC
:1027D00005F012FB55233B811323BB72BB7A1A46CB
:1027E00007F1080303331E49184605F0F7FA2323BF
:1027F000A7F87A30B7F87A2007F10803114618468F
:10280000FFF736F90346A7F82B3007F1080307F165
:10281000080125227868FFF7DBFB07F1380407F190
:1028200008050FCD0FC40FCD0FC495E80F0007C4E6
:10283000237007F138032D21184601F0F3F8034601
:1028400087F87930642001F0AFFE97F87930002BDB
:1028500001D00023FB67FB6F18468037BD46B0BD33
:102860004481000890B599B000AF78600123FB6502
:102870000023A7F85A3007F108030D22002118465B
:1028800005F0BAFAE021122000F058FF034687F85D
:1028900059300921132000F051FF034687F85930C1
:1028A00080210F2000F04AFF034687F8593064204A
:1028B00001F07AFE07F117031946112000F0FEFE21
:1028C000034687F8593097F85930002B2FD1FB7DFC
:1028D0003C3BDBB25BB2BB72AA233B810323A7F86C
:1028E0005A30B7F85A2007F1080311461846FFF787
:1028F000BFF80346A7F80B3007F1080307F10801FA
:1029000005227868FFF764FB07F1180407F1080354
:102910000FCB07C4237007F118030D21184601F0EF
:1029200081F8034687F85930642001F03DFEFB6DC5
:1029300018466437BD4690BD80B483B000AF786060
:10294000044B1B680133034A136000BF0C37BD46BC
:1029500080BC70472C05002080B5ADF5196D00AF27
:10296000002387F88E3901F0F6FD00F01FFA00F021
:10297000EFFB00F0ADFA00F097FB00F06BFA00F00F
:10298000BDFB00F0DBFA00F051FB0022802155482E
:1029900002F0B0FC4FF47A6001F006FE01224FF421
:1029A0008071504802F0A6FC002204214E4802F03B
:1029B000A1FC002208214B4802F09CFC00221021BF
:1029C000484802F097FC00222021464802F092FC81
:1029D00000224FF48051434802F08CFC0022082171
:1029E000414802F087FC00224FF480413F4802F04A
:1029F00081FC00224FF400413C4802F07BFC0022A5
:102A00004021384802F076FC394801F04EFC03467C
:102A100087F88E3909E0364801F047FC034687F80D
:102A20008E3980212F4802F07DFC97F88E39012BDA
:102A3000F1D02F4801F018FD034687F88E3997F83A
:102A40008E39012B02D0012387F88E393B1D1846A1
:102A5000FFF7ADFA2748FEF709FB274B00221A6063
:102A6000264B00221A60264B00221A60254B0122B9
:102A70001A60254B01221A60244B01221A60244B54
:102A800000221A60234B00221A60012387F88F3935
:102A900005E0184800F052FD034687F88F3997F893
:102AA0008F39002BF5D100F0C3FD034687F88F392D
:102AB00001224FF400410D4802F01CFC01224FF4AA
:102AC0008051084802F016FC00F0C0FD034687F86C
:102AD0008F390A4B1B68002B30D0012387F88F39C0
:102AE00025E000BF000C014000080140001001403B
:102AF000640400207C030020F4040020F80400207B
:102B0000FC0400200005002004050020080500202A
:102B10000C050020180500208F4800F00FFD03462B
:102B200087F88F3900F092FD034687F88F3997F8C0
:102B30008F39002BF0D1894B00221A60884B1B681B
:102B4000012B05D18748FFF79BFB854B00221A60BC
:102B5000854B1B68002B06D03B1D1846FFF72AFE4D
:102B6000814B00221A60814B1B68002B06D03B1D55
:102B70001846FEF783FD7D4B00221A607C4B1B68D4
:102B8000002B17D000F054FD034687F88F393B1D0A
:102B900078491846FEF7C4FB00F058FD034687F855
:102BA0008F39754B00221A60744B00221A60704BEB
:102BB00000221A60724B1B68002B16D000F038FD03
:102BC000034687F88F393B1D1846FFF74BFE00F090
:102BD0003DFD034687F88F39674B00221A60674B2B
:102BE00000221A60664B00221A60664B1B68002B9D
:102BF00043D0654B1B68002B16D101224FF40041D6
:102C0000624802F077FB01224FF48051604802F0E5
:102C100071FB00F01BFD034687F88F395A4B0122E8
:102C20001A60554B00221A60534B1B68052B24DD9C
:102C3000584B1B681846FDF7CBFF02463B1D11465B
:102C40001846FFF7D9F900224FF400414F4802F02F
:102C500051FB00224FF480514D4802F04BFB00F035
:102C6000E7FC034687F88F39464B00221A60464B33
:102C700000221A60484B01221A60474B1B68002B48
:102C80003CD0464B1B68002B14D101220821404840
:102C900002F030FB01220421414802F02BFB00F03E
:102CA000D5FC034687F88F393C4B01221A60334B21
:102CB00000221A60314B1B68052B1FDD354B1B684A
:102CC0001846FDF785FF02463B1D11461846FFF7E3
:102CD00013FD002208212E4802F00CFB00220421E3
:102CE0002F4802F007FB00F0A3FC034687F88F395A
:102CF000294B00221A60294B00221A60294B1B68BD
:102D0000002B24D000F094FC034687F88F39264B23
:102D10005B68254A23F0030353603B1D184600F00F
:102D2000B0FB214B5B6823F003031F4A43F0010310
:102D3000536000F08BFC034687F88F390E4B00225E
:102D40001A600E4B00221A60164B00221A603B1DBF
:102D50001846FEF70FFDBCE67C030020F8040020B7
:102D6000FC0400206404002000050020040500206D
:102D7000080500204C030020200500202805002025
:102D80000C050020100500201C050020001001404B
:102D9000000C01403005002014050020240500200F
:102DA00000080140180500200010024080B592B0D4
:102DB00000AF07F1200328220021184605F01CF877
:102DC00007F10C0300221A605A609A60DA601A61F7
:102DD0003B4600221A605A609A6001233B624FF41E
:102DE00080337B620023FB6307F12003184602F067
:102DF000B3FA0346002B01D000F03EFB0F23FB602B
:102E000001233B6100237B610023BB610023FB6145
:102E100007F10C030021184602F020FD0346002BA9
:102E200001D000F029FB02233B600023BB603B463E
:102E3000184602F0D3FE0346002B01D000F01CFB25
:102E400000224FF0C061002002F0C0FD00BF4837F3
:102E5000BD4680BD80B584B000AF3B1D00221A6026
:102E60005A609A60184B194A1A60174B00229A60F0
:102E7000154B00221A73144B00221A75124B4FF493
:102E80006022DA61104B00225A600F4B01221A6156
:102E90000D4801F0ADFB0346002B01D000F0ECFA29
:102EA00005237B600123BB600023FB603B1D1946AB
:102EB000054801F027FE0346002B01D000F0DCFAA4
:102EC00000BF1037BD4680BD4C03002000240140E8
:102ED00080B500AF174B184A1A60164B4FF4827238
:102EE0005A60144B00229A60124B0022DA60114B98
:102EF00000221A610F4B00225A610E4B4FF40072F0
:102F00009A610C4B1022DA610A4B00221A62094BBB
:102F100000225A62074B00229A62064B0A22DA62AA
:102F2000044802F05BFF0346002B01D000F0A4FA36
:102F300000BF80BD7C0300200038004080B58AB00F
:102F400000AF07F1180300221A605A609A60DA6035
:102F500007F1100300221A605A603B4600221A60F3
:102F60005A609A60DA60304B4FF080421A602E4B04
:102F700000225A602C4B00229A602B4B4FF6FF72B6
:102F8000DA60294B00221A61274B00229A612648F9
:102F900003F0A4FC0346002B01D000F06DFA4FF4BF
:102FA0008053BB6107F1180319461F4804F050F81D
:102FB0000346002B01D000F05FFA1B4803F038FDF8
:102FC0000346002B01D000F057FA00233B61002399
:102FD0007B6107F110031946134804F069FB0346AF
:102FE000002B01D000F048FA00233B6001237B60F6
:102FF0000023BB600023FB603B46042219460A48BD
:1030000003F08AFF0346002B01D000F035FA0421BB
:10301000054803F065FD0346002B01D000F02CFAB3
:1030200000BF2837BD4680BDD403002080B582B0E4
:1030300000AF3B4600221A605A60194B194A1A60C9
:10304000174B45F6BF525A60154B00229A60144B3D
:103050004FF47A72DA60124B00229A61104803F042
:103060003DFC0346002B01D000F006FA00233B6034
:1030700000237B603B461946094804F019FB0346D0
:10308000002B01D000F0F8F9054803F077FC034667
:10309000002B01D000F0F0F900BF0837BD4680BD1D
:1030A0001C0400200014004080B500AF114B124AF0
:1030B0001A60104B4FF416525A600E4B00229A6061
:1030C0000C4B0022DA600B4B00221A61094B0C22D8
:1030D0005A61084B00229A61064B0022DA610548CA
:1030E00004F05EFB0346002B01D000F0C5F900BFE1
:1030F00080BD00BF640400200038014080B500AFEF
:10310000114B124A1A60104B4FF4E1325A600E4BC9
:1031100000229A600C4B0022DA600B4B00221A61ED
:10312000094B0C225A61084B00229A61064B00227F
:10313000DA61054804F034FB0346002B01D000F0AF
:103140009BF900BF80BD00BFAC04002000480040D8
:1031500080B588B000AF07F1100300221A605A60F2
:103160009A60DA60444B9B69434A43F010039361D1
:10317000414B9B6903F01003FB60FB683E4B9B696E
:103180003D4A43F0200393613B4B9B6903F02003CE
:10319000BB60BB68384B9B69374A43F004039361BB
:1031A000354B9B6903F004037B607B68324B9B6962
:1031B000314A43F0080393612F4B9B6903F00803E6
:1031C0003B603B6800224FF460412C4802F092F8CB
:1031D00000220C212A4802F08DF8002241F2FC3135
:1031E000284802F087F84FF460433B6101237B617C
:1031F0000023BB610223FB6107F1100319461F483E
:1032000001F0F4FE0C233B6101237B610023BB61D1
:103210000223FB6107F110031946194801F0E6FE8D
:1032200002233B6100237B610023BB6107F1100394
:103230001946144801F0DAFE41F2FC333B610123E8
:103240007B610023BB610223FB6107F11003194678
:103250000C4801F0CBFE4FF480733B6102237B618D
:103260000223FB6107F110031946054801F0BEFE79
:1032700000BF2037BD4680BD001002400010014055
:1032800000080140000C014080B582B000AF7860BA
:103290007B681B68624A934201D101F069F97B683F
:1032A0001B68604A934240F0B6805F4B1B685F4AE0
:1032B00013605D4B00221A6080215D4802F032F8F5
:1032C0005C4B1B6801335B4A13605B4B1B68012B33
:1032D00004D15A4B1B680133584A1360584B1B6882
:1032E000012B04D1574B1B680133564A1360514BD5
:1032F0001968554B83FB01235A10CB17D21A13467A
:103300005B0013449B00CA1A002A02D14F4B0122D2
:103310001A60484B1A684E4B83FB02139911D3175E
:10332000CB1A4FF4167101FB03F3D31A002B02D111
:10333000484B01221A603F4B1A68454B83FB02132E
:103340009911D317CB1A4FF4167101FB03F3D31A5B
:10335000002B02D1404B01221A60364B1A683F4BBA
:1033600083FB021313445911D317C91A0B461B01CF
:103370005B1A9B00D11A002902D1394B01221A6035
:103380002C4B1A68354B83FB021313445911D31786
:10339000C91A0B461B015B1A9B00D11A002902D1E6
:1033A000304B01221A60234B1A682C4B83FB02130B
:1033B00013441911D317C91A0B461B015B1A5B0082
:1033C000D11A002902D1284B01221A60194B196821
:1033D000264B83FB0123DA10CB17D21A13469B002E
:1033E00013449B00CA1A002A02D1214B01221A6001
:1033F000104B1A68194B83FB021313445911D3174E
:10340000C91A0B461B015B1A9B00D11A002902D175
:10341000184B01221A6000BF0837BD4680BD00BFAF
:1034200000100040001400402C0500203005002052
:10343000000C0140F40400201C05002020050020A1
:103440002405002028050020ABAAAA2AFC0400209D
:10345000B5814E1B0005002004050020898888885E
:10346000080500200C050020100500206766666630
:1034700018050020F804002080B400AF72B600BF29
:10348000FEE790B59BB000AF7860002387F863300B
:1034900001237B660023A7F860304FF00003BB6177
:1034A00007F1080310220021184604F0A5FC772339
:1034B0003B8107F118031846FDF780FE034687F8A5
:1034C000633097F86330002B02D000237B6630E036
:1034D000BB69C7F80A300623A7F86030B7F8602048
:1034E00007F1080311461846FEF7C2FA0346FB81AE
:1034F00007F1080307F1080108227868FEF768FD64
:1035000007F11C0407F108030FCB84E80F0007F153
:103510001C031021184600F085FA034687F85F3037
:10352000642001F041F897F85F30002B01D00023B0
:103530007B667B6E18466C37BD4690BD80B584B007
:1035400000AF7860374A7B6813608021072000F065
:10355000F5F80346FB734FF47A7001F025F8072164
:103560006D2000F0EBF80346FB732F4800F094F950
:103570000346FB7359216E2000F0E0F80346FB730D
:1035800021216F2000F0DAF80346FB732C21702014
:1035900000F0D4F80346FB730D21722000F0CEF842
:1035A0000346FB7300F07CF80346FB730E213320C7
:1035B00000F0C4F80346FB730821362000F0BEF883
:1035C0000346FB736D21372000F0B8F80346FB7308
:1035D0005321382000F0B2F80346FB7388213920CC
:1035E00000F0ACF80346FB730821302000F0A6F889
:1035F00000F048F80346FB730421052000F09EF814
:103600000346FB730021062000F098F80346FB7385
:1036100000228021054801F06DFEFB7B1846103723
:10362000BD4680BD340500200040D943000C014058
:1036300080B582B000AF00210C2000F07FF8034677
:10364000FB71FB7918460837BD4680BD80B582B056
:1036500000AF01210C2000F071F80346FB71FB79EB
:1036600018460837BD4680BD80B582B000AF202126
:10367000712000F063F80346FB71FB7918460837A8
:10368000BD4680BD80B582B000AF2321712000F01F
:1036900055F80346FB71FB7918460837BD4680BDD7
:1036A00080B582B000AF1021342000F047F8034607
:1036B000FB71FB7918460837BD4680BD80B584B0E4
:1036C00000AF03463960FB7100224FF400511948E6
:1036D00001F010FEFB799BB21B02FB81FB891B0AE8
:1036E0009BB2DBB23B73144B186807F10C014FF42B
:1036F0007A73012202F0EEFB03467B73012000F097
:1037000053FF0D4B186807F10B014FF47A73012238
:1037100002F023FD03467B73FA7A3B681A7001229C
:103720004FF40051034801F0E5FD7B7B184610374C
:10373000BD4680BD001001403405002080B584B036
:1037400000AF03460A46FB711346BB718023FB732F
:1037500000224FF400511D4801F0CCFDFA79FB7BAB
:103760001343DBB21B021AB2BB791BB213431BB269
:10377000BB81BB891B0A9BB2DBB2BB72BB89DBB2CC
:103780007B72134B186807F10A014FF47A73012218
:1037900002F0A0FB0346FB72012000F005FF0C4B7A
:1037A000186807F109014FF47A73012202F092FBC5
:1037B0000346FB7201224FF40051044801F09AFDC8
:1037C000FB7A18461037BD4680BD00BF001001408F
:1037D0003405002080B586B000AF03463960FB7128
:1037E0001346BB718023FB7300224FF4005128481D
:1037F00001F080FDFA79FB7B1343DBB21B021AB2A6
:103800003B681B781BB213431BB2BB81BB891B0AED
:103810009BB2DBB2FB72BB89DBB2BB721D4B18687B
:1038200007F10B014FF47A73012202F053FB0346B8
:10383000FB75012000F0B8FE164B186807F10A016D
:103840004FF47A73012202F045FB0346FB75012316
:103850003B610EE00F4B18683B693A68D1184FF492
:103860007A73012202F036FB0346FB753B69013394
:103870003B61BB793A699A42ECDB01224FF400517B
:10388000034801F037FDFB7D18461837BD4680BD63
:10389000001001403405002090B587B000AF78607B
:1038A0005A4B7B6179695A48FDF79AFA0346796861
:1038B0001846FDF7E1F9034656491846FDF78EFB19
:1038C0000346002B01D0012300E00023FB7479693B
:1038D0004F48FDF785FA034679681846FDF7CCF99D
:1038E00003464D491846FDF77BFA03461846FDF797
:1038F00089FB0346DBB2A3F11801FA7C1346920060
:103900009B1ADB00CA18FB7C013392FBF3F3BB74F8
:1039100003237B747B7C1846FDF75AF9034619464E
:103920007869FDF75DFA03461C46FB7C01331846B7
:10393000FDF74EF9034619462046FDF79DF903466B
:1039400019467868FDF74CFA03461C46BB7C1846BE
:10395000FDF73EF9034619462046FDF783F8034676
:103960002E491846FDF77EF803462D491846FDF707
:1039700083F903461846FDF745FB0346FB8197F99B
:10398000123003F01F035BB243F040035AB2FB7CDA
:103990005B015BB203F020035BB213435BB2DBB2AB
:1039A00019467520FFF7CAFE03467B73FB891B0A85
:1039B0009BB2DBB219467620FFF7C0FE03467B734D
:1039C000FB89DBB219467720FFF7B8FE03467B730D
:1039D00000217320FFF7B2FE03467B7300217420A1
:1039E000FFF7ACFE03467B7300217A20FFF7A6FEAB
:1039F00003467B7300217920FFF7A0FE03467B730B
:103A00007B7B18461C37BD4690BD00BF0000D041EF
:103A10000000F0410000F043000020410000C041E0
:103A200000007A4780B584B000AF78600B46FB7029
:103A30000023FB60FB7819463E20FFF77FFE03461C
:103A4000FB72FB781A4679687F20FFF7C3FE0346B6
:103A5000FB7207F10A0319460320FFF72FFE034606
:103A6000FB7207F10A0319460420FFF727FE0346FD
:103A7000FB7200224FF48071184801F03BFC0821D2
:103A80000720FFF75BFE0346FB720023BB720AE0D0
:103A900007F10A0319460320FFF710FE0346FB72E5
:103AA000FB680133FB60BB7A03F00403002B02D1F7
:103AB000FB68312BECDD01224FF48071074801F0E7
:103AC00019FC07F10A0319460420FFF7F7FD034626
:103AD000FB72FB7A18461037BD4680BD000C0140D2
:103AE00080B582B000AF78607B681A46082178689C
:103AF00000F056F800BF0837BD4680BD80B487B0DF
:103B000000AFF860B9607A60BB687B6107E07B69F1
:103B1000FA68134400221A707B6901337B617A6969
:103B20007B689A42F3DB00BF00BF1C37BD4680BCF8
:103B3000704780B487B000AFF860B9607A603B60CE
:103B400000237B610AE07B69BA681A447B693968A3
:103B50000B4412781A707B6901337B617A697B6848
:103B60009A42F0DB00237B6111E07B69C3F107021D
:103B7000FB68203253F822107A697B6813441A4696
:103B80003B681344CAB21A707B6901337B617B695D
:103B9000072BEADD00BF00BF1C37BD4680BC704765
:103BA00080B5ADF6180D00AF07F61803A3F60C03A9
:103BB000186007F61803A3F50163196007F61803E8
:103BC000A3F614031A6007F1140207F61803A3F60C
:103BD0000C0311461868FDF776FC07F61803A3F6E8
:103BE000040301221A600123C7F8143841E007F2E8
:103BF000144207F61803A3F60C0311461868FDF7E4
:103C000062FC07F61803A3F60C03D7F8141818681B
:103C1000FEF76CFA024607F61803A3F204431A6093
:103C200007F61803A3F2044301225A6007F11403B4
:103C300007F2144207F61801A1F6140107F618005E
:103C4000A0F60C0009680068FDF757FC07F618039A
:103C5000A3F6140207F1140107F61803A3F60C03E8
:103C600012681868FDF710FCD7F814380133C7F84C
:103C7000143807F61803A3F50163D7F814281B6856
:103C80009A42B4DD00BF00BF07F61807BD4680BDED
:103C900090B591B000AFF860B9607A603B600023E6
:103CA000FB6309E0FB6B9B0040333B44002243F87D
:103CB000302CFB6B0133FB63FB6B082BF2DD002325
:103CC000FB6335E0FB6BBA6813441B781A46FB6A4A
:103CD00053407B630723BB631BE0BB6B013B9B0033
:103CE00040333B4453F8304CFB68BA6B53F82230F6
:103CF0007A6B1946F868FEF754FA034684EA030221
:103D0000BB6B9B0040333B4443F8302CBB6B013B07
:103D1000BB63BB6B002BE0DCFB681B687A6B19464E
:103D2000F868FEF73EFA03463B61FB6B0133FB6329
:103D3000FA6B7B689A42C5DB0023FB630DE0FB6BEB
:103D40009B0040333B4453F8301CFB68FA6B203235
:103D500043F82210FB6B0133FB63FB6B072BEEDD9B
:103D60003B687A68B968F868FFF7E3FE00BF44373C
:103D7000BD4690BD80B485B000AF154B9B69144A19
:103D800043F001039361124B9B6903F00103BB6095
:103D9000BB680F4BDB690E4A43F08053D3610C4B79
:103DA000DB6903F080537B607B680A4B5B68FB60D8
:103DB000FB6823F0E063FB60FB6843F00073FB608B
:103DC000044AFB68536000BF1437BD4680BC70478F
:103DD000001002400000014080B588B000AF78605C
:103DE00007F1100300221A605A609A60DA607B685B
:103DF0001B68144A934221D1134B9B69124A43F426
:103E000000739361104B9B6903F40073FB60FB68C4
:103E10000D4B9B690C4A43F0040393610A4B9B6969
:103E200003F00403BB60BB6820233B6103237B6179
:103E300007F110031946054801F0D8F800BF2037F4
:103E4000BD4680BD00240140001002400008014032
:103E500080B588B000AF786007F1100300221A60C7
:103E60005A609A60DA607B681B681C4A934231D1C1
:103E70001B4BDB691A4A43F48043D361184BDB695F
:103E800003F48043FB60FB68154B9B69144A43F0C5
:103E900008039361124B9B6903F00803BB60BB6886
:103EA0004FF420433B6102237B610323FB6107F155
:103EB000100319460B4801F099F84FF480433B6119
:103EC00000237B610023BB6107F1100319460548FD
:103ED00001F08CF800BF2037BD4680BD003800409F
:103EE00000100240000C014080B58AB000AF78603D
:103EF00007F1180300221A605A609A60DA607B6842
:103F00001B68B3F1804F2CD1244BDB69234A43F06B
:103F10000103D361214BDB6903F001037B617B6902
:103F20001E4B9B691D4A43F0040393611B4B9B6925
:103F300003F004033B613B690223BB610023FB6187
:103F400000233B6207F118031946154801F04EF8AB
:103F5000002200211C2001F01EF81C2001F037F87F
:103F600018E07B681B680F4A934213D10B4BDB6947
:103F70000A4A43F02003D361084BDB6903F02003B6
:103F8000FB60FB6800220021372001F004F8372095
:103F900001F01DF800BF2837BD4680BD001002406B
:103FA000000801400014004080B58AB000AF78607E
:103FB00007F1180300221A605A609A60DA607B6881
:103FC0001B68384A934232D1374B9B69364A43F4D7
:103FD00080439361344B9B6903F480437B617B692D
:103FE000314B9B69304A43F0040393612E4B9B692C
:103FF00003F004033B613B694FF40073BB61022390
:10400000FB6103237B6207F118031946274800F080
:10401000EDFF4FF48063BB610023FB6100233B6233
:1040200007F118031946214800F0E0FF36E07B68ED
:104030001B681F4A934231D11B4BDB691A4A43F478
:104040008023D361184BDB6903F48023FB60FB689A
:10405000154B9B69144A43F008039361124B9B690B
:1040600003F00803BB60BB684FF48063BB610223AD
:10407000FB6103237B6207F1180319460D4800F02A
:10408000B5FF4FF40063BB610023FB6100233B627B
:1040900007F118031946074800F0A8FF00BF2837AA
:1040A000BD4680BD003801400010024000080140BC
:1040B00000480040000C014080B58EB000AF786031
:1040C0000023FB620023BB62002387F83330344BAC
:1040D000DB69334A43F01003D361314BDB6903F0F2
:1040E0001003FB60FB6807F1100207F1140311468F
:1040F000184601F029FD3B6AFB62FB6A002B03D1E5
:1041000001F0FAFC786304E001F0F6FC03465B0082
:104110007B637B6B234AA2FB03239B0C013BBB62AB
:10412000214B224A1A60204B40F2E732DA601E4AE5
:10413000BB6A53601C4B00221A611B4B00229A6021
:10414000194B00229A61184802F0C8FB034687F811
:10415000333097F83330002B1BD1134802F00EFC9C
:10416000034687F8333097F83330002B11D13620CF
:1041700000F02DFF7B680F2B08D8002279683620CD
:1041800000F009FF0A4A7B68136002E0012387F808
:10419000333097F8333018463837BD4680BD00BFFE
:1041A0000010024083DE1B43380500200010004051
:1041B0000800002080B400AFFEE780B400AFFEE747
:1041C00080B400AFFEE780B400AFFEE780B400AF7C
:1041D000FEE780B400AF00BFBD4680BC704780B42E
:1041E00000AF00BFBD4680BC704780B400AF00BFC9
:1041F000BD4680BC704780B400AF00BFBD4680BCE8
:104200007047000080B500AF024802F07DFD00BF9E
:1042100080BD00BFD403002080B500AF024802F08B
:1042200073FD00BF80BD00BF3805002080B500AF22
:10423000024802F069FD00BF80BD00BF1C040020E1
:1042400080B400AF00BFBD4680BC704780B487B06B
:1042500000AF78600B467B8000233B7300237B73A9
:1042600000237B610FE03A7B7B6979680B441B7804
:104270001344DBB23B737A7B3B7B1344DBB27B732F
:104280007B6901337B617B887A699A42EBDBBB896E
:104290003B8200233A7C62F307037A7C62F30F23AC
:1042A00018461C37BD4680BC704780B59AB002AF37
:1042B0007860002387F85F30FF23FB7307F1280342
:1042C0002C220021184603F097FDB52387F82830EB
:1042D000622387F82930062387F82A30242387F8B9
:1042E0002B302423BB8540F2FF33FB85062387F860
:1042F0003030022387F8313000237B860023BB86D1
:10430000002343F41C5343F01003FB8600233B8738
:10431000052387F83A30002387F83B306423BB87B6
:104320006423FB876423A7F84030C823A7F84230F2
:10433000002387F84430022387F845300023A7F88C
:1043400046300023A7F848300023A7F84A3000235E
:10435000A7F84C300023A7F84E300023A7F85030C0
:1043600007F12803023328211846FFF76FFF0346A1
:10437000A7F8523097F828303B7497F829307B74AF
:104380000523BB740123FB7402233B7500237B755B
:1043900097F82A30BB7597F82B30FB7532233B76A4
:1043A0005B237B7607F10F014FF47A730122786863
:1043B00003F046FA034687F857304FF47A7000F05E
:1043C000F3F897F85730002B03D0012387F85F30BC
:1043D00043E007F128014FF47A732C22786803F048
:1043E0002FFA034687F8573097F85730002B03D041
:1043F000012387F85F3030E007F11A0307F11C0151
:1044000040F6B83200920A22786803F09CFA03461C
:1044100087F857307B8B0A2B03D0012387F85F3056
:104420001BE097F85730002B17D10023BB6511E034
:1044300007F11C02BB6D13441A7807F11001BB6D24
:104440000B441B789A4202D0012387F85F30BB6D82
:104450000133BB65BB6D092BEAD997F85F3018466D
:104460006037BD4680BD000080B58AB000AF78607F
:10447000002387F82730244A07F1180392E8030045
:10448000186004331970B5233B7362237B730623D2
:10449000BB730123FB7303233B82F023BB74002314
:1044A0003B7500233B6226E007F118023B6A134488
:1044B0001B78FB7407F10C03023307211846FFF742
:1044C000C5FE03461BB21A467A75C3F30723BB75B4
:1044D00007F10C014FF47A730B22786803F0B0F9FE
:1044E0000346FB77FB7F002B02D0012387F82730A0
:1044F0003B6A01333B623B6A042BD5D997F82730DE
:1045000018462837BD4680BD58810008FFF798FE41
:104510000B480C490C4A002302E0D458C450043321
:10452000C4188C42F9D3094A094C002301E01360F6
:104530000432A242FBD303F02DFCFEF70DFA7047C4
:104540000000002010000020A8FD0008100000203E
:1045500084050020FEE780B500AF032000F010FDC9
:104560000F20FFF7A9FDFFF705FC0023184680BDCB
:1045700080B400AF054B1B781A46054B1B681344EB
:10458000034A136000BFBD4680BC70470C0000208A
:104590008005002080B400AF024B1B681846BD4662
:1045A00080BC70478005002080B584B000AF786083
:1045B000FFF7F0FFB8607B68FB60FB68B3F1FF3F7B
:1045C00005D00A4B1B781A46FB681344FB6000BFFA
:1045D000FFF7E0FF0246BB68D31AFA689A42F7D8A1
:1045E00000BF00BF1037BD4680BD00BF0C000020DB
:1045F00080B586B000AF78600023FB7500233B6177
:104600000023BB600023FB607B68002B01D10123EA
:10461000BEE07B689B68002B7B689B6A002B09D1FE
:104620007B680022DA627B68002283F824207868A5
:10463000FFF7D2FB786800F0B7FB0346FB757B6899
:104640009B6A03F01003002B40F09980FB7D002B48
:1046500040F095807B689B6A23F4885323F0020323
:1046600043F002027B689A627B685A687B68DB6968
:104670001A437B681B7B5B001343BA681343BB6020
:104680007B689B68B3F5807F03D07B689B68012BB8
:1046900002D14FF4807300E000233A6913433B6179
:1046A0007B681B7D012B19D17B681B7B002B09D1FB
:1046B0007B689B69013B5A033B69134343F40063E6
:1046C0003B610BE07B689B6A43F020027B689A6247
:1046D0007B68DB6A43F001027B68DA627B681B68F7
:1046E0005B6823F469417B681B683A690A435A6036
:1046F0007B681B689A68284B13407A681268B9680F
:104700000B4393607B689B68B3F5807F03D07B6825
:104710009B68012B04D17B681B69013B1B05FB6077
:104720007B681B68DB6A23F470017B681B68FA688E
:104730000A43DA627B681B689A68184B1340BA68B0
:104740009A420BD17B680022DA627B689B6A23F075
:10475000030343F001027B689A6218E07B689B6A5E
:1047600023F0120343F010027B689A627B68DB6AD5
:1047700043F001027B68DA620123FB7507E07B6886
:104780009B6A43F010027B689A620123FB75FB7DF4
:1047900018461837BD4680BDFDF7E1FFFE0E1FFF2E
:1047A00080B584B000AF78600023FB737B6893F81A
:1047B0002430012B01D1022362E07B68012283F8BF
:1047C0002420786800F096FA0346FB73FB7B002BED
:1047D00051D17B689B6A23F4407323F0010343F4B7
:1047E00080727B689A627B689B6A23F480127B6884
:1047F0009A627B681B685B6803F48063002B07D0B8
:104800007B689B6A23F4405343F480527B689A622E
:104810007B689B6A03F48053002B06D07B68DB6ABD
:1048200023F006027B68DA6202E07B680022DA622B
:104830007B68002283F824207B681B686FF00202EB
:104840001A607B681B689B6803F46023B3F5602FD4
:1048500008D17B681B689A687B681B6842F4A002D9
:104860009A600CE07B681B689A687B681B6842F45E
:1048700080129A6003E07B68002283F82420FB7B8F
:1048800018461037BD4680BD80B584B000AF786053
:104890000023FB737B6893F82430012B01D10223A2
:1048A0001AE07B68012283F82420786800F07CFA03
:1048B0000346FB73FB7B002B09D17B689B6A23F4C7
:1048C000885323F0010343F001027B689A627B68FE
:1048D000002283F82420FB7B18461037BD4680BD9C
:1048E00090B587B000AF7860396000237B6100230A
:1048F000FB6000233B61FFF74DFE78617B681B681E
:104900009B6803F48073002B0BD07B689B6A43F099
:1049100020027B689A627B68002283F824200123AE
:10492000D3E07B681B685B6803F48073002B31D194
:104930007B681B68DB6A03F47003002B2AD121E03B
:104940003B68B3F1FF3F1DD03B68002B07D0FFF75A
:1049500021FE02467B69D31A3A689A4212D27B68DA
:104960001B681B6803F00203002B0BD17B689B6A5A
:1049700043F004027B689A627B68002283F824205B
:104980000323A2E07B681B681B6803F00203002B73
:10499000D6D070E04F4B1C68022001F0C5F90346E9
:1049A000B4FBF3F27B681B6819694B4B0B40002B7F
:1049B00018D17B681B68D968484B0B40002B11D17C
:1049C0007B681B681969464B0B40002B08D17B683C
:1049D0001B68D968434B0B40002B01D1142320E006
:1049E00029231EE07B681B6819693D4B0B40002B97
:1049F00006D17B681B68D9683A4B0B40002B0DD061
:104A00007B681B681969384B0B40002B08D17B6809
:104A10001B68D968344B0B40002B01D1542300E0B4
:104A2000FC2302FB03F33B6121E03B68B3F1FF3F52
:104A30001AD03B68002B07D0FFF7ACFD02467B691C
:104A4000D31A3A689A420FD2FB683A699A420BD954
:104A50007B689B6A43F004027B689A627B68002251
:104A600083F82420032330E0FB680133FB60FB68FC
:104A70003A699A42D9D87B681B686FF012021A60B3
:104A80007B689B6A43F400727B689A627B681B6850
:104A90009B6803F46023B3F5602F15D17B681B7B03
:104AA000002B11D17B689B6A23F480727B689A6229
:104AB0007B689B6A03F48053002B05D17B689B6A5B
:104AC00043F001027B689A62002318461C37BD46FA
:104AD00090BD00BF04000020244992242449920084
:104AE00092244912922449004992240080B483B050
:104AF00000AF78607B681B68DB6C18460C37BD46DE
:104B000080BC704780B485B000AF78603960002306
:104B1000FB730023BB607B6893F82430012B01D129
:104B20000223DCE07B68012283F824203B685B6879
:104B3000062B1CD87B681B68596B3B685A68134668
:104B40009B001344053B1F2202FA03F3DB43194089
:104B50003B6818683B685A6813469B001344053B42
:104B600000FA03F27B681B680A435A633CE03B6827
:104B70005B680C2B1CD87B681B68196B3B685A68F8
:104B800013469B001344233B1F2202FA03F3DB432B
:104B900019403B6818683B685A6813469B001344E9
:104BA000233B00FA03F27B681B680A431A631BE08D
:104BB0007B681B68D96A3B685A6813469B0013449C
:104BC000413B1F2202FA03F3DB4319403B6818689C
:104BD0003B685A6813469B001344413B00FA03F2BA
:104BE0007B681B680A43DA623B681B68092B1CD987
:104BF0007B681B68D9683B681A6813465B001344DE
:104C00001E3B072202FA03F3DB4319403B68986816
:104C10003B681A6813465B0013441E3B00FA03F21C
:104C20007B681B680A43DA6019E07B681B681969B6
:104C30003B681A6813465B001344072202FA03F329
:104C4000DB4319403B6898683B681A6813465B0071
:104C5000134400FA03F27B681B680A431A613B683D
:104C60001B68102B03D03B681B68112B32D17B686B
:104C70001B681D4A934225D17B681B689B6803F41F
:104C80000003002B26D17B681B689A687B681B6831
:104C900042F400029A603B681B68102B1AD1134B38
:104CA0001B68134AA2FB03239A0C13469B00134470
:104CB0005B00BB6002E0BB68013BBB60BB68002BD4
:104CC000F9D107E07B689B6A43F020027B689A6217
:104CD0000123FB737B68002283F82420FB7B1846AA
:104CE0001437BD4680BC70470024014004000020FA
:104CF00083DE1B4380B584B000AF78600023FB6087
:104D00000023BB607B681B689B6803F00103012BD9
:104D100040D07B681B689A687B681B6842F0010280
:104D20009A601F4B1B681F4AA2FB03239B0CBB60AE
:104D300002E0BB68013BBB60BB68002BF9D1FFF709
:104D400029FCF8601FE0FFF725FC0246FB68D31A38
:104D5000022B18D97B681B689B6803F00103012BA9
:104D600011D07B689B6A43F010027B689A627B6873
:104D7000DB6A43F001027B68DA627B68002283F819
:104D80002420012307E07B681B689B6803F0010374
:104D9000012BD8D1002318461037BD4680BD00BF77
:104DA0000400002083DE1B4380B584B000AF786030
:104DB0000023FB607B681B689B6803F00103012BE9
:104DC0002ED17B681B689A687B681B6822F0010201
:104DD0009A60FFF7DFFBF8601BE0FFF7DBFB0246A2
:104DE000FB68D31A022B14D97B681B689B6803F0FD
:104DF0000103012B0DD17B689B6A43F010027B6895
:104E00009A627B68DB6A43F001027B68DA62012305
:104E100007E07B681B689B6803F00103012BDCD073
:104E2000002318461037BD4680BD000080B485B011
:104E300000AF78607B6803F00703FB600C4BDB6816
:104E4000BB60BA684FF6FF031340BB60FB681A02F1
:104E5000BB68134343F0BF6343F40033BB60044AB1
:104E6000BB68D36000BF1437BD4680BC704700BF2D
:104E700000ED00E080B400AF044BDB681B0A03F0D8
:104E800007031846BD4680BC704700BF00ED00E038
:104E900080B483B000AF0346FB7197F90730002B55
:104EA0000BDBFB7903F01F02064997F907305B091A
:104EB000012000FA02F241F8232000BF0C37BD4662
:104EC00080BC704700E100E080B483B000AF0346CF
:104ED0003960FB7197F90730002B0ADB3B68DAB2C7
:104EE0000C4997F907301201D2B20B4483F8002322
:104EF0000AE03B68DAB20849FB7903F00F03043B90
:104F00001201D2B20B441A7600BF0C37BD4680BCEA
:104F1000704700BF00E100E000ED00E080B489B020
:104F200000AFF860B9607A60FB6803F00703FB61CB
:104F3000FB69C3F10703042B28BF0423BB61FB6992
:104F40000433062B02D9FB69033B00E000237B619D
:104F50004FF0FF32BB6902FA03F3DA43BB681A4031
:104F60007B699A404FF0FF317B6901FA03F3D94323
:104F70007B680B40134318462437BD4680BC7047FE
:104F800080B582B000AF78607868FFF74FFF00BF50
:104F90000837BD4680BD80B586B000AF0346B96016
:104FA0007A60FB7300237B61FFF764FF78617A68A6
:104FB000B9687869FFF7B2FF024697F90F301146DA
:104FC0001846FFF781FF00BF1837BD4680BD80B58A
:104FD00082B000AF0346FB7197F907301846FFF720
:104FE00057FF00BF0837BD4680BD000080B48BB0BE
:104FF00000AF7860396000237B6200233B6269E187
:1050000001227B6A02FA03F3FB613B681B68FA69C1
:105010001340BB61BA69FB699A4240F058813B6812
:105020005B689A4A93425ED0984A934275D8984AF0
:10503000934258D0964A93426FD8964A934252D0A0
:10504000944A934269D8944A93424CD0924A9342EC
:1050500063D8924A934246D0904A93425DD8122B2D
:105060002AD8122B59D801A252F823F0E750000891
:10507000C1500008D3500008155100081B5100080A
:105080001B5100081B5100081B5100081B51000850
:105090001B5100081B5100081B5100081B51000840
:1050A0001B5100081B5100081B5100081B51000830
:1050B000C9500008DD500008794A934213D02CE013
:1050C0003B68DB683B6229E03B68DB6804333B629A
:1050D00024E03B68DB6808333B621FE03B68DB6829
:1050E0000C333B621AE03B689B68002B02D104231F
:1050F0003B6213E03B689B68012B05D108233B62B0
:105100007B68FA691A6109E008233B627B68FA69E7
:105110005A6103E000233B6200E000BFBB69FF2B44
:1051200001D87B6801E07B6804337B61BB69FF2B9E
:1051300002D87B6A9B0002E07B6A083B9B003B61D4
:105140007B691A680F213B6901FA03F3DB431A40BC
:10515000396A3B6901FA03F31A437B691A603B68B9
:105160005B6803F08053002B00F0B1804D4B9B69CE
:105170004C4A43F0010393614A4B9B6903F00103DE
:10518000BB60BB68484A7B6A9B08023352F82330F5
:10519000FB607B6A03F003039B000F2202FA03F318
:1051A000DB43FA681340FB607B68404A934213D0AC
:1051B0007B683F4A93420DD07B683E4A934207D0BA
:1051C0007B683D4A934201D1032306E0042304E0B7
:1051D000022302E0012300E000237A6A02F00302C6
:1051E00092009340FA681343FB602F497B6A9B0847
:1051F0000233FA6841F823203B685B6803F48013AC
:10520000002B06D02D4B9A682C49BB6913438B6049
:1052100006E02A4B9A68BB69DB43284913408B6040
:105220003B685B6803F40013002B06D0234BDA685D
:105230002249BB691343CB6006E0204BDA68BB69A7
:10524000DB431E491340CB603B685B6803F40033CB
:10525000002B06D0194B5A681849BB6913434B60A1
:1052600006E0164B5A68BB69DB43144913404B6098
:105270003B685B6803F48033002B21D00F4B1A6826
:105280000E49BB6913430B6021E000BF00003210E0
:105290000000311000002210000021100000121048
:1052A0000000111000100240000001400008014001
:1052B000000C0140001001400014014000040140B6
:1052C0000B4B1A68BB69DB43094913400B607B6ACF
:1052D00001337B623B681A687B6A22FA03F3002B76
:1052E0007FF48EAE00BF00BF2C37BD4680BC704738
:1052F0000004014080B483B000AF78600B467B802F
:1053000013467B707B78002B03D07A887B681A6108
:1053100003E07B881A047B681A6100BF0C37BD4626
:1053200080BC704780B485B000AF78600B467B804E
:105330007B68DB68FB607A88FB6813401A04FB68B3
:10534000D9437B880B401A437B681A6100BF14372E
:10535000BD4680BC7047000080B586B000AF786065
:105360007B68002B01D1012372E27B681B6803F08C
:105370000103002B00F08780924B5B6803F00C0365
:10538000042B0CD08F4B5B6803F00C03082B12D15D
:105390008C4B5B6803F48033B3F5803F0BD1894BB2
:1053A0001B6803F40033002B6CD07B685B68002B18
:1053B00068D101234CE27B685B68B3F5803F06D17E
:1053C000804B1B687F4A43F4803313602EE07B6878
:1053D0005B68002B0CD17B4B1B687A4A23F480332B
:1053E0001360784B1B68774A23F4802313601DE019
:1053F0007B685B68B3F5A02F0CD1724B1B68714AB8
:1054000043F4802313606F4B1B686E4A43F4803370
:1054100013600BE06B4B1B686A4A23F48033136004
:10542000684B1B68674A23F4802313607B685B68C2
:10543000002B13D0FFF7AEF8386108E0FFF7AAF8A9
:1054400002463B69D31A642B01D9032300E25D4B6A
:105450001B6803F40033002BF0D014E0FFF79AF838
:10546000386108E0FFF796F802463B69D31A642BCF
:1054700001D90323ECE1534B1B6803F40033002BE9
:10548000F0D100E000BF7B681B6803F00203002B33
:1054900063D04C4B5B6803F00C03002B0BD0494BE3
:1054A0005B6803F00C03082B1CD1464B5B6803F4CC
:1054B0008033002B16D1434B1B6803F00203002BF3
:1054C00005D07B681B69012B01D00123C0E13D4B56
:1054D0001B6823F0F8027B685B69DB0039491343E2
:1054E0000B603AE07B681B69002B20D0364B012211
:1054F0001A60FFF74FF8386108E0FFF74BF80246F3
:105500003B69D31A022B01D90323A1E12D4B1B6860
:1055100003F00203002BF0D02A4B1B6823F0F802A3
:105520007B685B69DB00274913430B6015E0264B62
:1055300000221A60FFF72EF8386108E0FFF72AF81A
:1055400002463B69D31A022B01D9032380E11D4B8C
:105550001B6803F00203002BF0D17B681B6803F08B
:105560000803002B3AD07B689B69002B19D0174B9E
:1055700001221A60FFF70EF8386108E0FFF70AF819
:1055800002463B69D31A022B01D9032360E10D4B7C
:105590005B6A03F00203002BF0D0012000F000FB57
:1055A0001CE00A4B00221A60FEF7F4FF38610FE09E
:1055B000FEF7F0FF02463B69D31A022B08D90323FA
:1055C00046E100BF00100240000042428004424217
:1055D000924B5B6A03F00203002BE9D17B681B68E6
:1055E00003F00403002B00F0A6800023FB758B4B17
:1055F000DB6903F08053002B0DD1884BDB69874AB0
:1056000043F08053D361854BDB6903F08053BB606B
:10561000BB680123FB75824B1B6803F48073002B6E
:1056200018D17F4B1B687E4A43F480731360FEF7EA
:10563000B1FF386108E0FEF7ADFF02463B69D31ABF
:10564000642B01D9032303E1754B1B6803F48073BA
:10565000002BF0D07B68DB68012B06D16F4B1B6AF7
:105660006E4A43F0010313622DE07B68DB68002B78
:105670000CD16A4B1B6A694A23F001031362674B22
:105680001B6A664A23F0040313621CE07B68DB6834
:10569000052B0CD1614B1B6A604A43F00403136273
:1056A0005E4B1B6A5D4A43F0010313620BE05B4BE8
:1056B0001B6A5A4A23F001031362584B1B6A574A6C
:1056C00023F0040313627B68DB68002B15D0FEF720
:1056D00061FF38610AE0FEF75DFF02463B69D31ABD
:1056E00041F28832934201D90323B1E04B4B1B6A4C
:1056F00003F00203002BEED014E0FEF74BFF3861FD
:105700000AE0FEF747FF02463B69D31A41F28832AE
:10571000934201D903239BE0404B1B6A03F0020331
:10572000002BEED1FB7D012B05D13C4BDB693B4AC5
:1057300023F08053D3617B68DB69002B00F0878006
:10574000364B5B6803F00C03082B61D07B68DB6988
:10575000022B46D1334B00221A60FEF71BFF386143
:1057600008E0FEF717FF02463B69D31A022B01D966
:1057700003236DE0294B1B6803F00073002BF0D16D
:105780007B681B6AB3F5803F08D1244BDB6A23F0AA
:105790000F027B689B6821491343CB621F4B5B68F8
:1057A00023F474127B68196A7B685B6A0B431B499C
:1057B00013434B601B4B01221A60FEF7EBFE38616E
:1057C00008E0FEF7E7FE02463B69D31A022B01D937
:1057D00003233DE0114B1B6803F00073002BF0D056
:1057E00035E0104B00221A60FEF7D4FE386108E065
:1057F000FEF7D0FE02463B69D31A022B01D90323E0
:1058000026E0064B1B6803F00073002BF0D11EE06E
:105810007B68DB69012B07D1012319E000100240EE
:1058200000700040600042420B4B5B68FB60FB680D
:1058300003F480327B681B6A9A4206D1FB6803F44A
:1058400070127B685B6A9A4201D0012300E000235A
:1058500018461837BD4680BD0010024080B584B0A0
:1058600000AF786039607B68002B01D10123A0E094
:105870007B681B6803F00203002B20D07B681B6849
:1058800003F00403002B05D04C4B5B684B4A43F4F8
:10589000E06353607B681B6803F00803002B05D0AE
:1058A000464B5B68454A43F460535360434B5B6827
:1058B00023F0F0027B689B68404913434B607B6890
:1058C0001B6803F00103002B40D07B685B68012B51
:1058D00007D13A4B1B6803F40033002B15D1012389
:1058E00067E07B685B68022B07D1344B1B6803F0D1
:1058F0000073002B09D101235BE0304B1B6803F0E0
:105900000203002B01D1012353E02C4B5B6823F0F1
:1059100003027B685B68294913434B60FEF73AFE3C
:10592000F8600AE0FEF736FE0246FB68D31A41F241
:105930008832934201D903233BE0204B5B6803F09C
:105940000C027B685B689B009A42EBD17B681B680A
:1059500003F00403002B08D0184B5B6823F4E062CB
:105960007B68DB68154913434B607B681B6803F059
:105970000803002B09D0114B5B6823F460527B684D
:105980001B69DB000D4913434B6000F057F80246DA
:105990000A4B5B681B0903F00F030949CB5C22FA31
:1059A00003F3084A1360084B1B681846FEF784FB94
:1059B000002318461037BD4680BD00BF00100240CE
:1059C00068FD0008040000200800002080B58AB0AF
:1059D00000AFF860B9607A6007F1180300221A601E
:1059E0005A609A60DA600223FB6103237B62002322
:1059F0003B624FF48073BB610E4B9B690D4A43F0D1
:105A0000040393610B4B9B6903F004037B617B6987
:105A100007F1180319460848FFF7E8FA054B5B68D9
:105A200023F0E0620349BB6813434B6000BF283793
:105A3000BD4680BD001002400008014080B487B020
:105A400000AF0023FB600023BB6000237B610023C9
:105A50007B6000233B611D4B5B68FB60FB6803F0D0
:105A60000C03042B02D0082B03D026E0184B3B611B
:105A700026E0FB689B0C03F00F03164AD35C7B60A7
:105A8000FB6803F48033002B0FD0104BDB6A03F06C
:105A90000F03114AD35CBB607B680D4A03FB02F223
:105AA000BB68B2FBF3F37B6104E07B680B4A02FB4B
:105AB00003F37B617B693B6102E0094B3B6100BF03
:105AC0003B6918461C37BD4680BC70470010024039
:105AD00000366E0180FD000890FD000800093D00C1
