:020000040800F2
:1000000000200020CD3D0008893A00088F3A000802
:10001000953A00089B3A0008A13A00080000000049
:10002000000000000000000000000000A73A0008E7
:10003000B33A000800000000BF3A0008CB3A0008BD
:10004000153E0008153E0008153E0008153E000844
:10005000153E0008153E0008153E0008153E000834
:10006000153E0008153E0008153E0008153E000824
:10007000153E0008153E0008153E0008153E000814
:10008000153E0008153E0008153E0008000000005F
:10009000000000000000000000000000153E000805
:1000A000153E0008153E0008153E0008153E0008E4
:1000B000D93A0008153E0008153E0008153E000814
:1000C000153E00080000000000000000153E00087A
:1000D000153E0008153E0008153E0008153E0008B4
:1000E000153E0008153E0008153E000800000000FF
:1000F0000000000000000000000000000000000000
:1001000000000000000000000000000000000000EF
:100110000000000000000000ED3A0008153E000855
:1001200000000000000000000000000000000000CF
:1001300000000000000000000000000000000000BF
:1001400000000000000000000000000000000000AF
:10015000000000000000000000000000000000009F
:10016000000000000000000000000000000000008F
:10017000000000000000000000000000000000007F
:10018000000000000000000000000000000000006F
:10019000000000000000000000000000000000005F
:1001A000000000000000000000000000000000004F
:1001B000000000000000000000000000000000003F
:1001C0000000000000000000000000005FF808F1DF
:1001D00010B5054C237833B9044B13B10448AFF381
:1001E00000800123237010BD2800002000000000C3
:1001F000CC70000808B5034B1BB103490348AFF3AB
:10020000008008BD000000002C000020CC70000819
:10021000034613F8012B002AFBD1181A0138704746
:1002200081F0004102E000BF83F0004330B54FEAA7
:1002300041044FEA430594EA050F08BF90EA020F14
:100240001FBF54EA000C55EA020C7FEA645C7FEAA7
:10025000655C00F0E2804FEA5454D4EB5555B8BFCA
:100260006D420CDD2C4480EA020281EA030382EA3B
:10027000000083EA010180EA020281EA0303362DCD
:1002800088BF30BD11F0004F4FEA01314FF4801CA0
:100290004CEA113102D0404261EB410113F0004FB2
:1002A0004FEA03334CEA133302D0524263EB430369
:1002B00094EA050F00F0A780A4F10104D5F1200E07
:1002C0000DDB02FA0EFC22FA05F2801841F1000162
:1002D00003FA0EF2801843FA05F359410EE0A5F136
:1002E00020050EF1200E012A03FA0EFC28BF4CF067
:1002F000020C43FA05F3C01851EBE37101F000451D
:1003000007D54FF0000EDCF1000C7EEB00006EEB29
:100310000101B1F5801F1BD3B1F5001F0CD34908B3
:100320005FEA30004FEA3C0C04F101044FEA44520A
:1003300012F5800F80F09A80BCF1004F08BF5FEA91
:10034000500C50F1000041EB045141EA050130BD71
:100350005FEA4C0C404141EB0101013C28BFB1F583
:10036000801FE9D291F0000F04BF01460020B1FACE
:1003700081F308BF2033A3F10B03B3F120020CDAA1
:100380000C3208DD02F1140CC2F10C0201FA0CF07F
:1003900021FA02F10CE002F11402D8BFC2F1200CE4
:1003A00001FA02F120FA0CFCDCBF41EA0C0190409A
:1003B000E41AA2BF01EB0451294330BD6FEA0404E3
:1003C0001F3C1CDA0C340EDC04F11404C4F12002CE
:1003D00020FA04F001FA02F340EA030021FA04F3E0
:1003E00045EA030130BDC4F10C04C4F1200220FA37
:1003F00002F001FA04F340EA0300294630BD21FA75
:1004000004F0294630BD94F0000F83F4801306BF3A
:1004100081F480110134013D4EE77FEA645C18BF2E
:100420007FEA655C29D094EA050F08BF90EA020FC5
:1004300005D054EA000C04BF1946104630BD91EABD
:10044000030F1EBF0021002030BD5FEA545C05D1C0
:100450004000494128BF41F0004130BD14F58004FF
:100460003CBF01F5801130BD01F0004545F0FE4173
:1004700041F470014FF0000030BD7FEA645C1ABFA8
:10048000194610467FEA655C1CBF0B46024650EADF
:10049000013406BF52EA033591EA030F41F400210B
:1004A00030BD00BF90F0000F04BF0021704730B591
:1004B0004FF4806404F132044FF000054FF0000166
:1004C00050E700BF90F0000F04BF0021704730B527
:1004D0004FF4806404F1320410F0004548BF4042FC
:1004E0004FF000013EE700BF42004FEAE2014FEA51
:1004F00031014FEA02701FBF12F07F4393F07F4F2C
:1005000081F06051704732F07F4208BF704793F02E
:100510007F4F04BF41F40021704730B54FF4607441
:1005200001F0004521F000411CE700BF50EA010244
:1005300008BF704730B54FF000050AE050EA0102ED
:1005400008BF704730B511F0004502D5404261EB5D
:1005500041014FF4806404F132045FEA915C3FF49E
:10056000D8AE4FF003025FEADC0C18BF03325FEA3B
:10057000DC0C18BF033202EBDC02C2F1200300FAEC
:1005800003FC20FA02F001FA03FE40EA0E0021FA11
:1005900002F11444BDE600BF70B54FF0FF0C4CF4FF
:1005A000E06C1CEA11541DBF1CEA135594EA0C0FB1
:1005B00095EA0C0F00F0DEF82C4481EA030621EAEC
:1005C0004C5123EA4C5350EA013518BF52EA033527
:1005D00041F4801143F4801338D0A0FB02CE4FF0D9
:1005E0000005E1FB02E506F00042E0FB03E54FF009
:1005F0000006E1FB03569CF0000F18BF4EF0010E01
:10060000A4F1FF04B6F5007F64F5407404D25FEAFC
:100610004E0E6D4146EB060642EAC62141EA5551AF
:100620004FEAC52040EA5E504FEACE2EB4F1FD0CF1
:1006300088BFBCF5E06F1ED8BEF1004F08BF5FEA6F
:10064000500E50F1000041EB045170BD06F0004621
:1006500046EA010140EA020081EA0301B4EB5C04CE
:10066000C2BFD4EB0C0541EA045170BD41F48011C6
:100670004FF0000E013C00F3AB8014F1360FDEBFEB
:10068000002001F0004170BDC4F10004203C35DAC7
:100690000C341BDC04F11404C4F1200500FA05F34A
:1006A00020FA04F001FA05F240EA020001F00042EB
:1006B00021F0004110EBD37021FA04F642EB060161
:1006C0005EEA430E08BF20EAD37070BDC4F10C048B
:1006D000C4F1200500FA04F320FA05F001FA04F24F
:1006E00040EA020001F0004110EBD37041F100013B
:1006F0005EEA430E08BF20EAD37070BDC4F1200546
:1007000000FA05F24EEA020E20FA04F301FA05F2AD
:1007100043EA020321FA04F001F0004121FA04F255
:1007200020EA020000EBD3705EEA430E08BF20EA25
:10073000D37070BD94F0000F0FD101F0004640005F
:1007400041EB010111F4801F08BF013CF7D041EAE1
:10075000060195F0000F18BF704703F000465200E5
:1007600043EB030313F4801F08BF013DF7D043EAB6
:100770000603704794EA0C0F0CEA135518BF95EA6C
:100780000C0F0CD050EA410618BF52EA4306D1D1F3
:1007900081EA030101F000414FF0000070BD50EA12
:1007A000410606BF1046194652EA430619D094EA9C
:1007B0000C0F02D150EA013613D195EA0C0F05D186
:1007C00052EA03361CBF104619460AD181EA0301DA
:1007D00001F0004141F0FE4141F470014FF0000092
:1007E00070BD41F0FE4141F4780170BD70B54FF02D
:1007F000FF0C4CF4E06C1CEA11541DBF1CEA1355AD
:1008000094EA0C0F95EA0C0F00F0A7F8A4EB05048E
:1008100081EA030E52EA03354FEA013100F0888085
:100820004FEA03334FF0805545EA131343EA12634E
:100830004FEA022245EA111545EA10654FEA002603
:100840000EF000419D4208BF964244F1FD0404F5BC
:10085000407402D25B084FEA3202B61A65EB030518
:100860005B084FEA32024FF480104FF4002CB6EBD5
:10087000020E75EB030E22BFB61A754640EA0C0055
:100880005B084FEA3202B6EB020E75EB030E22BF95
:10089000B61A754640EA5C005B084FEA3202B6EBD6
:1008A000020E75EB030E22BFB61A754640EA9C0095
:1008B0005B084FEA3202B6EB020E75EB030E22BF65
:1008C000B61A754640EADC0055EA060E18D04FEA23
:1008D000051545EA16754FEA06164FEAC30343EAC3
:1008E00052734FEAC2025FEA1C1CC0D111F4801F90
:1008F0000BD141EA00014FF000004FF0004CB6E789
:1009000011F4801F04BF01430020B4F1FD0C88BF27
:10091000BCF5E06F3FF6AFAEB5EB030C04BFB6EB32
:10092000020C5FEA500C50F1000041EB045170BD25
:100930000EF0004E4EEA113114EB5C04C2BFD4EB52
:100940000C0541EA045170BD41F480114FF0000ED6
:10095000013C90E645EA060E8DE60CEA135594EA52
:100960000C0F08BF95EA0C0F3FF43BAF94EA0C0F55
:100970000AD150EA01347FF434AF95EA0C0F7FF4CA
:1009800025AF104619462CE795EA0C0F06D152EA1E
:1009900003353FF4FDAE1046194622E750EA410602
:1009A00018BF52EA43067FF4C5AE50EA41047FF413
:1009B0000DAF52EA43057FF4EBAE12E74FEA410276
:1009C000B2F1E04324BFB3F5001CDCF1FE5C0DD9AD
:1009D00001F0004C4FEAC0024CEA5070B2F1004FF7
:1009E00040EB830008BF20F00100704711F0804FFA
:1009F00021D113F13872BCBF01F00040704741F4BF
:100A000080114FEA5252C2F11802C2F1200C10FAC2
:100A10000CF320FA02F018BF40F001004FEAC123A6
:100A20004FEAD32303FA0CFC40EA0C0023FA02F34A
:100A30004FEA4303CCE77FEA625307D150EA013320
:100A40001EBF4FF0FE4040F44000704701F00040F0
:100A500040F0FE4040F40000704700BF80F00040CE
:100A600002E000BF81F0004142001FBF5FEA410386
:100A700092EA030F7FEA226C7FEA236C6AD04FEA86
:100A80001262D2EB1363C1BFD218414048404140CB
:100A9000B8BF5B42192B88BF704710F0004F40F47D
:100AA000000020F07F4018BF404211F0004F41F499
:100AB000000121F07F4118BF494292EA030F3FD065
:100AC000A2F1010241FA03FC10EB0C00C3F1200378
:100AD00001FA03F100F0004302D5494260EB400007
:100AE000B0F5000F13D3B0F1807F06D340084FEA72
:100AF000310102F10102FE2A51D2B1F1004F40EB67
:100B0000C25008BF20F0010040EA030070474900CE
:100B100040EB0000013A28BFB0F5000FEDD2B0FA6B
:100B200080FCACF1080CB2EB0C0200FA0CF0AABF8E
:100B300000EBC25052421843BCBFD040184370472C
:100B400092F0000F81F4000106BF80F40000013232
:100B5000013BB5E74FEA41037FEA226C18BF7FEA09
:100B6000236C21D092EA030F04D092F0000F08BF4B
:100B70000846704790EA010F1CBF0020704712F032
:100B80007F4F04D1400028BF40F00040704712F171
:100B900000723CBF00F50000704700F0004343F0D6
:100BA000FE4040F4000070477FEA226216BF08460C
:100BB0007FEA23630146420206BF5FEA412390EACF
:100BC000010F40F4800070474FF0000304E000BFC5
:100BD00010F0004348BF40425FEA000C08BF704776
:100BE00043F0964301464FF000001CE050EA01023A
:100BF00008BF70474FF000030AE000BF50EA01024F
:100C000008BF704711F0004302D5404261EB41013B
:100C10005FEA010C02BF84460146002043F0B64360
:100C200008BFA3F18053A3F50003BCFA8CF2083A85
:100C3000A3EBC25310DB01FA02FC634400FA02FC8E
:100C4000C2F12002BCF1004F20FA02F243EB020095
:100C500008BF20F00100704702F1200201FA02FCF7
:100C6000C2F1200250EA4C0021FA02F243EB0200EA
:100C700008BF20EADC7070474FF0FF0C1CEAD0522E
:100C80001EBF1CEAD15392EA0C0F93EA0C0F6FD0EF
:100C90001A4480EA010C400218BF5FEA41211ED0CD
:100CA0004FF0006343EA501043EA5111A0FB0131B9
:100CB0000CF00040B1F5000F3EBF490041EAD3718E
:100CC0005B0040EA010062F17F02FD2A1DD8B3F10A
:100CD000004F40EBC25008BF20F00100704790F079
:100CE000000F0CF0004C08BF49024CEA502040EACB
:100CF00051207F3AC2BFD2F1FF0340EAC250704791
:100D000040F400004FF00003013A5DDC12F1190FCE
:100D1000DCBF00F000407047C2F10002410021FA40
:100D200002F1C2F1200200FA02FC5FEA310040F158
:100D3000000053EA4C0308BF20EADC70704792F0D1
:100D4000000F00F0004C02BF400010F4000F013A09
:100D5000F9D040EA0C0093F0000F01F0004C02BF04
:100D6000490011F4000F013BF9D041EA0C018FE773
:100D70000CEAD15392EA0C0F18BF93EA0C0F0AD079
:100D800030F0004C18BF31F0004CD8D180EA01009F
:100D900000F00040704790F0000F17BF90F0004F38
:100DA000084691F0000F91F0004F14D092EA0C0F1A
:100DB00001D142020FD193EA0C0F03D14B0218BFAD
:100DC000084608D180EA010000F0004040F0FE40F3
:100DD00040F40000704740F0FE4040F4400070478F
:100DE0004FF0FF0C1CEAD0521EBF1CEAD15392EA0E
:100DF0000C0F93EA0C0F69D0A2EB030280EA010CFE
:100E000049024FEA402037D04FF0805343EA111196
:100E100043EA10130CF000408B4238BF5B0042F1F4
:100E20007D024FF4000C8B4224BF5B1A40EA0C0099
:100E3000B3EB510F24BFA3EB510340EA5C00B3EBCB
:100E4000910F24BFA3EB910340EA9C00B3EBD10FB9
:100E500024BFA3EBD10340EADC001B0118BF5FEA0B
:100E60001C1CE0D1FD2A3FF650AF8B4240EBC25034
:100E700008BF20F0010070470CF0004C4CEA5020F5
:100E80007F32C2BFD2F1FF0340EAC250704740F444
:100E900000004FF00003013A37E792F0000F00F036
:100EA000004C02BF400010F4000F013AF9D040EAB4
:100EB0000C0093F0000F01F0004C02BF490011F448
:100EC000000F013BF9D041EA0C0195E70CEAD15340
:100ED00092EA0C0F08D142027FF47DAF93EA0C0F27
:100EE0007FF470AF084676E793EA0C0F04D14B020B
:100EF0003FF44CAF08466EE730F0004C18BF31F0BD
:100F0000004CCAD130F000427FF45CAF31F00043B6
:100F10007FF43CAF5FE700BF4FF0FF3C06E000BF4F
:100F20004FF0010C02E000BF4FF0010C4DF804CD72
:100F30004FEA40024FEA41037FEA226C18BF7FEA82
:100F4000236C11D001B052EA530C18BF90EA010F84
:100F500058BFB2EB030088BFC81738BF6FEAE17013
:100F600018BF40F0010070477FEA226C02D15FEAAF
:100F7000402C05D17FEA236CE4D15FEA412CE1D01B
:100F80005DF8040B704700BF844608466146FFE7E2
:100F90000FB5FFF7C9FF002848BF10F1000F0FBDC4
:100FA0004DF808EDFFF7F4FF0CBF012000205DF8BD
:100FB00008FB00BF4DF808EDFFF7EAFF34BF012042
:100FC00000205DF808FB00BF4DF808EDFFF7E0FFDB
:100FD00094BF012000205DF808FB00BF4DF808ED2C
:100FE000FFF7D2FF94BF012000205DF808FB00BF8F
:100FF0004DF808EDFFF7C8FF34BF012000205DF871
:1010000008FB00BF42000ED2B2F1FE4F0BD34FF0EF
:101010009E03B3EB126209D44FEA002343F000436E
:1010200023FA02F070474FF00000704712F1610F91
:1010300001D1420202D14FF0FF3070474FF0000063
:10104000704700BF80B485B000AF78600023FB60BC
:1010500002E0FB680133FB60FA687B689A42F8DBC8
:1010600000BF00BF1437BD4680BC704780B5ADF5EA
:10107000227D00AF07F52273A3F5217318600023CA
:1010800087F88732002387F8773207F52273A3F5B4
:101090002073474A184611464FF413731A4605F059
:1010A000A3FF444A07F52273A3F521731B6813605D
:1010B0000023C7F880326CE00023C7F87C322BE0B5
:1010C000002204213C4803F075FD3A4B186807F1F3
:1010D0000801D7F880221346DB009B1AD7F87C2240
:1010E00013449B0019444FF47A73012204F05EFB11
:1010F000034687F8773297F87732002B02D0012326
:1011000087F88732012204212B4803F053FDD7F8DA
:101110007C320133C7F87C32D7F87C32062BCFDD26
:101120004FF49670FFF78EFF0023C7F8783224E063
:1011300000220421204803F03DFD1E4B186807F5EE
:101140001572D7F87832D1184FF47A73012204F06F
:1011500069FC034687F8773297F87732002B02D084
:10116000012387F8873201220421134803F022FD6E
:10117000D7F878320133C7F87832D7F87832202B95
:10118000D6DD322002F070FED7F880320133C7F886
:101190008032D7F88032142B8EDD4FF48C7002F041
:1011A00063FE97F88732184607F52277BD4680BD63
:1011B000E470000844000020000C014080B594B0A9
:1011C00000AF78603960002387F84F304FF000039C
:1011D000BB61504A07F1100392E803001860043322
:1011E00019704D4A07F1080392E8030018600433B0
:1011F000197001220421494803F0DCFC0023BB6480
:1012000021E000220421454803F0D4FC444B186837
:1012100007F11002BB6CD1184FF47A73012204F06D
:10122000C5FA034687F83F3097F83F30002B02D0CD
:10123000012387F84F3001220421384803F0BAFC1B
:10124000BB6C0133BB64BB6C042BDAD9C12002F048
:101250000BFE00237B6421E0002204212F4803F0D1
:10126000A9FC2F4B186807F108027B6CD1184FF4CA
:101270007A73012204F09AFA034687F83F3097F810
:101280003F30002B02D0012387F84F300122042188
:10129000224803F08FFC7B6C01337B647B6C042B56
:1012A000DAD940F21310FFF7CDFE00233B641AE0B9
:1012B00000220421194803F07DFC194B186807F13E
:1012C0001C023B6CD1184FF47A73012204F0AAFB84
:1012D000034687F83F3001220421104803F06AFCDE
:1012E0003B6C01333B643B6C202BE1DD3B7FFF2BF0
:1012F00003D1012387F84F3005E0D7F82F30BB61C9
:10130000BA693B681A6097F84F3018465037BD46A7
:1013100080BD00BF3073000838730008000C014026
:10132000440000200000000090B59BB000AF786042
:10133000396001237B660023A7F8623007F10803B8
:1013400010220021184605F05DFE386802F088FE84
:101350006421386802F024FF034687F8613097F86B
:101360006130002B4FD1386803F020F8F8653868F9
:1013700002F0EAFEF86DFFF727FC034640491846E5
:10138000FFF72EFD034619461846FFF76DFB03468F
:101390001846FFF7A9F836A3D3E90023FFF7FCF8B6
:1013A00002460B461046194633A3D3E90023FFF744
:1013B000F3F802460B4610461946FFF7FFFA0346BC
:1013C000BB653049B86DFFF74DFB0346BB652E4941
:1013D000B86DFFF751FC03461846FFF785F8024643
:1013E0000B461046194605F029FE4FF00002274B28
:1013F000FFF7FCF902460B4610461946FFF7DEFAE6
:101400000346C7F80A3088233B810623A7F86230D9
:10141000B7F8622007F108031146184600F02CFBCC
:101420000346FB8107F1080307F1080108227868E9
:1014300000F0D2FD07F1180407F108030FCB84E890
:101440000F0007F118031021184601F0B9FF0346F9
:1014500087F86130642002F007FD97F86130002BB7
:1014600001D000237B667B6E18466C37BD4690BD6D
:101470006666666666660A409A9999999999F13FF7
:1014800000F07F458FC2F53E00002041000024405F
:1014900080B487B000AFF860B9607A6000237B61E8
:1014A0000CE07B699B007A681A447B699B00B968F1
:1014B0000B4412681A607B6901337B617B690F2BD7
:1014C000EFDD00BF00BF1C37BD4680BC704780B455
:1014D00085B000AF786039600023FB6008E0FB68EE
:1014E0009B003A68134400221A60FB680133FB60DA
:1014F000FB680F2BF3DD00BF00BF1437BD4680BC77
:10150000704780B5A6B000AFF860B9607A603B6004
:101510000023C7F894300BE0D7F894309B00BA68EA
:10152000134400221A60D7F894300133C7F894307E
:10153000D7F894301F2BEFDD0023C7F8943096E0E6
:101540001023C7F890300CE0D7F890309B00983308
:101550003B44002243F8882CD7F890300133C7F879
:101560009030D7F890301F2BEEDD0023C7F8903075
:101570001CE0D7F890309B003A6813441968D7F8FC
:1015800094309B007A6813441B681A46F86800F090
:101590008FFD0246D7F890309B0098333B4443F8C8
:1015A000882CD7F890300133C7F89030D7F89030B6
:1015B0000F2BDEDD1F23C7F8903015E0D7F8902001
:1015C000D7F89430D31A9B0098333B4453F8882CB7
:1015D000D7F890309B0098333B4443F8882CD7F8D9
:1015E0009030013BC7F89030D7F89020D7F894306E
:1015F0009A42E3DA0023C7F890300CE0D7F8903035
:101600009B0098333B44002243F8882CD7F8903055
:101610000133C7F89030D7F89020D7F894309A4229
:10162000ECDB0023C7F8903018E0D7F890309B002F
:10163000BA6813441968D7F890309B0098333B443C
:1016400053F8882CD7F890309B00B86803444A4080
:101650001A60D7F890300133C7F89030D7F890303F
:101660001F2BE2DDD7F894300133C7F89430D7F858
:1016700094300F2B7FF764AF00BF00BF9837BD4693
:1016800080BD0000B0B59CB000AF78600123FB6660
:101690000023A7F86A3007F10C031922002118462D
:1016A00005F0B0FC4423BB810623BB73BB7B1A4609
:1016B00007F10C0303333049184605F095FC0F235E
:1016C000A7F86A30B7F86A2007F10C0311461846EC
:1016D00000F0D2F90346A7F81B3007F10C0307F11D
:1016E0000C011122786800F077FC07F1280407F15B
:1016F0000C050FCD0FC495E8070003C4227007F155
:1017000028031921184601F05BFE034687F869306B
:1017100097F86930002B01D00023FB6601F072FCC2
:10172000034687F8693097F86930002B01D0002311
:10173000FB660621104800F01FFC4FF4967002F083
:1017400093FB01F07BFC034687F8693097F869301A
:10175000002B01D00023FB6601F062FC034687F8F2
:10176000693097F86930002B01D00023FB66FB6ECF
:1017700018467037BD46B0BD40730008F0B5A5B03F
:1017800000AF7860002387F88F300023A7F88C30F3
:101790000023A7F88A300023A7F88830AD4B1B78C8
:1017A000032B00F2518101A252F823F0BD1700086B
:1017B000C517000873180008B3190008A54B0122CB
:1017C0001A7041E1A44B00221A8047F60843A7F89B
:1017D0008C30A24B00221A8011220021A04805F073
:1017E00011FC9F4BFF221A809E4B1A789C4B9A70DB
:1017F000B7F88C309A4AC2F803300723A7F888302C
:10180000B7F888301946964800F036F903461A466C
:10181000934BA3F80720924B09229149786800F076
:10182000DBFB07F1440340220021184605F0EAFBE8
:101830008B4B07F144041D460FCD0FC42B6823705A
:1018400007F144031121184601F0BAFD034687F859
:1018500087304FF4FA7002F007FB97F88730002BBF
:1018600003D07C4B00221A70EEE07A4B02221A70F1
:10187000EAE0794B1B881A467B4B13441C4607F160
:101880000C0604F1300C35462346186859689A68EE
:10189000DB680FC5103410366445F4D13346224658
:1018A0001068516803C3142002F0DEFA3823A7F849
:1018B0008A30694B1B8838339AB2674B1A80664B63
:1018C0001B881A46664BD3F803309A4202D1022392
:1018D00087F88F3097F88F30022B07D0022B00F358
:1018E000B280002B02D0012B5ED0ACE05F4BEE2229
:1018F0001A805C4B1A785D4B9A70584B1A885B4B78
:10190000A3F80320B7F88A30DAB2584B5A71574B14
:101910005B791A4607F10C031946554805F064FB3C
:101920003E23A7F88830B7F8883019464F4800F0B2
:10193000A3F803461A464D4BDA8707F144034022C9
:101940000021184605F05EFB484B07F144041D4694
:101950000FCD0FC40FCD0FC40FCD0FC495E80F00EE
:1019600084E80F0007F144034021184601F028FDE8
:10197000034687F887300F2002F076FA97F8873011
:10198000002B03D0334B00221A7006E097F88F30FB
:10199000022B02D12F4B03221A70304B1B880133CC
:1019A0009AB22E4B1A8003E02A4B01221A7000BF14
:1019B00049E0304BDD221A802A4B1A782D4B9A7061
:1019C0000323A7F88830B7F888301946294800F073
:1019D00053F803461A46274BA3F80320254B05224C
:1019E0002449786800F0F8FA07F144034022002106
:1019F000184605F007FB642002F036FA1D4B07F18C
:101A000044040FCB07C4237007F144030D2118468B
:101A100001F0D6FC034687F887304FF4FA7002F0E5
:101A200023FA97F88730002B09D10A4B01221A704C
:101A30000C4B1B780133DAB20A4B1A7004E0054BE9
:101A400001221A7000E000BF97F88F3018469437D3
:101A5000BD46F0BDA9000020AA000020AC00002077
:101A600088000020AE0000208C7300084800002091
:101A70004E0000209C00002080B586B000AF78604A
:101A80003960174B1B7883F00103DBB2002B01D0C8
:101A900000F02AF80023FB827B683B613B69002B46
:101AA00018D00023FB6011E0FB8A1B0A9AB2F98A66
:101AB0003B69581C38611B784B40DBB2094931F84F
:101AC00013305340FB82FB680133FB60FA683B68CC
:101AD0009A42E9D3FB8A18461837BD4680BD00BF3D
:101AE000AF000020B000002080B483B000AF00231E
:101AF000FB8029E000237B80FB883B800023BB80A8
:101B000017E07A883B8853409BB203F00103002B17
:101B100006D07B885B089AB2114B53407B8002E071
:101B20007B885B087B803B885B083B80BB880133FC
:101B3000BB80BB88072BE4D9FB880A497A8821F847
:101B40001320FB880133FB80FB88FF2BD2D9064B87
:101B500001221A7000BF0C37BD4680BC704700BF21
:101B600001A0FFFFB0000020AF00002080B500AF53
:101B7000034B1B68184602F077F900BF80BD00BF19
:101B80000000002080B500AF044B1A681346DB004C
:101B90001344184602F068F900BF80BD0000002021
:101BA00080B500AF6021342001F096FA03461A4652
:101BB000064B1A700121064801F002FC03461A4642
:101BC000024B1A70FFF7D2FF00BF80BDB0020020A9
:101BD000B402002080B500AFFF21342001F07CFA70
:101BE00003461A46064B1A700121064801F0E8FB2D
:101BF00003461A46024B1A70FFF7B8FF00BF80BDBC
:101C0000B0020020B402002080B582B000AF0346CD
:101C1000FB71FB79203B3A2B00F2A88101A252F81C
:101C200023F000BF671F00086D1F00086D1F00082C
:101C30006D1F00086D1F00086D1F00086D1F000854
:101C40006D1F00086D1F00086D1F00086D1F000844
:101C50006D1F00086D1F00086D1F00086D1F000834
:101C60006D1F0008511F00088B1E0008A11E0008F0
:101C7000B71E0008CD1E0008E31E0008F91E00086C
:101C80000F1F0008251F00083B1F00086D1F0008DC
:101C90006D1F00086D1F00086D1F00086D1F0008F4
:101CA0006D1F00086D1F0008111D00081B1D000896
:101CB0002D1D00083F1D00084D1D0008531D000884
:101CC000631D0008711D0008831D00088D1D00089C
:101CD0009F1D0008AD1D0008BF1D0008C91D00089C
:101CE000D31D0008E11D0008F31D0008051E0008B3
:101CF000131E0008211E0008271E0008351E0008BC
:101D0000471E0008551E0008671E0008791E0008BF
:101D1000FFF746FFFFF75EFF28E1FFF75BFFFFF7E6
:101D20003FFFFFF73DFFFFF73BFF1FE1FFF752FFCC
:101D3000FFF736FFFFF74EFFFFF732FF16E1FFF721
:101D400049FFFFF72DFFFFF72BFF0FE1FFF728FFFC
:101D50000CE1FFF725FFFFF723FFFFF73BFFFFF73E
:101D60001FFFFFF737FFFFF735FFFFF719FFFDE014
:101D7000FFF716FFFFF714FFFFF712FFFFF710FF43
:101D8000F4E0FFF70DFFFFF70BFFEFE0FFF708FFB1
:101D9000FFF720FFFFF71EFFFFF71CFFE6E0FFF74E
:101DA00019FFFFF7FDFEFFF715FFDFE0FFF7F8FE75
:101DB000FFF710FFFFF7F4FEFFF7F2FED6E0FFF7A4
:101DC00009FFFFF707FFD1E0FFF704FFFFF7E8FE89
:101DD000CCE0FFF7FFFEFFF7FDFEFFF7FBFEC5E0DF
:101DE000FFF7DEFEFFF7F6FEFFF7F4FEFFF7D8FE83
:101DF000BCE0FFF7EFFEFFF7EDFEFFF7D1FEFFF7C8
:101E0000E9FEB3E0FFF7CCFEFFF7E4FEFFF7C8FE04
:101E1000ACE0FFF7C5FEFFF7C3FEFFF7C1FEA5E08C
:101E2000FFF7D8FEA2E0FFF7BBFEFFF7B9FEFFF712
:101E3000D1FE9BE0FFF7B4FEFFF7B2FEFFF7B0FE66
:101E4000FFF7C8FE92E0FFF7ABFEFFF7C3FEFFF718
:101E5000C1FE8BE0FFF7BEFEFFF7A2FEFFF7A0FE7C
:101E6000FFF7B8FE82E0FFF7B5FEFFF799FEFFF738
:101E7000B1FEFFF7AFFE79E0FFF7ACFEFFF7AAFE79
:101E8000FFF78EFEFFF78CFE70E0FFF789FEFFF78D
:101E9000A1FEFFF79FFEFFF79DFEFFF79BFE65E0AB
:101EA000FFF77EFEFFF77CFEFFF794FEFFF792FE42
:101EB000FFF790FE5AE0FFF773FEFFF771FEFFF7A2
:101EC0006FFEFFF787FEFFF785FE4FE0FFF768FE26
:101ED000FFF766FEFFF764FEFFF762FEFFF77AFE8C
:101EE00044E0FFF75DFEFFF75BFEFFF759FEFFF7EB
:101EF00057FEFFF755FE39E0FFF76CFEFFF750FE87
:101F0000FFF74EFEFFF74CFEFFF74AFE2EE0FFF70D
:101F100061FEFFF75FFEFFF743FEFFF741FEFFF7AD
:101F20003FFE23E0FFF756FEFFF754FEFFF752FE99
:101F3000FFF736FEFFF734FE18E0FFF74BFEFFF722
:101F400049FEFFF747FEFFF745FEFFF729FE0DE0CC
:101F5000FFF740FEFFF73EFEFFF73CFEFFF73AFEBD
:101F6000FFF738FE02E0FFF70DFE00BFFFF70AFEA5
:101F700000BF0837BD4680BD80B584B000AF786033
:101F80003960FFF7FFFDFFF7FDFD0023FB6009E06F
:101F9000FB687A6813441B781846FFF735FEFB6828
:101FA0000133FB60FA683B689A42F1DB00BF00BF77
:101FB0001037BD4680BD80B582B000AF786040F676
:101FC00088120021786801F067FA786801F056FA03
:101FD00000BF0837BD4680BD80B584B000AFF86053
:101FE000B9607A603B603B687A68B968F86801F06C
:101FF0001DFB00BF1037BD4680BD80B48FB000AF61
:102000007860396001233B6100237B617B69BB61A0
:10201000BB69FB61FB693B623B6A7B627B6ABB62BB
:10202000BB6AFB62FB6AFB6001233B633B68002BDE
:1020300038D001237B631AE07B69FB60BB697B615D
:10204000FB69BB613B6AFB617A6AFB6853403B6298
:10205000BA6AFB6853407B62FA6AFB685340BB6212
:102060003B6BFB62FB683B637B6B01337B637A6B8F
:102070003B689A42E0DDFB6A5A003B6B1A44BB6A3C
:102080009B001A447B6ADB001A443B6A1B011A441A
:10209000FB695B011A44BB699B011A447B69DB0144
:1020A00013443B613B6918463C37BD4680BC7047D2
:1020B00080B493B000AFF860B9607A60BB68002B61
:1020C00002D07B68002B01D100235AE008237B63F8
:1020D00000237B6400233B6420E03B6C9B0048337F
:1020E0003B447A6843F8382C7B6B013B7A6842FAB0
:1020F00003F303F00103002B0AD07B685B007B60D5
:102100007B6883F48E7383F00103DBB27B6002E0B3
:102110007B685B007B603B6C01333B643A6C7B6BA0
:102120009A42DADB00233B6426E001223B6C02FA90
:1021300003F33B633A6BBB681340002B19D00123B8
:10214000FB630023BB6310E03B6C9B0048333B44C4
:1021500053F8382CFB6B13407A6C53407B64FB6B59
:102160005B00FB63BB6B0133BB63BA6B7B6B9A4257
:10217000EADB3B6C01333B643A6C7B6B9A42D4DB09
:102180007B6C18464C37BD4680BC7047B0B5ADF58A
:10219000067D02AF07F50473A3F5037318600023EF
:1021A00087F807320023C7F80C3207F5017307F1EF
:1021B000880107F50472A2F5037040F6B832009268
:1021C0004FF49672006804F0E0FC034687F806328C
:1021D000642001F049FE97F80632002B79D10023E4
:1021E000C7F808326DE007F50473A3F5C472D7F899
:1021F00008321344197807F5DA72D7F80C32134411
:102200000A461A70D7F80C320133C7F80C3207F5BA
:102210000473A3F5C472D7F8083213441B780A2B51
:102220000CBF01230023DAB2D7F80C324F2BCCBFFE
:1022300001230023DBB21343DBB2002B3CD097F821
:10224000B431242B35D107F5DA7303330322194651
:102250008E4804F0DFFE0346002B0FD150220021F0
:102260008B4804F0CFFED7F80C2207F5DA73194635
:10227000874804F0B9FE874B01221A6007F5DA732C
:10228000033303221946844804F0C4FE0346002B9E
:102290000FD150220021814804F0B4FED7F80C225F
:1022A00007F5DA7319467D4804F09EFE7C4B012247
:1022B0001A600023C7F80C32D7F808320133C7F888
:1022C0000832B7F804321A46D7F8083293428ADB4C
:1022D00002E0012001F0C8FD6E4B1B68012B40F0AD
:1022E0007E816F4B1B68012B40F079816B48FDF7B5
:1022F0008FFF03469AB26B4B1A806548FDF788FF43
:1023000003469AB2684B1A8007F108034022002165
:10231000184604F077FE644B1B883E2B0CD907F55A
:102320000473A3F50273C2221A8007F50473A3F5A0
:1023300002733D229A700DE007F50473A3F5027352
:10234000C1221A80584B1B88DAB207F50473A3F533
:1023500002739A7007F50473A3F502739B781A460B
:1023600007F1080303334A49184604F03DFE07F518
:102370000473A3F5E47207F50473A3F5027314461E
:102380001D460FCD0FC40FCD0FC40FCD0FC495E860
:102390000F0084E80F0007F50473A3F502739B7820
:1023A0000333DAB207F148031146184601F008F882
:1023B000034687F80632642001F056FD3A4B1B882D
:1023C0003E2B4AD907F1080340220021184604F0A9
:1023D00019FE07F50473A3F50273C3221A80324B6A
:1023E0001B88DBB23D3BDAB207F50473A3F5027339
:1023F0009A7007F50473A3F502739B781A4607F1E8
:10240000080303332949184604F0EEFD07F5047369
:10241000A3F5E47207F50473A3F5027314461D4691
:102420000FCD0FC40FCD0FC40FCD0FC495E80F0013
:1024300084E80F0007F50473A3F502739B78033358
:10244000DAB207F148031146184600F0B9FF034617
:1024500087F80632642001F007FD07F108034022E7
:102460000021184604F0CEFD0E4B1B883E2B1FD9D1
:1024700007F50473A3F50273B2221A8007F50473FB
:10248000A3F502733D229A7020E000BF4873000854
:10249000B8020020080300204C7300080C03002041
:1024A0005C0300206003002062030020F50200208E
:1024B00007F50473A3F50273B1221A804B4B1B88F6
:1024C000DAB207F50473A3F502739A7007F5047383
:1024D000A3F502739B781A4607F1080303334449B6
:1024E000184604F081FD07F50473A3F5E47207F5BF
:1024F0000473A3F5027314461D460FCD0FC40FCD10
:102500000FC40FCD0FC495E80F0084E80F0007F546
:102510000473A3F502739B780333DAB207F148031F
:102520001146184600F04CFF034687F80632642037
:1025300001F09AFC2F4B1B883E2B4AD907F1080368
:1025400040220021184604F05DFD07F50473A3F551
:102550000273B3221A80254B1B88DBB23D3BDAB2F3
:1025600007F50473A3F502739A7007F50473A3F5D6
:1025700002739B781A4607F1080303331E49184675
:1025800004F032FD07F50473A3F5E47207F5047354
:10259000A3F5027314461D460FCD0FC40FCD0FC413
:1025A0000FCD0FC495E80F0084E80F0007F5047302
:1025B000A3F502739B780333DAB207F1480311469F
:1025C000184600F0FDFE034687F80632642001F04D
:1025D0004BFC0A4B00221A60094B00221A6097F844
:1025E0000732184607F50477BD46B0BD60030020EA
:1025F0000C03002062030020490300200803002090
:102600005C030020B0B5A0B000AF78600123FB6789
:102610000023A7F87A3007F108032D22002118467D
:1026200004F0F0FC55233B811323BB72BB7A1A469E
:1026300007F1080303331E49184604F0D5FC232391
:10264000A7F87A30B7F87A2007F108031146184640
:10265000FFF712FA0346A7F82B3007F1080307F13A
:10266000080125227868FFF7B7FC07F1380407F165
:1026700008050FCD0FC40FCD0FC495E80F0007C498
:10268000237007F138032D21184600F099FE034608
:1026900087F87930642001F0E7FB97F87930002B58
:1026A00001D00023FB67FB6F18468037BD46B0BDE5
:1026B0005073000890B599B000AF78600123FB65B6
:1026C0000023A7F85A3007F108030D22002118460D
:1026D00004F098FCE021122000F0FEFC034687F88D
:1026E00059300921132000F0F7FC034687F85930D0
:1026F00080210F2000F0F0FC034687F85930642059
:1027000001F0B2FB07F117031946112000F0A4FCF9
:10271000034687F8593097F85930002B2FD1FB7DAD
:102720003C3BDBB25BB2BB72AA233B810323A7F81D
:102730005A30B7F85A2007F1080311461846FFF738
:102740009BF90346A7F80B3007F1080307F10801CE
:1027500005227868FFF740FC07F1180407F1080329
:102760000FCB07C4237007F118030D21184600F0A2
:1027700027FE034687F85930642001F075FBFB6D96
:1027800018466437BD4690BD80B5ADF5196D00AFF4
:10279000002387F88E3901F03EFB00F0BDF800F011
:1027A00031FA00F04FF900F0D9F900F081F900F0AA
:1027B0000BF900F0FDF9012280214C4802F0FAF9F2
:1027C00000228021494802F0F5F94FF47A6001F0C7
:1027D0004BFB01224FF48071444802F0EBF944486E
:1027E00001F0C3F9034687F88E3909E0404801F04B
:1027F000BCF9034687F88E3980213C4802F0F2F993
:1028000097F88E39012BF1D0394801F08DFA034643
:1028100087F88E3997F88E39012B02D0012387F87B
:102820008E393B1D1846FFF7C6FB3248FEF71EFCEB
:10283000314B1B68002B10D0012387F88F3905E03E
:102840002C4800F065FB034687F88F3997F88F39DD
:10285000002BF5D1284B00221A60284B1B68002B57
:1028600006D03B1D1846FEF70DFF244B00221A60D0
:10287000234B1B68002B06D03B1D1846FFF7C2FEFA
:102880001F4B00221A601F4B1B68002B06D03B1DFC
:102890001846FFF70FFF1B4B00221A601A4B1B68EC
:1028A000002B07D03B1D19491846FEF73DFD164B7E
:1028B00000221A60164B1B68012B05D10C48FFF74C
:1028C00065FC134B00221A60124B1B68002B07D0CB
:1028D0003B1D0849184600F0BCFA0E4B00221A6056
:1028E0003B1D1846FEF74AFFA2E700BF000C01405F
:1028F000340400209403002018000020040000206D
:1029000008000020100000200C00002064030020BC
:10291000BC0400201400002080B592B000AF07F185
:10292000200328220021184604F06CFB07F10C0359
:1029300000221A605A609A60DA601A613B460022EF
:102940001A605A609A6003233B624FF480337B62C3
:1029500001233B6310237B630023FB6307F1200308
:10296000184602F059F90346002B01D000F06CFA2A
:102970000F23FB6000233B6100237B610023BB61CD
:102980000023FB6107F10C030021184602F0C6FB8F
:102990000346002B01D000F057FA02233B600023CE
:1029A000BB603B46184602F087FD0346002B01D072
:1029B00000F04AFA00224FF0C061002002F066FCED
:1029C00000BF4837BD4680BD80B584B000AF3B1D19
:1029D00000221A605A609A60184B194A1A60174B05
:1029E00000229A60154B00221A73144B00221A75AC
:1029F000124B4FF46022DA61104B00225A600F4BE9
:102A000001221A610D4801F053FA0346002B01D050
:102A100000F01AFA05237B600123BB600023FB60F2
:102A20003B1D1946054801F0CDFC0346002B01D0A3
:102A300000F00AFA00BF1037BD4680BD64030020D5
:102A40000024014080B500AF174B184A1A60164B9E
:102A50004FF482725A60144B00229A60124B00228B
:102A6000DA60114B00221A610F4B00225A610E4BA3
:102A70004FF400729A610C4B0022DA610A4B00227B
:102A80001A62094B00225A62074B00229A62064BD7
:102A90000A22DA62044802F00DFE0346002B01D040
:102AA00000F0D2F900BF80BD940300200038004040
:102AB00080B586B000AF07F1080300221A605A60A3
:102AC0009A60DA603B4600221A605A60224B4FF04F
:102AD00080421A60204B41F63F725A601E4B002222
:102AE0009A601D4B43F69822DA601B4B00221A6154
:102AF000194B00229A61184803F040FB0346002B53
:102B000001D000F0A1F94FF48053BB6007F1080336
:102B10001946114803F0E4FC0346002B01D000F0F5
:102B200093F900233B6000237B603B4619460A482B
:102B300003F0D4FE0346002B01D000F085F90648CF
:102B400003F06CFB0346002B01D000F07DF900BFC1
:102B50001837BD4680BD00BFEC03002080B500AF34
:102B6000114B124A1A60104B4FF416525A600E4B1A
:102B700000229A600C4B0022DA600B4B00221A6193
:102B8000094B0C225A61084B00229A61064B002225
:102B9000DA61054803F01AFF0346002B01D000F06C
:102BA00053F900BF80BD00BF34040020003801404D
:102BB00080B500AF114B124A1A60104B4FF4E1324E
:102BC0005A600E4B00229A600C4B0022DA600B4BCD
:102BD00000221A61094B0C225A61084B00229A61AB
:102BE000064B0022DA61054803F0F0FE0346002B95
:102BF00001D000F029F900BF80BD00BF780400209B
:102C00000048004080B588B000AF07F110030022F3
:102C10001A605A609A60DA60354B9B69344A43F017
:102C200010039361324B9B6903F01003FB60FB6858
:102C30002F4B9B692E4A43F0200393612C4B9B69D9
:102C400003F02003BB60BB68294B9B69284A43F013
:102C500004039361264B9B6903F004037B607B684C
:102C6000234B9B69224A43F008039361204B9B69E5
:102C700003F008033B603B6800224FF400511D48FD
:102C800001F098FF00224FF4C2711B4801F092FF3F
:102C90004FF400533B6101237B610023BB6102239E
:102CA000FB6107F110031946124801F0FFFD4FF4D4
:102CB000C2733B6101237B610023BB610223FB6183
:102CC00007F1100319460C4801F0F0FD4FF4807332
:102CD0003B6102237B610223FB6107F1100319466C
:102CE000064801F0E3FD00BF2037BD4680BD00BFB0
:102CF0000010024000100140000C0140000801409B
:102D000080B582B000AF78607B681B683E4A934212
:102D100001D101F08DF87B681B68B3F1804F6ED153
:102D20003A4B01221A608021394801F05BFF394B90
:102D30001B680133374A1360374B1B680133364A2F
:102D40001360364B1B680133344A1360344B1B68E5
:102D50000133334A1360334B1B680133314A13602C
:102D6000314B1B680133304A13602A4B19682F4BD3
:102D700083FB01231A11CB17D21A13469B0013446D
:102D8000DB00CA1A002A02D1294B01221A60234B08
:102D90001968264B83FB0123DA10CB17D21A13468E
:102DA0009B0013449B00CA1A002A02D1214B012226
:102DB0001A601B4B1A68204B83FB02131344D91073
:102DC000D317C91A0B461B015B1AD11A002902D16D
:102DD0001A4B01221A601A4B01221A60124B196811
:102DE000124B83FB01235A10CB17D21A13469B00B8
:102DF0001344CA1A002A02D1124B01221A6000BFE2
:102E00000837BD4680BD00BF00100040BC04002054
:102E1000000C0140C0040020C4040020C8040020AD
:102E2000CC040020D0040020D4040020676666662D
:102E3000040000200C0000208988888810000020F1
:102E4000140000201800002080B400AF72B600BF4C
:102E5000FEE790B59BB000AF78603960002387F83B
:102E6000633001237B660023A7F860304FF0000336
:102E7000BB6107F1080310220021184604F0C2F8D4
:102E800077233B8107F1180319463868FEF796F956
:102E9000034687F8633097F86330002B02D0002395
:102EA0007B6630E0BB69C7F80A300623A7F86030BC
:102EB000B7F8602007F1080311461846FEF7DCFD5D
:102EC0000346FB8107F1080307F10801082278682F
:102ED000FFF782F807F11C0407F108030FCB84E821
:102EE0000F0007F11C031021184600F069FA034691
:102EF00087F85F30642000F0B7FF97F85F30002B51
:102F000001D000237B667B6E18466C37BD4690BDB2
:102F100080B584B000AF7860374A7B681360802149
:102F2000072000F0D9F80346FB734FF47A7000F0E5
:102F30009BFF07216D2000F0CFF80346FB732F485D
:102F400000F078F90346FB7359216E2000F0C4F8B5
:102F50000346FB7321216F2000F0BEF80346FB738C
:102F60002C21702000F0B8F80346FB730D2172206D
:102F700000F0B2F80346FB7300F060F80346FB7301
:102F80000E21332000F0A8F80346FB7308213620F9
:102F900000F0A2F80346FB736D21372000F09CF887
:102FA0000346FB735321382000F096F80346FB7369
:102FB0008821392000F090F80346FB730821302067
:102FC00000F08AF800F02CF80346FB73042105207A
:102FD00000F082F80346FB730021062000F07CF825
:102FE0000346FB7300228021054801F0E3FDFB7BD3
:102FF00018461037BD4680BDD80400200040D94394
:10300000000C014080B582B000AF2021712000F09B
:1030100063F80346FB71FB7918460837BD4680BD4F
:1030200080B582B000AF2321712000F055F803462F
:10303000FB71FB7918460837BD4680BD80B582B06C
:1030400000AF1021342000F047F80346FB71FB79F4
:1030500018460837BD4680BD80B584B000AF034632
:103060003960FB7100224FF40051194801F0A2FDB4
:10307000FB799BB21B02FB81FB891B0A9BB2DBB273
:103080003B73144B186807F10C014FF47A7301225B
:1030900002F08CFB03467B73012000F0E5FE0D4B34
:1030A000186807F10B014FF47A73012202F0BAFCA1
:1030B00003467B73FA7A3B681A7001224FF4005181
:1030C000034801F077FD7B7B18461037BD4680BD75
:1030D00000100140D804002080B584B000AF034642
:1030E0000A46FB711346BB718023FB7300224FF429
:1030F00000511D4801F05EFDFA79FB7B1343DBB202
:103100001B021AB2BB791BB213431BB2BB81BB8932
:103110001B0A9BB2DBB2BB72BB89DBB27B72134B67
:10312000186807F10A014FF47A73012202F03EFB9E
:103130000346FB72012000F097FE0C4B186807F164
:1031400009014FF47A73012202F030FB0346FB724F
:1031500001224FF40051044801F02CFDFB7A18467F
:103160001037BD4680BD00BF00100140D8040020CC
:1031700080B586B000AF03463960FB711346BB7162
:103180008023FB7300224FF40051284801F012FD08
:10319000FA79FB7B1343DBB21B021AB23B681B7844
:1031A0001BB213431BB2BB81BB891B0A9BB2DBB2B0
:1031B000FB72BB89DBB2BB721D4B186807F10B01B8
:1031C0004FF47A73012202F0F1FA0346FB750120F5
:1031D00000F04AFE164B186807F10A014FF47A73A3
:1031E000012202F0E3FA0346FB7501233B610EE086
:1031F0000F4B18683B693A68D1184FF47A73012273
:1032000002F0D4FA0346FB753B6901333B61BB799D
:103210003A699A42ECDB01224FF40051034801F075
:10322000C9FCFB7D18461837BD4680BD0010014023
:10323000D804002090B587B000AF78605A4B7B610E
:1032400079695A48FDF7CCFD034679681846FDF7C1
:1032500013FD034656491846FDF7C0FE0346002BF2
:1032600001D0012300E00023FB7479694F48FDF78A
:10327000B7FD034679681846FDF7FEFC03464D4945
:103280001846FDF7ADFD03461846FDF7BBFE0346A5
:10329000DBB2A3F11801FA7C134692009B1ADB0003
:1032A000CA18FB7C013392FBF3F3BB7403237B74DA
:1032B0007B7C1846FDF78CFC034619467869FDF7C0
:1032C0008FFD03461C46FB7C01331846FDF780FC4E
:1032D000034619462046FDF7CFFC03461946786899
:1032E000FDF77EFD03461C46BB7C1846FDF770FCCF
:1032F000034619462046FDF7B5FB03462E491846FE
:10330000FDF7B0FB03462D491846FDF7B5FC034613
:103310001846FDF777FE0346FB8197F9123003F05C
:103320001F035BB243F040035AB2FB7C5B015BB20C
:1033300003F020035BB213435BB2DBB21946752086
:10334000FFF7CAFE03467B73FB891B0A9BB2DBB205
:1033500019467620FFF7C0FE03467B73FB89DBB27C
:1033600019467720FFF7B8FE03467B7300217320D0
:10337000FFF7B2FE03467B7300217420FFF7ACFE1B
:1033800003467B7300217A20FFF7A6FE03467B737A
:1033900000217920FFF7A0FE03467B737B7B184654
:1033A0001C37BD4690BD00BF0000D0410000F04179
:1033B0000000F043000020410000C04100007A47B7
:1033C00080B584B000AF78600B46FB700023FB60D3
:1033D000FB7819463E20FFF77FFE0346FB72FB7821
:1033E0001A4679687F20FFF7C3FE0346FB7207F198
:1033F0000A0319460320FFF72FFE0346FB7207F16D
:103400000A0319460420FFF727FE0346FB72002239
:103410004FF48071184801F0CDFB08210720FFF719
:103420005BFE0346FB720023BB720AE007F10A034E
:1034300019460320FFF710FE0346FB72FB680133B9
:10344000FB60BB7A03F00403002B02D1FB68312B35
:10345000ECDD01224FF48071074801F0ABFB07F16E
:103460000A0319460420FFF7F7FD0346FB72FB7AB7
:1034700018461037BD4680BD000C014080B582B0B3
:1034800000AF78607B681A460821786800F056F82B
:1034900000BF0837BD4680BD80B487B000AFF8607C
:1034A000B9607A60BB687B6107E07B69FA681344A6
:1034B00000221A707B6901337B617A697B689A42CA
:1034C000F3DB00BF00BF1C37BD4680BC704780B433
:1034D00087B000AFF860B9607A603B6000237B6121
:1034E0000AE07B69BA681A447B6939680B44127830
:1034F0001A707B6901337B617A697B689A42F0DBE1
:1035000000237B6111E07B69C3F10702FB68203275
:1035100053F822107A697B6813441A463B681344B7
:10352000CAB21A707B6901337B617B69072BEADDC4
:1035300000BF00BF1C37BD4680BC704780B5ADF6EC
:10354000180D00AF07F61803A3F60C03186007F672
:103550001803A3F50163196007F61803A3F6140313
:103560001A6007F1140207F61803A3F60C031146BC
:103570001868FDF7ACFF07F61803A3F60403012251
:103580001A600123C7F8143841E007F2144207F625
:103590001803A3F60C0311461868FDF798FF07F609
:1035A0001803A3F60C03D7F814181868FEF725FDC6
:1035B000024607F61803A3F204431A6007F618033D
:1035C000A3F2044301225A6007F1140307F21442E4
:1035D00007F61801A1F6140107F61800A0F60C0072
:1035E00009680068FDF78DFF07F61803A3F61402BB
:1035F00007F1140107F61803A3F60C031268186804
:10360000FDF746FFD7F814380133C7F8143807F62A
:103610001803A3F50163D7F814281B689A42B4DD98
:1036200000BF00BF07F61807BD4680BD90B591B03A
:1036300000AFF860B9607A603B600023FB6309E08B
:10364000FB6B9B0040333B44002243F8302CFB6B68
:103650000133FB63FB6B082BF2DD0023FB6335E0DA
:10366000FB6BBA6813441B781A46FB6A53407B63B2
:103670000723BB631BE0BB6B013B9B0040333B4418
:1036800053F8304CFB68BA6B53F822307A6B19460A
:10369000F868FEF70DFD034684EA0302BB6B9B004E
:1036A00040333B4443F8302CBB6B013BBB63BB6BEB
:1036B000002BE0DCFB681B687A6B1946F868FEF7A4
:1036C000F7FC03463B61FB6B0133FB63FA6B7B68E2
:1036D0009A42C5DB0023FB630DE0FB6B9B0040338C
:1036E0003B4453F8301CFB68FA6B203243F822103D
:1036F000FB6B0133FB63FB6B072BEEDD3B687A68EA
:10370000B968F868FFF7E3FE00BF4437BD4690BDD7
:1037100080B485B000AF154B9B69144A43F0010398
:103720009361124B9B6903F00103BB60BB680F4BB5
:10373000DB690E4A43F08053D3610C4BDB6903F025
:1037400080537B607B680A4B5B68FB60FB6823F0FF
:10375000E063FB60FB6843F00073FB60044AFB68B6
:10376000536000BF1437BD4680BC70470010024054
:103770000000014080B588B000AF786007F1100309
:1037800000221A605A609A60DA607B681B68144AEB
:10379000934221D1134B9B69124A43F40073936106
:1037A000104B9B6903F40073FB60FB680D4B9B6936
:1037B0000C4A43F0040393610A4B9B6903F0040332
:1037C000BB60BB6820233B6103237B6107F11003CF
:1037D0001946054801F06AF800BF2037BD4680BD94
:1037E00000240140001002400008014080B588B06C
:1037F00000AF786007F1100300221A605A609A60E7
:10380000DA607B681B681C4A934231D11B4BDB6931
:103810001A4A43F48043D361184BDB6903F48043B5
:10382000FB60FB68154B9B69144A43F008039361E6
:10383000124B9B6903F00803BB60BB684FF4204345
:103840003B6102237B610323FB6107F110031946EF
:103850000B4801F02BF84FF480433B6100237B6160
:103860000023BB6107F110031946054801F01EF85B
:1038700000BF2037BD4680BD003800400010024028
:10388000000C014080B584B000AF78607B681B6895
:10389000B3F1804F13D10C4BDB690B4A43F00103AA
:1038A000D361094BDB6903F00103FB60FB68002275
:1038B00000211C2000F0CFFF1C2000F0E8FF00BF1B
:1038C0001037BD4680BD00BF0010024080B58AB0F1
:1038D00000AF786007F1180300221A605A609A60FE
:1038E000DA607B681B68384A934232D1374B9B6958
:1038F000364A43F480439361344B9B6903F480431D
:103900007B617B69314B9B69304A43F004039361CF
:103910002E4B9B6903F004033B613B694FF400733A
:10392000BB610223FB6103237B6207F11803194685
:10393000274800F0BBFF4FF48063BB610023FB61AD
:1039400000233B6207F118031946214800F0AEFF3F
:1039500036E07B681B681F4A934231D11B4BDB6901
:103960001A4A43F48023D361184BDB6903F48023A4
:10397000FB60FB68154B9B69144A43F00803936195
:10398000124B9B6903F00803BB60BB684FF4806374
:10399000BB610223FB6103237B6207F11803194615
:1039A0000D4800F083FF4FF40063BB610023FB610F
:1039B00000233B6207F118031946074800F076FF21
:1039C00000BF2837BD4680BD0038014000100240CE
:1039D0000008014000480040000C014080B58CB058
:1039E00000AF78600023FB620023BB62002279688D
:1039F000362000F030FF362000F049FF1E4BDB6917
:103A00001D4A43F01003D3611B4BDB6903F0100325
:103A1000FB60FB6807F1100207F11403114618461A
:103A200001F000FD01F0D6FCF862FB6A134AA2FB2C
:103A300003239B0C013BBB62114B124A1A60104BD3
:103A400040F2E732DA600E4ABB6A53600C4B002248
:103A50001A610B4B00229A60094802F08FFB034663
:103A6000002B04D1064802F0D9FB034600E00123F5
:103A700018463037BD4680BD0010024083DE1B4330
:103A8000DC0400200010004080B400AFFEE780B4EA
:103A900000AFFEE780B400AFFEE780B400AFFEE702
:103AA00080B400AFFEE780B400AF00BFBD4680BC6D
:103AB000704780B400AF00BFBD4680BC704780B483
:103AC00000AF00BFBD4680BC704780B400AF00BFF0
:103AD000BD4680BC7047000080B500AF024802F0D0
:103AE000F7FB00BF80BD00BFEC03002080B500AF36
:103AF000024802F0EDFB00BF80BD00BFDC040020E7
:103B000080B400AF00BFBD4680BC704780B487B0B2
:103B100000AF78600B467B8000233B7300237B73F0
:103B200000237B610FE03A7B7B6979680B441B784B
:103B30001344DBB23B737A7B3B7B1344DBB27B7376
:103B40007B6901337B617B887A699A42EBDBBB89B5
:103B50003B8200233A7C62F307037A7C62F30F23F3
:103B600018461C37BD4680BC704780B59AB002AF7E
:103B70007860002387F85F30FF23FB7307F1280389
:103B80002C220021184603F03DFAB52387F828308F
:103B9000622387F82930062387F82A30242387F800
:103BA0002B302423BB8540F2FF33FB85062387F8A7
:103BB0003030022387F8313000237B860023BB8618
:103BC000002343F41C5343F01003FB8600233B8780
:103BD000052387F83A30002387F83B306423BB87FE
:103BE0006423FB876423A7F84030C823A7F842303A
:103BF000002387F84430022387F845300023A7F8D4
:103C000046300023A7F848300023A7F84A300023A5
:103C1000A7F84C300023A7F84E300023A7F8503007
:103C200007F12803023328211846FFF76FFF0346E8
:103C3000A7F8523097F828303B7497F829307B74F6
:103C40000523BB740123FB7402233B7500237B75A2
:103C500097F82A30BB7597F82B30FB7532233B76EB
:103C60005B237B7607F10F014FF47A7301227868AA
:103C700002F0F9FE034687F857304FF47A7000F0EF
:103C8000F3F897F85730002B03D0012387F85F3003
:103C900043E007F128014FF47A732C22786802F090
:103CA000E2FE034687F8573097F85730002B03D0D1
:103CB000012387F85F3030E007F11A0307F11C0198
:103CC00040F6B83200920A22786802F05EFF03469E
:103CD00087F857307B8B0A2B03D0012387F85F309E
:103CE0001BE097F85730002B17D10023BB6511E07C
:103CF00007F11C02BB6D13441A7807F11001BB6D6C
:103D00000B441B789A4202D0012387F85F30BB6DC9
:103D10000133BB65BB6D092BEAD997F85F301846B4
:103D20006037BD4680BD000080B58AB000AF7860C6
:103D3000002387F82730244A07F1180392E803008C
:103D4000186004331970B5233B7362237B73062319
:103D5000BB730123FB7303233B82F023BB7400235B
:103D60003B7500233B6226E007F118023B6A1344CF
:103D70001B78FB7407F10C03023307211846FFF789
:103D8000C5FE03461BB21A467A75C3F30723BB75FB
:103D900007F10C014FF47A730B22786802F063FE8E
:103DA0000346FB77FB7F002B02D0012387F82730E7
:103DB0003B6A01333B623B6A042BD5D997F8273025
:103DC00018462837BD4680BD647300080C480D496D
:103DD0000D4A002302E0D458C4500433C4188C4266
:103DE000F9D30A4A0A4C002301E013600432A242CC
:103DF000FBD3FFF785FE03F0D3F8FEF7C5FC704751
:103E00000000002028000020B4EF00082800002057
:103E100028050020FEE780B500AF032000F010FD6C
:103E20000F20FFF7DBFDFFF773FC0023184680BD72
:103E300080B400AF054B1B781A46054B1B68134432
:103E4000034A136000BFBD4680BC704724000020B9
:103E50002405002080B400AF024B1B681846BD4605
:103E600080BC70472405002080B584B000AF786026
:103E7000FFF7F0FFB8607B68FB60FB68B3F1FF3FC2
:103E800005D00A4B1B781A46FB681344FB6000BF41
:103E9000FFF7E0FF0246BB68D31AFA689A42F7D8E8
:103EA00000BF00BF1037BD4680BD00BF240000200A
:103EB00080B586B000AF78600023FB7500233B61BE
:103EC0000023BB600023FB607B68002B01D1012332
:103ED000BEE07B689B68002B7B689B6A002B09D146
:103EE0007B680022DA627B68002283F824207868ED
:103EF000FFF740FC786800F0B7FB0346FB757B6872
:103F00009B6A03F01003002B40F09980FB7D002B8F
:103F100040F095807B689B6A23F4885323F002036A
:103F200043F002027B689A627B685A687B68DB69AF
:103F30001A437B681B7B5B001343BA681343BB6067
:103F40007B689B68B3F5807F03D07B689B68012BFF
:103F500002D14FF4807300E000233A6913433B61C0
:103F60007B681B7D012B19D17B681B7B002B09D142
:103F70007B689B69013B5A033B69134343F400632D
:103F80003B610BE07B689B6A43F020027B689A628E
:103F90007B68DB6A43F001027B68DA627B681B683E
:103FA0005B6823F469417B681B683A690A435A607D
:103FB0007B681B689A68284B13407A681268B96856
:103FC0000B4393607B689B68B3F5807F03D07B686D
:103FD0009B68012B04D17B681B69013B1B05FB60BF
:103FE0007B681B68DB6A23F470017B681B68FA68D6
:103FF0000A43DA627B681B689A68184B1340BA68F8
:104000009A420BD17B680022DA627B689B6A23F0BC
:10401000030343F001027B689A6218E07B689B6AA5
:1040200023F0120343F010027B689A627B68DB6A1C
:1040300043F001027B68DA620123FB7507E07B68CD
:104040009B6A43F010027B689A620123FB75FB7D3B
:1040500018461837BD4680BDFDF7E1FFFE0E1FFF75
:1040600080B584B000AF78600023FB737B6893F861
:104070002430012B01D1022362E07B68012283F806
:104080002420786800F096FA0346FB73FB7B002B34
:1040900051D17B689B6A23F4407323F0010343F4FE
:1040A00080727B689A627B689B6A23F480127B68CB
:1040B0009A627B681B685B6803F48063002B07D0FF
:1040C0007B689B6A23F4405343F480527B689A6276
:1040D0007B689B6A03F48053002B06D07B68DB6A05
:1040E00023F006027B68DA6202E07B680022DA6273
:1040F0007B68002283F824207B681B686FF0020233
:104100001A607B681B689B6803F46023B3F5602F1B
:1041100008D17B681B689A687B681B6842F4A00220
:104120009A600CE07B681B689A687B681B6842F4A5
:1041300080129A6003E07B68002283F82420FB7BD6
:1041400018461037BD4680BD80B584B000AF78609A
:104150000023FB737B6893F82430012B01D10223E9
:104160001AE07B68012283F82420786800F07CFA4A
:104170000346FB73FB7B002B09D17B689B6A23F40E
:10418000885323F0010343F001027B689A627B6845
:10419000002283F82420FB7B18461037BD4680BDE3
:1041A00090B587B000AF7860396000237B61002351
:1041B000FB6000233B61FFF74DFE78617B681B6865
:1041C0009B6803F48073002B0BD07B689B6A43F0E1
:1041D00020027B689A627B68002283F824200123F6
:1041E000D3E07B681B685B6803F48073002B31D1DC
:1041F0007B681B68DB6A03F47003002B2AD121E083
:104200003B68B3F1FF3F1DD03B68002B07D0FFF7A1
:1042100021FE02467B69D31A3A689A4212D27B6821
:104220001B681B6803F00203002B0BD17B689B6AA1
:1042300043F004027B689A627B68002283F82420A2
:104240000323A2E07B681B681B6803F00203002BBA
:10425000D6D070E04F4B1C68022001F0D3F9034622
:10426000B4FBF3F27B681B6819694B4B0B40002BC6
:1042700018D17B681B68D968484B0B40002B11D1C3
:104280007B681B681969464B0B40002B08D17B6883
:104290001B68D968434B0B40002B01D1142320E04D
:1042A00029231EE07B681B6819693D4B0B40002BDE
:1042B00006D17B681B68D9683A4B0B40002B0DD0A8
:1042C0007B681B681969384B0B40002B08D17B6851
:1042D0001B68D968344B0B40002B01D1542300E0FC
:1042E000FC2302FB03F33B6121E03B68B3F1FF3F9A
:1042F0001AD03B68002B07D0FFF7ACFD02467B6964
:10430000D31A3A689A420FD2FB683A699A420BD99B
:104310007B689B6A43F004027B689A627B68002298
:1043200083F82420032330E0FB680133FB60FB6843
:104330003A699A42D9D87B681B686FF012021A60FA
:104340007B689B6A43F400727B689A627B681B6897
:104350009B6803F46023B3F5602F15D17B681B7B4A
:10436000002B11D17B689B6A23F480727B689A6270
:104370007B689B6A03F48053002B05D17B689B6AA2
:1043800043F001027B689A62002318461C37BD4641
:1043900090BD00BF1C0000202449922424499200B3
:1043A00092244912922449004992240080B483B097
:1043B00000AF78607B681B68DB6C18460C37BD4625
:1043C00080BC704780B485B000AF7860396000234E
:1043D000FB730023BB607B6893F82430012B01D171
:1043E0000223DCE07B68012283F824203B685B68C1
:1043F000062B1CD87B681B68596B3B685A681346B0
:104400009B001344053B1F2202FA03F3DB431940D0
:104410003B6818683B685A6813469B001344053B89
:1044200000FA03F27B681B680A435A633CE03B686E
:104430005B680C2B1CD87B681B68196B3B685A683F
:1044400013469B001344233B1F2202FA03F3DB4372
:1044500019403B6818683B685A6813469B00134430
:10446000233B00FA03F27B681B680A431A631BE0D4
:104470007B681B68D96A3B685A6813469B001344E3
:10448000413B1F2202FA03F3DB4319403B681868E3
:104490003B685A6813469B001344413B00FA03F201
:1044A0007B681B680A43DA623B681B68092B1CD9CE
:1044B0007B681B68D9683B681A6813465B00134425
:1044C0001E3B072202FA03F3DB4319403B6898685E
:1044D0003B681A6813465B0013441E3B00FA03F264
:1044E0007B681B680A43DA6019E07B681B681969FE
:1044F0003B681A6813465B001344072202FA03F371
:10450000DB4319403B6898683B681A6813465B00B8
:10451000134400FA03F27B681B680A431A613B6884
:104520001B68102B03D03B681B68112B32D17B68B2
:104530001B681D4A934225D17B681B689B6803F466
:104540000003002B26D17B681B689A687B681B6878
:1045500042F400029A603B681B68102B1AD1134B7F
:104560001B68134AA2FB03239A0C13469B001344B7
:104570005B00BB6002E0BB68013BBB60BB68002B1B
:10458000F9D107E07B689B6A43F020027B689A625E
:104590000123FB737B68002283F82420FB7B1846F1
:1045A0001437BD4680BC7047002401401C00002029
:1045B00083DE1B4380B584B000AF78600023FB60CE
:1045C0000023BB607B681B689B6803F00103012B21
:1045D00040D07B681B689A687B681B6842F00102C8
:1045E0009A601F4B1B681F4AA2FB03239B0CBB60F6
:1045F00002E0BB68013BBB60BB68002BF9D1FFF751
:1046000029FCF8601FE0FFF725FC0246FB68D31A7F
:10461000022B18D97B681B689B6803F00103012BF0
:1046200011D07B689B6A43F010027B689A627B68BA
:10463000DB6A43F001027B68DA627B68002283F860
:104640002420012307E07B681B689B6803F00103BB
:10465000012BD8D1002318461037BD4680BD00BFBE
:104660001C00002083DE1B4380B584B000AF78605F
:104670000023FB607B681B689B6803F00103012B30
:104680002ED17B681B689A687B681B6822F0010248
:104690009A60FFF7DFFBF8601BE0FFF7DBFB0246E9
:1046A000FB68D31A022B14D97B681B689B6803F044
:1046B0000103012B0DD17B689B6A43F010027B68DC
:1046C0009A627B68DB6A43F001027B68DA6201234D
:1046D00007E07B681B689B6803F00103012BDCD0BB
:1046E000002318461037BD4680BD000080B485B059
:1046F00000AF78607B6803F00703FB600C4BDB685E
:10470000BB60BA684FF6FF031340BB60FB681A0238
:10471000BB68134343F0BF6343F40033BB60044AF8
:10472000BB68D36000BF1437BD4680BC704700BF74
:1047300000ED00E080B400AF044BDB681B0A03F01F
:1047400007031846BD4680BC704700BF00ED00E07F
:1047500080B483B000AF0346FB7197F90730002B9C
:104760000BDBFB7903F01F02064997F907305B0961
:10477000012000FA02F241F8232000BF0C37BD46A9
:1047800080BC704700E100E080B483B000AF034616
:104790003960FB7197F90730002B0ADB3B68DAB20E
:1047A0000C4997F907301201D2B20B4483F8002369
:1047B0000AE03B68DAB20849FB7903F00F03043BD7
:1047C0001201D2B20B441A7600BF0C37BD4680BC32
:1047D000704700BF00E100E000ED00E080B489B068
:1047E00000AFF860B9607A60FB6803F00703FB6113
:1047F000FB69C3F10703042B28BF0423BB61FB69DA
:104800000433062B02D9FB69033B00E000237B61E4
:104810004FF0FF32BB6902FA03F3DA43BB681A4078
:104820007B699A404FF0FF317B6901FA03F3D9436A
:104830007B680B40134318462437BD4680BC704745
:1048400080B582B000AF78607868FFF74FFF00BF97
:104850000837BD4680BD80B586B000AF0346B9605D
:104860007A60FB7300237B61FFF764FF78617A68ED
:10487000B9687869FFF7B2FF024697F90F30114621
:104880001846FFF781FF00BF1837BD4680BD80B5D1
:1048900082B000AF0346FB7197F907301846FFF767
:1048A00057FF00BF0837BD4680BD000080B48BB005
:1048B00000AF7860396000237B6200233B6269E1CE
:1048C00001227B6A02FA03F3FB613B681B68FA6909
:1048D0001340BB61BA69FB699A4240F058813B685A
:1048E0005B689A4A93425ED0984A934275D8984A38
:1048F000934258D0964A93426FD8964A934252D0E8
:10490000944A934269D8944A93424CD0924A934233
:1049100063D8924A934246D0904A93425DD8122B74
:104920002AD8122B59D801A252F823F0A74900081F
:104930008149000893490008D5490008DB4900086F
:10494000DB490008DB490008DB490008DB490008B7
:10495000DB490008DB490008DB490008DB490008A7
:10496000DB490008DB490008DB490008DB49000897
:10497000894900089D490008794A934213D02CE0E8
:104980003B68DB683B6229E03B68DB6804333B62E1
:1049900024E03B68DB6808333B621FE03B68DB6870
:1049A0000C333B621AE03B689B68002B02D1042366
:1049B0003B6213E03B689B68012B05D108233B62F7
:1049C0007B68FA691A6109E008233B627B68FA692F
:1049D0005A6103E000233B6200E000BFBB69FF2B8C
:1049E00001D87B6801E07B6804337B61BB69FF2BE6
:1049F00002D87B6A9B0002E07B6A083B9B003B611C
:104A00007B691A680F213B6901FA03F3DB431A4003
:104A1000396A3B6901FA03F31A437B691A603B6800
:104A20005B6803F08053002B00F0B1804D4B9B6915
:104A30004C4A43F0010393614A4B9B6903F0010325
:104A4000BB60BB68484A7B6A9B08023352F823303C
:104A5000FB607B6A03F003039B000F2202FA03F35F
:104A6000DB43FA681340FB607B68404A934213D0F3
:104A70007B683F4A93420DD07B683E4A934207D001
:104A80007B683D4A934201D1032306E0042304E0FE
:104A9000022302E0012300E000237A6A02F003020D
:104AA00092009340FA681343FB602F497B6A9B088E
:104AB0000233FA6841F823203B685B6803F48033D3
:104AC000002B06D02D4B1A682C49BB6913430B6091
:104AD00006E02A4B1A68BB69DB43284913400B6088
:104AE0003B685B6803F40033002B06D0234B5A6805
:104AF0002249BB6913434B6006E0204B5A68BB69EF
:104B0000DB431E4913404B603B685B6803F4801332
:104B1000002B06D0194B9A681849BB6913438B6068
:104B200006E0164B9A68BB69DB43144913408B605F
:104B30003B685B6803F40013002B21D00F4BDA684D
:104B40000E49BB691343CB6021E000BF0000321067
:104B5000000031100000221000002110000012108F
:104B60000000111000100240000001400008014048
:104B7000000C0140001001400014014000040140FD
:104B80000B4BDA68BB69DB4309491340CB607B6A96
:104B900001337B623B681A687B6A22FA03F3002BBD
:104BA0007FF48EAE00BF00BF2C37BD4680BC70477F
:104BB0000004014080B483B000AF78600B467B8076
:104BC00013467B707B78002B03D07A887B681A6150
:104BD00003E07B881A047B681A6100BF0C37BD466E
:104BE00080BC704780B485B000AF78600B467B8096
:104BF0007B68DB68FB607A88FB6813401A04FB68FB
:104C0000D9437B880B401A437B681A6100BF143775
:104C1000BD4680BC7047000080B586B000AF7860AC
:104C20007B68002B01D1012372E27B681B6803F0D3
:104C30000103002B00F08780924B5B6803F00C03AC
:104C4000042B0CD08F4B5B6803F00C03082B12D1A4
:104C50008C4B5B6803F48033B3F5803F0BD1894BF9
:104C60001B6803F40033002B6CD07B685B68002B5F
:104C700068D101234CE27B685B68B3F5803F06D1C5
:104C8000804B1B687F4A43F4803313602EE07B68BF
:104C90005B68002B0CD17B4B1B687A4A23F4803372
:104CA0001360784B1B68774A23F4802313601DE060
:104CB0007B685B68B3F5A02F0CD1724B1B68714AFF
:104CC00043F4802313606F4B1B686E4A43F48033B8
:104CD00013600BE06B4B1B686A4A23F4803313604C
:104CE000684B1B68674A23F4802313607B685B680A
:104CF000002B13D0FFF7AEF8386108E0FFF7AAF8F1
:104D000002463B69D31A642B01D9032300E25D4BB1
:104D10001B6803F40033002BF0D014E0FFF79AF87F
:104D2000386108E0FFF796F802463B69D31A642B16
:104D300001D90323ECE1534B1B6803F40033002B30
:104D4000F0D100E000BF7B681B6803F00203002B7A
:104D500063D04C4B5B6803F00C03002B0BD0494B2A
:104D60005B6803F00C03082B1CD1464B5B6803F413
:104D70008033002B16D1434B1B6803F00203002B3A
:104D800005D07B681B69012B01D00123C0E13D4B9D
:104D90001B6823F0F8027B685B69DB003949134329
:104DA0000B603AE07B681B69002B20D0364B012258
:104DB0001A60FFF74FF8386108E0FFF74BF802463A
:104DC0003B69D31A022B01D90323A1E12D4B1B68A8
:104DD00003F00203002BF0D02A4B1B6823F0F802EB
:104DE0007B685B69DB00274913430B6015E0264BAA
:104DF00000221A60FFF72EF8386108E0FFF72AF862
:104E000002463B69D31A022B01D9032380E11D4BD3
:104E10001B6803F00203002BF0D17B681B6803F0D2
:104E20000803002B3AD07B689B69002B19D0174BE5
:104E300001221A60FFF70EF8386108E0FFF70AF860
:104E400002463B69D31A022B01D9032360E10D4BC3
:104E50005B6A03F00203002BF0D0012000F00EFB90
:104E60001CE00A4B00221A60FEF7F4FF38610FE0E5
:104E7000FEF7F0FF02463B69D31A022B08D9032341
:104E800046E100BF0010024000004242800442425E
:104E9000924B5B6A03F00203002BE9D17B681B682D
:104EA00003F00403002B00F0A6800023FB758B4B5E
:104EB000DB6903F08053002B0DD1884BDB69874AF7
:104EC00043F08053D361854BDB6903F08053BB60B3
:104ED000BB680123FB75824B1B6803F48073002BB6
:104EE00018D17F4B1B687E4A43F480731360FEF732
:104EF000B1FF386108E0FEF7ADFF02463B69D31A07
:104F0000642B01D9032303E1754B1B6803F4807301
:104F1000002BF0D07B68DB68012B06D16F4B1B6A3E
:104F20006E4A43F0010313622DE07B68DB68002BBF
:104F30000CD16A4B1B6A694A23F001031362674B69
:104F40001B6A664A23F0040313621CE07B68DB687B
:104F5000052B0CD1614B1B6A604A43F004031362BA
:104F60005E4B1B6A5D4A43F0010313620BE05B4B2F
:104F70001B6A5A4A23F001031362584B1B6A574AB3
:104F800023F0040313627B68DB68002B15D0FEF767
:104F900061FF38610AE0FEF75DFF02463B69D31A04
:104FA00041F28832934201D90323B1E04B4B1B6A93
:104FB00003F00203002BEED014E0FEF74BFF386144
:104FC0000AE0FEF747FF02463B69D31A41F28832F6
:104FD000934201D903239BE0404B1B6A03F0020379
:104FE000002BEED1FB7D012B05D13C4BDB693B4A0D
:104FF00023F08053D3617B68DB69002B00F087804E
:10500000364B5B6803F00C03082B61D07B68DB69CF
:10501000022B46D1334B00221A60FEF71BFF38618A
:1050200008E0FEF717FF02463B69D31A022B01D9AD
:1050300003236DE0294B1B6803F00073002BF0D1B4
:105040007B681B6AB3F5803F08D1244BDB6A23F0F1
:105050000F027B689B6821491343CB621F4B5B683F
:1050600023F474127B68196A7B685B6A0B431B49E3
:1050700013434B601B4B01221A60FEF7EBFE3861B5
:1050800008E0FEF7E7FE02463B69D31A022B01D97E
:1050900003233DE0114B1B6803F00073002BF0D09D
:1050A00035E0104B00221A60FEF7D4FE386108E0AC
:1050B000FEF7D0FE02463B69D31A022B01D9032327
:1050C00026E0064B1B6803F00073002BF0D11EE0B6
:1050D0007B68DB69012B07D1012319E00010024036
:1050E00000700040600042420B4B5B68FB60FB6855
:1050F00003F480327B681B6A9A4206D1FB6803F492
:1051000070127B685B6A9A4201D0012300E00023A1
:1051100018461837BD4680BD0010024080B584B0E7
:1051200000AF786039607B68002B01D10123A0E0DB
:105130007B681B6803F00203002B20D07B681B6890
:1051400003F00403002B05D04C4B5B684B4A43F43F
:10515000E06353607B681B6803F00803002B05D0F5
:10516000464B5B68454A43F460535360434B5B686E
:1051700023F0F0027B689B68404913434B607B68D7
:105180001B6803F00103002B40D07B685B68012B98
:1051900007D13A4B1B6803F40033002B15D10123D0
:1051A00067E07B685B68022B07D1344B1B6803F018
:1051B0000073002B09D101235BE0304B1B6803F027
:1051C0000203002B01D1012353E02C4B5B6823F039
:1051D00003027B685B68294913434B60FEF73AFE84
:1051E000F8600AE0FEF736FE0246FB68D31A41F289
:1051F0008832934201D903233BE0204B5B6803F0E4
:105200000C027B685B689B009A42EBD17B681B6851
:1052100003F00403002B08D0184B5B6823F4E06212
:105220007B68DB68154913434B607B681B6803F0A0
:105230000803002B09D0114B5B6823F460527B6894
:105240001B69DB000D4913434B6000F057F8024621
:105250000A4B5B681B0903F00F030949CB5C22FA78
:1052600003F3084A1360084B1B681846FEF7B6FBA9
:10527000002318461037BD4680BD00BF0010024015
:1052800094EF00081C0000202000002080B58AB0A8
:1052900000AFF860B9607A6007F1180300221A6065
:1052A0005A609A60DA600223FB6103237B62002369
:1052B0003B624FF48073BB610E4B9B690D4A43F018
:1052C000040393610B4B9B6903F004037B617B69CF
:1052D00007F1180319460848FFF7E8FA054B5B6821
:1052E00023F0E0620349BB6813434B6000BF2837DB
:1052F000BD4680BD001002400008014090B48EB051
:1053000000AF2A4B07F114040FCB84E80F00284BA1
:105310003C1D0FCB84E80F000023FB620023BB621F
:1053200000237B6300237B6200233B63214B5B688C
:10533000FB62FB6A03F00C03042B02D0082B03D0A2
:105340002AE01D4B3B632AE0FB6A9B0C03F00F0332
:1053500038333B4413F8243C7B62FB6A03F480330C
:10536000002B11D0134BDB6A03F00F0338333B449F
:1053700013F8343CBB627B6A0F4A03FB02F2BB6A40
:10538000B2FBF3F37B6304E07B6A0C4A02FB03F39A
:105390007B637B6B3B6302E0074B3B6300BF3B6B74
:1053A00018463837BD4690BC704700BF6C73000884
:1053B0007C7300080010024000127A0000093D00D2
:1053C00080B400AF024B1B681846BD4680BC7047D6
:1053D0001C00002080B500AFFFF7F2FF0246054B2E
:1053E0005B681B0A03F007030349CB5C22FA03F353
:1053F000184680BD00100240A4EF000880B500AF41
:10540000FFF7DEFF0246054B5B68DB0A03F007038C
:105410000349CB5C22FA03F3184680BD001002401A
:10542000A4EF000880B483B000AF786039607B6877
:105430000F221A60104B5B6803F003027B685A600E
:105440000D4B5B6803F0F0027B689A600A4B5B6867
:1054500003F4E0627B68DA60074B5B68DB0803F407
:10546000E0627B681A613B6800221A6000BF0C375B
:10547000BD4680BC704700BF0010024080B485B0BC
:1054800000AF78600A4B1B680A4AA2FB03235B0A41
:105490007A6802FB03F3FB6000BFFB685A1EFA60E8
:1054A000002BF9D100BF00BF1437BD4680BC704748
:1054B0001C000020D34D621080B586B000AF78602C
:1054C00000233B610023FB607B681B6803F0010342
:1054D000002B7DD00023FB75474BDB6903F0805325
:1054E000002B0DD1444BDB69434A43F08053D36119
:1054F000414BDB6903F08053BB60BB680123FB7544
:105500003E4B1B6803F48073002B18D13B4B1B6888
:105510003A4A43F480731360FEF79CFC386108E05C
:10552000FEF798FC02463B69D31A642B01D903238A
:105530005EE0324B1B6803F48073002BF0D02E4BDF
:105540001B6A03F44073FB60FB68002B2ED07B6862
:105550005B6803F44073FA689A4227D0264B1B6AB3
:1055600023F44073FB60264B01221A60244B002277
:105570001A60214AFB681362FB6803F00103002BE9
:1055800014D0FEF767FC38610AE0FEF763FC0246C0
:105590003B69D31A41F28832934201D9032327E0B1
:1055A000154B1B6A03F00203002BEED0124B1B6A53
:1055B00023F440727B685B680F4913430B62FB7DE9
:1055C000012B05D10C4BDB690B4A23F08053D361CF
:1055D0007B681B6803F00203002B08D0064B5B6856
:1055E00023F440427B689B68034913434B600023CC
:1055F00018461837BD4680BD0010024000700040BC
:105600004004424280B584B000AF78600023BB60A4
:105610000023FB607B68012B03D07B68022B33D017
:1056200041E0234B1B6ABB60BB6803F44073B3F5D6
:10563000807F08D1BB6803F00203002B03D04FF436
:105640000043FB601FE0BB6803F44073B3F5007FC9
:1056500009D1174B5B6A03F00203002B03D049F614
:105660004043FB600FE0BB6803F44073B3F5407F39
:1056700018D10F4B1B6803F40033002B12D04FF2EC
:105680002443FB600EE00DE0FFF7B8FE0246084B36
:105690005B689B0B03F0030301335B00B2FBF3F386
:1056A000FB6000E000BFFB6818461037BD4680BDB8
:1056B0000010024080B582B000AF78607B68002B9C
:1056C00001D101236EE07B685B6A002B08D17B6807
:1056D0005B68B3F5827F09D07B680022DA6105E060
:1056E0007B6800221A617B6800225A617B68002275
:1056F0009A627B6893F85130DBB2002B06D17B684D
:10570000002283F850207868FEF770F87B68022248
:1057100083F851207B681B681A687B681B6822F03D
:1057200040021A607B685B6803F482727B689B6846
:1057300003F404431A437B68DB6803F400631A43F1
:105740007B681B6903F002031A437B685B6903F003
:1057500001031A437B689B6903F400731A437B6857
:10576000DB6903F038031A437B681B6A03F080038C
:1057700042EA03017B689B6A03F400527B681B6862
:105780000A431A607B689B691A0C7B681B6802F0ED
:1057900004025A607B6800225A657B68012283F804
:1057A0005120002318460837BD4680BD80B588B01B
:1057B00000AFF860B9603B601346FB800023FB77C5
:1057C000FB6893F85030012B01D1022326E1FB68DE
:1057D000012283F85020FEF73DFBB861FB88FB8275
:1057E000FB6893F85130DBB2012B02D00223FB7728
:1057F0000BE1BB68002B02D0FB88002B02D10123F8
:10580000FB7702E1FB68032283F85120FB6800224A
:105810005A65FB68BA681A63FB68FA889A86FB685F
:10582000FA88DA86FB6800229A63FB6800229A876E
:10583000FB680022DA87FB6800225A64FB680022BA
:105840001A64FB689B68B3F5004F0FD1FB681B68B7
:105850001A68FB681B6822F040021A60FB681B682C
:105860001A68FB681B6842F480421A60FB681B6878
:105870001B6803F04003402B07D0FB681B681A68C5
:10588000FB681B6842F040021A60FB68DB68B3F5F6
:10589000006F4BD1FB685B68002B02D0FB8A012BA9
:1058A0003ED1FB681B6B1A88FB681B68DA60FB68DB
:1058B0001B6B9A1CFB681A63FB68DB8E9BB2013B77
:1058C0009AB2FB68DA862BE0FB681B689B6803F0E2
:1058D0000203022B12D1FB681B6B1A88FB681B6842
:1058E000DA60FB681B6B9A1CFB681A63FB68DB8E33
:1058F0009BB2013B9AB2FB68DA8611E0FEF7AAFA86
:105900000246BB69D31A3A689A4203D83B68B3F19E
:10591000FF3F02D13B68002B02D10323FB7774E0E9
:10592000FB68DB8E9BB2002BCED14CE0FB685B6842
:10593000002B02D0FB8A012B40D1FB681A6BFB685D
:105940001B680C3312781A70FB681B6B5A1CFB68BF
:105950001A63FB68DB8E9BB2013B9AB2FB68DA8666
:105960002CE0FB681B689B6803F00203022B13D139
:10597000FB681A6BFB681B680C3312781A70FB68A3
:105980001B6B5A1CFB681A63FB68DB8E9BB2013BE6
:105990009AB2FB68DA8611E0FEF75CFA0246BB6950
:1059A000D31A3A689A4203D83B68B3F1FF3F02D159
:1059B0003B68002B02D10323FB7726E0FB68DB8EDC
:1059C0009BB2002BCDD1BA693968F86800F0B8FBFA
:1059D0000346002B02D0FB6820225A65FB689B68B7
:1059E000002B0AD100233B61FB681B68DB683B612D
:1059F000FB681B689B683B613B69FB685B6D002B28
:105A000002D00123FB7700E000BFFB68012283F88E
:105A10005120FB68002283F85020FB7F1846203776
:105A2000BD4680BD80B588B002AFF860B9603B600C
:105A30001346FB800023FB75FB685B68B3F5827F30
:105A400012D1FB689B68002B0ED1FB68042283F8FF
:105A50005120FA883B6800931346BA68B968F86821
:105A600000F0F1F80346EAE0FB6893F85030012BB0
:105A700001D10223E3E0FB68012283F85020FEF706
:105A8000E9F93861FB6893F85130DBB2012B02D0A1
:105A90000223FB75CAE0BB68002B02D0FB88002BF9
:105AA00002D10123FB75C1E0FB68042283F8512079
:105AB000FB6800225A65FB68BA689A63FB68FA883B
:105AC0009A87FB68FA88DA87FB6800221A63FB680A
:105AD00000229A86FB680022DA86FB6800221A649C
