:020000040800F2
:100000000020002069530008F14F0008F74F000856
:10001000FD4F0008035000080950000800000000D0
:100020000000000000000000000000000F50000869
:100030001B50000800000000275000083350000843
:10004000B1530008B1530008B1530008B153000880
:10005000B1530008B1530008B1530008B153000870
:10006000B1530008B1530008B1530008B153000860
:10007000B1530008B1530008B1530008B153000850
:10008000B1530008B1530008B1530008000000004C
:10009000000000000000000000000000B153000854
:1000A000B1530008B1530008B1530008B153000820
:1000B00041500008B1530008B1530008B153000883
:1000C000B15300080000000000000000B153000818
:1000D000B1530008B1530008B1530008B1530008F0
:1000E000B1530008B1530008B153000800000000EC
:1000F0000000000000000000000000000000000000
:1001000000000000000000000000000000000000EF
:10011000000000000000000055500008B153000826
:1001200000000000000000000000000000000000CF
:1001300000000000000000000000000000000000BF
:1001400000000000000000000000000000000000AF
:10015000000000000000000000000000000000009F
:10016000000000000000000000000000000000008F
:10017000000000000000000000000000000000007F
:10018000000000000000000000000000000000006F
:10019000000000000000000000000000000000005F
:1001A000000000000000000000000000000000004F
:1001B000000000000000000000000000000000003F
:1001C0000000000000000000000000005FF808F1DF
:1001D00010B5054C237833B9044B13B10448AFF381
:1001E00000800123237010BDA0000020000000004B
:1001F0002886000808B5034B1BB103490348AFF339
:10020000008008BD00000000A4000020288600082F
:10021000034613F8012B002AFBD1181A0138704746
:1002200081F0004102E000BF83F0004330B54FEAA7
:1002300041044FEA430594EA050F08BF90EA020F14
:100240001FBF54EA000C55EA020C7FEA645C7FEAA7
:10025000655C00F0E2804FEA5454D4EB5555B8BFCA
:100260006D420CDD2C4480EA020281EA030382EA3B
:10027000000083EA010180EA020281EA0303362DCD
:1002800088BF30BD11F0004F4FEA01314FF4801CA0
:100290004CEA113102D0404261EB410113F0004FB2
:1002A0004FEA03334CEA133302D0524263EB430369
:1002B00094EA050F00F0A780A4F10104D5F1200E07
:1002C0000DDB02FA0EFC22FA05F2801841F1000162
:1002D00003FA0EF2801843FA05F359410EE0A5F136
:1002E00020050EF1200E012A03FA0EFC28BF4CF067
:1002F000020C43FA05F3C01851EBE37101F000451D
:1003000007D54FF0000EDCF1000C7EEB00006EEB29
:100310000101B1F5801F1BD3B1F5001F0CD34908B3
:100320005FEA30004FEA3C0C04F101044FEA44520A
:1003300012F5800F80F09A80BCF1004F08BF5FEA91
:10034000500C50F1000041EB045141EA050130BD71
:100350005FEA4C0C404141EB0101013C28BFB1F583
:10036000801FE9D291F0000F04BF01460020B1FACE
:1003700081F308BF2033A3F10B03B3F120020CDAA1
:100380000C3208DD02F1140CC2F10C0201FA0CF07F
:1003900021FA02F10CE002F11402D8BFC2F1200CE4
:1003A00001FA02F120FA0CFCDCBF41EA0C0190409A
:1003B000E41AA2BF01EB0451294330BD6FEA0404E3
:1003C0001F3C1CDA0C340EDC04F11404C4F12002CE
:1003D00020FA04F001FA02F340EA030021FA04F3E0
:1003E00045EA030130BDC4F10C04C4F1200220FA37
:1003F00002F001FA04F340EA0300294630BD21FA75
:1004000004F0294630BD94F0000F83F4801306BF3A
:1004100081F480110134013D4EE77FEA645C18BF2E
:100420007FEA655C29D094EA050F08BF90EA020FC5
:1004300005D054EA000C04BF1946104630BD91EABD
:10044000030F1EBF0021002030BD5FEA545C05D1C0
:100450004000494128BF41F0004130BD14F58004FF
:100460003CBF01F5801130BD01F0004545F0FE4173
:1004700041F470014FF0000030BD7FEA645C1ABFA8
:10048000194610467FEA655C1CBF0B46024650EADF
:10049000013406BF52EA033591EA030F41F400210B
:1004A00030BD00BF90F0000F04BF0021704730B591
:1004B0004FF4806404F132044FF000054FF0000166
:1004C00050E700BF90F0000F04BF0021704730B527
:1004D0004FF4806404F1320410F0004548BF4042FC
:1004E0004FF000013EE700BF42004FEAE2014FEA51
:1004F00031014FEA02701FBF12F07F4393F07F4F2C
:1005000081F06051704732F07F4208BF704793F02E
:100510007F4F04BF41F40021704730B54FF4607441
:1005200001F0004521F000411CE700BF50EA010244
:1005300008BF704730B54FF000050AE050EA0102ED
:1005400008BF704730B511F0004502D5404261EB5D
:1005500041014FF4806404F132045FEA915C3FF49E
:10056000D8AE4FF003025FEADC0C18BF03325FEA3B
:10057000DC0C18BF033202EBDC02C2F1200300FAEC
:1005800003FC20FA02F001FA03FE40EA0E0021FA11
:1005900002F11444BDE600BF70B54FF0FF0C4CF4FF
:1005A000E06C1CEA11541DBF1CEA135594EA0C0FB1
:1005B00095EA0C0F00F0DEF82C4481EA030621EAEC
:1005C0004C5123EA4C5350EA013518BF52EA033527
:1005D00041F4801143F4801338D0A0FB02CE4FF0D9
:1005E0000005E1FB02E506F00042E0FB03E54FF009
:1005F0000006E1FB03569CF0000F18BF4EF0010E01
:10060000A4F1FF04B6F5007F64F5407404D25FEAFC
:100610004E0E6D4146EB060642EAC62141EA5551AF
:100620004FEAC52040EA5E504FEACE2EB4F1FD0CF1
:1006300088BFBCF5E06F1ED8BEF1004F08BF5FEA6F
:10064000500E50F1000041EB045170BD06F0004621
:1006500046EA010140EA020081EA0301B4EB5C04CE
:10066000C2BFD4EB0C0541EA045170BD41F48011C6
:100670004FF0000E013C00F3AB8014F1360FDEBFEB
:10068000002001F0004170BDC4F10004203C35DAC7
:100690000C341BDC04F11404C4F1200500FA05F34A
:1006A00020FA04F001FA05F240EA020001F00042EB
:1006B00021F0004110EBD37021FA04F642EB060161
:1006C0005EEA430E08BF20EAD37070BDC4F10C048B
:1006D000C4F1200500FA04F320FA05F001FA04F24F
:1006E00040EA020001F0004110EBD37041F100013B
:1006F0005EEA430E08BF20EAD37070BDC4F1200546
:1007000000FA05F24EEA020E20FA04F301FA05F2AD
:1007100043EA020321FA04F001F0004121FA04F255
:1007200020EA020000EBD3705EEA430E08BF20EA25
:10073000D37070BD94F0000F0FD101F0004640005F
:1007400041EB010111F4801F08BF013CF7D041EAE1
:10075000060195F0000F18BF704703F000465200E5
:1007600043EB030313F4801F08BF013DF7D043EAB6
:100770000603704794EA0C0F0CEA135518BF95EA6C
:100780000C0F0CD050EA410618BF52EA4306D1D1F3
:1007900081EA030101F000414FF0000070BD50EA12
:1007A000410606BF1046194652EA430619D094EA9C
:1007B0000C0F02D150EA013613D195EA0C0F05D186
:1007C00052EA03361CBF104619460AD181EA0301DA
:1007D00001F0004141F0FE4141F470014FF0000092
:1007E00070BD41F0FE4141F4780170BD70B54FF02D
:1007F000FF0C4CF4E06C1CEA11541DBF1CEA1355AD
:1008000094EA0C0F95EA0C0F00F0A7F8A4EB05048E
:1008100081EA030E52EA03354FEA013100F0888085
:100820004FEA03334FF0805545EA131343EA12634E
:100830004FEA022245EA111545EA10654FEA002603
:100840000EF000419D4208BF964244F1FD0404F5BC
:10085000407402D25B084FEA3202B61A65EB030518
:100860005B084FEA32024FF480104FF4002CB6EBD5
:10087000020E75EB030E22BFB61A754640EA0C0055
:100880005B084FEA3202B6EB020E75EB030E22BF95
:10089000B61A754640EA5C005B084FEA3202B6EBD6
:1008A000020E75EB030E22BFB61A754640EA9C0095
:1008B0005B084FEA3202B6EB020E75EB030E22BF65
:1008C000B61A754640EADC0055EA060E18D04FEA23
:1008D000051545EA16754FEA06164FEAC30343EAC3
:1008E00052734FEAC2025FEA1C1CC0D111F4801F90
:1008F0000BD141EA00014FF000004FF0004CB6E789
:1009000011F4801F04BF01430020B4F1FD0C88BF27
:10091000BCF5E06F3FF6AFAEB5EB030C04BFB6EB32
:10092000020C5FEA500C50F1000041EB045170BD25
:100930000EF0004E4EEA113114EB5C04C2BFD4EB52
:100940000C0541EA045170BD41F480114FF0000ED6
:10095000013C90E645EA060E8DE60CEA135594EA52
:100960000C0F08BF95EA0C0F3FF43BAF94EA0C0F55
:100970000AD150EA01347FF434AF95EA0C0F7FF4CA
:1009800025AF104619462CE795EA0C0F06D152EA1E
:1009900003353FF4FDAE1046194622E750EA410602
:1009A00018BF52EA43067FF4C5AE50EA41047FF413
:1009B0000DAF52EA43057FF4EBAE12E74FEA410276
:1009C000B2F1E04324BFB3F5001CDCF1FE5C0DD9AD
:1009D00001F0004C4FEAC0024CEA5070B2F1004FF7
:1009E00040EB830008BF20F00100704711F0804FFA
:1009F00021D113F13872BCBF01F00040704741F4BF
:100A000080114FEA5252C2F11802C2F1200C10FAC2
:100A10000CF320FA02F018BF40F001004FEAC123A6
:100A20004FEAD32303FA0CFC40EA0C0023FA02F34A
:100A30004FEA4303CCE77FEA625307D150EA013320
:100A40001EBF4FF0FE4040F44000704701F00040F0
:100A500040F0FE4040F40000704700BF80F00040CE
:100A600002E000BF81F0004142001FBF5FEA410386
:100A700092EA030F7FEA226C7FEA236C6AD04FEA86
:100A80001262D2EB1363C1BFD218414048404140CB
:100A9000B8BF5B42192B88BF704710F0004F40F47D
:100AA000000020F07F4018BF404211F0004F41F499
:100AB000000121F07F4118BF494292EA030F3FD065
:100AC000A2F1010241FA03FC10EB0C00C3F1200378
:100AD00001FA03F100F0004302D5494260EB400007
:100AE000B0F5000F13D3B0F1807F06D340084FEA72
:100AF000310102F10102FE2A51D2B1F1004F40EB67
:100B0000C25008BF20F0010040EA030070474900CE
:100B100040EB0000013A28BFB0F5000FEDD2B0FA6B
:100B200080FCACF1080CB2EB0C0200FA0CF0AABF8E
:100B300000EBC25052421843BCBFD040184370472C
:100B400092F0000F81F4000106BF80F40000013232
:100B5000013BB5E74FEA41037FEA226C18BF7FEA09
:100B6000236C21D092EA030F04D092F0000F08BF4B
:100B70000846704790EA010F1CBF0020704712F032
:100B80007F4F04D1400028BF40F00040704712F171
:100B900000723CBF00F50000704700F0004343F0D6
:100BA000FE4040F4000070477FEA226216BF08460C
:100BB0007FEA23630146420206BF5FEA412390EACF
:100BC000010F40F4800070474FF0000304E000BFC5
:100BD00010F0004348BF40425FEA000C08BF704776
:100BE00043F0964301464FF000001CE050EA01023A
:100BF00008BF70474FF000030AE000BF50EA01024F
:100C000008BF704711F0004302D5404261EB41013B
:100C10005FEA010C02BF84460146002043F0B64360
:100C200008BFA3F18053A3F50003BCFA8CF2083A85
:100C3000A3EBC25310DB01FA02FC634400FA02FC8E
:100C4000C2F12002BCF1004F20FA02F243EB020095
:100C500008BF20F00100704702F1200201FA02FCF7
:100C6000C2F1200250EA4C0021FA02F243EB0200EA
:100C700008BF20EADC7070474FF0FF0C1CEAD0522E
:100C80001EBF1CEAD15392EA0C0F93EA0C0F6FD0EF
:100C90001A4480EA010C400218BF5FEA41211ED0CD
:100CA0004FF0006343EA501043EA5111A0FB0131B9
:100CB0000CF00040B1F5000F3EBF490041EAD3718E
:100CC0005B0040EA010062F17F02FD2A1DD8B3F10A
:100CD000004F40EBC25008BF20F00100704790F079
:100CE000000F0CF0004C08BF49024CEA502040EACB
:100CF00051207F3AC2BFD2F1FF0340EAC250704791
:100D000040F400004FF00003013A5DDC12F1190FCE
:100D1000DCBF00F000407047C2F10002410021FA40
:100D200002F1C2F1200200FA02FC5FEA310040F158
:100D3000000053EA4C0308BF20EADC70704792F0D1
:100D4000000F00F0004C02BF400010F4000F013A09
:100D5000F9D040EA0C0093F0000F01F0004C02BF04
:100D6000490011F4000F013BF9D041EA0C018FE773
:100D70000CEAD15392EA0C0F18BF93EA0C0F0AD079
:100D800030F0004C18BF31F0004CD8D180EA01009F
:100D900000F00040704790F0000F17BF90F0004F38
:100DA000084691F0000F91F0004F14D092EA0C0F1A
:100DB00001D142020FD193EA0C0F03D14B0218BFAD
:100DC000084608D180EA010000F0004040F0FE40F3
:100DD00040F40000704740F0FE4040F4400070478F
:100DE0004FF0FF0C1CEAD0521EBF1CEAD15392EA0E
:100DF0000C0F93EA0C0F69D0A2EB030280EA010CFE
:100E000049024FEA402037D04FF0805343EA111196
:100E100043EA10130CF000408B4238BF5B0042F1F4
:100E20007D024FF4000C8B4224BF5B1A40EA0C0099
:100E3000B3EB510F24BFA3EB510340EA5C00B3EBCB
:100E4000910F24BFA3EB910340EA9C00B3EBD10FB9
:100E500024BFA3EBD10340EADC001B0118BF5FEA0B
:100E60001C1CE0D1FD2A3FF650AF8B4240EBC25034
:100E700008BF20F0010070470CF0004C4CEA5020F5
:100E80007F32C2BFD2F1FF0340EAC250704740F444
:100E900000004FF00003013A37E792F0000F00F036
:100EA000004C02BF400010F4000F013AF9D040EAB4
:100EB0000C0093F0000F01F0004C02BF490011F448
:100EC000000F013BF9D041EA0C0195E70CEAD15340
:100ED00092EA0C0F08D142027FF47DAF93EA0C0F27
:100EE0007FF470AF084676E793EA0C0F04D14B020B
:100EF0003FF44CAF08466EE730F0004C18BF31F0BD
:100F0000004CCAD130F000427FF45CAF31F00043B6
:100F10007FF43CAF5FE700BF4FF0FF3C06E000BF4F
:100F20004FF0010C02E000BF4FF0010C4DF804CD72
:100F30004FEA40024FEA41037FEA226C18BF7FEA82
:100F4000236C11D001B052EA530C18BF90EA010F84
:100F500058BFB2EB030088BFC81738BF6FEAE17013
:100F600018BF40F0010070477FEA226C02D15FEAAF
:100F7000402C05D17FEA236CE4D15FEA412CE1D01B
:100F80005DF8040B704700BF844608466146FFE7E2
:100F90000FB5FFF7C9FF002848BF10F1000F0FBDC4
:100FA0004DF808EDFFF7F4FF0CBF012000205DF8BD
:100FB00008FB00BF4DF808EDFFF7EAFF34BF012042
:100FC00000205DF808FB00BF4DF808EDFFF7E0FFDB
:100FD00094BF012000205DF808FB00BF4DF808ED2C
:100FE000FFF7D2FF94BF012000205DF808FB00BF8F
:100FF0004DF808EDFFF7C8FF34BF012000205DF871
:1010000008FB00BF42000ED2B2F1FE4F0BD34FF0EF
:101010009E03B3EB126209D44FEA002343F000436E
:1010200023FA02F070474FF00000704712F1610F91
:1010300001D1420202D14FF0FF3070474FF0000063
:10104000704700BF7BB972B90029BEBF00204FF0C6
:10105000004106E008BF00281CBF6FF000414FF0C0
:10106000FF3000F0A1B9ADF1080C6DE904CE002904
:1010700009DB002B1ADB00F035F8DDF804E0DDE9D0
:10108000022304B07047404261EB4101002B1BDB9F
:1010900000F028F8DDF804E0DDE9022304B0404266
:1010A00061EB4101524263EB43037047524263EBF1
:1010B000430300F017F8DDF804E0DDE9022304B093
:1010C000404261EB41017047524263EB430300F041
:1010D00009F8DDF804E0DDE9022304B0524263EBD5
:1010E000430370472DE9F047089E0D4604468E469F
:1010F000002B40F083808A42174647D9B2FA82F328
:101100004BB1C3F1200105FA03FE20FA01F19F4023
:1011100041EA0E0E9C404FEA1748BEFBF8FC1FFA4E
:1011200087F908FB1CE20CFB09F0210C41EA0242A2
:1011300090420AD9BA180CF1FF3180F01881904220
:1011400040F21581ACF1020C3A44121AB2FBF8F0ED
:1011500008FB102200FB09F1A4B244EA0244A142B8
:1011600009D93C1900F1FF3280F00381A14240F21D
:10117000008102383C44641A002140EA0C401EB150
:101180000022DC40C6E90042BDE8F08702B9FFDE7C
:10119000B2FA82F3002B4FD18D1A01214FEA124E81
:1011A0001FFA82F8B5FBFEFC0EFB1C5508FB0CF089
:1011B000220C42EA0545A84207D97D190CF1FF32FD
:1011C00002D2A84200F2E98094462D1AB5FBFEF047
:1011D0000EFB105508FB00F8A4B244EA0544A045F4
:1011E00007D93C1900F1FF3202D2A04500F2D980A4
:1011F0001046A4EB080440EA0C40C0E78B4208D933
:10120000002E00F0B1800021C6E900050846BDE8C7
:10121000F087B3FA83F100294BD1AB4202D382426B
:1012200000F2B980841A65EB030301209E46002E6C
:10123000AAD0C6E9004EA7E79F40C3F12002D140E3
:101240004FEA174EB1FBFEF01FFA87F80EFB1011A4
:1012500024FA02F29D4000FB08FC2A43150C45EAE3
:101260000145AC4504FA03F409D97D1900F1FF31B9
:1012700080F08F80AC4540F28C8002383D44A5EB75
:101280000C05B5FBFEF10EFB115C01FB08F995B2F4
:1012900045EA0C45A94507D97D1901F1FF3274D201
:1012A000A94572D902393D44A5EB090541EA00413F
:1012B00078E7C1F120078B4022FA07FC4CEA030CC7
:1012C00025FA07F44FEA1C4EB4FBFEF91FFA8CF81E
:1012D0000EFB194420FA07F309FB08FA8D401D4361
:1012E0002B0C43EA0444A24502FA01F200FA01F38E
:1012F00009D91CEB040409F1FF3048D2A24546D9B4
:10130000A9F102096444A4EB0A04B4FBFEF00EFB4D
:10131000104400FB08FAADB245EA0444A24508D9DE
:101320001CEB040400F1FF352DD2A2452BD9023865
:10133000644440EA0940A0FB0289A4EB0A044C453E
:10134000C6464D4619D316D05EB1B3EB0E0264EB20
:10135000050404FA07F722FA01F31F43CC40C6E95B
:1013600000740021BDE8F087314630460CE78C461A
:10137000EBE61046FFE64345E6D2B8EB020E69EB1A
:101380000C050138E0E72846D3E711468CE7814693
:10139000B9E7084673E7084649E7ACF1020C3D445B
:1013A00013E702383C4424E7704700BF0000000008
:1013B00090B59BB000AF7860396001237B66002355
:1013C000A7F8623007F1080310220021184607F041
:1013D000C9F8386804F012F96421386804F0AEF9ED
:1013E000034687F8613097F86130002B4FD1386899
:1013F00004F0AAFAF865386804F074F9F86DFFF79C
:10140000E3FB034640491846FFF7EAFC034619464A
:101410001846FFF729FB03461846FFF765F836A381
:10142000D3E90023FFF7B8F802460B4610461946E9
:1014300033A3D3E90023FFF7AFF802460B4610466B
:101440001946FFF7BBFA0346BB653049B86DFFF795
:1014500009FB0346BB652E49B86DFFF70DFC03463B
:101460001846FFF741F802460B461046194607F0AA
:1014700093F84FF00002274BFFF7B8F902460B46EE
:1014800010461946FFF79AFA0346C7F80A30662352
:101490003B810623A7F86230B7F8622007F1080302
:1014A0001146184601F0BEFD0346FB8107F1080313
:1014B00007F108010822786802F064F807F11804BF
:1014C00007F108030FCB84E80F0007F11803102180
:1014D000184603F03FFA034687F8613097F8613009
:1014E000002B01D000237B667B6E18466C37BD460F
:1014F00090BD00BFAFF300806666666666660A4010
:101500009A9999999999F13F00F07F458FC2F53EDC
:10151000000020410000244080B487B000AFF86094
:10152000B9607A6000237B610CE07B699B007A687C
:101530001A447B699B00B9680B4412681A607B6986
:1015400001337B617B690F2BEFDD00BF00BF1C37D0
:10155000BD4680BC704780B485B000AF786039600C
:101560000023FB6008E0FB689B003A6813440022FC
:101570001A60FB680133FB60FB680F2BF3DD00BFD3
:1015800000BF1437BD4680BC704780B5A6B000AF21
:10159000F860B9607A603B600023C7F894300BE0D4
:1015A000D7F894309B00BA68134400221A60D7F829
:1015B00094300133C7F89430D7F894301F2BEFDD07
:1015C0000023C7F894309CE01023C7F890300DE05A
:1015D000D7F890309B0007F198021344002243F89B
:1015E000882CD7F890300133C7F89030D7F8903076
:1015F0001F2BEDDD0023C7F890301DE0D7F89030A9
:101600009B003A6813441968D7F894309B007A68B5
:1016100013441B681A46F86802F060F80246D7F8CF
:1016200090309B0007F198010B4443F8882CD7F8C1
:1016300090300133C7F89030D7F890300F2BDDDDB4
:101640001F23C7F8903017E0D7F89020D7F89430D0
:10165000D31A9B0007F19802134453F8882CD7F84B
:1016600090309B0007F198010B4443F8882CD7F881
:101670009030013BC7F89030D7F89020D7F89430DD
:101680009A42E1DA0023C7F890300DE0D7F89030A5
:101690009B0007F198021344002243F8882CD7F8E6
:1016A00090300133C7F89030D7F89020D7F89430B5
:1016B0009A42EBDB0023C7F8903019E0D7F890305E
:1016C0009B00BA6813441968D7F890309B0007F163
:1016D0009802134453F8882CD7F890309B00B868D0
:1016E00003444A401A60D7F890300133C7F890306D
:1016F000D7F890301F2BE1DDD7F894300133C7F8CD
:101700009430D7F894300F2B7FF75EAF00BF00BF47
:101710009837BD4680BD80B483B000AF03463960C2
:10172000FB713B68013B012202FA03F35AB297F9BD
:10173000073013435BB2DBB218460C37BD4680BCA2
:10174000704780B483B000AF03463960FB713B68DB
:10175000013B012202FA03F35BB2DB435AB297F971
:10176000073013405BB2DBB218460C37BD4680BC75
:101770007047000080B584B000AF0346FB710022C3
:101780000421194804F0E4FCFB7908211846FFF70E
:10179000C2FF03467B73154B186807F10D014FF428
:1017A0007A73012205F098FA0346FB73012003F0D7
:1017B00029FE0E4B186807F10E014FF47A730122CF
:1017C00005F0C6FB0346FB73FB7B002B01D0FF2318
:1017D000BB7301220421044804F0BAFCBB7B184609
:1017E0001037BD4680BD00BF000C0140BC0000208A
:1017F00080B584B000AF03460A46FB711346BB7147
:1018000000220421154804F0A3FCFB7908211846A6
:10181000FFF797FF0346BB73114B186807F10E01E2
:101820004FF47A73012205F057FA0346FB73012047
:1018300003F0E8FD0A4B1868B91D4FF47A730122D2
:1018400005F04AFA0346FB7301220421034804F021
:101850007FFCFB7B18461037BD4680BD000C014065
:10186000BC00002080B588B000AF0346B9607A6044
:10187000FB73002204211D4804F06AFCFB7B082155
:101880001846FFF748FF0346FB75194B186807F128
:1018900017014FF47A73012205F01EFA0346FB7715
:1018A000012003F0AFFD0023BB6111E0104B18686D
:1018B000BB69BA68D1184FF47A73012205F048FB6E
:1018C0000346FB77012003F09DFDBB690133BB613B
:1018D000BA697B689A42E9DB01220421034804F0DB
:1018E00037FCFB7F18462037BD4680BD000C014009
:1018F000BC00002090B583B000AF0023FB718920AD
:10190000FFF738FF03469BB21B029CB28820FFF70B
:1019100031FF03469BB223449AB2894B1A808B2035
:10192000FFF728FF03469BB21B029CB28A20FFF7F9
:1019300021FF03469BB223449BB21AB2804B5A80CC
:101940008D20FFF717FF03469BB21B029CB28C2031
:10195000FFF710FF03469BB223449BB21AB2784BA9
:101960009A808F20FFF706FF03469BB21B029CB2B2
:101970008E20FFF7FFFE03469BB223449AB2704BC2
:10198000DA809120FFF7F6FE03469BB21B029CB261
:101990009020FFF7EFFE03469BB223449BB21AB29E
:1019A000674B1A819320FFF7E5FE03469BB21B02AB
:1019B0009CB29220FFF7DEFE03469BB223449BB20B
:1019C0001AB25F4B5A819520FFF7D4FE03469BB2B3
:1019D0001B029CB29420FFF7CDFE03469BB223442A
:1019E0009BB21AB2564B9A819720FFF7C3FE03466B
:1019F0009BB21B029CB29620FFF7BCFE03469BB233
:101A000023449BB21AB24E4BDA819920FFF7B2FE03
:101A100003469BB21B029CB29820FFF7ABFE034625
:101A20009BB223449BB21AB2454B1A829B20FFF70C
:101A3000A1FE03469BB21B029CB29A20FFF79AFEBE
:101A400003469BB223449BB21AB23D4B5A829D205F
:101A5000FFF790FE03469BB21B029CB29C20FFF74F
:101A600089FE03469BB223449BB21AB2344B9A823E
:101A70009F20FFF77FFE03469BB21B029CB29E2075
:101A8000FFF778FE03469BB223449BB21AB22C4B5D
:101A9000DA82A120FFF76EFE03461A46284B1A761B
:101AA000E220FFF767FE03469BB21B029CB2E120D7
:101AB000FFF760FE03469BB223449BB21AB2204B51
:101AC0005A83E320FFF756FE03461A461C4B1A774B
:101AD000E420FFF74FFE03469BB21B019CB2E520BA
:101AE000FFF748FE03469BB203F00F039BB223446B
:101AF0009BB21AB2124BDA83E620FFF73BFE034695
:101B00009BB21B019CB2E520FFF734FE03461B0984
:101B1000DBB29BB203F00F039BB223449BB21AB219
:101B2000074B1A84E720FFF725FE03465AB2044B01
:101B300083F82220FB7918460C37BD4690BD00BFC4
:101B4000C000002080B584B000AF0346FB710023C5
:101B5000FB73FB79072B01D90023FB71F520FFF7FD
:101B600009FE0346BB73BB7B03F01F03BB73FB790A
:101B70005B015AB297F90E3013435BB2BB73BB7B68
:101B80001946F520FFF734FEFB7B18461037BD469B
:101B900080BD80B584B000AF0346FB710023FB73AA
:101BA000FB79072B01D90023FB71F520FFF7E2FD3C
:101BB0000346BB73BB7B23F01C03BB73FB799B0009
:101BC0005AB297F90E3013435BB2BB73BB7B194615
:101BD000F520FFF70DFEFB7B18461037BD4680BD94
:101BE00080B483B000AF0346FB71FB79102B31D872
:101BF00001A252F823F000BF3D1C0008411C000860
:101C0000451C0008551C0008491C0008551C00080C
:101C1000551C0008551C00084D1C0008551C0008E8
:101C2000551C0008551C0008551C0008551C0008D0
:101C3000551C0008551C0008511C000800230AE030
:101C4000012308E0022306E0032304E0042302E06A
:101C5000052300E0012318460C37BD4680BC7047C1
:101C600080B582B000AFF420FFF784FD0346FB711E
:101C7000FB7903F00303DBB218460837BD4680BD8D
:101C800080B584B000AF0346FB710023FB73FB7982
:101C9000032B01D90023FB71F420FFF76BFD0346F2
:101CA000BB73BB7B23F00303BB73BA7BFB7913438A
:101CB000BB73BB7B1946F420FFF79AFDFB7B1846EC
:101CC0001037BD4680BD80B584B000AF0346FB71C0
:101CD0000023FB73FB791846FFF782FF0346FB7175
:101CE000FFF7BEFF0346BB730020FFF7C9FFF420D8
:101CF000FFF740FD03467B737B7B03F01F037B7381
:101D0000FB795B015AB297F90D3013435BB27B73D9
:101D10007B7B1946F420FFF76BFDBB7B1846FFF772
:101D2000AFFFFB7B18461037BD4680BD80B584B041
:101D300000AF0346FB710023FB73FB791846FFF7E6
:101D40004FFF0346FB71FFF78BFF0346BB73002079
:101D5000FFF796FFF420FFF70DFD03467B737B7BB7
:101D600023F01C037B73FB799B005AB297F90D306B
:101D700013435BB27B737B7B1946F420FFF738FD7E
:101D8000BB7B1846FFF77CFFFB7B18461037BD4630
:101D900080BD80B584B000AF0346FB710023FB73A8
:101DA000FB791846FFF71CFF0346FB71FFF758FF4E
:101DB0000346BB730020FFF763FFF220FFF7DAFC56
:101DC00003467B737B7B23F007037B737A7BFB7972
:101DD00013437B737B7B1946F220FFF709FDBB7B26
:101DE0001846FFF74DFFFB7B18461037BD4680BDF8
:101DF00080B58AB000AF78607B6803331B781A0324
:101E00007B6804331B781B011A437B6805331B78FE
:101E10001B09DBB203F00F0313437B627B6ADA100A
:101E2000244B1B885B00D31A224AB2F9022002FB22
:101E300003F3DB121A464FEAE273C7E906237B6A13
:101E40001B111C4A12889B1A7A6A121119490988B7
:101E5000521A02FB03F31B13164AB2F9042002FBC9
:101E600003F39B131A464FEAE273C7E90423BA69E6
:101E70003B691344FB60FA6813469B0013448033AC
:101E80001B121846FEF7A4FE0346BB600A49B86859
:101E9000FEF7A6FF03461A46084B9B6819461046F4
:101EA000FEF7E2FD0346BB60BB6818462837BD4617
:101EB00080BD00BFC00000200000C842E400002038
:101EC00080B584B000AF786039600023FB73786818
:101ED000FFF78EFFB8600C49B868FEF7CDFE0346E9
:101EE0000A491846FEF77CFF03464FF08441184626
:101EF000FEF7BAFD0346BB603B68BA681A60FB7B1D
:101F000018461037BD4680BD000010410000A040BB
:101F100080B584B000AF786039600023FB737868C7
:101F2000FFF766FF02463B681A60FB7B18461037D6
:101F3000BD4680BD2DE9B04F9EB000AFF864B964D6
:101F4000002387F8773000233B67FB6C1B781A036C
:101F5000FB6C01331B781B011A43FB6C02331B78AB
:101F60001B09DBB203F00F031343FB663B6F1A46FA
:101F70004FEAE273B2F5FA3443F1FF35C7E9184589
:101F80007A6E3B6E03FB02F17A6E3B6E03FB02F34B
:101F9000CA183B6EA3FB034553191D46604BB3F9AA
:101FA00010301AB24FEAE27302FB05F004FB03F1B2
:101FB0000144A4FB022319440B46C7E91623C7E9D1
:101FC0001623574BB3F90E301AB24FEAE273396E4B
:101FD00003FB01F0796E02FB01F10844396EA1FBAD
:101FE0000223C1180B464FF000004FF000015904C6
:101FF00041EAD2315004D7E9162312EB000843EB33
:102000000109C7E91689464BB3F90C301AB24FEAF9
:10201000E2734FF000004FF00001D1000020D7E93B
:1020200016231418BC614B41FB61D7E90634C7E99C
:1020300016347A6E3B6E03FB02F17A6E3B6E03FB45
:1020400002F3CA183B6EA3FB034553191D46344BDC
:10205000B3F90A301AB24FEAE27302FB05F004FB4F
:1020600003F10144A4FB022319440B464FF000087E
:102070004FF000094FEA122848EA03684FEA232983
:10208000274BB3F908301AB24FEAE273396E03FBFB
:1020900001F0796E02FB01F14418396EA1FB0201D7
:1020A000631819464FF000024FF000030B0343EA98
:1020B0001053020318EB0201396149EB03037B6102
:1020C000D7E90434C7E91834D7E91823111C396457
:1020D00043F500437B64124BDB889AB24FF0000358
:1020E000D7E91045294602FB01F0214601FB03F127
:1020F00001442046A0FB022319440B464FF0000088
:102100004FF000015810D917C7E91801D7E9182373
:10211000134307D1BB6C4FF000025A60F1E000BFDF
:10212000C0000020FB6EC3F580131A464FEAE2732D
:10213000C7E914233B6D5B10FB633B6DDB07BB639F
:10214000D7E91623D7E90E452146B1EB020A294605
:1021500061EB030B52465B469118B9605B41FB6033
:10216000D7E9022312EB0A0243EB0B034FF0000006
:102170004FF00001990141EA92619001121841EB80
:1021800003034FF000004FF00001990041EA927103
:10219000900002460B4612EB0A0243EB0B034FF092
:1021A00000004FF00001990041EA92719000024650
:1021B0000B4612EB0A01396343EB0B037B63D7E950
:1021C0001823D7E90C01FEF73DFF02460B46C7E98D
:1021D00014234F4BB3F9163018B24FEAE071D7E928
:1021E00014454FF000024FF00003620B42EAC54273
:1021F0006B1302FB01F500FB03F42C44A0FB02016E
:1022000063181946D7E914454FF000024FF0000358
:10221000620B42EAC5426B1302FB01F500FB03F4BB
:102220002C44A0FB0201631819464FF000024FF046
:102230000003420E42EAC1124B16C7E91823344B81
:10224000B3F914301AB24FEAE273396D03FB01F0AF
:10225000796D02FB01F14418396DA1FB020163188D
:1022600019464FF000024FF00003C20C42EA41321F
:10227000CB14C7E91623D7E91401D7E9182384182A
:10228000BC6241EB0303FB62D7E91623D7E90A4599
:10229000214689183962294643EB010179624FF0E2
:1022A00000004FF00001D7E908452346180A2B46E5
:1022B00040EA03602B461912154BB3F912301CB2D9
:1022C0004FEAE4754FF000024FF000032B0143EAA0
:1022D0001473220184183C6041EB03037B60D7E94F
:1022E0000034C7E91434D7E91401FEF787FC03462C
:1022F0004FF087411846FEF773FD03461A46BB6C44
:102300005A6097F8773018467837BD46BDE8B08FE9
:10231000C000002080B586B000AF7860396000232F
:10232000FB7500233B617B6806331B781B027A68D0
:10233000073212781343FB603B69A3F59633BB6009
:10234000FB689A032F4BB3F91E301B05D21A2D4B95
:10235000B3F920301946BB6803FB01F3D31A03F528
:102360008043DB13274A92F922201146BA6802FB08
:1023700001F292122349097F0846B96801FB00F176
:10238000C91201F5004101FB02F2921202F500129E
:102390001C49B1F91A1001FB02F202F50052921326
:1023A00002FB03F3BB60BB68DB13BA68D21302FB0A
:1023B00003F3DB11134A127E02FB03F31B11BA680D
:1023C000D31ABB60BB6823EAE373BB60BB68B3F19D
:1023D000C85FA8BF4FF0C853BB60BB681B1318464B
:1023E000FEF7F6FB03464FF089411846FEF7F8FC6E
:1023F00003461A463B689A60FB7D18461837BD466F
:1024000080BD00BFC000002080B582B000AF0123B6
:10241000FB71F320FFF7AEF90346BB71BB7903F004
:102420000803002B01D10023FB71FB791846083704
:10243000BD4680BD80B588B000AF78600B46FB70AC
:102440000023FB770023BB6106E0BB690133BB615E
:10245000BB69B3F57A7F05DCFFF7D6FF0346002B97
:10246000F3D100E000BF07F10C0308221946F72062
:10247000FFF7F8F90346FB75FB7D002B1CD1FB78B9
:10248000002B06D107F10C0379681846FFF740FDD1
:1024900005E007F10C0379681846FFF711FD07F115
:1024A0000C0379681846FFF745FD07F10C037968BE
:1024B0001846FFF72FFF01E00123FB77FB7F18464B
:1024C0002037BD4680BD000080B584B000AF786085
:1024D0000023FB732B4A7B6813602B4B03221A707B
:1024E000294B00225A70284B00229A70264B012259
:1024F000DA70254B01221A71234B01225A71224BAB
:102500004FF000029A60D020FFF734F90346BB7306
:10251000BB7B602B02D00123FB732EE00020FFF772
:10252000AFFBFFF7E7F90346FB73174B5B781846E1
:10253000FFF708FB0346FB73134B9B781846FFF726
:1025400028FB0346FB73104B1B791846FFF7EEFB85
:102550000346FB730C4B5B791846FFF71AFC0346E6
:10256000FB73094BDB781846FFF7ADFB0346FB73A3
:10257000054B1B781846FFF783FBFB7B184610378B
:10258000BD4680BDBC000020E4000020B0B59CB07A
:1025900000AF78600123FB660023A7F86A3007F1DB
:1025A0000C0319220021184605F0DCFF2223BB8111
:1025B0000523BB73BB7B1A4607F10C030333304979
:1025C000184605F0C1FF0F23A7F86A30B7F86A2054
:1025D00007F10C031146184600F024FD0346A7F846
:1025E0001B3007F10C0307F10C011122786800F091
:1025F000C9FF07F1280407F10C050FCD0FC495E8BA
:10260000070003C4227007F128031921184602F0BD
:10261000A1F9034687F8693097F86930002B01D09B
:102620000023FB6601F0B8FF034687F8693097F88E
:102630006930002B01D00023FB660521104800F013
:1026400071FF4FF4967002F0DDFE01F0C1FF03460A
:1026500087F8693097F86930002B01D00023FB66BA
:1026600001F0A8FF034687F8693097F86930002B1E
:1026700001D00023FB66FB6E18467037BD46B0BD27
:102680004086000880B58CB002AF7860002387F8E0
:102690002730234BBB61234B7B6107F118014FF4BB
:1026A0007A730422786805F074FC0346FB77FB7F9D
:1026B000002B03D0012387F827302BE007F10E030E
:1026C00007F1100140F6B83200920422786805F054
:1026D000F2FC0346FB77FB89042B03D0012387F828
:1026E000273017E000233B6211E007F110023B6A3C
:1026F00013441A7807F114013B6A0B441B789A4281
:1027000002D0012387F827303B6A01333B623B6AE2
:10271000032BEAD997F8273018462837BD4680BDE5
:10272000560026007600260080B58EB002AF786095
:10273000002387F82F302C4A07F1200392E803008A
:10274000186004331970294A07F1180392E803004E
:10275000186004331970264B00221A6007F120011B
:102760004FF47A730522786805F013FC034687F866
:10277000273097F82730002B03D0012387F82F301C
:102780002CE007F10E0307F1100140F6B832009279
:102790000522786805F08FFC034687F82730FB890F
:1027A000052B03D0012387F82F3017E00023BB62ED
:1027B00011E007F11002BB6A13441A7807F11801FF
:1027C000BB6A0B441B789A4202D0012387F82F3052
:1027D000BB6A0133BB62BB6A042BEAD997F82F307E
:1027E00018463037BD4680BD588600085086000820
:1027F000F000002080B58EB002AF7860002387F82B
:102800002F302A4A07F11C0307CA03C31A70284A4B
:1028100007F1140392E8030018600433197007F1FC
:102820001C014FF47A730922786805F0B2FB034665
:1028300087F8273097F82730002B03D0012387F83B
:102840002F302CE007F10A0307F10C0140F6B832F3
:1028500000920522786805F02EFC034687F82730A1
:102860007B89052B03D0012387F82F3017E0002345
:10287000BB6211E007F10C02BB6A13441A7807F13E
:102880001401BB6A0B441B789A4202D0012387F8DB
:102890002F30BB6A0133BB62BB6A042BEAD997F8BD
:1028A0002F3018463037BD4680BD00BF6086000817
:1028B0006C86000880B58EB002AF7860002387F880
:1028C0002F302A4A07F11C0307CA03C31A70284A8B
:1028D00007F1140392E8030018600433197007F13C
:1028E0001C014FF47A730922786805F052FB034605
:1028F00087F8273097F82730002B03D0012387F87B
:102900002F302CE007F10A0307F10C0140F6B83232
:1029100000920522786805F0CEFB034687F8273041
:102920007B89052B03D0012387F82F3017E0002384
:10293000BB6211E007F10C02BB6A13441A7807F17D
:102940001401BB6A0B441B789A4202D0012387F81A
:102950002F30BB6A0133BB62BB6A042BEAD997F8FC
:102960002F3018463037BD4680BD00BF7486000842
:102970006C86000880B590B002AF786039600023A3
:1029800087F837303E4A07F1240392E803001860C5
:10299000043319703B4A07F11C0392E803001860E6
:1029A0000433198002330A0C1A7007F124014FF422
:1029B0007A730522786805F0ECFA034687F82F3021
:1029C00097F82F30002B03D0012387F8373051E0E0
:1029D00007F10E0307F1100140F6B8320092092208
:1029E000786805F068FB034687F82F30FB89092BD0
:1029F00003D0012387F837303CE000233B6311E02C
:102A000007F110023B6B13441A7807F11C013B6B72
:102A10000B441B789A4202D0012387F837303B6B76
:102A200001333B633B6B062BEAD997F83730002B19
:102A300020D1FB7D1B021AB23B7E1BB213431BB29B
:102A4000BB853B68BA8D1A80BB8D0F4A1360BA8D67
:102A5000D3080E49A1FB03310B46DB005B1ADB00F8
:102A6000D31A9BB2002B05D0012387F8373064209E
:102A700002F0C8FC97F8373018463837BD4680BD9D
:102A80008086000888860008F400002025499224EA
:102A900080B58EB002AF7860002387F82F302B4AC4
:102AA00007F1200392E80300186004331970284AE4
:102AB00007F1180392E8030018600433197007F156
:102AC00020014FF47A730522786805F062FA034614
:102AD00087F8273097F82730002B03D0012387F899
:102AE0002F302CE007F10E0307F1100140F6B83249
:102AF00000920522786805F0DEFA034687F8273051
:102B0000FB89052B03D0012387F82F3017E0002322
:102B1000BB6211E007F11002BB6A13441A7807F197
:102B20001801BB6A0B441B789A4202D0012387F834
:102B30002F30BB6A0133BB62BB6A042BEAD997F81A
:102B40002F3018463037BD4680BD00BF9086000844
:102B50005086000880B58EB002AFF860B9607A6028
:102B6000002387F82F3038237B8400233B84584B85
:102B70001B681B12FB77564B1B68BB77554AFB7FC4
:102B80001372544ABB7F53727B8C1B0A9BB27B77B8
:102B90007B8C3B774F4A7B7F13734E4A3B7F53734B
:102BA0003B8C1B0A9BB2FB763B8CBB76494AFB7E77
:102BB0009373484ABB7ED373002387F82F304FF4BA
:102BC0007A7310224349F86805F0E3F903467B76EF
:102BD0007B7E002B03D0012387F82F3028E007F1FC
:102BE000160340F6B832009205223B49F86805F01A
:102BF00062FA03467B76FB8A052B03D0012387F814
:102C00002F3015E00023BB620FE0334ABB6A134448
:102C10001A783249BB6A0B441B789A4202D00123CE
:102C200087F82F30BB6A0133BB62BB6A042BECD937
:102C300097F82F30002B45D107F1160340F6B83234
:102C400000923822B968F86805F035FA03467B76B9
:102C5000FB8A382B03D0012387F82F3032E0FA8A21
:102C60007B681A80FB8A1A46194B1B681344184A62
:102C7000136000237B6213E07B6A013BBA68134454
:102C80001B78FF2B09D17B6ABA6813441B78D92BB8
:102C900003D1022387F82F3007E07B6A01337B6280
:102CA000FB8A1A467B6A9342E6DB97F82F30022BA9
:102CB00008D10B4B1A68064B1B689A4202D00123BD
:102CC00087F82F3097F82F3018463037BD4680BD33
:102CD000F0000020080000203C040020000000203C
:102CE000F4000020F0B5A5B000AF78603960002393
:102CF00087F88F300023A7F888300023A7F88630A4
:102D00000023A7F88C30C04B1B78032B00F2768190
:102D100001A252F823F000BF292D0008592D000808
:102D2000652E0008612F00087868FFF763FD0346F1
:102D300087F88F307868FFF7A5FC034687F88F3057
:102D400097F88F30002B03D1AF4B01221A7055E159
:102D5000AD4B00221A7051E17868FFF7E5FC03469D
:102D600087F88F304FF4FA7002F04CFB7868FFF769
:102D7000A1FD034687F88F3097F88F30002B40F085
:102D80003A817868FFF784FE034687F88F3097F81A
:102D90008F30002B62D107F1880319467868FFF75E
:102DA000E9FD034687F88F3097F88F30002B51D11B
:102DB000964B00221A8011220021954805F0D2FB83
:102DC000934B4FF0FF321A7000225A70914B1A78D1
:102DD0008F4B9A70B7F888301A468D4BC3F8032092
:102DE0000723A7F88C30B7F88C301946884800F0D4
:102DF00019F903461A46864BA3F80720844B09228B
:102E00008349386800F0BEFB07F1440340220021EB
:102E1000184605F0A7FB7E4B07F144041D462868C1
:102E20006968AA68EB680FC42B7C237007F1440320
:102E30001121184601F08EFD034687F88B3097F874
:102E40008B30002B02D0704B00221A706E4B022286
:102E50001A70D0E06C4B00221A70CCE06A4B012251
:102E60001A70C8E007F1860207F10C03194678686A
:102E7000FFF770FE034687F88F3097F88F30022BEC
:102E800007D0022B00F3B980002B02D0012B62D0B7
:102E9000B3E0614B002262F011021A7000225A70F6
:102EA0005C4B1A785C4B9A70584B1A885A4BA3F8B3
:102EB0000320B7F88630DAB2574B5A71564B5B791C
:102EC0001A4607F10C031946544805F03DFB3E2312
:102ED000A7F88C30B7F88C3019464F4800F0A2F8AC
:102EE00003461A464C4BDA8707F14403402200217F
:102EF000184605F037FB484B1C4607F1440604F121
:102F0000400C35462346186859689A68DB680FC537
:102F1000103410366445F4D107F1440340211846BB
:102F200001F018FD034687F88B3097F88B30002BA3
:102F300003D0354B00221A7006E097F88F30022B31
:102F400002D1314B03221A70304B1B8801339AB2E5
:102F50002E4B1A8003E02C4B01221A7000BF4CE06C
:102F60002F4B002262F022021A7000225A70294B65
:102F70001A782B4B9A700323A7F88C30B7F88C3053
:102F80001946274800F04EF803461A46244BA3F88A
:102F90000320234B05222249386800F0F3FA07F199
:102FA000440340220021184605F0DCFA1C4A07F1D0
:102FB0004403144620686168A26807C3227B1A7024
:102FC00007F144030D21184601F0C4FC034687F8BD
:102FD0008B3097F88B30002B09D10B4B01221A70E4
:102FE0000C4B1B780133DAB20A4B1A7006E0064B21
:102FF00001221A7002E000BF00E000BF97F88F3096
:1030000018469437BD46F0BDF8000020FA000020B5
:1030100028040020FC000020E8030020EE0300202C
:10302000D003002080B586B000AF78603960174BC0
:103030001B7883F00103DBB2002B01D000F02AF8EB
:103040000023FB827B683B613B69002B18D0002387
:10305000FB6011E0FB8A1B0A9AB2F98A3B69581C93
:1030600038611B784B40DBB2094931F813305340CB
:10307000FB82FB680133FB60FA683B689A42E9D344
:10308000FB8A18461837BD4680BD00BFFD000020F2
:103090000001002080B483B000AF0023FB8029E052
:1030A00000237B80FB883B800023BB8017E07A886D
:1030B0003B8853409BB203F00103002B06D07B8872
:1030C0005B089AB2114B53407B8002E07B885B081F
:1030D0007B803B885B083B80BB880133BB80BB881F
:1030E000072BE4D9FB880A497A8821F81320FB884A
:1030F0000133FB80FB88FF2BD2D9064B01221A70CB
:1031000000BF0C37BD4680BC704700BF01A0FFFF69
:1031100000010020FD00002080B500AF034B1B68BC
:10312000184602F06FF900BF80BD00BF18000020F4
:1031300080B500AF044B1A681346DB0013441846F1
:1031400002F060F900BF80BD1800002080B500AF1C
:103150006021342001F08AFA03461A46064B1A70A1
:103160000121064801F0F6FB03461A46024B1A708D
:10317000FFF7D2FF00BF80BD410400200003002004
:1031800080B500AFFF21342001F070FA03461A46E3
:10319000064B1A700121064801F0DCFB03461A4673
:1031A000024B1A70FFF7B8FF00BF80BD410400203A
:1031B0000003002080B582B000AF0346FB71FB79AD
:1031C000203B3A2B00F2A88101A252F823F000BF65
:1031D000133500081935000819350008193500089D
:1031E0001935000819350008193500081935000887
:1031F0001935000819350008193500081935000877
:103200001935000819350008193500081935000866
:10321000FD340008373400084D34000863340008DA
:10322000793400088F340008A5340008BB34000846
:10323000D1340008E73400081935000819350008B2
:103240001935000819350008193500081935000826
:1032500019350008BD320008C7320008D93200080D
:10326000EB320008F9320008FF3200080F33000883
:103270001D3300082F330008393300084B33000892
:10328000593300086B330008753300087F3300089A
:103290008D3300089F330008B1330008BF330008A6
:1032A000CD330008D3330008E1330008F3330008BE
:1032B000013400081334000825340008FFF746FFE6
:1032C000FFF75EFF28E1FFF75BFFFFF73FFFFFF728
:1032D0003DFFFFF73BFF1FE1FFF752FFFFF736FF10
:1032E000FFF74EFFFFF732FF16E1FFF749FFFFF749
:1032F0002DFFFFF72BFF0FE1FFF728FF0CE1FFF792
:1033000025FFFFF723FFFFF73BFFFFF71FFFFFF747
:1033100037FFFFF735FFFFF719FFFDE0FFF716FF57
:10332000FFF714FFFFF712FFFFF710FFF4E0FFF7BE
:103330000DFFFFF70BFFEFE0FFF708FFFFF720FFA0
:10334000FFF71EFFFFF71CFFE6E0FFF719FFFFF78F
:10335000FDFEFFF715FFDFE0FFF7F8FEFFF710FFB8
:10336000FFF7F4FEFFF7F2FED6E0FFF709FFFFF7E5
:1033700007FFD1E0FFF704FFFFF7E8FECCE0FFF71F
:10338000FFFEFFF7FDFEFFF7FBFEC5E0FFF7DEFEE9
:10339000FFF7F6FEFFF7F4FEFFF7D8FEBCE0FFF7FD
:1033A000EFFEFFF7EDFEFFF7D1FEFFF7E9FEB3E01A
:1033B000FFF7CCFEFFF7E4FEFFF7C8FEACE0FFF737
:1033C000C5FEFFF7C3FEFFF7C1FEA5E0FFF7D8FE7D
:1033D000A2E0FFF7BBFEFFF7B9FEFFF7D1FE9BE0CF
:1033E000FFF7B4FEFFF7B2FEFFF7B0FEFFF7C8FE2F
:1033F00092E0FFF7ABFEFFF7C3FEFFF7C1FE8BE0E5
:10340000FFF7BEFEFFF7A2FEFFF7A0FEFFF7B8FE34
:1034100082E0FFF7B5FEFFF799FEFFF7B1FEFFF779
:10342000AFFE79E0FFF7ACFEFFF7AAFEFFF78EFED6
:10343000FFF78CFE70E0FFF789FEFFF7A1FEFFF7B4
:103440009FFEFFF79DFEFFF79BFE65E0FFF77EFE08
:10345000FFF77CFEFFF794FEFFF792FEFFF790FE6A
:103460005AE0FFF773FEFFF771FEFFF76FFEFFF7FD
:1034700087FEFFF785FE4FE0FFF768FEFFF766FE69
:10348000FFF764FEFFF762FEFFF77AFE44E0FFF706
:103490005DFEFFF75BFEFFF759FEFFF757FEFFF7F4
:1034A00055FE39E0FFF76CFEFFF750FEFFF74EFECA
:1034B000FFF74CFEFFF74AFE2EE0FFF761FEFFF735
:1034C0005FFEFFF743FEFFF741FEFFF73FFE23E0FD
:1034D000FFF756FEFFF754FEFFF752FEFFF736FEEA
:1034E000FFF734FE18E0FFF74BFEFFF749FEFFF74A
:1034F00047FEFFF745FEFFF729FE0DE0FFF740FE10
:10350000FFF73EFEFFF73CFEFFF73AFEFFF738FEFF
:1035100002E0FFF70DFE00BFFFF70AFE00BF08370D
:10352000BD4680BD80B584B000AF78603960FFF7DC
:10353000FFFDFFF7FDFD0023FB6009E0FB687A68F3
:1035400013441B781846FFF735FEFB680133FB6018
:10355000FA683B689A42F1DB00BF00BF1037BD46F6
:1035600080BD80B582B000AF786040F6881200213F
:10357000786801F05FFA786801F04EFA00BF08370A
:10358000BD4680BD80B584B000AFF860B9607A6098
:103590003B603B687A68B968F86801F0F6FA00BFEA
:1035A0001037BD4680BD90B599B000AF78603960E6
:1035B0000123FB650023A7F85A3007F10803102206
:1035C0000021184604F0CEFF77233B813B68C7F803
:1035D0000A300623A7F85A30B7F85A2007F1080333
:1035E00011461846FFF71EFD0346FB8107F108034D
:1035F00007F1080108227868FFF7C4FF07F11804F3
:1036000007F108030FCB84E80F0007F1180310211E
:10361000184601F09FF9034687F85930FB6D1846AC
:103620006437BD4690BD80B48FB000AF786039601C
:1036300001233B6100237B617B69BB61BB69FB614B
:10364000FB693B623B6A7B627B6ABB62BB6AFB6273
:10365000FB6AFB6001233B633B68002B38D00123EE
:103660007B631AE07B69FB60BB697B61FB69BB61C3
:103670003B6AFB617A6AFB6853403B62BA6AFB684B
:1036800053407B62FA6AFB685340BB623B6BFB6250
:10369000FB683B637B6B01337B637A6B3B689A42CD
:1036A000E0DDFB6A5A003B6B1A44BB6A9B001A447C
:1036B0007B6ADB001A443B6A1B011A44FB695B010D
:1036C0001A44BB699B011A447B69DB0113443B61CB
:1036D0003B6918463C37BD4680BC704780B493B008
:1036E00000AFF860B9607A60BB68002B02D07B68DD
:1036F000002B01D100235CE008237B6300237B6463
:1037000000233B6421E03B6C9B0007F1480213441B
:103710007A6843F8382C7B6B013B7A6842FA03F3F2
:1037200003F00103002B0AD07B685B007B607B68A1
:1037300083F48E7383F00103DBB27B6002E07B686D
:103740005B007B603B6C01333B643A6C7B6B9A4261
:10375000D9DB00233B6427E001223B6C02FA03F330
:103760003B633A6BBB681340002B1AD00123FB6309
:103770000023BB6311E03B6C9B0007F1480213443C
:1037800053F8382CFB6B13407A6C53407B64FB6B13
:103790005B00FB63BB6B0133BB63BA6B7B6B9A4211
:1037A000E9DB3B6C01333B643A6C7B6B9A42D3DBC5
:1037B0007B6C18464C37BD4680BC7047B0B5ADF544
:1037C000067D02AF3B1D1860002387F807320023F7
:1037D000C7F80C3207F5017307F18801381D40F670
:1037E000B83200924FF49672006804F064FC03460D
:1037F00087F80632642001F005FE97F80632002BA8
:1038000075D10023C7F8083269E007F18802D7F8BC
:1038100008321344197807F5DA72D7F80C321344DA
:103820000A461A70D7F80C320133C7F80C3207F188
:103830008802D7F8083213441B780A2B0CBF0123E7
:103840000023DAB2D7F80C324F2BCCBF0123002370
:10385000DBB21343DBB2002B3CD097F8B431242BFE
:1038600035D107F5DA73033303221946AC4804F067
:1038700081FE0346002B0FD150220021A94804F0FD
:1038800071FED7F80C2207F5DA731946A54804F043
:103890005BFEA54B01221A6007F5DA73033303229E
:1038A0001946A24804F066FE0346002B0FD15022B1
:1038B00000219F4804F056FED7F80C2207F5DA7372
:1038C00019469B4804F040FE9A4B01221A600023DF
:1038D000C7F80C32D7F808320133C7F80832B7F806
:1038E00004321A46D7F8083293428EDB02E00120F8
:1038F00001F088FD8C4B1B68012B40F009818D4B3A
:103900001B68012B40F004818948FCF781FC0346C9
:103910009AB2894B1A808348FCF77AFC03469AB224
:10392000864B1A8007F10803CC221A80834B1B8830
:103930003C2B06D8814B1B88DAB207F108039A703A
:1039400003E007F108033D229A7007F108039B7812
:103950001A4607F1080303337249184604F0F4FDD0
:1039600007F1480207F1080314461D460FCD0FC4A6
:103970000FCD0FC40FCD0FC495E80F0084E80F00E2
:1039800007F148034021184600F0E4FF034687F89A
:10399000063207F1080303333D220021184604F0E4
:1039A000E1FD664B1B883C2B04D807F1080300227D
:1039B0009A7012E0614B1B88DBB23D3BDAB207F133
:1039C00008039A7007F108039B781A4607F1080369
:1039D00003335B49184604F0B7FD07F10803BB2227
:1039E0001A8007F1480207F1080314461D460FCD5F
:1039F0000FC40FCD0FC40FCD0FC495E80F0084E89E
:103A00000F0007F148034021184600F0A3FF0346CA
:103A100087F8063207F10803AA221A80464B1B8852
:103A20003C2B06D8444B1B88DAB207F108039A7086
:103A300003E007F108033D229A7007F108039B7821
:103A40001A4607F1080303333949184604F07CFD90
:103A500007F1480207F1080314461D460FCD0FC4B5
:103A60000FCD0FC40FCD0FC495E80F0084E80F00F1
:103A700007F148034021184600F06CFF034687F821
:103A8000063207F1080303333D220021184604F0F3
:103A900069FD2A4B1B883C2B04D807F10803002240
:103AA0009A7012E0244B1B88DBB23D3BDAB207F17F
:103AB00008039A7007F108039B781A4607F1080378
:103AC00003332049184604F03FFD07F1080399220B
:103AD0001A8007F1480207F1080314461D460FCD6E
:103AE0000FC40FCD0FC40FCD0FC495E80F0084E8AD
:103AF0000F0007F148034021184600F02BFF034652
:103B000087F80632084B00221A600A4B00221A601E
:103B100097F80732184607F50477BD46B0BD00BFD9
:103B20009886000804030020540300209C860008A7
:103B300058030020A8030020AC030020AE0300209F
:103B4000410300209503002090B599B000AF786044
:103B500039600123FB650023A7F85A3007F10803F9
:103B600010220021184604F0FDFC44233B813B68F1
:103B7000C7F80A300623A7F85A30B7F85A2007F1D9
:103B8000080311461846FFF74DFA0346FB8107F17B
:103B9000080307F1080108227868FFF7F3FC07F132
:103BA000180407F108030FCB84E80F0007F118038E
:103BB0001021184600F0CEFE034687F85930FB6D01
:103BC00018466437BD4690BDB0B5A0B000AF786070
:103BD0000123FB670023A7F87A3007F108032D22A1
:103BE0000021184604F0BEFC33233B811323BB7233
:103BF000BB7A1A4607F1080303331D49184604F03F
:103C0000A3FC2323A7F87A30B7F87A2007F108033A
:103C100011461846FFF706FA0346A7F82B3007F1BE
:103C2000080307F1080125227868FFF7ABFC07F1CC
:103C3000380407F108050FCD0FC40FCD0FC495E868
:103C40000F0007C4237007F138032D21184600F038
:103C500081FE034687F8793097F87930002B01D040
:103C60000023FB67FB6F18468037BD46B0BD00BF21
:103C7000A086000890B599B000AF78600123FB657D
:103C80000023A7F85A3007F108030D220021184637
:103C900004F068FCE021122000F0E8FC034687F8FD
:103CA00059300921132000F0E1FC034687F8593010
:103CB00080210F2000F0DAFC034687F85930642099
:103CC00001F0A0FB07F117031946112000F08EFC4C
:103CD000034687F8593097F85930002B2CD1FB7DDB
:103CE0003C3BDBB25BB2BB7288233B810323A7F86A
:103CF0005A30B7F85A2007F1080311461846FFF763
:103D000091F90346A7F80B3007F1080307F1080102
:103D100005227868FFF736FC07F1180407F108035D
:103D20000FCB07C4237007F118030D21184600F0CC
:103D300011FE034687F85930FB6D18466437BD46BF
:103D400090BD000080B5ADF5196D00AF002387F878
:103D50008F3901F02EFB00F0EDF800F059FA00F079
:103D600077F900F001FA00F0A9F900F033F900F05A
:103D700025FA01228021624802F0EAF9002280211E
:103D80005F4802F0E5F94FF47A6001F03BFB012255
:103D90004FF480715A4802F0DBF95A4801F0B3F948
:103DA000034687F88F3909E0564801F0ACF903461D
:103DB00087F88F398021524802F0E2F997F88F395D
:103DC000012BF1D04F4801F07DFA034687F88F3977
:103DD00097F88F39012B02D0012387F88F39012200
:103DE0000421474802F0B4F9474800F05BFB034662
:103DF00087F88E3997F88E39002B02D0012004F015
:103E00006BFB4148FEF760FB034687F88D3997F856
:103E10008D39002B02D13D4B01221A603B1D184603
:103E2000FFF79FFB3A4B1B68002B06D03B1D184643
:103E3000FEF7ACFB364B00221A60364B1B68002B9A
:103E400006D03B1D1846FFF7BFFE324B00221A601A
:103E5000314B1B68002B06D03B1D1846FFF70AFFAD
:103E60002D4B00221A602D4B1B68002B07D03B1DE9
:103E70002B491846FDF79CFA284B00221A60294B63
:103E80001B68012B05D11F48FFF798FC254B00222A
:103E90001A60254B1B68002B2BD01C4B1B68012B79
:103EA00024D101212148FEF7C5FA034687F88D3950
:103EB0001E4B1A683B1D11461846FFF774FB03465C
:103EC00087F88D39194B5A683B1D1146184600F08A
:103ED000A8FA034687F88D39144B9A683B1D1146A2
:103EE0001846FFF731FE034687F88D390E4B002246
:103EF0001A603B1D19460E48FEF7F4FE92E700BF1C
:103F0000000C01401C05002050040020C8030020C4
:103F10001C00002020000020280000202400002099
:103F2000EC040020B00300202C00002044040020FA
:103F3000A804002080B592B000AF07F1200328222A
:103F40000021184604F00EFB07F10C0300221A6052
:103F50005A609A60DA601A613B4600221A605A6021
:103F60009A6002233B6201233B6310237B6300239F
:103F7000FB6307F12003184602F01CF90346002BEF
:103F800001D000F049FA0F23FB6000233B610023BE
:103F90007B610023BB610023FB6107F10C0300215F
:103FA000184602F087FB0346002B01D000F034FADC
:103FB00002233B600023BB603B46184602F012FD23
:103FC0000346002B01D000F027FA00BF4837BD465A
:103FD00080BD000080B584B000AF3B1D00221A6098
:103FE0005A609A60184B194A1A60174B00229A605F
:103FF000154B00221A73144B00221A75124B4FF402
:104000006022DA61104B00225A600F4B01221A61C4
:104010000D4801F01BFA0346002B01D000F0FCF91B
:1040200005237B600123BB600023FB603B1D194619
:10403000054801F095FC0346002B01D000F0ECF997
:1040400000BF1037BD4680BDEC04002000240140B5
:1040500080B500AF174B184A1A60164B4FF48272A6
:104060005A60144B00229A60124B0022DA60114B06
:1040700000221A610F4B00225A610E4B4FF400725E
:104080009A610C4B0022DA610A4B00221A62094B3A
:1040900000225A62074B00229A62064B0A22DA6219
:1040A000044802F09DFD0346002B01D000F0B4F956
:1040B00000BF80BD500400200038004080B586B0AD
:1040C00000AF07F1080300221A605A609A60DA60B4
:1040D0003B4600221A605A60224B4FF080421A6021
:1040E000204B41F63F725A601E4B00229A601D4BD6
:1040F00043F69822DA601B4B00221A61194B00220A
:104100009A61184803F0D0FA0346002B01D000F062
:1041100083F94FF48053BB6007F108031946114837
:1041200003F074FC0346002B01D000F075F9002366
:104130003B6000237B603B4619460A4803F064FE5F
:104140000346002B01D000F067F9064803F0FCFAA3
:104150000346002B01D000F05FF900BF1837BD46C1
:1041600080BD00BF6005002080B500AF114B124A32
:104170001A60104B4FF416525A600E4B00229A6090
:104180000C4B0022DA600B4B00221A61094B0C2207
:104190005A61084B00229A61064B0022DA610548F9
:1041A00003F0AAFE0346002B01D000F035F900BF52
:1041B00080BD00BF1C0500200038014080B500AF65
:1041C000114B124A1A60104B4FF4E1325A600E4BF9
:1041D00000229A600C4B0022DA600B4B00221A611D
:1041E000094B0C225A61084B00229A61064B0022AF
:1041F000DA61054803F080FE0346002B01D000F091
:104200000BF900BF80BD00BFA8040020004800409B
:1042100080B588B000AF07F1100300221A605A6021
:104220009A60DA60284B9B69274A43F01003936138
:10423000254B9B6903F01003FB60FB68224B9B69D5
:10424000214A43F0040393611F4B9B6903F004036D
:10425000BB60BB681C4B9B691B4A43F0080393611E
:10426000194B9B6903F008037B607B6800224FF4C5
:104270000051164801F06CFF00224FF4C27114483F
:1042800001F066FF4FF400533B6101237B61002383
:10429000BB610223FB6107F1100319460B4801F0D3
:1042A000D3FD4FF4C2733B6101237B610023BB61EB
:1042B0000223FB6107F110031946054801F0C4FD14
:1042C00000BF2037BD4680BD0010024000100140F5
:1042D000000C014080B582B000AF78607B681B683D
:1042E0003F4A934201D101F071F87B681B68B3F13A
:1042F000804F71D13B4B01221A6080213A4801F076
:104300003FFF3A4B1B680133384A1360384B1B6838
:104310000133374A1360374B1B680133354A13604A
:10432000354B1B680133344A1360344B1B6801332F
:10433000324A13602D4B1968314B83FB01231A114C
:10434000CB17D21A13469B001344DB00CA1A002A6B
:1043500002D12C4B01221A60244B1A682A4B83FB92
:10436000021313445911D317C91A0B461B015B1AC8
:104370009B00D11A002902D1224B01221A601D4B49
:1043800019681F4B83FB0123DA10CB17D21A13468F
:104390009B0013449B00CA1A002A02D11B4B012226
:1043A0001A60154B1A68184B83FB02131344D9107B
:1043B000D317C91A0B461B015B1AD11A002902D167
:1043C000134B01221A600D4B1B6803F00103002BF5
:1043D00002D1104B01221A6000BF0837BD4680BDD4
:1043E00000100040B0030020000C0140B403002086
:1043F000B8030020BC030020C0030020C403002039
:10440000676666661C000020898888882400002072
:10441000280000202C00002080B400AF72B600BF3E
:10442000FEE790B599B000AF786039600123FB6575
:104430000023A7F85A3007F108031022002118467C
:1044400004F090F855233B813B68C7F80A300623F7
:10445000A7F85A30B7F85A2007F108031146184652
:10446000FEF7E0FD0346FB8107F1080307F10801B1
:1044700008227868FFF786F807F1180407F10803A7
:104480000FCB84E80F0007F118031021184600F045
:1044900061FA034687F85930FB6D18466437BD460C
:1044A00090BD000080B584B000AF7860374A7B686B
:1044B00013608021072000F0D9F80346FB734FF406
:1044C0007A7000F09FFF07216D2000F0CFF80346BF
:1044D000FB732F4800F078F90346FB7359216E20D7
:1044E00000F0C4F80346FB7321216F2000F0BEF8F2
:1044F0000346FB732C21702000F0B8F80346FB73D1
:104500001021722000F0B2F80346FB7300F060F84F
:104510000346FB730E21332000F0A8F80346FB731B
:104520000821362000F0A2F80346FB736D213720E6
:1045300000F09CF80346FB735321382000F096F8F6
:104540000346FB738821392000F090F80346FB7383
:104550000821302000F08AF800F02CF80346FB73A5
:104560000421052000F082F80346FB730021062099
:1045700000F07CF80346FB7300228021054801F01F
:10458000E7FDFB7B18461037BD4680BDCC030020FD
:104590000040D943000C014080B582B000AF20211B
:1045A000712000F063F80346FB71FB791846083769
:1045B000BD4680BD80B582B000AF2321712000F0E0
:1045C00055F80346FB71FB7918460837BD4680BD98
:1045D00080B582B000AF1021342000F047F80346C8
:1045E000FB71FB7918460837BD4680BD80B584B0A5
:1045F00000AF03463960FB7100224FF400511948A7
:1046000001F0A6FDFB799BB21B02FB81FB891B0A13
:104610009BB2DBB23B73144B186807F10C014FF4EB
:104620007A73012202F058FB03467B73012000F0ED
:10463000E9FE0D4B186807F10B014FF47A73012264
:1046400002F086FC03467B73FA7A3B681A700122FB
:104650004FF40051034801F07BFD7B7B1846103777
:10466000BD4680BD00100140CC03002080B584B061
:1046700000AF03460A46FB711346BB718023FB73F0
:1046800000224FF400511D4801F062FDFA79FB7BD6
:104690001343DBB21B021AB2BB791BB213431BB22A
:1046A000BB81BB891B0A9BB2DBB2BB72BB89DBB28D
:1046B0007B72134B186807F10A014FF47A730122D9
:1046C00002F00AFB0346FB72012000F09BFE0C4B3C
:1046D000186807F109014FF47A73012202F0FCFA1D
:1046E0000346FB7201224FF40051044801F030FDF3
:1046F000FB7A18461037BD4680BD00BF0010014050
:10470000CC03002080B586B000AF03463960FB7152
:104710001346BB718023FB7300224FF400512848DD
:1047200001F016FDFA79FB7B1343DBB21B021AB2D0
:104730003B681B781BB213431BB2BB81BB891B0AAE
:104740009BB2DBB2FB72BB89DBB2BB721D4B18683C
:1047500007F10B014FF47A73012202F0BDFA034610
:10476000FB75012000F04EFE164B186807F10A0198
:104770004FF47A73012202F0AFFA0346FB7501236E
:104780003B610EE00F4B18683B693A68D1184FF453
:104790007A73012202F0A0FA0346FB753B690133EC
:1047A0003B61BB793A699A42ECDB01224FF400513C
:1047B000034801F0CDFCFB7D18461837BD4680BD8F
:1047C00000100140CC03002090B587B000AF7860A6
:1047D0005A4B7B6179695A48FCF702FB03467968BA
:1047E0001846FCF749FA034656491846FCF7F6FB0B
:1047F0000346002B01D0012300E00023FB747969FC
:104800004F48FCF7EDFA034679681846FCF734FA8E
:1048100003464D491846FCF7E3FA03461846FCF7F1
:10482000F1FB0346DBB2A3F11801FA7C13469200B8
:104830009B1ADB00CA18FB7C013392FBF3F3BB74B9
:1048400003237B747B7C1846FCF7C2F903461946A8
:104850007869FCF7C5FA03461C46FB7C0133184611
:10486000FCF7B6F9034619462046FCF705FA03465D
:1048700019467868FCF7B4FA03461C46BB7C184618
:10488000FCF7A6F9034619462046FCF7EBF8034669
:104890002E491846FCF7E6F803462D491846FCF762
:1048A000EBF903461846FCF7ADFB0346FB8197F98D
:1048B000123003F01F035BB243F040035AB2FB7C9B
:1048C0005B015BB203F020035BB213435BB2DBB26C
:1048D00019467520FFF7CAFE03467B73FB891B0A46
:1048E0009BB2DBB219467620FFF7C0FE03467B730E
:1048F000FB89DBB219467720FFF7B8FE03467B73CE
:1049000000217320FFF7B2FE03467B730021742061
:10491000FFF7ACFE03467B7300217A20FFF7A6FE6B
:1049200003467B7300217920FFF7A0FE03467B73CB
:104930007B7B18461C37BD4690BD00BF0000D041B0
:104940000000F0410000F043000020410000C041A1
:1049500000007A4780B584B000AF78600B46FB70EA
:10496000FB7819463E20FFF781FE0346FB73FB7878
:104970001A4679687F20FFF7C5FE0346FB7307F1EF
:104980000E0319460320FFF731FE0346FB7307F1C0
:104990000E0319460420FFF729FE0346FB7300228D
:1049A0004FF480711B4801F0D3FB08210720FFF76B
:1049B0005DFE0346FB730023BB7307E007F10E03A4
:1049C00019460320FFF712FE0346FB73BB7B03F07F
:1049D0000403002BF2D0FB78012B08D01E2000F03E
:1049E00011FDFB783F2B02D85A2000F00BFD01226D
:1049F0004FF48071074801F0ABFB07F10E03194635
:104A00000420FFF7F3FD0346FB73FB7B18461037CA
:104A1000BD4680BD000C014080B582B000AF78601B
:104A20007B681A460821786800F056F800BF0837FE
:104A3000BD4680BD80B487B000AFF860B9607A60D1
:104A4000BB687B6107E07B69FA68134400221A7037
:104A50007B6901337B617A697B689A42F3DB00BF33
:104A600000BF1C37BD4680BC704780B487B000AF24
:104A7000F860B9607A603B6000237B610AE07B6983
:104A8000BA681A447B6939680B4412781A707B69DA
:104A900001337B617A697B689A42F0DB00237B619A
:104AA00011E07B69C3F10702FB68203253F8221042
:104AB0007A697B6813441A463B681344CAB21A7079
:104AC0007B6901337B617B69072BEADD00BF00BF97
:104AD0001C37BD4680BC704780B5ADF6180D00AFE1
:104AE00007F10C03186007F1080319603B1D1A60F9
:104AF00007F1140207F10C0311461868FCF72BFDAF
:104B000007F1140301221A600123C7F814382FE0BB
:104B100007F2144207F10C0311461868FCF71BFD5D
:104B200007F10C03D7F814181868FEF77CFD02464D
:104B300007F214431A6007F2144301225A6007F186
:104B4000140307F21442391D07F10C0009680068CC
:104B5000FCF71BFD3A1D07F1140107F10C03126865
:104B60001868FCF7D9FCD7F814380133C7F81438A3
:104B700007F10803D7F814281B689A42C8DD00BF64
:104B800000BF07F61807BD4680BD90B591B000AFD5
:104B9000F860B9607A603B600023FB630AE0FB6B5E
:104BA0009B0007F140021344002243F8302CFB6BBA
:104BB0000133FB63FB6B082BF1DD0023FB6337E064
:104BC000FB6BBA6813441B781A46FB6A53407B633D
:104BD0000723BB631DE0BB6B013B9B0007F1400259
:104BE000134453F8304CFB68BA6B53F822307A6B9D
:104BF0001946F868FEF772FD034684EA0302BB6BB0
:104C00009B0007F140010B4443F8302CBB6B013B88
:104C1000BB63BB6B002BDEDCFB681B687A6B194641
:104C2000F868FEF75BFD03463B61FB6B0133FB63FA
:104C3000FA6B7B689A42C3DB0023FB630EE0FB6BDD
:104C40009B0007F14002134453F8301CFB68FA6BD9
:104C5000203243F82210FB6B0133FB63FB6B072B05
:104C6000EDDD3B687A68B968F868FFF7FEFE00BFC3
:104C70004437BD4690BD000080B485B000AF154BF1
:104C80009B69144A43F001039361124B9B6903F043
:104C90000103BB60BB680F4BDB690E4A43F08053D6
:104CA000D3610C4BDB6903F080537B607B680A4B5C
:104CB0005B68FB60FB6823F0E063FB60FB6843F02C
:104CC0000073FB60044AFB68536000BF1437BD46A5
:104CD00080BC7047001002400000014080B588B0E1
:104CE00000AF786007F1100300221A605A609A60E2
:104CF000DA607B681B68144A934221D1134B9B698D
:104D0000124A43F400739361104B9B6903F40073E0
:104D1000FB60FB680D4B9B690C4A43F004039361F5
:104D20000A4B9B6903F00403BB60BB6820233B6113
:104D300003237B6107F110031946054801F084F84D
:104D400000BF2037BD4680BD002401400010024056
:104D50000008014080B588B000AF786007F110030B
:104D600000221A605A609A60DA607B681B681C4AED
:104D7000934231D11B4BDB691A4A43F48043D36120
:104D8000184BDB6903F48043FB60FB68154B9B69A0
:104D9000144A43F008039361124B9B6903F0080324
:104DA000BB60BB684FF420433B6102237B6103235C
:104DB000FB6107F1100319460B4801F045F84FF469
:104DC00080433B6100237B610023BB6107F110033B
:104DD0001946054801F038F800BF2037BD4680BDB0
:104DE0000038004000100240000C014080B584B043
:104DF00000AF78607B681B68B3F1804F13D10C4B18
:104E0000DB690B4A43F00103D361094BDB6903F013
:104E10000103FB60FB68002200211C2000F0E9FF79
:104E20001C2001F002F800BF1037BD4680BD00BF56
:104E30000010024080B58AB000AF786007F1180317
:104E400000221A605A609A60DA607B681B68384AF0
:104E5000934232D1374B9B69364A43F48043936186
:104E6000344B9B6903F480437B617B69314B9B69C5
:104E7000304A43F0040393612E4B9B6903F0040313
:104E80003B613B694FF40073BB610223FB61032369
:104E90007B6207F118031946274800F0D5FF4FF44D
:104EA0008063BB610023FB6100233B6207F11803B1
:104EB0001946214800F0C8FF36E07B681B681F4A8E
:104EC000934231D11B4BDB691A4A43F48023D361EF
:104ED000184BDB6903F48023FB60FB68154B9B696F
:104EE000144A43F008039361124B9B6903F00803D3
:104EF000BB60BB684FF48063BB610223FB6103238B
:104F00007B6207F1180319460D4800F09DFF4FF42E
:104F10000063BB610023FB6100233B6207F11803C0
:104F20001946074800F090FF00BF2837BD4680BDF6
:104F300000380140001002400008014000480040D5
:104F4000000C014080B58CB000AF78600023FB629C
:104F50000023BB6200227968362000F04AFF362029
:104F600000F063FF1E4BDB691D4A43F01003D36161
:104F70001B4BDB6903F01003FB60FB6807F11002B9
:104F800007F114031146184601F0E2FC01F0B8FCE9
:104F9000F862FB6A134AA2FB03239B0C013BBB6232
:104FA000114B124A1A60104B40F2E732DA600E4A97
:104FB000BB6A53600C4B00221A610B4B00229A60B3
:104FC000094802F071FB0346002B04D1064802F0A9
:104FD000BBFB034600E0012318463037BD4680BDC9
:104FE0000010024083DE1B43A80500200010004093
:104FF00080B400AFFEE780B400AFFEE780B400AF3E
:10500000FEE780B400AFFEE780B400AFFEE780B4F7
:1050100000AF00BFBD4680BC704780B400AF00BF8A
:10502000BD4680BC704780B400AF00BFBD4680BCA9
:10503000704780B400AF00BFBD4680BC7047000021
:1050400080B500AF024802F0D9FB00BF80BD00BFB1
:105050006005002080B500AF024802F0CFFB00BF22
:1050600080BD00BFA805002080B582B000AF786089
:10507000396003F02BFA034616221A604FF0FF3313
:1050800018460837BD4680BD80B582B000AF786055
:105090004FF0FF317868FFF7E7FFFEE780B400AF1D
:1050A00000BFBD4680BC704780B487B000AF786059
:1050B0000B467B8000233B7300237B7300237B61C3
:1050C0000FE03A7B7B6979680B441B781344DBB2B1
:1050D0003B737A7B3B7B1344DBB27B737B6901338D
:1050E0007B617B887A699A42EBDBBB893B82002338
:1050F0003A7C62F307037A7C62F30F2318461C376D
:10510000BD4680BC704780B59AB002AF786000237E
:1051100087F85F30FF23FB7307F128032C2200215F
:10512000184603F01FFAB52387F82830622387F862
:105130002930062387F82A30242387F82B302423AC
:10514000BB8540F2FF33FB85062387F8303002230E
:1051500087F8313000237B860023BB86002343F48D
:105160001C5343F01003FB8600233B87052387F87D
:105170003A30002387F83B306423BB876423FB87E6
:105180006423A7F84030C823A7F84230002387F8EB
:105190004430022387F845300023A7F84630002327
:1051A000A7F848300023A7F84A300023A7F84C306E
:1051B0000023A7F84E300023A7F8503007F128034A
:1051C000023328211846FFF76FFF0346A7F8523035
:1051D00097F828303B7497F829307B740523BB740B
:1051E0000123FB7402233B7500237B7597F82A305B
:1051F000BB7597F82B30FB7532233B765B237B76B0
:1052000007F10F014FF47A730122786802F0C1FEB2
:10521000034687F857304FF47A7000F0F3F897F8A8
:105220005730002B03D0012387F85F3043E007F1AC
:1052300028014FF47A732C22786802F0AAFE034604
:1052400087F8573097F85730002B03D0012387F8A1
:105250005F3030E007F11A0307F11C0140F6B83265
:1052600000920A22786802F026FF034687F857303A
:105270007B8B0A2B03D0012387F85F301BE097F864
:105280005730002B17D10023BB6511E007F11C023A
:10529000BB6D13441A7807F11001BB6D0B441B78EA
:1052A0009A4202D0012387F85F30BB6D0133BB65A2
:1052B000BB6D092BEAD997F85F3018466037BD46B9
:1052C00080BD000080B58AB000AF7860002387F809
:1052D0002730244A07F1180392E8030018600433CA
:1052E0001970B5233B7362237B730623BB730123C1
:1052F000FB7303233B82F023BB7400233B75002325
:105300003B6226E007F118023B6A13441B78FB74EA
:1053100007F10C03023307211846FFF7C5FE0346C9
:105320001BB21A467A75C3F30723BB7507F10C014C
:105330004FF47A730B22786802F02BFE0346FB775A
:10534000FB7F002B02D0012387F827303B6A013313
:105350003B623B6A042BD5D997F82730184628378B
:10536000BD4680BDB48600080C480D490D4A002397
:1053700002E0D458C4500433C4188C42F9D30A4A0A
:105380000A4C002301E013600432A242FBD3FFF772
:1053900085FE03F0B5F8FEF7D5FC7047000000204D
:1053A000A000002068870008A0000020F40500206D
:1053B000FEE780B500AF032000F010FD0F20FFF7DF
:1053C000C1FDFFF759FC0023184680BD80B400AF33
:1053D000054B1B781A46054B1B681344034A1360A0
:1053E00000BFBD4680BC704738000020F00500209B
:1053F00080B400AF024B1B681846BD4680BC7047A6
:10540000F005002080B584B000AF7860FFF7F0FFB2
:10541000B8607B68FB60FB68B3F1FF3F05D00A4BC7
:105420001B781A46FB681344FB6000BFFFF7E0FFE0
:105430000246BB68D31AFA689A42F7D800BF00BF89
:105440001037BD4680BD00BF3800002080B586B053
:1054500000AF78600023FB7500233B610023BB6035
:105460000023FB607B68002B01D10123BEE07B6839
:105470009B68002B7B689B6A002B09D17B6800220C
:10548000DA627B68002283F824207868FFF726FC24
:10549000786800F0B7FB0346FB757B689B6A03F0F6
:1054A0001003002B40F09980FB7D002B40F095808D
:1054B0007B689B6A23F4885323F0020343F00202C3
:1054C0007B689A627B685A687B68DB691A437B68F1
:1054D0001B7B5B001343BA681343BB607B689B680C
:1054E000B3F5807F03D07B689B68012B02D14FF41A
:1054F000807300E000233A6913433B617B681B7DA6
:10550000012B19D17B681B7B002B09D17B689B6920
:10551000013B5A033B69134343F400633B610BE0D7
:105520007B689B6A43F020027B689A627B68DB6A37
:1055300043F001027B68DA627B681B685B6823F4D6
:1055400069417B681B683A690A435A607B681B683B
:105550009A68284B13407A681268B9680B439360C5
:105560007B689B68B3F5807F03D07B689B68012BC9
:1055700004D17B681B69013B1B05FB607B681B68D2
:10558000DB6A23F470017B681B68FA680A43DA62FD
:105590007B681B689A68184B1340BA689A420BD113
:1055A0007B680022DA627B689B6A23F0030343F086
:1055B00001027B689A6218E07B689B6A23F0120301
:1055C00043F010027B689A627B68DB6A43F0010259
:1055D0007B68DA620123FB7507E07B689B6A43F016
:1055E00010027B689A620123FB75FB7D1846183711
:1055F000BD4680BDFDF7E1FFFE0E1FFF80B584B004
:1056000000AF78600023FB737B6893F82430012B94
:1056100001D1022362E07B68012283F824207868AC
:1056200000F096FA0346FB73FB7B002B51D17B689D
:105630009B6A23F4407323F0010343F480727B6878
:105640009A627B689B6A23F480127B689A627B680B
:105650001B685B6803F48063002B07D07B689B6A40
:1056600023F4405343F480527B689A627B689B6AC0
:1056700003F48053002B06D07B68DB6A23F006021C
:105680007B68DA6202E07B680022DA627B680022D3
:1056900083F824207B681B686FF002021A607B6825
:1056A0001B689B6803F46023B3F5602F08D17B6807
:1056B0001B689A687B681B6842F4A0029A600CE041
:1056C0007B681B689A687B681B6842F480129A604A
:1056D00003E07B68002283F82420FB7B1846103708
:1056E000BD4680BD80B584B000AF78600023FB73F9
:1056F0007B6893F82430012B01D102231AE07B68E8
:10570000012283F82420786800F07CFA0346FB73BA
:10571000FB7B002B09D17B689B6A23F4885323F021
:10572000010343F001027B689A627B68002283F8E0
:105730002420FB7B18461037BD4680BD90B587B04E
:1057400000AF7860396000237B610023FB60002399
:105750003B61FFF74DFE78617B681B689B6803F433
:105760008073002B0BD07B689B6A43F020027B6820
:105770009A627B68002283F824200123D3E07B68AF
:105780001B685B6803F48073002B31D17B681B6856
:10579000DB6A03F47003002B2AD121E03B68B3F1EC
:1057A000FF3F1DD03B68002B07D0FFF721FE0246CC
:1057B0007B69D31A3A689A4212D27B681B681B68CD
:1057C00003F00203002B0BD17B689B6A43F00402B9
:1057D0007B689A627B68002283F824200323A2E07E
:1057E0007B681B681B6803F00203002BD6D070E0B7
:1057F0004F4B1C68022001F09BF90346B4FBF3F207
:105800007B681B6819694B4B0B40002B18D17B68D8
:105810001B68D968484B0B40002B11D17B681B6873
:105820001969464B0B40002B08D17B681B68D9686F
:10583000434B0B40002B01D1142320E029231EE011
:105840007B681B6819693D4B0B40002B06D17B68B8
:105850001B68D9683A4B0B40002B0DD07B681B6846
:105860001969384B0B40002B08D17B681B68D9683D
:10587000344B0B40002B01D1542300E0FC2302FBEE
:1058800003F33B6121E03B68B3F1FF3F1AD03B6873
:10589000002B07D0FFF7ACFD02467B69D31A3A68AC
:1058A0009A420FD2FB683A699A420BD97B689B6A8D
:1058B00043F004027B689A627B68002283F824200C
:1058C000032330E0FB680133FB60FB683A699A42CE
:1058D000D9D87B681B686FF012021A607B689B6ADC
:1058E00043F400727B689A627B681B689B6803F4D0
:1058F0006023B3F5602F15D17B681B7B002B11D182
:105900007B689B6A23F480727B689A627B689B6ADF
:1059100003F48053002B05D17B689B6A43F001029E
:105920007B689A62002318461C37BD4690BD00BFB5
:1059300030000020244992242449920092244912E4
:10594000922449004992240080B483B000AF78606B
:105950007B681B68DB6C18460C37BD4680BC704703
:1059600080B485B000AF786039600023FB730023FA
:10597000BB607B6893F82430012B01D10223DCE06B
:105980007B68012283F824203B685B68062B1CD8C7
:105990007B681B68596B3B685A6813469B0013442D
:1059A000053B1F2202FA03F3DB4319403B681868EA
:1059B0003B685A6813469B001344053B00FA03F208
:1059C0007B681B680A435A633CE03B685B680C2BAE
:1059D0001CD87B681B68196B3B685A6813469B0090
:1059E0001344233B1F2202FA03F3DB4319403B68B5
:1059F00018683B685A6813469B001344233B00FA1F
:105A000003F27B681B680A431A631BE07B681B6810
:105A1000D96A3B685A6813469B001344413B1F22D6
:105A200002FA03F3DB4319403B6818683B685A6885
:105A300013469B001344413B00FA03F27B681B684A
:105A40000A43DA623B681B68092B1CD97B681B6818
:105A5000D9683B681A6813465B0013441E3B072253
:105A600002FA03F3DB4319403B6898683B681A6805
:105A700013465B0013441E3B00FA03F27B681B686D
:105A80000A43DA6019E07B681B6819693B681A6889
:105A900013465B001344072202FA03F3DB43194069
:105AA0003B6898683B681A6813465B00134400FA29
:105AB00003F27B681B680A431A613B681B68102B62
:105AC00003D03B681B68112B32D17B681B681D4AD1
:105AD000934225D17B681B689B6803F40003002B6D
