:020000040800F2
:1000000000200020414D0008FD490008034A000877
:10001000094A00080F4A0008154A000800000000BD
:100020000000000000000000000000001B4A000863
:10003000274A000800000000334A00083F4A000831
:10004000894D0008894D0008894D0008894D000838
:10005000894D0008894D0008894D0008894D000828
:10006000894D0008894D0008894D0008894D000818
:10007000894D0008894D0008894D0008894D000808
:10008000894D0008894D0008894D000800000000D6
:10009000000000000000000000000000894D000882
:1000A000894D0008894D0008894D0008894D0008D8
:1000B0004D4A0008894D0008894D0008894D000807
:1000C000894D00080000000000000000894D000874
:1000D000894D0008894D0008894D0008894D0008A8
:1000E000894D0008894D0008894D00080000000076
:1000F0000000000000000000000000000000000000
:1001000000000000000000000000000000000000EF
:100110000000000000000000614A0008894D00084E
:1001200000000000000000000000000000000000CF
:1001300000000000000000000000000000000000BF
:1001400000000000000000000000000000000000AF
:10015000000000000000000000000000000000009F
:10016000000000000000000000000000000000008F
:10017000000000000000000000000000000000007F
:10018000000000000000000000000000000000006F
:10019000000000000000000000000000000000005F
:1001A000000000000000000000000000000000004F
:1001B000000000000000000000000000000000003F
:1001C0000000000000000000000000005FF808F1DF
:1001D00010B5054C237833B9044B13B10448AFF381
:1001E00000800123237010BD2800002000000000C3
:1001F000CC7F000808B5034B1BB103490348AFF39C
:10020000008008BD000000002C000020CC7F00080A
:10021000034613F8012B002AFBD1181A0138704746
:1002200081F0004102E000BF83F0004330B54FEAA7
:1002300041044FEA430594EA050F08BF90EA020F14
:100240001FBF54EA000C55EA020C7FEA645C7FEAA7
:10025000655C00F0E2804FEA5454D4EB5555B8BFCA
:100260006D420CDD2C4480EA020281EA030382EA3B
:10027000000083EA010180EA020281EA0303362DCD
:1002800088BF30BD11F0004F4FEA01314FF4801CA0
:100290004CEA113102D0404261EB410113F0004FB2
:1002A0004FEA03334CEA133302D0524263EB430369
:1002B00094EA050F00F0A780A4F10104D5F1200E07
:1002C0000DDB02FA0EFC22FA05F2801841F1000162
:1002D00003FA0EF2801843FA05F359410EE0A5F136
:1002E00020050EF1200E012A03FA0EFC28BF4CF067
:1002F000020C43FA05F3C01851EBE37101F000451D
:1003000007D54FF0000EDCF1000C7EEB00006EEB29
:100310000101B1F5801F1BD3B1F5001F0CD34908B3
:100320005FEA30004FEA3C0C04F101044FEA44520A
:1003300012F5800F80F09A80BCF1004F08BF5FEA91
:10034000500C50F1000041EB045141EA050130BD71
:100350005FEA4C0C404141EB0101013C28BFB1F583
:10036000801FE9D291F0000F04BF01460020B1FACE
:1003700081F308BF2033A3F10B03B3F120020CDAA1
:100380000C3208DD02F1140CC2F10C0201FA0CF07F
:1003900021FA02F10CE002F11402D8BFC2F1200CE4
:1003A00001FA02F120FA0CFCDCBF41EA0C0190409A
:1003B000E41AA2BF01EB0451294330BD6FEA0404E3
:1003C0001F3C1CDA0C340EDC04F11404C4F12002CE
:1003D00020FA04F001FA02F340EA030021FA04F3E0
:1003E00045EA030130BDC4F10C04C4F1200220FA37
:1003F00002F001FA04F340EA0300294630BD21FA75
:1004000004F0294630BD94F0000F83F4801306BF3A
:1004100081F480110134013D4EE77FEA645C18BF2E
:100420007FEA655C29D094EA050F08BF90EA020FC5
:1004300005D054EA000C04BF1946104630BD91EABD
:10044000030F1EBF0021002030BD5FEA545C05D1C0
:100450004000494128BF41F0004130BD14F58004FF
:100460003CBF01F5801130BD01F0004545F0FE4173
:1004700041F470014FF0000030BD7FEA645C1ABFA8
:10048000194610467FEA655C1CBF0B46024650EADF
:10049000013406BF52EA033591EA030F41F400210B
:1004A00030BD00BF90F0000F04BF0021704730B591
:1004B0004FF4806404F132044FF000054FF0000166
:1004C00050E700BF90F0000F04BF0021704730B527
:1004D0004FF4806404F1320410F0004548BF4042FC
:1004E0004FF000013EE700BF42004FEAE2014FEA51
:1004F00031014FEA02701FBF12F07F4393F07F4F2C
:1005000081F06051704732F07F4208BF704793F02E
:100510007F4F04BF41F40021704730B54FF4607441
:1005200001F0004521F000411CE700BF50EA010244
:1005300008BF704730B54FF000050AE050EA0102ED
:1005400008BF704730B511F0004502D5404261EB5D
:1005500041014FF4806404F132045FEA915C3FF49E
:10056000D8AE4FF003025FEADC0C18BF03325FEA3B
:10057000DC0C18BF033202EBDC02C2F1200300FAEC
:1005800003FC20FA02F001FA03FE40EA0E0021FA11
:1005900002F11444BDE600BF70B54FF0FF0C4CF4FF
:1005A000E06C1CEA11541DBF1CEA135594EA0C0FB1
:1005B00095EA0C0F00F0DEF82C4481EA030621EAEC
:1005C0004C5123EA4C5350EA013518BF52EA033527
:1005D00041F4801143F4801338D0A0FB02CE4FF0D9
:1005E0000005E1FB02E506F00042E0FB03E54FF009
:1005F0000006E1FB03569CF0000F18BF4EF0010E01
:10060000A4F1FF04B6F5007F64F5407404D25FEAFC
:100610004E0E6D4146EB060642EAC62141EA5551AF
:100620004FEAC52040EA5E504FEACE2EB4F1FD0CF1
:1006300088BFBCF5E06F1ED8BEF1004F08BF5FEA6F
:10064000500E50F1000041EB045170BD06F0004621
:1006500046EA010140EA020081EA0301B4EB5C04CE
:10066000C2BFD4EB0C0541EA045170BD41F48011C6
:100670004FF0000E013C00F3AB8014F1360FDEBFEB
:10068000002001F0004170BDC4F10004203C35DAC7
:100690000C341BDC04F11404C4F1200500FA05F34A
:1006A00020FA04F001FA05F240EA020001F00042EB
:1006B00021F0004110EBD37021FA04F642EB060161
:1006C0005EEA430E08BF20EAD37070BDC4F10C048B
:1006D000C4F1200500FA04F320FA05F001FA04F24F
:1006E00040EA020001F0004110EBD37041F100013B
:1006F0005EEA430E08BF20EAD37070BDC4F1200546
:1007000000FA05F24EEA020E20FA04F301FA05F2AD
:1007100043EA020321FA04F001F0004121FA04F255
:1007200020EA020000EBD3705EEA430E08BF20EA25
:10073000D37070BD94F0000F0FD101F0004640005F
:1007400041EB010111F4801F08BF013CF7D041EAE1
:10075000060195F0000F18BF704703F000465200E5
:1007600043EB030313F4801F08BF013DF7D043EAB6
:100770000603704794EA0C0F0CEA135518BF95EA6C
:100780000C0F0CD050EA410618BF52EA4306D1D1F3
:1007900081EA030101F000414FF0000070BD50EA12
:1007A000410606BF1046194652EA430619D094EA9C
:1007B0000C0F02D150EA013613D195EA0C0F05D186
:1007C00052EA03361CBF104619460AD181EA0301DA
:1007D00001F0004141F0FE4141F470014FF0000092
:1007E00070BD41F0FE4141F4780170BD70B54FF02D
:1007F000FF0C4CF4E06C1CEA11541DBF1CEA1355AD
:1008000094EA0C0F95EA0C0F00F0A7F8A4EB05048E
:1008100081EA030E52EA03354FEA013100F0888085
:100820004FEA03334FF0805545EA131343EA12634E
:100830004FEA022245EA111545EA10654FEA002603
:100840000EF000419D4208BF964244F1FD0404F5BC
:10085000407402D25B084FEA3202B61A65EB030518
:100860005B084FEA32024FF480104FF4002CB6EBD5
:10087000020E75EB030E22BFB61A754640EA0C0055
:100880005B084FEA3202B6EB020E75EB030E22BF95
:10089000B61A754640EA5C005B084FEA3202B6EBD6
:1008A000020E75EB030E22BFB61A754640EA9C0095
:1008B0005B084FEA3202B6EB020E75EB030E22BF65
:1008C000B61A754640EADC0055EA060E18D04FEA23
:1008D000051545EA16754FEA06164FEAC30343EAC3
:1008E00052734FEAC2025FEA1C1CC0D111F4801F90
:1008F0000BD141EA00014FF000004FF0004CB6E789
:1009000011F4801F04BF01430020B4F1FD0C88BF27
:10091000BCF5E06F3FF6AFAEB5EB030C04BFB6EB32
:10092000020C5FEA500C50F1000041EB045170BD25
:100930000EF0004E4EEA113114EB5C04C2BFD4EB52
:100940000C0541EA045170BD41F480114FF0000ED6
:10095000013C90E645EA060E8DE60CEA135594EA52
:100960000C0F08BF95EA0C0F3FF43BAF94EA0C0F55
:100970000AD150EA01347FF434AF95EA0C0F7FF4CA
:1009800025AF104619462CE795EA0C0F06D152EA1E
:1009900003353FF4FDAE1046194622E750EA410602
:1009A00018BF52EA43067FF4C5AE50EA41047FF413
:1009B0000DAF52EA43057FF4EBAE12E74FEA410276
:1009C000B2F1E04324BFB3F5001CDCF1FE5C0DD9AD
:1009D00001F0004C4FEAC0024CEA5070B2F1004FF7
:1009E00040EB830008BF20F00100704711F0804FFA
:1009F00021D113F13872BCBF01F00040704741F4BF
:100A000080114FEA5252C2F11802C2F1200C10FAC2
:100A10000CF320FA02F018BF40F001004FEAC123A6
:100A20004FEAD32303FA0CFC40EA0C0023FA02F34A
:100A30004FEA4303CCE77FEA625307D150EA013320
:100A40001EBF4FF0FE4040F44000704701F00040F0
:100A500040F0FE4040F40000704700BF80F00040CE
:100A600002E000BF81F0004142001FBF5FEA410386
:100A700092EA030F7FEA226C7FEA236C6AD04FEA86
:100A80001262D2EB1363C1BFD218414048404140CB
:100A9000B8BF5B42192B88BF704710F0004F40F47D
:100AA000000020F07F4018BF404211F0004F41F499
:100AB000000121F07F4118BF494292EA030F3FD065
:100AC000A2F1010241FA03FC10EB0C00C3F1200378
:100AD00001FA03F100F0004302D5494260EB400007
:100AE000B0F5000F13D3B0F1807F06D340084FEA72
:100AF000310102F10102FE2A51D2B1F1004F40EB67
:100B0000C25008BF20F0010040EA030070474900CE
:100B100040EB0000013A28BFB0F5000FEDD2B0FA6B
:100B200080FCACF1080CB2EB0C0200FA0CF0AABF8E
:100B300000EBC25052421843BCBFD040184370472C
:100B400092F0000F81F4000106BF80F40000013232
:100B5000013BB5E74FEA41037FEA226C18BF7FEA09
:100B6000236C21D092EA030F04D092F0000F08BF4B
:100B70000846704790EA010F1CBF0020704712F032
:100B80007F4F04D1400028BF40F00040704712F171
:100B900000723CBF00F50000704700F0004343F0D6
:100BA000FE4040F4000070477FEA226216BF08460C
:100BB0007FEA23630146420206BF5FEA412390EACF
:100BC000010F40F4800070474FF0000304E000BFC5
:100BD00010F0004348BF40425FEA000C08BF704776
:100BE00043F0964301464FF000001CE050EA01023A
:100BF00008BF70474FF000030AE000BF50EA01024F
:100C000008BF704711F0004302D5404261EB41013B
:100C10005FEA010C02BF84460146002043F0B64360
:100C200008BFA3F18053A3F50003BCFA8CF2083A85
:100C3000A3EBC25310DB01FA02FC634400FA02FC8E
:100C4000C2F12002BCF1004F20FA02F243EB020095
:100C500008BF20F00100704702F1200201FA02FCF7
:100C6000C2F1200250EA4C0021FA02F243EB0200EA
:100C700008BF20EADC7070474FF0FF0C1CEAD0522E
:100C80001EBF1CEAD15392EA0C0F93EA0C0F6FD0EF
:100C90001A4480EA010C400218BF5FEA41211ED0CD
:100CA0004FF0006343EA501043EA5111A0FB0131B9
:100CB0000CF00040B1F5000F3EBF490041EAD3718E
:100CC0005B0040EA010062F17F02FD2A1DD8B3F10A
:100CD000004F40EBC25008BF20F00100704790F079
:100CE000000F0CF0004C08BF49024CEA502040EACB
:100CF00051207F3AC2BFD2F1FF0340EAC250704791
:100D000040F400004FF00003013A5DDC12F1190FCE
:100D1000DCBF00F000407047C2F10002410021FA40
:100D200002F1C2F1200200FA02FC5FEA310040F158
:100D3000000053EA4C0308BF20EADC70704792F0D1
:100D4000000F00F0004C02BF400010F4000F013A09
:100D5000F9D040EA0C0093F0000F01F0004C02BF04
:100D6000490011F4000F013BF9D041EA0C018FE773
:100D70000CEAD15392EA0C0F18BF93EA0C0F0AD079
:100D800030F0004C18BF31F0004CD8D180EA01009F
:100D900000F00040704790F0000F17BF90F0004F38
:100DA000084691F0000F91F0004F14D092EA0C0F1A
:100DB00001D142020FD193EA0C0F03D14B0218BFAD
:100DC000084608D180EA010000F0004040F0FE40F3
:100DD00040F40000704740F0FE4040F4400070478F
:100DE0004FF0FF0C1CEAD0521EBF1CEAD15392EA0E
:100DF0000C0F93EA0C0F69D0A2EB030280EA010CFE
:100E000049024FEA402037D04FF0805343EA111196
:100E100043EA10130CF000408B4238BF5B0042F1F4
:100E20007D024FF4000C8B4224BF5B1A40EA0C0099
:100E3000B3EB510F24BFA3EB510340EA5C00B3EBCB
:100E4000910F24BFA3EB910340EA9C00B3EBD10FB9
:100E500024BFA3EBD10340EADC001B0118BF5FEA0B
:100E60001C1CE0D1FD2A3FF650AF8B4240EBC25034
:100E700008BF20F0010070470CF0004C4CEA5020F5
:100E80007F32C2BFD2F1FF0340EAC250704740F444
:100E900000004FF00003013A37E792F0000F00F036
:100EA000004C02BF400010F4000F013AF9D040EAB4
:100EB0000C0093F0000F01F0004C02BF490011F448
:100EC000000F013BF9D041EA0C0195E70CEAD15340
:100ED00092EA0C0F08D142027FF47DAF93EA0C0F27
:100EE0007FF470AF084676E793EA0C0F04D14B020B
:100EF0003FF44CAF08466EE730F0004C18BF31F0BD
:100F0000004CCAD130F000427FF45CAF31F00043B6
:100F10007FF43CAF5FE700BF4FF0FF3C06E000BF4F
:100F20004FF0010C02E000BF4FF0010C4DF804CD72
:100F30004FEA40024FEA41037FEA226C18BF7FEA82
:100F4000236C11D001B052EA530C18BF90EA010F84
:100F500058BFB2EB030088BFC81738BF6FEAE17013
:100F600018BF40F0010070477FEA226C02D15FEAAF
:100F7000402C05D17FEA236CE4D15FEA412CE1D01B
:100F80005DF8040B704700BF844608466146FFE7E2
:100F90000FB5FFF7C9FF002848BF10F1000F0FBDC4
:100FA0004DF808EDFFF7F4FF0CBF012000205DF8BD
:100FB00008FB00BF4DF808EDFFF7EAFF34BF012042
:100FC00000205DF808FB00BF4DF808EDFFF7E0FFDB
:100FD00094BF012000205DF808FB00BF4DF808ED2C
:100FE000FFF7D2FF94BF012000205DF808FB00BF8F
:100FF0004DF808EDFFF7C8FF34BF012000205DF871
:1010000008FB00BF42000ED2B2F1FE4F0BD34FF0EF
:101010009E03B3EB126209D44FEA002343F000436E
:1010200023FA02F070474FF00000704712F1610F91
:1010300001D1420202D14FF0FF3070474FF0000063
:10104000704700BF7BB972B90029BEBF00204FF0C6
:10105000004106E008BF00281CBF6FF000414FF0C0
:10106000FF3000F0A1B9ADF1080C6DE904CE002904
:1010700009DB002B1ADB00F035F8DDF804E0DDE9D0
:10108000022304B07047404261EB4101002B1BDB9F
:1010900000F028F8DDF804E0DDE9022304B0404266
:1010A00061EB4101524263EB43037047524263EBF1
:1010B000430300F017F8DDF804E0DDE9022304B093
:1010C000404261EB41017047524263EB430300F041
:1010D00009F8DDF804E0DDE9022304B0524263EBD5
:1010E000430370472DE9F047089E0D4604468E469F
:1010F000002B40F083808A42174647D9B2FA82F328
:101100004BB1C3F1200105FA03FE20FA01F19F4023
:1011100041EA0E0E9C404FEA1748BEFBF8FC1FFA4E
:1011200087F908FB1CE20CFB09F0210C41EA0242A2
:1011300090420AD9BA180CF1FF3180F01881904220
:1011400040F21581ACF1020C3A44121AB2FBF8F0ED
:1011500008FB102200FB09F1A4B244EA0244A142B8
:1011600009D93C1900F1FF3280F00381A14240F21D
:10117000008102383C44641A002140EA0C401EB150
:101180000022DC40C6E90042BDE8F08702B9FFDE7C
:10119000B2FA82F3002B4FD18D1A01214FEA124E81
:1011A0001FFA82F8B5FBFEFC0EFB1C5508FB0CF089
:1011B000220C42EA0545A84207D97D190CF1FF32FD
:1011C00002D2A84200F2E98094462D1AB5FBFEF047
:1011D0000EFB105508FB00F8A4B244EA0544A045F4
:1011E00007D93C1900F1FF3202D2A04500F2D980A4
:1011F0001046A4EB080440EA0C40C0E78B4208D933
:10120000002E00F0B1800021C6E900050846BDE8C7
:10121000F087B3FA83F100294BD1AB4202D382426B
:1012200000F2B980841A65EB030301209E46002E6C
:10123000AAD0C6E9004EA7E79F40C3F12002D140E3
:101240004FEA174EB1FBFEF01FFA87F80EFB1011A4
:1012500024FA02F29D4000FB08FC2A43150C45EAE3
:101260000145AC4504FA03F409D97D1900F1FF31B9
:1012700080F08F80AC4540F28C8002383D44A5EB75
:101280000C05B5FBFEF10EFB115C01FB08F995B2F4
:1012900045EA0C45A94507D97D1901F1FF3274D201
:1012A000A94572D902393D44A5EB090541EA00413F
:1012B00078E7C1F120078B4022FA07FC4CEA030CC7
:1012C00025FA07F44FEA1C4EB4FBFEF91FFA8CF81E
:1012D0000EFB194420FA07F309FB08FA8D401D4361
:1012E0002B0C43EA0444A24502FA01F200FA01F38E
:1012F00009D91CEB040409F1FF3048D2A24546D9B4
:10130000A9F102096444A4EB0A04B4FBFEF00EFB4D
:10131000104400FB08FAADB245EA0444A24508D9DE
:101320001CEB040400F1FF352DD2A2452BD9023865
:10133000644440EA0940A0FB0289A4EB0A044C453E
:10134000C6464D4619D316D05EB1B3EB0E0264EB20
:10135000050404FA07F722FA01F31F43CC40C6E95B
:1013600000740021BDE8F087314630460CE78C461A
:10137000EBE61046FFE64345E6D2B8EB020E69EB1A
:101380000C050138E0E72846D3E711468CE7814693
:10139000B9E7084673E7084649E7ACF1020C3D445B
:1013A00013E702383C4424E7704700BF0000000008
:1013B00090B59BB000AF7860396001237B66002355
:1013C000A7F8623007F1080310220021184606F042
:1013D0009BFD386803F0FEFD6421386803F09AFE37
:1013E000034687F8613097F86130002B4FD1386899
:1013F00003F096FFF865386803F060FEF86DFFF7BC
:10140000E3FB034640491846FFF7EAFC034619464A
:101410001846FFF729FB03461846FFF765F836A381
:10142000D3E90023FFF7B8F802460B4610461946E9
:1014300033A3D3E90023FFF7AFF802460B4610466B
:101440001946FFF7BBFA0346BB653049B86DFFF795
:1014500009FB0346BB652E49B86DFFF70DFC03463B
:101460001846FFF741F802460B461046194606F0AB
:1014700065FD4FF00002274BFFF7B8F902460B4617
:1014800010461946FFF79AFA0346C7F80A30882330
:101490003B810623A7F86230B7F8622007F1080302
:1014A0001146184601F07EFA0346FB8107F1080356
:1014B00007F108010822786801F024FD07F11804FB
:1014C00007F108030FCB84E80F0007F11803102180
:1014D000184602F049FF034687F86130642003F0A4
:1014E0007DFC97F86130002B01D000237B667B6E7A
:1014F00018466C37BD4690BD6666666666660A40ED
:101500009A9999999999F13F00F07F458FC2F53EDC
:10151000000020410000244080B487B000AFF86094
:10152000B9607A6000237B610CE07B699B007A687C
:101530001A447B699B00B9680B4412681A607B6986
:1015400001337B617B690F2BEFDD00BF00BF1C37D0
:10155000BD4680BC704780B485B000AF786039600C
:101560000023FB6008E0FB689B003A6813440022FC
:101570001A60FB680133FB60FB680F2BF3DD00BFD3
:1015800000BF1437BD4680BC704780B5A6B000AF21
:10159000F860B9607A603B600023C7F894300BE0D4
:1015A000D7F894309B00BA68134400221A60D7F829
:1015B00094300133C7F89430D7F894301F2BEFDD07
:1015C0000023C7F894309CE01023C7F890300DE05A
:1015D000D7F890309B0007F198021344002243F89B
:1015E000882CD7F890300133C7F89030D7F8903076
:1015F0001F2BEDDD0023C7F890301DE0D7F89030A9
:101600009B003A6813441968D7F894309B007A68B5
:1016100013441B681A46F86801F023FD0246D7F808
:1016200090309B0007F198010B4443F8882CD7F8C1
:1016300090300133C7F89030D7F890300F2BDDDDB4
:101640001F23C7F8903017E0D7F89020D7F89430D0
:10165000D31A9B0007F19802134453F8882CD7F84B
:1016600090309B0007F198010B4443F8882CD7F881
:101670009030013BC7F89030D7F89020D7F89430DD
:101680009A42E1DA0023C7F890300DE0D7F89030A5
:101690009B0007F198021344002243F8882CD7F8E6
:1016A00090300133C7F89030D7F89020D7F89430B5
:1016B0009A42EBDB0023C7F8903019E0D7F890305E
:1016C0009B00BA6813441968D7F890309B0007F163
:1016D0009802134453F8882CD7F890309B00B868D0
:1016E00003444A401A60D7F890300133C7F890306D
:1016F000D7F890301F2BE1DDD7F894300133C7F8CD
:101700009430D7F894300F2B7FF75EAF00BF00BF47
:101710009837BD4680BD80B483B000AF03463960C2
:10172000FB713B68013B012202FA03F35AB297F9BD
:10173000073013435BB2DBB218460C37BD4680BCA2
:10174000704780B483B000AF03463960FB713B68DB
:10175000013B012202FA03F35BB2DB435AB297F971
:10176000073013405BB2DBB218460C37BD4680BC75
:101770007047000080B584B000AF0346FB710022C3
:101780000421194804F0D0F9FB7908211846FFF725
:10179000C2FF03467B73154B186807F10D014FF428
:1017A0007A73012204F084FF0346FB73012003F0E7
:1017B00015FB0E4B186807F10E014FF47A730122E6
:1017C00005F0B2F80346FB73FB7B002B01D0FF232F
:1017D000BB7301220421044804F0A6F9BB7B184620
:1017E0001037BD4680BD00BF000C01404400002002
:1017F00080B584B000AF03460A46FB711346BB7147
:1018000000220421154804F08FF9FB7908211846BD
:10181000FFF797FF0346BB73114B186807F10E01E2
:101820004FF47A73012204F043FF0346FB73012057
:1018300003F0D4FA0A4B1868B91D4FF47A730122E9
:1018400004F036FF0346FB7301220421034804F031
:101850006BF9FB7B18461037BD4680BD000C01407C
:101860004400002080B588B000AF0346B9607A60BC
:10187000FB73002204211D4804F056F9FB7B08216C
:101880001846FFF748FF0346FB75194B186807F128
:1018900017014FF47A73012204F00AFF0346FB7725
:1018A000012003F09BFA0023BB6111E0104B186884
:1018B000BB69BA68D1184FF47A73012205F034F885
:1018C0000346FB77012003F089FABB690133BB6152
:1018D000BA697B689A42E9DB01220421034804F0DB
:1018E00023F9FB7F18462037BD4680BD000C014020
:1018F0004400002090B583B000AF0023FB71892025
:10190000FFF738FF03469BB21B029CB28820FFF70B
:1019100031FF03469BB223449AB2894B1A808B2035
:10192000FFF728FF03469BB21B029CB28A20FFF7F9
:1019300021FF03469BB223449BB21AB2804B5A80CC
:101940008D20FFF717FF03469BB21B029CB28C2031
:10195000FFF710FF03469BB223449BB21AB2784BA9
:101960009A808F20FFF706FF03469BB21B029CB2B2
:101970008E20FFF7FFFE03469BB223449AB2704BC2
:10198000DA809120FFF7F6FE03469BB21B029CB261
:101990009020FFF7EFFE03469BB223449BB21AB29E
:1019A000674B1A819320FFF7E5FE03469BB21B02AB
:1019B0009CB29220FFF7DEFE03469BB223449BB20B
:1019C0001AB25F4B5A819520FFF7D4FE03469BB2B3
:1019D0001B029CB29420FFF7CDFE03469BB223442A
:1019E0009BB21AB2564B9A819720FFF7C3FE03466B
:1019F0009BB21B029CB29620FFF7BCFE03469BB233
:101A000023449BB21AB24E4BDA819920FFF7B2FE03
:101A100003469BB21B029CB29820FFF7ABFE034625
:101A20009BB223449BB21AB2454B1A829B20FFF70C
:101A3000A1FE03469BB21B029CB29A20FFF79AFEBE
:101A400003469BB223449BB21AB23D4B5A829D205F
:101A5000FFF790FE03469BB21B029CB29C20FFF74F
:101A600089FE03469BB223449BB21AB2344B9A823E
:101A70009F20FFF77FFE03469BB21B029CB29E2075
:101A8000FFF778FE03469BB223449BB21AB22C4B5D
:101A9000DA82A120FFF76EFE03461A46284B1A761B
:101AA000E220FFF767FE03469BB21B029CB2E120D7
:101AB000FFF760FE03469BB223449BB21AB2204B51
:101AC0005A83E320FFF756FE03461A461C4B1A774B
:101AD000E420FFF74FFE03469BB21B019CB2E520BA
:101AE000FFF748FE03469BB203F00F039BB223446B
:101AF0009BB21AB2124BDA83E620FFF73BFE034695
:101B00009BB21B019CB2E520FFF734FE03461B0984
:101B1000DBB29BB203F00F039BB223449BB21AB219
:101B2000074B1A84E720FFF725FE03465AB2044B01
:101B300083F82220FB7918460C37BD4690BD00BFC4
:101B40004800002080B584B000AF0346FB7100233D
:101B5000FB73FB79072B01D90023FB71F520FFF7FD
:101B600009FE0346BB73BB7B03F01F03BB73FB790A
:101B70005B015AB297F90E3013435BB2BB73BB7B68
:101B80001946F520FFF734FEFB7B18461037BD469B
:101B900080BD80B584B000AF0346FB710023FB73AA
:101BA000FB79072B01D90023FB71F520FFF7E2FD3C
:101BB0000346BB73BB7B23F01C03BB73FB799B0009
:101BC0005AB297F90E3013435BB2BB73BB7B194615
:101BD000F520FFF70DFEFB7B18461037BD4680BD94
:101BE00080B483B000AF0346FB71FB79102B31D872
:101BF00001A252F823F000BF3D1C0008411C000860
:101C0000451C0008551C0008491C0008551C00080C
:101C1000551C0008551C00084D1C0008551C0008E8
:101C2000551C0008551C0008551C0008551C0008D0
:101C3000551C0008551C0008511C000800230AE030
:101C4000012308E0022306E0032304E0042302E06A
:101C5000052300E0012318460C37BD4680BC7047C1
:101C600080B582B000AFF420FFF784FD0346FB711E
:101C7000FB7903F00303DBB218460837BD4680BD8D
:101C800080B584B000AF0346FB710023FB73FB7982
:101C9000032B01D90023FB71F420FFF76BFD0346F2
:101CA000BB73BB7B23F00303BB73BA7BFB7913438A
:101CB000BB73BB7B1946F420FFF79AFDFB7B1846EC
:101CC0001037BD4680BD80B584B000AF0346FB71C0
:101CD0000023FB73FB791846FFF782FF0346FB7175
:101CE000FFF7BEFF0346BB730020FFF7C9FFF420D8
:101CF000FFF740FD03467B737B7B03F01F037B7381
:101D0000FB795B015AB297F90D3013435BB27B73D9
:101D10007B7B1946F420FFF76BFDBB7B1846FFF772
:101D2000AFFFFB7B18461037BD4680BD80B584B041
:101D300000AF0346FB710023FB73FB791846FFF7E6
:101D40004FFF0346FB71FFF78BFF0346BB73002079
:101D5000FFF796FFF420FFF70DFD03467B737B7BB7
:101D600023F01C037B73FB799B005AB297F90D306B
:101D700013435BB27B737B7B1946F420FFF738FD7E
:101D8000BB7B1846FFF77CFFFB7B18461037BD4630
:101D900080BD80B584B000AF0346FB710023FB73A8
:101DA000FB791846FFF71CFF0346FB71FFF758FF4E
:101DB0000346BB730020FFF763FFF220FFF7DAFC56
:101DC00003467B737B7B23F007037B737A7BFB7972
:101DD00013437B737B7B1946F220FFF709FDBB7B26
:101DE0001846FFF74DFFFB7B18461037BD4680BDF8
:101DF00080B58AB000AF78607B6803331B781A0324
:101E00007B6804331B781B011A437B6805331B78FE
:101E10001B09DBB203F00F0313437B627B6ADA100A
:101E2000244B1B885B00D31A224AB2F9022002FB22
:101E300003F3DB121A464FEAE273C7E906237B6A13
:101E40001B111C4A12889B1A7A6A121119490988B7
:101E5000521A02FB03F31B13164AB2F9042002FBC9
:101E600003F39B131A464FEAE273C7E90423BA69E6
:101E70003B691344FB60FA6813469B0013448033AC
:101E80001B121846FEF7A4FE0346BB600A49B86859
:101E9000FEF7A6FF03461A46084B9B6819461046F4
:101EA000FEF7E2FD0346BB60BB6818462837BD4617
:101EB00080BD00BF480000200000C8426C00002028
:101EC00080B584B000AF786039600023FB73786818
:101ED000FFF78EFFB8600C49B868FEF7CDFE0346E9
:101EE0000A491846FEF77CFF03464FF08441184626
:101EF000FEF7BAFD0346BB603B68BA681A60FB7B1D
:101F000018461037BD4680BD000010410000A040BB
:101F100080B584B000AF786039600023FB737868C7
:101F2000FFF766FF02463B681A60FB7B18461037D6
:101F3000BD4680BD2DE9B04F9EB000AFF864B964D6
:101F4000002387F8773000233B67FB6C1B781A036C
:101F5000FB6C01331B781B011A43FB6C02331B78AB
:101F60001B09DBB203F00F031343FB663B6F1A46FA
:101F70004FEAE273B2F5FA3443F1FF35C7E9184589
:101F80007A6E3B6E03FB02F17A6E3B6E03FB02F34B
:101F9000CA183B6EA3FB034553191D46604BB3F9AA
:101FA00010301AB24FEAE27302FB05F004FB03F1B2
:101FB0000144A4FB022319440B46C7E91623C7E9D1
:101FC0001623574BB3F90E301AB24FEAE273396E4B
:101FD00003FB01F0796E02FB01F10844396EA1FBAD
:101FE0000223C1180B464FF000004FF000015904C6
:101FF00041EAD2315004D7E9162312EB000843EB33
:102000000109C7E91689464BB3F90C301AB24FEAF9
:10201000E2734FF000004FF00001D1000020D7E93B
:1020200016231418BC614B41FB61D7E90634C7E99C
:1020300016347A6E3B6E03FB02F17A6E3B6E03FB45
:1020400002F3CA183B6EA3FB034553191D46344BDC
:10205000B3F90A301AB24FEAE27302FB05F004FB4F
:1020600003F10144A4FB022319440B464FF000087E
:102070004FF000094FEA122848EA03684FEA232983
:10208000274BB3F908301AB24FEAE273396E03FBFB
:1020900001F0796E02FB01F14418396EA1FB0201D7
:1020A000631819464FF000024FF000030B0343EA98
:1020B0001053020318EB0201396149EB03037B6102
:1020C000D7E90434C7E91834D7E91823111C396457
:1020D00043F500437B64124BDB889AB24FF0000358
:1020E000D7E91045294602FB01F0214601FB03F127
:1020F00001442046A0FB022319440B464FF0000088
:102100004FF000015810D917C7E91801D7E9182373
:10211000134307D1BB6C4FF000025A60F1E000BFDF
:1021200048000020FB6EC3F580131A464FEAE273A5
:10213000C7E914233B6D5B10FB633B6DDB07BB639F
:10214000D7E91623D7E90E452146B1EB020A294605
:1021500061EB030B52465B469118B9605B41FB6033
:10216000D7E9022312EB0A0243EB0B034FF0000006
:102170004FF00001990141EA92619001121841EB80
:1021800003034FF000004FF00001990041EA927103
:10219000900002460B4612EB0A0243EB0B034FF092
:1021A00000004FF00001990041EA92719000024650
:1021B0000B4612EB0A01396343EB0B037B63D7E950
:1021C0001823D7E90C01FEF73DFF02460B46C7E98D
:1021D00014234F4BB3F9163018B24FEAE071D7E928
:1021E00014454FF000024FF00003620B42EAC54273
:1021F0006B1302FB01F500FB03F42C44A0FB02016E
:1022000063181946D7E914454FF000024FF0000358
:10221000620B42EAC5426B1302FB01F500FB03F4BB
:102220002C44A0FB0201631819464FF000024FF046
:102230000003420E42EAC1124B16C7E91823344B81
:10224000B3F914301AB24FEAE273396D03FB01F0AF
:10225000796D02FB01F14418396DA1FB020163188D
:1022600019464FF000024FF00003C20C42EA41321F
:10227000CB14C7E91623D7E91401D7E9182384182A
:10228000BC6241EB0303FB62D7E91623D7E90A4599
:10229000214689183962294643EB010179624FF0E2
:1022A00000004FF00001D7E908452346180A2B46E5
:1022B00040EA03602B461912154BB3F912301CB2D9
:1022C0004FEAE4754FF000024FF000032B0143EAA0
:1022D0001473220184183C6041EB03037B60D7E94F
:1022E0000034C7E91434D7E91401FEF787FC03462C
:1022F0004FF087411846FEF773FD03461A46BB6C44
:102300005A6097F8773018467837BD46BDE8B08FE9
:102310004800002080B586B000AF786039600023A7
:10232000FB7500233B617B6806331B781B027A68D0
:10233000073212781343FB603B69A3F59633BB6009
:10234000FB689A032F4BB3F91E301B05D21A2D4B95
:10235000B3F920301946BB6803FB01F3D31A03F528
:102360008043DB13274A92F922201146BA6802FB08
:1023700001F292122349097F0846B96801FB00F176
:10238000C91201F5004101FB02F2921202F500129E
:102390001C49B1F91A1001FB02F202F50052921326
:1023A00002FB03F3BB60BB68DB13BA68D21302FB0A
:1023B00003F3DB11134A127E02FB03F31B11BA680D
:1023C000D31ABB60BB6823EAE373BB60BB68B3F19D
:1023D000C85FA8BF4FF0C853BB60BB681B1318464B
:1023E000FEF7F6FB03464FF089411846FEF7F8FC6E
:1023F00003461A463B689A60FB7D18461837BD466F
:1024000080BD00BF4800002080B582B000AF01232E
:10241000FB71F320FFF7AEF90346BB71BB7903F004
:102420000803002B01D10023FB71FB791846083704
:10243000BD4680BD80B588B000AF78600B46FB70AC
:102440000023FB770023BB6106E0BB690133BB615E
:10245000BB69B3F57A7F05DCFFF7D6FF0346002B97
:10246000F3D100E000BF07F10C0308221946F72062
:10247000FFF7F8F90346FB75FB7D002B1CD1FB78B9
:10248000002B06D107F10C0379681846FFF740FDD1
:1024900005E007F10C0379681846FFF711FD07F115
:1024A0000C0379681846FFF745FD07F10C037968BE
:1024B0001846FFF72FFF01E00123FB77FB7F18464B
:1024C0002037BD4680BD000080B584B000AF786085
:1024D0000023FB732B4A7B6813602B4B03221A707B
:1024E000294B00225A70284B00229A70264B012259
:1024F000DA70254B01221A71234B01225A71224BAB
:102500004FF000029A60D020FFF734F90346BB7306
:10251000BB7B602B02D00123FB732EE00020FFF772
:10252000AFFBFFF7E7F90346FB73174B5B781846E1
:10253000FFF708FB0346FB73134B9B781846FFF726
:1025400028FB0346FB73104B1B791846FFF7EEFB85
:102550000346FB730C4B5B791846FFF71AFC0346E6
:10256000FB73094BDB781846FFF7ADFB0346FB73A3
:10257000054B1B781846FFF783FBFB7B184610378B
:10258000BD4680BD440000206C000020B0B59CB06A
:1025900000AF78600123FB660023A7F86A3007F1DB
:1025A0000C0319220021184605F0AEFC4423BB8120
:1025B0000523BB73BB7B1A4607F10C030333304979
:1025C000184605F093FC0F23A7F86A30B7F86A2085
:1025D00007F10C031146184600F0E4F90346A7F88A
:1025E0001B3007F10C0307F10C011122786800F091
:1025F00089FC07F1280407F10C050FCD0FC495E8FD
:10260000070003C4227007F128031921184601F0BE
:10261000ABFE034687F8693097F86930002B01D08C
:102620000023FB6601F0C2FC034687F8693097F887
:102630006930002B01D00023FB660521104800F013
:1026400031FC4FF4967002F0C9FB01F0CBFC03465D
:1026500087F8693097F86930002B01D00023FB66BA
:1026600001F0B2FC034687F8693097F86930002B17
:1026700001D00023FB66FB6E18467037BD46B0BD27
:10268000E47F0008F0B5A5B000AF7860002387F8BC
:102690008F300023A7F88C300023A7F88A3000235E
:1026A000A7F88830B64B1B78032B00F2638101A298
:1026B00052F823F0C5260008CD2600088727000819
:1026C000CF280008AE4B01221A7053E1AD4B002217
:1026D0001A8047F60843A7F88C30AB4B00221A80CB
:1026E00011220021A94805F00FFCA84B4FF0FF3242
:1026F0001A7000225A70A64B1A78A44B9A70B7F839
:102700008C30A24AC2F803300723A7F88830B7F804
:10271000883019469D4800F045F903461A469B4B00
:10272000A3F80720994B09229849786800F0EAFB42
:1027300007F1440340220021184605F0E5FB934BC6
:1027400007F144041D4628686968AA68EB680FC44D
:102750002B7C237007F144031121184601F004FE7D
:10276000034687F887304FF4FA7002F037FB97F88A
:102770008730002B03D0824B00221A70FAE0804B86
:1027800002221A70F6E07F4B1B881A46814B1344D5
:102790001C4607F10C0604F1300C35462346186838
:1027A00059689A68DB680FC5103410366445F4D157
:1027B000334622461068516803C3142002F00EFB12
:1027C0003823A7F88A306F4B1B8838339AB26D4B89
:1027D0001A806C4B1B881A466C4BD3F803309A4214
:1027E00002D1022387F88F3097F88F30022B07D061
:1027F000022B00F3BE80002B02D0012B62D0B8E088
:10280000654B002262F011021A7000225A70604B70
:102810001A78614B9A705C4B1A885F4BA3F80320BF
:10282000B7F88A30DAB25C4B5A715B4B5B791A4667
:1028300007F10C031946594805F058FB3E23A7F849
:102840008830B7F888301946534800F0ABF8034693
:102850001A46514BDA8707F14403402200211846FB
:1028600005F052FB4C4B1C4607F1440604F1400CAA
:1028700035462346186859689A68DB680FC51034D6
:1028800010366445F4D107F144034021184601F0A5
:102890006BFD034687F8873097F88730002B03D00D
:1028A000374B00221A7006E097F88F30022B02D1C6
:1028B000334B03221A70344B1B8801339AB2324BCC
:1028C0001A8003E02E4B01221A7000BF51E0344BF6
:1028D000002262F022021A7000225A702C4B1A78E1
:1028E0002F4B9A700323A7F88830B7F88830194621
:1028F0002B4800F057F803461A46294BA3F803204B
:10290000274B05222649786800F0FCFA07F14403BA
:1029100040220021184605F0F7FA642002F05EFA22
:102920001F4A07F14403144620686168A26807C380
:10293000227B1A7007F144030D21184601F014FDA3
:10294000034687F887304FF4FA7002F047FA97F899
:102950008730002B09D10A4B01221A700C4B1B78CF
:102960000133DAB20A4B1A7004E0054B01221A70E7
:1029700000E000BF97F88F3018469437BD46F0BD91
:10298000780000207A0000207C000020AC030020AA
:102990007E000020308000086C03002072030020BD
:1029A0005403002080B586B000AF78603960174BC3
:1029B0001B7883F00103DBB2002B01D000F02AF872
:1029C0000023FB827B683B613B69002B18D000230E
:1029D000FB6011E0FB8A1B0A9AB2F98A3B69581C1A
:1029E00038611B784B40DBB2094931F81330534052
:1029F000FB82FB680133FB60FA683B689A42E9D3CB
:102A0000FB8A18461837BD4680BD00BF7F000020F6
:102A10008000002080B483B000AF0023FB8029E059
:102A200000237B80FB883B800023BB8017E07A88F3
:102A30003B8853409BB203F00103002B06D07B88F8
:102A40005B089AB2114B53407B8002E07B885B08A5
:102A50007B803B885B083B80BB880133BB80BB88A5
:102A6000072BE4D9FB880A497A8821F81320FB88D0
:102A70000133FB80FB88FF2BD2D9064B01221A7051
:102A800000BF0C37BD4680BC704700BF01A0FFFFF0
:102A9000800000207F00002080B500AF034B1B6842
:102AA000184602F09BF900BF80BD00BF0000002067
:102AB00080B500AF044B1A681346DB001344184678
:102AC00002F08CF900BF80BD0000002080B500AF8F
:102AD0006021342001F0D4FA03461A46064B1A70DE
:102AE0000121064801F040FC03461A46024B1A70C9
:102AF000FFF7D2FF00BF80BDC50300208002002089
:102B000080B500AFFF21342001F0BAFA03461A461F
:102B1000064B1A700121064801F026FC03461A46AE
:102B2000024B1A70FFF7B8FF00BF80BDC50300203D
:102B30008002002080B582B000AF0346FB71FB79B4
:102B4000203B3A2B00F2A88101A252F823F000BFEB
:102B5000932E0008992E0008992E0008992E00083F
:102B6000992E0008992E0008992E0008992E000829
:102B7000992E0008992E0008992E0008992E000819
:102B8000992E0008992E0008992E0008992E000809
:102B90007D2E0008B72D0008CD2D0008E32D00087C
:102BA000F92D00080F2E0008252E00083B2E0008E6
:102BB000512E0008672E0008992E0008992E000853
:102BC000992E0008992E0008992E0008992E0008C9
:102BD000992E00083D2C0008472C0008592C0008AD
:102BE0006B2C0008792C00087F2C00088F2C000823
:102BF0009D2C0008AF2C0008B92C0008CB2C000835
:102C0000D92C0008EB2C0008F52C0008FF2C00083C
:102C10000D2D00081F2D0008312D00083F2D000844
:102C20004D2D0008532D0008612D0008732D00085C
:102C3000812D0008932D0008A52D0008FFF746FF01
:102C4000FFF75EFF28E1FFF75BFFFFF73FFFFFF7AE
:102C50003DFFFFF73BFF1FE1FFF752FFFFF736FF96
:102C6000FFF74EFFFFF732FF16E1FFF749FFFFF7CF
:102C70002DFFFFF72BFF0FE1FFF728FF0CE1FFF718
:102C800025FFFFF723FFFFF73BFFFFF71FFFFFF7CE
:102C900037FFFFF735FFFFF719FFFDE0FFF716FFDE
:102CA000FFF714FFFFF712FFFFF710FFF4E0FFF745
:102CB0000DFFFFF70BFFEFE0FFF708FFFFF720FF27
:102CC000FFF71EFFFFF71CFFE6E0FFF719FFFFF716
:102CD000FDFEFFF715FFDFE0FFF7F8FEFFF710FF3F
:102CE000FFF7F4FEFFF7F2FED6E0FFF709FFFFF76C
:102CF00007FFD1E0FFF704FFFFF7E8FECCE0FFF7A6
:102D0000FFFEFFF7FDFEFFF7FBFEC5E0FFF7DEFE6F
:102D1000FFF7F6FEFFF7F4FEFFF7D8FEBCE0FFF783
:102D2000EFFEFFF7EDFEFFF7D1FEFFF7E9FEB3E0A0
:102D3000FFF7CCFEFFF7E4FEFFF7C8FEACE0FFF7BD
:102D4000C5FEFFF7C3FEFFF7C1FEA5E0FFF7D8FE03
:102D5000A2E0FFF7BBFEFFF7B9FEFFF7D1FE9BE055
:102D6000FFF7B4FEFFF7B2FEFFF7B0FEFFF7C8FEB5
:102D700092E0FFF7ABFEFFF7C3FEFFF7C1FE8BE06B
:102D8000FFF7BEFEFFF7A2FEFFF7A0FEFFF7B8FEBB
:102D900082E0FFF7B5FEFFF799FEFFF7B1FEFFF700
:102DA000AFFE79E0FFF7ACFEFFF7AAFEFFF78EFE5D
:102DB000FFF78CFE70E0FFF789FEFFF7A1FEFFF73B
:102DC0009FFEFFF79DFEFFF79BFE65E0FFF77EFE8F
:102DD000FFF77CFEFFF794FEFFF792FEFFF790FEF1
:102DE0005AE0FFF773FEFFF771FEFFF76FFEFFF784
:102DF00087FEFFF785FE4FE0FFF768FEFFF766FEF0
:102E0000FFF764FEFFF762FEFFF77AFE44E0FFF78C
:102E10005DFEFFF75BFEFFF759FEFFF757FEFFF77A
:102E200055FE39E0FFF76CFEFFF750FEFFF74EFE50
:102E3000FFF74CFEFFF74AFE2EE0FFF761FEFFF7BB
:102E40005FFEFFF743FEFFF741FEFFF73FFE23E083
:102E5000FFF756FEFFF754FEFFF752FEFFF736FE70
:102E6000FFF734FE18E0FFF74BFEFFF749FEFFF7D0
:102E700047FEFFF745FEFFF729FE0DE0FFF740FE96
:102E8000FFF73EFEFFF73CFEFFF73AFEFFF738FE86
:102E900002E0FFF70DFE00BFFFF70AFE00BF083794
:102EA000BD4680BD80B584B000AF78603960FFF763
:102EB000FFFDFFF7FDFD0023FB6009E0FB687A687A
:102EC00013441B781846FFF735FEFB680133FB609F
:102ED000FA683B689A42F1DB00BF00BF1037BD467D
:102EE00080BD80B582B000AF786040F688120021C6
:102EF000786801F0A5FA786801F094FA00BF083705
:102F0000BD4680BD80B584B000AFF860B9607A601E
:102F10003B603B687A68B968F86801F03CFB00BF29
:102F20001037BD4680BD90B599B000AF786039606C
:102F30000123FB650023A7F85A3007F1080310228C
:102F40000021184604F0E0FF99233B813B68C7F855
:102F50000A300623A7F85A30B7F85A2007F10803B9
:102F600011461846FFF71EFD0346FB8107F10803D3
:102F700007F1080108227868FFF7C4FF07F1180479
:102F800007F108030FCB84E80F0007F118031021A5
:102F9000184601F0E9F9034687F85930642001F03A
:102FA0001DFFFB6D18466437BD4690BD80B48FB0E1
:102FB00000AF7860396001233B6100237B617B694E
:102FC000BB61BB69FB61FB693B623B6A7B627B6AFD
:102FD000BB62BB6AFB62FB6AFB6001233B633B682D
:102FE000002B38D001237B631AE07B69FB60BB694F
:102FF0007B61FB69BB613B6AFB617A6AFB6853409A
:103000003B62BA6AFB6853407B62FA6AFB685340D2
:10301000BB623B6BFB62FB683B637B6B01337B6397
:103020007A6B3B689A42E0DDFB6A5A003B6B1A44BC
:10303000BB6A9B001A447B6ADB001A443B6A1B0193
:103040001A44FB695B011A44BB699B011A447B6902
:10305000DB0113443B613B6918463C37BD4680BCED
:10306000704780B493B000AFF860B9607A60BB6815
:10307000002B02D07B68002B01D100235CE00823E9
:103080007B6300237B6400233B6421E03B6C9B005B
:1030900007F1480213447A6843F8382C7B6B013BF4
:1030A0007A6842FA03F303F00103002B0AD07B682D
:1030B0005B007B607B6883F48E7383F00103DBB27B
:1030C0007B6002E07B685B007B603B6C01333B64B0
:1030D0003A6C7B6B9A42D9DB00233B6427E00122E8
:1030E0003B6C02FA03F33B633A6BBB681340002B63
:1030F0001AD00123FB630023BB6311E03B6C9B00F0
:1031000007F14802134453F8382CFB6B13407A6CD8
:1031100053407B64FB6B5B00FB63BB6B0133BB63A6
:10312000BA6B7B6B9A42E9DB3B6C01333B643A6CD4
:103130007B6B9A42D3DB7B6C18464C37BD4680BC18
:1031400070470000B0B5ADF5067D02AF3B1D1860BD
:10315000002387F807320023C7F80C3207F5017304
:1031600007F18801381D40F6B83200924FF496728C
:10317000006804F08CFC034687F80632642001F0F6
:103180002DFE97F80632002B75D10023C7F80832C0
:1031900069E007F18802D7F808321344197807F577
:1031A000DA72D7F80C3213440A461A70D7F80C3288
:1031B0000133C7F80C3207F18802D7F808321344FC
:1031C0001B780A2B0CBF01230023DAB2D7F80C328C
:1031D0004F2BCCBF01230023DBB21343DBB2002B08
:1031E0003CD097F8B431242B35D107F5DA7303338B
:1031F00003221946C14804F08FFE0346002B0FD16D
:1032000050220021BE4804F07FFED7F80C2207F5BB
:10321000DA731946BA4804F069FEBA4B01221A6003
:1032200007F5DA73033303221946B74804F074FE36
:103230000346002B0FD150220021B44804F064FE55
:10324000D7F80C2207F5DA731946B04804F04EFEA1
:10325000AF4B01221A600023C7F80C32D7F80832AE
:103260000133C7F80832B7F804321A46D7F80832E3
:1032700093428EDB02E0012001F0B0FDA14B1B6800
:10328000012B40F03381A24B1B68012B40F02E81B3
:103290009E48FCF7BDFF03469AB29E4B1A809848A1
:1032A000FCF7B6FF03469AB29B4B1A8007F108035E
:1032B00040220021184604F027FE974B1B883E2B26
:1032C00008D907F10803C2221A8007F108033D223A
:1032D0009A7009E007F10803C1221A808E4B1B88FF
:1032E000DAB207F108039A7007F108039B781A46CF
:1032F00007F1080303338249184604F0F7FD07F18C
:10330000480207F1080314461D460FCD0FC40FCD28
:103310000FC40FCD0FC495E80F0084E80F0007F12C
:1033200008039B780333DAB207F1480311461846C5
:1033300001F01AF8034687F80632642001F04EFDCA
:10334000754B1B883E2B3ED907F108034022002114
:10335000184604F0D9FD07F10803C3221A806E4B0A
:103360001B88DBB23D3BDAB207F108039A7007F124
:1033700008039B781A4607F1080303336749184688
:1033800004F0B4FD07F1480207F1080314461D4696
:103390000FCD0FC40FCD0FC40FCD0FC495E80F0094
:1033A00084E80F0007F108039B780333DAB207F1D2
:1033B00048031146184600F0D7FF034687F8063247
:1033C000642001F00BFD07F108034022002118469C
:1033D00004F09AFD4F4B1B883E2B08D907F10803D8
:1033E000B2221A8007F108033D229A7009E007F122
:1033F0000803B1221A80474B1B88DAB207F1080391
:103400009A7007F108039B781A4607F10803033303
:103410003E49184604F06AFD07F1480207F1080327
:1034200014461D460FCD0FC40FCD0FC40FCD0FC4D2
:1034300095E80F0084E80F0007F108039B78033339
:10344000DAB207F148031146184600F08DFF034633
:1034500087F80632642001F0C1FC2F4B1B883E2BFD
:103460003ED907F1080340220021184604F04CFD24
:1034700007F10803B3221A80264B1B88DBB23D3BC1
:10348000DAB207F108039A7007F108039B781A462D
:1034900007F1080303332249184604F027FD07F11A
:1034A000480207F1080314461D460FCD0FC40FCD87
:1034B0000FC40FCD0FC495E80F0084E80F0007F18B
:1034C00008039B780333DAB207F148031146184624
:1034D00000F04AFF034687F80632642001F07EFCC4
:1034E000084B00221A600A4B00221A6097F8073234
:1034F000184607F50477BD46B0BD00BFEC7F000855
:1035000084020020D4020020F07F0008D8020020AE
:10351000280300202C0300202E030020C1020020DD
:103520001503002090B599B000AF78603960012391
:10353000FB650023A7F85A3007F108031022002189
:10354000184604F0E1FC66233B813B68C7F80A306B
:103550000623A7F85A30B7F85A2007F10803114696
:103560001846FFF71FFA0346FB8107F1080307F12E
:10357000080108227868FFF7C5FC07F1180407F175
:1035800008030FCB84E80F0007F118031021184639
:1035900000F0EAFE034687F85930642001F01EFC73
:1035A000FB6D18466437BD4690BD0000B0B5A0B0B5
:1035B00000AF78600123FB670023A7F87A3007F19A
:1035C00008032D220021184604F09EFC55233B8160
:1035D0001323BB72BB7A1A4607F1080303331E4953
:1035E000184604F083FC2323A7F87A30B7F87A2032
:1035F00007F1080311461846FFF7D4F90346A7F868
:103600002B3007F1080307F1080125227868FFF73E
:1036100079FC07F1380407F108050FCD0FC40FCD71
:103620000FC495E80F0007C4237007F138032D215C
:10363000184600F099FE034687F87930642001F0BF
:10364000CDFB97F87930002B01D00023FB67FB6F8F
:1036500018468037BD46B0BDF47F000890B599B0DC
:1036600000AF78600123FB650023A7F85A3007F10B
:1036700008030D220021184604F046FCE021122028
:1036800000F0FEFC034687F859300921132000F0B2
:10369000F7FC034687F8593080210F2000F0F0FC3A
:1036A000034687F85930642001F098FB07F11703AF
:1036B0001946112000F0A4FC034687F8593097F80A
:1036C0005930002B2FD1FB7D3C3BDBB25BB2BB7290
:1036D000AA233B810323A7F85A30B7F85A2007F1F1
:1036E000080311461846FFF75DF90346A7F80B30AB
:1036F00007F1080307F1080105227868FFF702FCCB
:1037000007F1180407F108030FCB07C4237007F172
:1037100018030D21184600F027FE034687F859309C
:10372000642001F05BFBFB6D18466437BD4690BD1D
:1037300080B5ADF5196D00AF002387F88E3901F023
:1037400024FB00F0F7F800F063FA00F081F900F0D4
:103750000BFA00F0B3F900F03DF900F02FFA012266
:103760008021674802F0E0F900228021644802F0DD
:10377000DBF94FF47A6001F031FB01224FF48071E4
:103780005F4802F0D1F95F4801F0A9F9034687F8D4
:103790008E3909E05B4801F0A2F9034687F88E39BB
:1037A0008021574802F0D8F997F88E39012BF1D0D3
:1037B000544801F073FA034687F88E3997F88E392A
:1037C000012B02D0012387F88E393B1D1846FFF7E5
:1037D00088FB4D4B1B68002B25D001220421484853
:1037E00002F0A2F9012387F88F3905E0474800F07D
:1037F00063FB034687F88F3997F88F39002BF5D193
:10380000434B00221A604148FEF75EFE034687F8EC
:103810008D3997F88D39002B02D13D4B01221A606A
:10382000394B00221A603B4B1B68002B06D03B1D16
:103830001846FEF7ABFE374B00221A60364B1B686A
:10384000002B06D03B1D1846FFF7B0FE324B00227E
:103850001A60324B1B68002B06D03B1D1846FFF741
:10386000FDFE2E4B00221A602D4B1B68002B07D04B
:103870003B1D2C491846FDF79BFD294B00221A6081
:10388000294B1B68012B05D11E48FFF75BFC264B1B
:1038900000221A60254B1B68002B2BD01C4B1B6889
:1038A000012B24D101212248FEF7C4FD034687F8ED
:1038B0008D391F4B1A683B1D11461846FFF733FB25
:1038C000034687F88D391A4B5A683B1D1146184636
:1038D00000F0AFFA034687F88D39154B9A683B1D07
:1038E00011461846FFF71EFE034687F88D390F4B29
:1038F00000221A603B1D1846FEF7C4FE69E700BFB0
:10390000000C0140A004002018000020D403002077
:103910004C030020040000200800002010000020BC
:103920000C00002070040020300300201400002050
:10393000C803002080B592B000AF07F12003282211
:103940000021184604F0E0FA07F10C0300221A6087
:103950005A609A60DA601A613B4600221A605A6027
:103960009A6002233B6201233B6310237B630023A5
:10397000FB6307F12003184602F008F90346002B09
:1039800001D000F051FA0F23FB6000233B610023BC
:103990007B610023BB610023FB6107F10C03002165
:1039A000184602F073FB0346002B01D000F03CFAEE
:1039B00002233B600023BB603B46184602F0FEFC3E
:1039C0000346002B01D000F02FFA00BF4837BD4658
:1039D00080BD000080B584B000AF3B1D00221A609E
:1039E0005A609A60184B194A1A60174B00229A6065
:1039F000154B00221A73144B00221A75124B4FF408
:103A00006022DA61104B00225A600F4B01221A61CA
:103A10000D4801F007FA0346002B01D000F004FA2C
:103A200005237B600123BB600023FB603B1D19461F
:103A3000054801F081FC0346002B01D000F0F4F9A9
:103A400000BF1037BD4680BD700400200024014037
:103A500080B500AF174B184A1A60164B4FF48272AC
:103A60005A60144B00229A60124B0022DA60114B0C
:103A700000221A610F4B00225A610E4B4FF4007264
:103A80009A610C4B0022DA610A4B00221A62094B40
:103A900000225A62074B00229A62064B0A22DA621F
:103AA000044802F089FD0346002B01D000F0BCF968
:103AB00000BF80BDD40300200038004080B586B030
:103AC00000AF07F1080300221A605A609A60DA60BA
:103AD0003B4600221A605A60224B4FF080421A6027
:103AE000204B41F63F725A601E4B00229A601D4BDC
:103AF00043F69822DA601B4B00221A61194B002210
:103B00009A61184803F0BCFA0346002B01D000F07C
:103B10008BF94FF48053BB6007F108031946114835
:103B200003F060FC0346002B01D000F07DF9002378
:103B30003B6000237B603B4619460A4803F050FE79
:103B40000346002B01D000F06FF9064803F0E8FAB5
:103B50000346002B01D000F067F900BF1837BD46BF
:103B600080BD00BFE404002080B500AF114B124AB5
:103B70001A60104B4FF416525A600E4B00229A6096
:103B80000C4B0022DA600B4B00221A61094B0C220D
:103B90005A61084B00229A61064B0022DA610548FF
:103BA00003F096FE0346002B01D000F03DF900BF64
:103BB00080BD00BFA00400200038014080B500AFE8
:103BC000114B124A1A60104B4FF4E1325A600E4BFF
:103BD00000229A600C4B0022DA600B4B00221A6123
:103BE000094B0C225A61084B00229A61064B0022B5
:103BF000DA61054803F06CFE0346002B01D000F0AB
:103C000013F900BF80BD00BF2C0400200048004015
:103C100080B588B000AF07F1100300221A605A6027
:103C20009A60DA60284B9B69274A43F0100393613E
:103C3000254B9B6903F01003FB60FB68224B9B69DB
:103C4000214A43F0040393611F4B9B6903F0040373
:103C5000BB60BB681C4B9B691B4A43F00803936124
:103C6000194B9B6903F008037B607B6800224FF4CB
:103C70000051164801F058FF00224FF4C271144859
:103C800001F052FF4FF400533B6101237B6100239D
:103C9000BB610223FB6107F1100319460B4801F0D9
:103CA000BFFD4FF4C2733B6101237B610023BB6105
:103CB0000223FB6107F110031946054801F0B0FD2E
:103CC00000BF2037BD4680BD0010024000100140FB
:103CD000000C014080B582B000AF78607B681B6843
:103CE000414A934201D101F05DF87B681B68B3F152
:103CF000804F74D13D4B01221A6080213C4801F075
:103D00002BFF3C4B1B6801333A4A13603A4B1B684C
:103D10000133394A1360394B1B680133374A13604A
:103D2000374B1B680133364A1360364B1B6801332F
:103D3000344A1360344B1B680133334A13602D4BF4
:103D40001968324B83FB01231A11CB17D21A134681
:103D50009B001344DB00CA1A002A02D12C4B01221B
:103D60001A60264B1968294B83FB0123DA10CB1705
:103D7000D21A13469B0013449B00CA1A002A02D190
:103D8000244B01221A601E4B1A68234B83FB02133B
:103D90001344D910D317C91A0B461B015B1AD11A49
:103DA000002902D11D4B01221A60164B1B6803F03B
:103DB0000103002B02D11A4B01221A60124B196821
:103DC000124B83FB01235A10CB17D21A13469B00C8
:103DD0001344CA1A002A02D1124B01221A6000BFF2
:103DE0000837BD4680BD00BF0010004030030020F2
:103DF000000C014034030020380300203C03002065
:103E000040030020440300204803002067666666E4
:103E1000040000200C000020898888881000002001
:103E2000140000201800002080B400AF72B600BF5C
:103E3000FEE790B599B000AF786039600123FB656B
:103E40000023A7F85A3007F1080310220021184672
:103E500004F05AF877233B813B68C7F80A30062301
:103E6000A7F85A30B7F85A2007F108031146184648
:103E7000FEF798FD0346FB8107F1080307F10801EF
:103E800008227868FFF73EF807F1180407F10803E5
:103E90000FCB84E80F0007F118031021184600F03B
:103EA00063FA034687F85930642000F097FFFB6DF2
:103EB00018466437BD4690BD80B584B000AF7860C9
:103EC000374A7B6813608021072000F0D9F8034649
:103ED000FB734FF47A7000F081FF07216D2000F032
:103EE000CFF80346FB732F4800F078F90346FB73C5
:103EF00059216E2000F0C4F80346FB7321216F2086
:103F000000F0BEF80346FB732C21702000F0B8F8D7
:103F10000346FB730D21722000F0B2F80346FB73D9
:103F200000F060F80346FB730E21332000F0A8F880
:103F30000346FB730821362000F0A2F80346FB730A
:103F40006D21372000F09CF80346FB735321382085
:103F500000F096F80346FB738821392000F090F8B2
:103F60000346FB730821302000F08AF800F02CF89B
:103F70000346FB730421052000F082F80346FB731F
:103F80000021062000F07CF80346FB73002280210C
:103F9000054801F0C9FDFB7B18461037BD4680BDC2
:103FA000500300200040D943000C014080B582B08E
:103FB00000AF2021712000F063F80346FB71FB790C
:103FC00018460837BD4680BD80B582B000AF2321BA
:103FD000712000F055F80346FB71FB79184608374D
:103FE000BD4680BD80B582B000AF1021342000F006
:103FF00047F80346FB71FB7918460837BD4680BD7C
:1040000080B584B000AF03463960FB7100224FF4E5
:104010000051194801F088FDFB799BB21B02FB811E
:10402000FB891B0A9BB2DBB23B73144B186807F188
:104030000C014FF47A73012202F03AFB03467B73C2
:10404000012000F0CBFE0D4B186807F10B014FF477
:104050007A73012202F068FC03467B73FA7A3B68AC
:104060001A7001224FF40051034801F05DFD7B7B83
:1040700018461037BD4680BD001001405003002097
:1040800080B584B000AF03460A46FB711346BB718E
:104090008023FB7300224FF400511D4801F044FDC2
:1040A000FA79FB7B1343DBB21B021AB2BB791BB25A
:1040B00013431BB2BB81BB891B0A9BB2DBB2BB7231
:1040C000BB89DBB27B72134B186807F10A014FF40E
:1040D0007A73012202F0ECFA0346FB72012000F031
:1040E0007DFE0C4B186807F109014FF47A73012229
:1040F00002F0DEFA0346FB7201224FF4005104483D
:1041000001F012FDFB7A18461037BD4680BD00BF96
:10411000001001405003002080B586B000AF034678
:104120003960FB711346BB718023FB7300224FF48F
:104130000051284801F0F8FCFA79FB7B1343DBB20D
:104140001B021AB23B681B781BB213431BB2BB8124
:10415000BB891B0A9BB2DBB2FB72BB89DBB2BB72B1
:104160001D4B186807F10B014FF47A73012202F01E
:104170009FFA0346FB75012000F030FE164B1868CD
:1041800007F10A014FF47A73012202F091FA034613
:10419000FB7501233B610EE00F4B18683B693A68E1
:1041A000D1184FF47A73012202F082FA0346FB75AC
:1041B0003B6901333B61BB793A699A42ECDB0122EE
:1041C0004FF40051034801F0AFFCFB7D184618374F
:1041D000BD4680BD001001405003002090B587B05F
:1041E00000AF78605A4B7B6179695A48FCF7F8FD5B
:1041F000034679681846FCF73FFD034656491846C2
:10420000FCF7ECFE0346002B01D0012300E0002365
:10421000FB7479694F48FCF7E3FD0346796818465B
:10422000FCF72AFD03464D491846FCF7D9FD034625
:104230001846FCF7E7FE0346DBB2A3F11801FA7C4F
:10424000134692009B1ADB00CA18FB7C013392FBD9
:10425000F3F3BB7403237B747B7C1846FCF7B8FC38
:10426000034619467869FCF7BBFD03461C46FB7CF8
:1042700001331846FCF7ACFC034619462046FCF710
:10428000FBFC034619467868FCF7AAFD03461C466A
:10429000BB7C1846FCF79CFC034619462046FCF7FD
:1042A000E1FB03462E491846FCF7DCFB03462D498B
:1042B0001846FCF7E1FC03461846FCF7A3FE03464C
:1042C000FB8197F9123003F01F035BB243F0400308
:1042D0005AB2FB7C5B015BB203F020035BB2134379
:1042E0005BB2DBB219467520FFF7CAFE03467B734B
:1042F000FB891B0A9BB2DBB219467620FFF7C0FE92
:1043000003467B73FB89DBB219467720FFF7B8FEC3
:1043100003467B7300217320FFF7B2FE03467B73D5
:1043200000217420FFF7ACFE03467B7300217A2046
:10433000FFF7A6FE03467B7300217920FFF7A0FE5E
:1043400003467B737B7B18461C37BD4690BD00BF80
:104350000000D0410000F0410000F0430000204187
:104360000000C04100007A4780B584B000AF78609B
:104370000B46FB700023FB60FB7819463E20FFF7DD
:104380007FFE0346FB72FB781A4679687F20FFF7B1
:10439000C3FE0346FB7207F10A0319460320FFF729
:1043A0002FFE0346FB7207F10A0319460420FFF7AC
:1043B00027FE0346FB7200224FF48071184801F07B
:1043C000B3FB08210720FFF75BFE0346FB720023C7
:1043D000BB720AE007F10A0319460320FFF710FE3B
:1043E0000346FB72FB680133FB60BB7A03F00403F6
:1043F000002B02D1FB68312BECDD01224FF48071E0
:10440000074801F091FB07F10A0319460420FFF762
:10441000F7FD0346FB72FB7A18461037BD4680BD98
:10442000000C014080B582B000AF78607B681A460E
:104430000821786800F056F800BF0837BD4680BDF7
:1044400080B487B000AFF860B9607A60BB687B6108
:1044500007E07B69FA68134400221A707B69013314
:104460007B617A697B689A42F3DB00BF00BF1C372F
:10447000BD4680BC704780B487B000AFF860B960BB
:104480007A603B6000237B610AE07B69BA681A446A
:104490007B6939680B4412781A707B6901337B6140
:1044A0007A697B689A42F0DB00237B6111E07B69CB
:1044B000C3F10702FB68203253F822107A697B6847
:1044C00013441A463B681344CAB21A707B6901331D
:1044D0007B617B69072BEADD00BF00BF1C37BD464F
:1044E00080BC704780B5ADF6180D00AF07F10C0326
:1044F000186007F1080319603B1D1A6007F11402E8
:1045000007F10C0311461868FDF725F807F11403AD
:1045100001221A600123C7F814382FE007F2144271
:1045200007F10C0311461868FDF715F807F10C03A5
:10453000D7F814181868FEF739FD024607F214433D
:104540001A6007F2144301225A6007F1140307F2BC
:104550001442391D07F10C0009680068FDF715F8D1
:104560003A1D07F1140107F10C0312681868FCF7F3
:10457000D3FFD7F814380133C7F8143807F108030C
:10458000D7F814281B689A42C8DD00BF00BF07F6A1
:104590001807BD4680BD90B591B000AFF860B96016
:1045A0007A603B600023FB630AE0FB6B9B0007F132
:1045B00040021344002243F8302CFB6B0133FB63B1
:1045C000FB6B082BF1DD0023FB6337E0FB6BBA6864
:1045D00013441B781A46FB6A53407B630723BB6373
:1045E0001DE0BB6B013B9B0007F14002134453F8F5
:1045F000304CFB68BA6B53F822307A6B1946F86876
:10460000FEF72FFD034684EA0302BB6B9B0007F114
:1046100040010B4443F8302CBB6B013BBB63BB6BCD
:10462000002BDEDCFB681B687A6B1946F868FEF726
:1046300018FD03463B61FB6B0133FB63FA6B7B6840
:104640009A42C3DB0023FB630EE0FB6B9B0007F188
:104650004002134453F8301CFB68FA6B203243F8D5
:104660002210FB6B0133FB63FB6B072BEDDD3B681B
:104670007A68B968F868FFF7FEFE00BF4437BD46A8
:1046800090BD000080B485B000AF154B9B69144A03
:1046900043F001039361124B9B6903F00103BB607C
:1046A000BB680F4BDB690E4A43F08053D3610C4B60
:1046B000DB6903F080537B607B680A4B5B68FB60BF
:1046C000FB6823F0E063FB60FB6843F00073FB6072
:1046D000044AFB68536000BF1437BD4680BC704776
:1046E000001002400000014080B588B000AF786043
:1046F00007F1100300221A605A609A60DA607B6842
:104700001B68144A934221D1134B9B69124A43F40C
:1047100000739361104B9B6903F40073FB60FB68AB
:104720000D4B9B690C4A43F0040393610A4B9B6950
:1047300003F00403BB60BB6820233B6103237B6160
:1047400007F110031946054801F06AF800BF203749
:10475000BD4680BD00240140001002400008014019
:1047600080B588B000AF786007F1100300221A60AE
:104770005A609A60DA607B681B681C4A934231D1A8
:104780001B4BDB691A4A43F48043D361184BDB6946
:1047900003F48043FB60FB68154B9B69144A43F0AC
:1047A00008039361124B9B6903F00803BB60BB686D
:1047B0004FF420433B6102237B610323FB6107F13C
:1047C000100319460B4801F02BF84FF480433B616E
:1047D00000237B610023BB6107F1100319460548E4
:1047E00001F01EF800BF2037BD4680BD00380040F4
:1047F00000100240000C014080B584B000AF78602A
:104800007B681B68B3F1804F13D10C4BDB690B4AFB
:1048100043F00103D361094BDB6903F00103FB6043
:10482000FB68002200211C2000F0CFFF1C2000F0BC
:10483000E8FF00BF1037BD4680BD00BF001002403A
:1048400080B58AB000AF786007F1180300221A60C3
:104850005A609A60DA607B681B68384A934232D1AA
:10486000374B9B69364A43F480439361344B9B69D1
:1048700003F480437B617B69314B9B69304A43F091
:10488000040393612E4B9B6903F004033B613B6976
:104890004FF40073BB610223FB6103237B6207F1CA
:1048A00018031946274800F0BBFF4FF48063BB6133
:1048B0000023FB6100233B6207F1180319462148DE
:1048C00000F0AEFF36E07B681B681F4A934231D18F
:1048D0001B4BDB691A4A43F48023D361184BDB6915
:1048E00003F48023FB60FB68154B9B69144A43F07B
:1048F00008039361124B9B6903F00803BB60BB681C
:104900004FF48063BB610223FB6103237B6207F1E9
:10491000180319460D4800F083FF4FF40063BB6194
:104920000023FB6100233B6207F118031946074887
:1049300000F076FF00BF2837BD4680BD003801403B
:10494000001002400008014000480040000C0140F7
:1049500080B58CB000AF78600023FB620023BB629F
:1049600000227968362000F030FF362000F049FF41
:104970001E4BDB691D4A43F01003D3611B4BDB69FF
:1049800003F01003FB60FB6807F1100207F114034A
:104990001146184601F0C8FC01F09EFCF862FB6A63
:1049A000134AA2FB03239B0C013BBB62114B124A2F
:1049B0001A60104B40F2E732DA600E4ABB6A53606D
:1049C0000C4B00221A610B4B00229A60094802F03E
:1049D00057FB0346002B04D1064802F0A1FB034617
:1049E00000E0012318463037BD4680BD001002406C
:1049F00083DE1B432C0500200010004080B400AF74
:104A0000FEE780B400AFFEE780B400AFFEE780B4FD
:104A100000AFFEE780B400AFFEE780B400AF00BF98
:104A2000BD4680BC704780B400AF00BFBD4680BCAF
:104A3000704780B400AF00BFBD4680BC704780B4F3
:104A400000AF00BFBD4680BC7047000080B500AF1E
:104A5000024802F0BFFB00BF80BD00BFE40400209D
:104A600080B500AF024802F0B5FB00BF80BD00BFBB
:104A70002C05002080B400AF00BFBD4680BC70474D
:104A800080B487B000AF78600B467B8000233B7317
:104A900000237B7300237B610FE03A7B7B6979689D
:104AA0000B441B781344DBB23B737A7B3B7B134490
:104AB000DBB27B737B6901337B617B887A699A42C5
:104AC000EBDBBB893B8200233A7C62F307037A7CF1
:104AD00062F30F2318461C37BD4680BC704780B573
:104AE0009AB002AF7860002387F85F30FF23FB7332
:104AF00007F128032C220021184603F005FAB523FC
:104B000087F82830622387F82930062387F82A306F
:104B1000242387F82B302423BB8540F2FF33FB8509
:104B2000062387F83030022387F8313000237B8654
:104B30000023BB86002343F41C5343F01003FB8681
:104B400000233B87052387F83A30002387F83B3062
:104B50006423BB876423FB876423A7F84030C82302
:104B6000A7F84230002387F84430022387F8453005
:104B70000023A7F846300023A7F848300023A7F801
:104B80004A300023A7F84C300023A7F84E3000230A
:104B9000A7F8503007F12803023328211846FFF701
:104BA0006FFF0346A7F8523097F828303B7497F808
:104BB00029307B740523BB740123FB7402233B75EE
:104BC00000237B7597F82A30BB7597F82B30FB755F
:104BD00032233B765B237B7607F10F014FF47A7328
:104BE0000122786802F0C1FE034687F857304FF47F
:104BF0007A7000F0F3F897F85730002B03D00123B8
:104C000087F85F3043E007F128014FF47A732C22D4
:104C1000786802F0AAFE034687F8573097F85730B5
:104C2000002B03D0012387F85F3030E007F11A032F
:104C300007F11C0140F6B83200920A22786802F0AF
:104C400026FF034687F857307B8B0A2B03D00123BE
:104C500087F85F301BE097F85730002B17D10023FF
:104C6000BB6511E007F11C02BB6D13441A7807F114
:104C70001001BB6D0B441B789A4202D0012387F8C8
:104C80005F30BB6D0133BB65BB6D092BEAD997F86B
:104C90005F3018466037BD4680BD000080B58AB0E1
:104CA00000AF7860002387F82730244A07F1180303
:104CB00092E80300186004331970B5233B73622334
:104CC0007B730623BB730123FB7303233B82F02317
:104CD000BB7400233B7500233B6226E007F11802FA
:104CE0003B6A13441B78FB7407F10C030233072162
:104CF0001846FFF7C5FE03461BB21A467A75C3F382
:104D00000723BB7507F10C014FF47A730B22786807
:104D100002F02BFE0346FB77FB7F002B02D0012322
:104D200087F827303B6A01333B623B6A042BD5D9B5
:104D300097F8273018462837BD4680BD0880000800
:104D40000C480D490D4A002302E0D458C4500433E6
:104D5000C4188C42F9D30A4A0A4C002301E01360BC
:104D60000432A242FBD3FFF785FE03F09BF8FEF767
:104D7000DFFC7047000000202800002060FC0008D5
:104D80002800002078050020FEE780B500AF032052
:104D900000F010FD0F20FFF7DBFDFFF773FC002391
:104DA000184680BD80B400AF054B1B781A46054BF2
:104DB0001B681344034A136000BFBD4680BC7047A4
:104DC000240000207405002080B400AF024B1B6853
:104DD0001846BD4680BC70477405002080B584B07D
:104DE00000AF7860FFF7F0FFB8607B68FB60FB689E
:104DF000B3F1FF3F05D00A4B1B781A46FB681344FA
:104E0000FB6000BFFFF7E0FF0246BB68D31AFA68F9
:104E10009A42F7D800BF00BF1037BD4680BD00BF23
:104E20002400002080B586B000AF78600023FB75B9
:104E300000233B610023BB600023FB607B68002BE9
:104E400001D10123BEE07B689B68002B7B689B6AD5
:104E5000002B09D17B680022DA627B68002283F88C
:104E600024207868FFF740FC786800F0B7FB034621
:104E7000FB757B689B6A03F01003002B40F0998060
:104E8000FB7D002B40F095807B689B6A23F4885360
:104E900023F0020343F002027B689A627B685A683F
:104EA0007B68DB691A437B681B7B5B001343BA6832
:104EB0001343BB607B689B68B3F5807F03D07B683E
:104EC0009B68012B02D14FF4807300E000233A6904
:104ED00013433B617B681B7D012B19D17B681B7BD6
:104EE000002B09D17B689B69013B5A033B69134343
:104EF00043F400633B610BE07B689B6A43F0200254
:104F00007B689A627B68DB6A43F001027B68DA6245
:104F10007B681B685B6823F469417B681B683A699E
:104F20000A435A607B681B689A68284B13407A686A
:104F30001268B9680B4393607B689B68B3F5807F08
:104F400003D07B689B68012B04D17B681B69013B04
:104F50001B05FB607B681B68DB6A23F470017B68C0
:104F60001B68FA680A43DA627B681B689A68184B08
:104F70001340BA689A420BD17B680022DA627B68E0
:104F80009B6A23F0030343F001027B689A6218E0F6
:104F90007B689B6A23F0120343F010027B689A62DD
:104FA0007B68DB6A43F001027B68DA620123FB75F0
:104FB00007E07B689B6A43F010027B689A620123DA
:104FC000FB75FB7D18461837BD4680BDFDF7E1FF38
:104FD000FE0E1FFF80B584B000AF78600023FB7326
:104FE0007B6893F82430012B01D1022362E07B68B7
:104FF000012283F82420786800F096FA0346FB73B8
:10500000FB7B002B51D17B689B6A23F4407323F018
:10501000010343F480727B689A627B689B6A23F485
:1050200080127B689A627B681B685B6803F480630C
:10503000002B07D07B689B6A23F4405343F48052D3
:105040007B689A627B689B6A03F48053002B06D0CE
:105050007B68DB6A23F006027B68DA6202E07B6829
:105060000022DA627B68002283F824207B681B68B8
:105070006FF002021A607B681B689B6803F4602370
:10508000B3F5602F08D17B681B689A687B681B6842
:1050900042F4A0029A600CE07B681B689A687B6807
:1050A0001B6842F480129A6003E07B68002283F858
:1050B0002420FB7B18461037BD4680BD80B584B0E8
:1050C00000AF78600023FB737B6893F82430012BDA
:1050D00001D102231AE07B68012283F8242078683A
:1050E00000F07CFA0346FB73FB7B002B09D17B6845
:1050F0009B6A23F4885323F0010343F001027B6889
:105100009A627B68002283F82420FB7B18461037C4
:10511000BD4680BD90B587B000AF78603960002390
:105120007B610023FB6000233B61FFF74DFE78614C
:105130007B681B689B6803F48073002B0BD07B6833
:105140009B6A43F020027B689A627B68002283F8A6
:1051500024200123D3E07B681B685B6803F4807321
:10516000002B31D17B681B68DB6A03F47003002BD2
:105170002AD121E03B68B3F1FF3F1DD03B68002BF3
:1051800007D0FFF721FE02467B69D31A3A689A429C
:1051900012D27B681B681B6803F00203002B0BD143
:1051A0007B689B6A43F004027B689A627B680022FA
:1051B00083F824200323A2E07B681B681B6803F0AC
:1051C0000203002BD6D070E04F4B1C68022001F088
:1051D0009BF90346B4FBF3F27B681B6819694B4BE0
:1051E0000B40002B18D17B681B68D968484B0B40DB
:1051F000002B11D17B681B681969464B0B40002BB3
:1052000008D17B681B68D968434B0B40002B01D148
:10521000142320E029231EE07B681B6819693D4B9D
:105220000B40002B06D17B681B68D9683A4B0B40BA
:10523000002B0DD07B681B681969384B0B40002B85
:1052400008D17B681B68D968344B0B40002B01D117
:10525000542300E0FC2302FB03F33B6121E03B68A5
:10526000B3F1FF3F1AD03B68002B07D0FFF7ACFD2E
:1052700002467B69D31A3A689A420FD2FB683A69B0
:105280009A420BD97B689B6A43F004027B689A625E
:105290007B68002283F82420032330E0FB6801337D
:1052A000FB60FB683A699A42D9D87B681B686FF04B
:1052B00012021A607B689B6A43F400727B689A62F0
:1052C0007B681B689B6803F46023B3F5602F15D1DE
:1052D0007B681B7B002B11D17B689B6A23F4807257
:1052E0007B689A627B689B6A03F48053002B05D12C
:1052F0007B689B6A43F001027B689A620023184630
:105300001C37BD4690BD00BF1C00002024499224DC
:10531000244992009224491292244900499224007F
:1053200080B483B000AF78607B681B68DB6C184684
:105330000C37BD4680BC704780B485B000AF786044
:1053400039600023FB730023BB607B6893F8243033
:10535000012B01D10223DCE07B68012283F82420A9
:105360003B685B68062B1CD87B681B68596B3B68E5
:105370005A6813469B001344053B1F2202FA03F3AD
:10538000DB4319403B6818683B685A6813469B002A
:105390001344053B00FA03F27B681B680A435A6317
:1053A0003CE03B685B680C2B1CD87B681B68196B66
:1053B0003B685A6813469B001344233B1F2202FAA2
:1053C00003F3DB4319403B6818683B685A6813468F
:1053D0009B001344233B00FA03F27B681B680A43DB
:1053E0001A631BE07B681B68D96A3B685A681346DE
:1053F0009B001344413B1F2202FA03F3DB43194095
:105400003B6818683B685A6813469B001344413B4D
:1054100000FA03F27B681B680A43DA623B681B6888
:10542000092B1CD97B681B68D9683B681A6813462E
:105430005B0013441E3B072202FA03F3DB431940CF
:105440003B6898683B681A6813465B0013441E3B30
:1054500000FA03F27B681B680A43DA6019E07B6894
:105460001B6819693B681A6813465B0013440722DE
:1054700002FA03F3DB4319403B6898683B681A68FB
:1054800013465B00134400FA03F27B681B680A436F
:105490001A613B681B68102B03D03B681B68112BFB
:1054A00032D17B681B681D4A934225D17B681B68FB
:1054B0009B6803F40003002B26D17B681B689A6865
:1054C0007B681B6842F400029A603B681B68102BE3
:1054D0001AD1134B1B68134AA2FB03239A0C1346E1
:1054E0009B0013445B00BB6002E0BB68013BBB60F8
:1054F000BB68002BF9D107E07B689B6A43F0200270
:105500007B689A620123FB737B68002283F8242066
:10551000FB7B18461437BD4680BC70470024014011
:105520001C00002083DE1B4380B584B000AF786090
:105530000023FB600023BB607B681B689B6803F053
:105540000103012B40D07B681B689A687B681B684D
:1055500042F001029A601F4B1B681F4AA2FB032303
:105560009B0CBB6002E0BB68013BBB60BB68002BCF
:10557000F9D1FFF729FCF8601FE0FFF725FC024690
:10558000FB68D31A022B18D97B681B689B6803F051
:105590000103012B11D07B689B6A43F010027B68EA
:1055A0009A627B68DB6A43F001027B68DA627B689F
:1055B000002283F82420012307E07B681B689B6896
:1055C00003F00103012BD8D1002318461037BD4644
:1055D00080BD00BF1C00002083DE1B4380B584B06B
:1055E00000AF78600023FB607B681B689B6803F05A
:1055F0000103012B2ED17B681B689A687B681B68AE
:1056000022F001029A60FFF7DFFBF8601BE0FFF772
:10561000DBFB0246FB68D31A022B14D97B681B689C
:105620009B6803F00103012B0DD17B689B6A43F05B
:1056300010027B689A627B68DB6A43F001027B6838
:10564000DA62012307E07B681B689B6803F00103B3
:10565000012BDCD0002318461037BD4680BD00006A
:1056600080B485B000AF78607B6803F00703FB600F
:105670000C4BDB68BB60BA684FF6FF031340BB609E
:10568000FB681A02BB68134343F0BF6343F4003363
:10569000BB60044ABB68D36000BF1437BD4680BC02
:1056A000704700BF00ED00E080B400AF044BDB6842
:1056B0001B0A03F007031846BD4680BC704700BFB5
:1056C00000ED00E080B483B000AF0346FB7197F9B2
:1056D0000730002B0BDBFB7903F01F02064997F91B
:1056E00007305B09012000FA02F241F8232000BFD5
:1056F0000C37BD4680BC704700E100E080B483B049
:1057000000AF03463960FB7197F90730002B0ADBC5
:105710003B68DAB20C4997F907301201D2B20B4458
:1057200083F800230AE03B68DAB20849FB7903F00A
:105730000F03043B1201D2B20B441A7600BF0C37A0
:10574000BD4680BC704700BF00E100E000ED00E016
:1057500080B489B000AFF860B9607A60FB6803F08C
:105760000703FB61FB69C3F10703042B28BF042374
:10577000BB61FB690433062B02D9FB69033B00E0E4
:1057800000237B614FF0FF32BB6902FA03F3DA4377
:10579000BB681A407B699A404FF0FF317B6901FA80
:1057A00003F3D9437B680B40134318462437BD46A7
:1057B00080BC704780B582B000AF78607868FFF732
:1057C0004FFF00BF0837BD4680BD80B586B000AF33
:1057D0000346B9607A60FB7300237B61FFF764FFC7
:1057E00078617A68B9687869FFF7B2FF024697F97D
:1057F0000F3011461846FFF781FF00BF1837BD462E
:1058000080BD80B582B000AF0346FB7197F90730C9
:105810001846FFF757FF00BF0837BD4680BD0000A0
:1058200080B48BB000AF7860396000237B620023C6
:105830003B6269E101227B6A02FA03F3FB613B6888
:105840001B68FA691340BB61BA69FB699A4240F070
:1058500058813B685B689A4A93425ED0984A93426B
:1058600075D8984A934258D0964A93426FD8964A30
:10587000934252D0944A934269D8944A93424CD06E
:10588000924A934263D8924A934246D0904A9342B6
:105890005DD8122B2AD8122B59D801A252F823F026
:1058A0001B590008F5580008075900084959000815
:1058B0004F5900084F5900084F5900084F59000828
:1058C0004F5900084F5900084F5900084F59000818
:1058D0004F5900084F5900084F5900084F59000808
:1058E0004F590008FD58000811590008794A9342A1
:1058F00013D02CE03B68DB683B6229E03B68DB6847
:1059000004333B6224E03B68DB6808333B621FE002
:105910003B68DB680C333B621AE03B689B68002BFA
:1059200002D104233B6213E03B689B68012B05D145
:1059300008233B627B68FA691A6109E008233B622D
:105940007B68FA695A6103E000233B6200E000BF14
:10595000BB69FF2B01D87B6801E07B6804337B6166
:10596000BB69FF2B02D87B6A9B0002E07B6A083B85
:105970009B003B617B691A680F213B6901FA03F3C5
:10598000DB431A40396A3B6901FA03F31A437B6926
:105990001A603B685B6803F08053002B00F0B18015
:1059A0004D4B9B694C4A43F0010393614A4B9B6901
:1059B00003F00103BB60BB68484A7B6A9B08023363
:1059C00052F82330FB607B6A03F003039B000F2235
:1059D00002FA03F3DB43FA681340FB607B68404A3A
:1059E000934213D07B683F4A93420DD07B683E4A76
:1059F000934207D07B683D4A934201D1032306E0DE
:105A0000042304E0022302E0012300E000237A6A79
:105A100002F0030292009340FA681343FB602F499F
:105A20007B6A9B080233FA6841F823203B685B6875
:105A300003F48033002B06D02D4B1A682C49BB6928
:105A400013430B6006E02A4B1A68BB69DB43284905
:105A500013400B603B685B6803F40033002B06D0F7
:105A6000234B5A682249BB6913434B6006E0204B25
:105A70005A68BB69DB431E4913404B603B685B6857
:105A800003F48013002B06D0194B9A681849BB69A0
:105A900013438B6006E0164B9A68BB69DB431449DD
:105AA00013408B603B685B6803F40013002B21D02C
:105AB0000F4BDA680E49BB691343CB6021E000BF8E
:105AC00000003210000031100000221000002110F0
:105AD00000001210000011100010024000000140F0
