:020000040800F2
:1000000000200020D13E0008C53B0008CB3B000883
:10001000D13B0008D73B0008DD3B00080000000092
:10002000000000000000000000000000E33B0008AA
:10003000EF3B000800000000FB3B0008073C000805
:10004000193F0008193F0008193F0008193F000830
:10005000193F0008193F0008193F0008193F000820
:10006000193F0008193F0008193F0008193F000810
:10007000193F0008193F0008193F0008193F000800
:10008000193F0008193F0008193F00080000000050
:10009000000000000000000000000000193F000800
:1000A000193F0008193F0008193F0008193F0008D0
:1000B000153C0008193F0008193F0008193F0008C7
:1000C000193F00080000000000000000193F000870
:1000D000193F0008193F0008193F0008193F0008A0
:1000E000193F0008193F0008193F000800000000F0
:1000F0000000000000000000000000000000000000
:1001000000000000000000000000000000000000EF
:100110000000000000000000293C0008193F000812
:1001200000000000000000000000000000000000CF
:1001300000000000000000000000000000000000BF
:1001400000000000000000000000000000000000AF
:10015000000000000000000000000000000000009F
:10016000000000000000000000000000000000008F
:10017000000000000000000000000000000000007F
:10018000000000000000000000000000000000006F
:10019000000000000000000000000000000000005F
:1001A000000000000000000000000000000000004F
:1001B000000000000000000000000000000000003F
:1001C0000000000000000000000000005FF808F1DF
:1001D00010B5054C237833B9044B13B10448AFF381
:1001E00000800123237010BD9C000020000000004F
:1001F0009071000808B5034B1BB103490348AFF3E6
:10020000008008BD00000000A000002090710008E0
:10021000034613F8012B002AFBD1181A0138704746
:1002200081F0004102E000BF83F0004330B54FEAA7
:1002300041044FEA430594EA050F08BF90EA020F14
:100240001FBF54EA000C55EA020C7FEA645C7FEAA7
:10025000655C00F0E2804FEA5454D4EB5555B8BFCA
:100260006D420CDD2C4480EA020281EA030382EA3B
:10027000000083EA010180EA020281EA0303362DCD
:1002800088BF30BD11F0004F4FEA01314FF4801CA0
:100290004CEA113102D0404261EB410113F0004FB2
:1002A0004FEA03334CEA133302D0524263EB430369
:1002B00094EA050F00F0A780A4F10104D5F1200E07
:1002C0000DDB02FA0EFC22FA05F2801841F1000162
:1002D00003FA0EF2801843FA05F359410EE0A5F136
:1002E00020050EF1200E012A03FA0EFC28BF4CF067
:1002F000020C43FA05F3C01851EBE37101F000451D
:1003000007D54FF0000EDCF1000C7EEB00006EEB29
:100310000101B1F5801F1BD3B1F5001F0CD34908B3
:100320005FEA30004FEA3C0C04F101044FEA44520A
:1003300012F5800F80F09A80BCF1004F08BF5FEA91
:10034000500C50F1000041EB045141EA050130BD71
:100350005FEA4C0C404141EB0101013C28BFB1F583
:10036000801FE9D291F0000F04BF01460020B1FACE
:1003700081F308BF2033A3F10B03B3F120020CDAA1
:100380000C3208DD02F1140CC2F10C0201FA0CF07F
:1003900021FA02F10CE002F11402D8BFC2F1200CE4
:1003A00001FA02F120FA0CFCDCBF41EA0C0190409A
:1003B000E41AA2BF01EB0451294330BD6FEA0404E3
:1003C0001F3C1CDA0C340EDC04F11404C4F12002CE
:1003D00020FA04F001FA02F340EA030021FA04F3E0
:1003E00045EA030130BDC4F10C04C4F1200220FA37
:1003F00002F001FA04F340EA0300294630BD21FA75
:1004000004F0294630BD94F0000F83F4801306BF3A
:1004100081F480110134013D4EE77FEA645C18BF2E
:100420007FEA655C29D094EA050F08BF90EA020FC5
:1004300005D054EA000C04BF1946104630BD91EABD
:10044000030F1EBF0021002030BD5FEA545C05D1C0
:100450004000494128BF41F0004130BD14F58004FF
:100460003CBF01F5801130BD01F0004545F0FE4173
:1004700041F470014FF0000030BD7FEA645C1ABFA8
:10048000194610467FEA655C1CBF0B46024650EADF
:10049000013406BF52EA033591EA030F41F400210B
:1004A00030BD00BF90F0000F04BF0021704730B591
:1004B0004FF4806404F132044FF000054FF0000166
:1004C00050E700BF90F0000F04BF0021704730B527
:1004D0004FF4806404F1320410F0004548BF4042FC
:1004E0004FF000013EE700BF42004FEAE2014FEA51
:1004F00031014FEA02701FBF12F07F4393F07F4F2C
:1005000081F06051704732F07F4208BF704793F02E
:100510007F4F04BF41F40021704730B54FF4607441
:1005200001F0004521F000411CE700BF50EA010244
:1005300008BF704730B54FF000050AE050EA0102ED
:1005400008BF704730B511F0004502D5404261EB5D
:1005500041014FF4806404F132045FEA915C3FF49E
:10056000D8AE4FF003025FEADC0C18BF03325FEA3B
:10057000DC0C18BF033202EBDC02C2F1200300FAEC
:1005800003FC20FA02F001FA03FE40EA0E0021FA11
:1005900002F11444BDE600BF70B54FF0FF0C4CF4FF
:1005A000E06C1CEA11541DBF1CEA135594EA0C0FB1
:1005B00095EA0C0F00F0DEF82C4481EA030621EAEC
:1005C0004C5123EA4C5350EA013518BF52EA033527
:1005D00041F4801143F4801338D0A0FB02CE4FF0D9
:1005E0000005E1FB02E506F00042E0FB03E54FF009
:1005F0000006E1FB03569CF0000F18BF4EF0010E01
:10060000A4F1FF04B6F5007F64F5407404D25FEAFC
:100610004E0E6D4146EB060642EAC62141EA5551AF
:100620004FEAC52040EA5E504FEACE2EB4F1FD0CF1
:1006300088BFBCF5E06F1ED8BEF1004F08BF5FEA6F
:10064000500E50F1000041EB045170BD06F0004621
:1006500046EA010140EA020081EA0301B4EB5C04CE
:10066000C2BFD4EB0C0541EA045170BD41F48011C6
:100670004FF0000E013C00F3AB8014F1360FDEBFEB
:10068000002001F0004170BDC4F10004203C35DAC7
:100690000C341BDC04F11404C4F1200500FA05F34A
:1006A00020FA04F001FA05F240EA020001F00042EB
:1006B00021F0004110EBD37021FA04F642EB060161
:1006C0005EEA430E08BF20EAD37070BDC4F10C048B
:1006D000C4F1200500FA04F320FA05F001FA04F24F
:1006E00040EA020001F0004110EBD37041F100013B
:1006F0005EEA430E08BF20EAD37070BDC4F1200546
:1007000000FA05F24EEA020E20FA04F301FA05F2AD
:1007100043EA020321FA04F001F0004121FA04F255
:1007200020EA020000EBD3705EEA430E08BF20EA25
:10073000D37070BD94F0000F0FD101F0004640005F
:1007400041EB010111F4801F08BF013CF7D041EAE1
:10075000060195F0000F18BF704703F000465200E5
:1007600043EB030313F4801F08BF013DF7D043EAB6
:100770000603704794EA0C0F0CEA135518BF95EA6C
:100780000C0F0CD050EA410618BF52EA4306D1D1F3
:1007900081EA030101F000414FF0000070BD50EA12
:1007A000410606BF1046194652EA430619D094EA9C
:1007B0000C0F02D150EA013613D195EA0C0F05D186
:1007C00052EA03361CBF104619460AD181EA0301DA
:1007D00001F0004141F0FE4141F470014FF0000092
:1007E00070BD41F0FE4141F4780170BD70B54FF02D
:1007F000FF0C4CF4E06C1CEA11541DBF1CEA1355AD
:1008000094EA0C0F95EA0C0F00F0A7F8A4EB05048E
:1008100081EA030E52EA03354FEA013100F0888085
:100820004FEA03334FF0805545EA131343EA12634E
:100830004FEA022245EA111545EA10654FEA002603
:100840000EF000419D4208BF964244F1FD0404F5BC
:10085000407402D25B084FEA3202B61A65EB030518
:100860005B084FEA32024FF480104FF4002CB6EBD5
:10087000020E75EB030E22BFB61A754640EA0C0055
:100880005B084FEA3202B6EB020E75EB030E22BF95
:10089000B61A754640EA5C005B084FEA3202B6EBD6
:1008A000020E75EB030E22BFB61A754640EA9C0095
:1008B0005B084FEA3202B6EB020E75EB030E22BF65
:1008C000B61A754640EADC0055EA060E18D04FEA23
:1008D000051545EA16754FEA06164FEAC30343EAC3
:1008E00052734FEAC2025FEA1C1CC0D111F4801F90
:1008F0000BD141EA00014FF000004FF0004CB6E789
:1009000011F4801F04BF01430020B4F1FD0C88BF27
:10091000BCF5E06F3FF6AFAEB5EB030C04BFB6EB32
:10092000020C5FEA500C50F1000041EB045170BD25
:100930000EF0004E4EEA113114EB5C04C2BFD4EB52
:100940000C0541EA045170BD41F480114FF0000ED6
:10095000013C90E645EA060E8DE60CEA135594EA52
:100960000C0F08BF95EA0C0F3FF43BAF94EA0C0F55
:100970000AD150EA01347FF434AF95EA0C0F7FF4CA
:1009800025AF104619462CE795EA0C0F06D152EA1E
:1009900003353FF4FDAE1046194622E750EA410602
:1009A00018BF52EA43067FF4C5AE50EA41047FF413
:1009B0000DAF52EA43057FF4EBAE12E74FEA410276
:1009C000B2F1E04324BFB3F5001CDCF1FE5C0DD9AD
:1009D00001F0004C4FEAC0024CEA5070B2F1004FF7
:1009E00040EB830008BF20F00100704711F0804FFA
:1009F00021D113F13872BCBF01F00040704741F4BF
:100A000080114FEA5252C2F11802C2F1200C10FAC2
:100A10000CF320FA02F018BF40F001004FEAC123A6
:100A20004FEAD32303FA0CFC40EA0C0023FA02F34A
:100A30004FEA4303CCE77FEA625307D150EA013320
:100A40001EBF4FF0FE4040F44000704701F00040F0
:100A500040F0FE4040F40000704700BF80F00040CE
:100A600002E000BF81F0004142001FBF5FEA410386
:100A700092EA030F7FEA226C7FEA236C6AD04FEA86
:100A80001262D2EB1363C1BFD218414048404140CB
:100A9000B8BF5B42192B88BF704710F0004F40F47D
:100AA000000020F07F4018BF404211F0004F41F499
:100AB000000121F07F4118BF494292EA030F3FD065
:100AC000A2F1010241FA03FC10EB0C00C3F1200378
:100AD00001FA03F100F0004302D5494260EB400007
:100AE000B0F5000F13D3B0F1807F06D340084FEA72
:100AF000310102F10102FE2A51D2B1F1004F40EB67
:100B0000C25008BF20F0010040EA030070474900CE
:100B100040EB0000013A28BFB0F5000FEDD2B0FA6B
:100B200080FCACF1080CB2EB0C0200FA0CF0AABF8E
:100B300000EBC25052421843BCBFD040184370472C
:100B400092F0000F81F4000106BF80F40000013232
:100B5000013BB5E74FEA41037FEA226C18BF7FEA09
:100B6000236C21D092EA030F04D092F0000F08BF4B
:100B70000846704790EA010F1CBF0020704712F032
:100B80007F4F04D1400028BF40F00040704712F171
:100B900000723CBF00F50000704700F0004343F0D6
:100BA000FE4040F4000070477FEA226216BF08460C
:100BB0007FEA23630146420206BF5FEA412390EACF
:100BC000010F40F4800070474FF0000304E000BFC5
:100BD00010F0004348BF40425FEA000C08BF704776
:100BE00043F0964301464FF000001CE050EA01023A
:100BF00008BF70474FF000030AE000BF50EA01024F
:100C000008BF704711F0004302D5404261EB41013B
:100C10005FEA010C02BF84460146002043F0B64360
:100C200008BFA3F18053A3F50003BCFA8CF2083A85
:100C3000A3EBC25310DB01FA02FC634400FA02FC8E
:100C4000C2F12002BCF1004F20FA02F243EB020095
:100C500008BF20F00100704702F1200201FA02FCF7
:100C6000C2F1200250EA4C0021FA02F243EB0200EA
:100C700008BF20EADC7070474FF0FF0C1CEAD0522E
:100C80001EBF1CEAD15392EA0C0F93EA0C0F6FD0EF
:100C90001A4480EA010C400218BF5FEA41211ED0CD
:100CA0004FF0006343EA501043EA5111A0FB0131B9
:100CB0000CF00040B1F5000F3EBF490041EAD3718E
:100CC0005B0040EA010062F17F02FD2A1DD8B3F10A
:100CD000004F40EBC25008BF20F00100704790F079
:100CE000000F0CF0004C08BF49024CEA502040EACB
:100CF00051207F3AC2BFD2F1FF0340EAC250704791
:100D000040F400004FF00003013A5DDC12F1190FCE
:100D1000DCBF00F000407047C2F10002410021FA40
:100D200002F1C2F1200200FA02FC5FEA310040F158
:100D3000000053EA4C0308BF20EADC70704792F0D1
:100D4000000F00F0004C02BF400010F4000F013A09
:100D5000F9D040EA0C0093F0000F01F0004C02BF04
:100D6000490011F4000F013BF9D041EA0C018FE773
:100D70000CEAD15392EA0C0F18BF93EA0C0F0AD079
:100D800030F0004C18BF31F0004CD8D180EA01009F
:100D900000F00040704790F0000F17BF90F0004F38
:100DA000084691F0000F91F0004F14D092EA0C0F1A
:100DB00001D142020FD193EA0C0F03D14B0218BFAD
:100DC000084608D180EA010000F0004040F0FE40F3
:100DD00040F40000704740F0FE4040F4400070478F
:100DE0004FF0FF0C1CEAD0521EBF1CEAD15392EA0E
:100DF0000C0F93EA0C0F69D0A2EB030280EA010CFE
:100E000049024FEA402037D04FF0805343EA111196
:100E100043EA10130CF000408B4238BF5B0042F1F4
:100E20007D024FF4000C8B4224BF5B1A40EA0C0099
:100E3000B3EB510F24BFA3EB510340EA5C00B3EBCB
:100E4000910F24BFA3EB910340EA9C00B3EBD10FB9
:100E500024BFA3EBD10340EADC001B0118BF5FEA0B
:100E60001C1CE0D1FD2A3FF650AF8B4240EBC25034
:100E700008BF20F0010070470CF0004C4CEA5020F5
:100E80007F32C2BFD2F1FF0340EAC250704740F444
:100E900000004FF00003013A37E792F0000F00F036
:100EA000004C02BF400010F4000F013AF9D040EAB4
:100EB0000C0093F0000F01F0004C02BF490011F448
:100EC000000F013BF9D041EA0C0195E70CEAD15340
:100ED00092EA0C0F08D142027FF47DAF93EA0C0F27
:100EE0007FF470AF084676E793EA0C0F04D14B020B
:100EF0003FF44CAF08466EE730F0004C18BF31F0BD
:100F0000004CCAD130F000427FF45CAF31F00043B6
:100F10007FF43CAF5FE700BF4FF0FF3C06E000BF4F
:100F20004FF0010C02E000BF4FF0010C4DF804CD72
:100F30004FEA40024FEA41037FEA226C18BF7FEA82
:100F4000236C11D001B052EA530C18BF90EA010F84
:100F500058BFB2EB030088BFC81738BF6FEAE17013
:100F600018BF40F0010070477FEA226C02D15FEAAF
:100F7000402C05D17FEA236CE4D15FEA412CE1D01B
:100F80005DF8040B704700BF844608466146FFE7E2
:100F90000FB5FFF7C9FF002848BF10F1000F0FBDC4
:100FA0004DF808EDFFF7F4FF0CBF012000205DF8BD
:100FB00008FB00BF4DF808EDFFF7EAFF34BF012042
:100FC00000205DF808FB00BF4DF808EDFFF7E0FFDB
:100FD00094BF012000205DF808FB00BF4DF808ED2C
:100FE000FFF7D2FF94BF012000205DF808FB00BF8F
:100FF0004DF808EDFFF7C8FF34BF012000205DF871
:1010000008FB00BF42000ED2B2F1FE4F0BD34FF0EF
:101010009E03B3EB126209D44FEA002343F000436E
:1010200023FA02F070474FF00000704712F1610F91
:1010300001D1420202D14FF0FF3070474FF0000063
:10104000704700BF0000000090B59BB000AF786013
:10105000396001237B660023A7F8623007F108039B
:101060000F220021184606F031F8386803F07AF8AC
:101070006421386803F016F9034687F8613097F861
:101080006130002B4FD1386803F012FAF8653868E8
:1010900003F0DCF8F86DFFF797FD03464449184666
:1010A000FFF79EFE034619461846FFF7DDFC034690
:1010B0001846FFF719FA3AA3D3E90023FFF76CFAB1
:1010C00002460B461046194637A3D3E90023FFF723
:1010D00063FA02460B4610461946FFF76FFC0346BB
:1010E000BB653449B86DFFF7BDFC0346BB653249AB
:1010F000B86DFFF7C1FD03461846FFF7F5F9024644
:101100000B461046194605F0FBFF4FF000022B4B33
:10111000FFF76CFB02460B4610461946FFF74EFCE4
:101120000346C7F8093080233B720523A7F86230D5
:10113000B7F8622007F108031146184600F08AFE4E
:101140000346A7F80D3007F1080307F1080107224D
:10115000786801F06FF907F1180407F108030FCB65
:1011600007C4238002341B0C23704FF4967002F0E6
:10117000FDFE07F118030F21184602F0DBF90346C4
:1011800087F8613097F86130002B01D000237B662F
:101190007B6E18466C37BD4690BD00BFAFF3008034
:1011A0006666666666660A409A9999999999F13FCA
:1011B00000F07F458FC2F53E000020410000244032
:1011C00080B487B000AFF860B9607A6000237B61BB
:1011D0000CE07B699B007A681A447B699B00B968C4
:1011E0000B4412681A607B6901337B617B690F2BAA
:1011F000EFDD00BF00BF1C37BD4680BC704780B428
:1012000085B000AF786039600023FB6008E0FB68C0
:101210009B003A68134400221A60FB680133FB60AC
:10122000FB680F2BF3DD00BF00BF1437BD4680BC49
:10123000704780B5A6B000AFF860B9607A603B60D7
:101240000023C7F894300BE0D7F894309B00BA68BD
:10125000134400221A60D7F894300133C7F8943051
:10126000D7F894301F2BEFDD0023C7F894309CE0B3
:101270001023C7F890300DE0D7F890309B0007F1AD
:1012800098021344002243F8882CD7F89030013399
:10129000C7F89030D7F890301F2BEDDD0023C7F84A
:1012A00090301DE0D7F890309B003A6813441968DD
:1012B000D7F894309B007A6813441B681A46F86884
:1012C00001F024F90246D7F890309B0007F198010D
:1012D0000B4443F8882CD7F890300133C7F890308E
:1012E000D7F890300F2BDDDD1F23C7F8903017E0C3
:1012F000D7F89020D7F89430D31A9B0007F19802C2
:10130000134453F8882CD7F890309B0007F19801CC
:101310000B4443F8882CD7F89030013BC7F8903045
:10132000D7F89020D7F894309A42E1DA0023C7F832
:1013300090300DE0D7F890309B0007F198021344ED
:10134000002243F8882CD7F890300133C7F890304A
:10135000D7F89020D7F894309A42EBDB0023C7F8F7
:10136000903019E0D7F890309B00BA6813441968A0
:10137000D7F890309B0007F19802134453F8882C5B
:10138000D7F890309B00B86803444A401A60D7F8F9
:1013900090300133C7F89030D7F890301F2BE1DD43
:1013A000D7F894300133C7F89430D7F894300F2B26
:1013B0007FF75EAF00BF00BF9837BD4680BD00001D
:1013C000B0B59AB000AF786001237B660023A7F820
:1013D000623007F1080318220021184605F076FE56
:1013E00070233B7209237B727B7A1A4607F108034C
:1013F00002333249184605F05BFE0E23A7F862302F
:10140000B7F8622007F108031146184600F022FDE4
:101410000346FB8207F1080307F1080110227868F0
:1014200001F008F807F1200407F108050FCD0FC4FB
:1014300095E8030084E803004FF4967002F096FDEF
:1014400007F120031821184602F074F8034687F8C4
:10145000613097F86130002B01D000237B6601F0EA
:10146000EDFE034687F8613097F86130002B01D01C
:1014700000237B660921114800F0ACFF4FF4967001
:1014800002F074FD01F0F6FE034687F8613097F82C
:101490006130002B01D000237B6601F0DDFE0346A6
:1014A00087F8613097F86130002B01D000237B660C
:1014B0007B6E18466837BD46B0BD00BFA8710008F6
:1014C00080B58CB002AF7860002387F82730234BBB
:1014D000BB61234B7B6107F118014FF47A7304223F
:1014E000786805F00AFB0346FB77FB7F002B03D0EF
:1014F000012387F827302BE007F10E0307F11001D5
:1015000040F6B83200920422786805F088FB034662
:10151000FB77FB89042B03D0012387F8273017E0E2
:1015200000233B6211E007F110023B6A13441A7872
:1015300007F114013B6A0B441B789A4202D0012345
:1015400087F827303B6A01333B623B6A032BEAD9B9
:1015500097F8273018462837BD4680BD560026002C
:101560007600260080B58EB002AF7860002387F841
:101570002F302C4A07F1200392E80300186004334F
:101580001970294A07F1180392E803001860043320
:101590001970264B00221A6007F120014FF47A736C
:1015A0000522786805F0A9FA034687F8273097F8EE
:1015B0002730002B03D0012387F82F302CE007F1D0
:1015C0000E0307F1100140F6B83200920522786848
:1015D00005F025FB034687F82730FB89052B03D050
:1015E000012387F82F3017E00023BB6211E007F1D9
:1015F0001002BB6A13441A7807F11801BB6A0B4446
:101600001B789A4202D0012387F82F30BB6A01333E
:10161000BB62BB6A042BEAD997F82F3018463037E3
:10162000BD4680BDC4710008BC710008B800002030
:1016300080B58EB002AF7860002387F82F302A4A39
:1016400007F11C0307CA03C31A70284A07F11403E1
:1016500092E8030018600433197007F11C014FF47D
:101660007A730922786805F048FA034687F827302C
:1016700097F82730002B03D0012387F82F302CE078
:1016800007F10A0307F10C0140F6B8320092052277
:10169000786805F0C4FA034687F827307B89052B64
:1016A00003D0012387F82F3017E00023BB6211E03D
:1016B00007F10C02BB6A13441A7807F11401BB6AE4
:1016C0000B441B789A4202D0012387F82F30BB6A63
:1016D0000133BB62BB6A042BEAD997F82F30184656
:1016E0003037BD4680BD00BFCC710008D8710008FE
:1016F00080B58EB002AF7860002387F82F302A4A79
:1017000007F11C0307CA03C31A70284A07F1140320
:1017100092E8030018600433197007F11C014FF4BC
:101720007A730922786805F0E8F9034687F82730CC
:1017300097F82730002B03D0012387F82F302CE0B7
:1017400007F10A0307F10C0140F6B83200920522B6
:10175000786805F064FA034687F827307B89052B03
:1017600003D0012387F82F3017E00023BB6211E07C
:1017700007F10C02BB6A13441A7807F11401BB6A23
:101780000B441B789A4202D0012387F82F30BB6AA2
:101790000133BB62BB6A042BEAD997F82F30184695
:1017A0003037BD4680BD00BFE0710008D871000829
:1017B00080B590B002AF78603960002387F8373089
:1017C0003B4A07F1240392E80300186004331970C0
:1017D000384A07F11C0392E80300186004331980AB
:1017E00002330A0C1A7007F124014FF47A730522B0
:1017F000786805F082F9034687F82F3097F82F3084
:10180000002B03D0012387F837304AE007F10E039D
:1018100007F1100140F6B83200920922786805F00D
:10182000FEF9034687F82F30FB89092B03D00123EB
:1018300087F8373035E000233B6311E007F11002F1
:101840003B6B13441A7807F11C013B6B0B441B786C
:101850009A4202D0012387F837303B6B01333B6358
:101860003B6B062BEAD997F83730002B19D1FB7D5B
:101870001B021AB23B7E1BB213431BB2BB853B68F3
:10188000BA8D1A80BB8D0C4A1360BB8D03F01F0309
:101890009BB2002B05D0012387F83730642002F07B
:1018A00065FB97F8373018463837BD4680BD00BF16
:1018B000EC710008F4710008BC00002080B58EB007
:1018C00002AF7860002387F82F302B4A07F12003FE
:1018D00092E80300186004331970284A07F11803CE
:1018E00092E8030018600433197007F120014FF4E7
:1018F0007A730522786805F000F9034687F82730E7
:1019000097F82730002B03D0012387F82F302CE0E5
:1019100007F10E0307F1100140F6B83200920522DC
:10192000786805F07CF9034687F82730FB89052B9A
:1019300003D0012387F82F3017E00023BB6211E0AA
:1019400007F11002BB6A13441A7807F11801BB6A49
:101950000B441B789A4202D0012387F82F30BB6AD0
:101960000133BB62BB6A042BEAD997F82F301846C3
:101970003037BD4680BD00BFFC710008BC71000857
:1019800080B58EB002AFF860B9607A60002387F846
:101990002F3020237B8400233B84584B1B681B1271
:1019A000FB77564B1B68BB77554AFB7F1372544A33
:1019B000BB7F53727B8C1B0A9BB27B777B8C3B7704
:1019C0004F4A7B7F13734E4A3B7F53733B8C1B0AFA
:1019D0009BB2FB763B8CBB76494AFB7E9373484AAD
:1019E000BB7ED373002387F82F304FF47A73102215
:1019F0004349F86805F081F803467B767B7E002B2F
:101A000003D0012387F82F3028E007F1160340F6B2
:101A1000B832009205223B49F86805F000F9034608
:101A20007B76FB8A052B03D0012387F82F3015E046
:101A30000023BB620FE0334ABB6A13441A78324971
:101A4000BB6A0B441B789A4202D0012387F82F30DF
:101A5000BB6A0133BB62BB6A042BECD997F82F3009
:101A6000002B45D107F1160340F6B8320092202230
:101A7000B968F86805F0D3F803467B76FB8A202B1B
:101A800003D0012387F82F3032E0FA8A7B681A806E
:101A9000FB8A1A46194B1B681344184A136000232B
:101AA0007B6213E07B6A013BBA6813441B78FF2B0F
:101AB00009D17B6ABA6813441B78D92B03D102235E
:101AC00087F82F3007E07B6A01337B62FB8A1A4676
:101AD0007B6A9342E6DB97F82F30022B08D10B4B41
:101AE0001A68064B1B689A4202D0012387F82F30F0
:101AF00097F82F3018463037BD4680BDB80000201B
:101B000008000020E403002000000020BC000020AA
:101B1000F0B59FB000AF78603960002387F8773068
:101B20000023A7F870300023A7F86E300023A7F831
:101B30007430C14B1B78032B00F2778101A252F85D
:101B400023F000BF551B0008851B00089D1C0008E2
:101B50008D1D00087868FFF76BFD034687F8773026
:101B60007868FFF7ADFC034687F8773097F8773051
:101B7000002B03D1B04B01221A7056E1AE4B00226C
:101B80001A7052E17868FFF7EDFC034687F877306A
:101B90004FF4FA7002F0EAF97868FFF7A9FD0346FE
:101BA00087F8773097F87730002B40F03B817868E2
:101BB000FFF784FE034687F8773097F87730002BDD
:101BC00068D107F1700319467868FFF7F1FD034605
:101BD00087F8773097F87730002B57D1974B002252
:101BE0001A8011220021964805F070FA944B0122C8
:101BF0001A70944B1A88924BA3F80120B7F87030F2
:101C00001A468F4BC3F803200723A7F87430B7F8A0
:101C1000743019468A4800F01DF903461A46884B6D
:101C2000A3F80720864B09228549386800F002FC9A
:101C300007F12C0340220021184605F047FA804B9B
:101C400007F12C041D4628686968AA68EB680FC470
:101C50002B7C23704FF4967002F088F907F12C0367
:101C60001121184601F066FC034687F8733097F897
:101C70007330002B02D0704B00221A704FF4967014
:101C800002F074F96C4B02221A70CBE06A4B00220E
:101C90001A70C7E0684B01221A70C3E007F16E02A8
:101CA00007F10C0319467868FFF76AFE034687F8C8
:101CB000773097F87730022B5FD0022B00F3B48097
:101CC000002B02D0012B5CD0AEE05F4B02221A70D9
:101CD0005C4B1A885C4BA3F80120584B1A885A4B6E
:101CE000A3F80320B7F86E30DAB2574B5A71564B4F
:101CF0005B791A4607F10C031946544805F0D8F9E8
:101D00002623A7F87430B7F8743019464E4800F00F
:101D1000A1F803461A464C4BDA844B4B1C4607F19C
:101D20002C0604F1200C35462346186859689A6839
:101D3000DB680FC5103410366445F4D133462246B3
:101D40001068516803C3012002F010F907F12C0359
:101D50002821184601F0EEFB034687F8733097F808
:101D60007330002B02D0344B00221A70334B1B8887
:101D700001339AB2314B1A8007E02F4B03221A70BD
:101D800003E02D4B01221A7000BF4DE0304B0322BF
:101D90001A702C4B1A882E4BA3F801200323A7F8A6
:101DA0007430B7F874301946294800F053F80346E8
:101DB0001A46274BA3F80320254B052224493868EF
:101DC00000F038FB07F12C0340220021184605F0F3
:101DD0007DF91F4A07F12C03144620686168A26848
:101DE00007C3227B1A704FF4967002F0BFF807F118
:101DF0002C030D21184601F09DFB034687F8733034
:101E000097F87330002B09D10B4B01221A700D4B40
:101E10001B8801339AB20B4B1A8006E0064B012255
:101E20001A7002E000BF00E000BF97F87730184654
:101E30007C37BD46F0BD00BFC0000020C2000020BE
:101E4000D0030020C4000020A8030020AE0300201F
:101E50009003002080B586B000AF78603960174BE2
:101E60001B7883F00103DBB2002B01D000F02AF8CD
:101E70000023FB827B683B613B69002B18D0002369
:101E8000FB6011E0FB8A1B0A9AB2F98A3B69581C75
:101E900038611B784B40DBB2094931F813305340AD
:101EA000FB82FB680133FB60FA683B689A42E9D326
:101EB000FB8A18461837BD4680BD00BFC60000200B
:101EC000C800002080B483B000AF0023FB8029E06D
:101ED00000237B80FB883B800023BB8017E07A884F
:101EE0003B8853409BB203F00103002B06D07B8854
:101EF0005B089AB2114B53407B8002E07B885B0801
:101F00007B803B885B083B80BB880133BB80BB8800
:101F1000072BE4D9FB880A497A8821F81320FB882B
:101F20000133FB80FB88FF2BD2D9064B01221A70AC
:101F300000BF0C37BD4680BC704700BF01A0FFFF4B
:101F4000C8000020C600002080B500AF034B1B680E
:101F5000184602F00BF800BF80BD00BF180000203B
:101F600080B500AF044B1A681346DB0013441846D3
:101F700001F0FCFF00BF80BD1800002080B500AF5D
:101F80006021342001F0C4F903461A46064B1A704A
:101F90000121064801F0CEFA03461A46024B1A7098
:101FA000FFF7D2FF00BF80BDE9030020C802002078
:101FB00080B500AFFF21342001F0AAF903461A468C
:101FC000064B1A700121064801F0B4FA03461A467E
:101FD000024B1A70FFF7B8FF00BF80BDE903002075
:101FE000C802002080B582B000AF0346FB71FB79C8
:101FF000203B5A2B00F2E88101A252F823F000BFE7
:10200000C3230008C9230008C9230008C923000806
:10201000C9230008C9230008C9230008C9230008F0
:10202000C9230008C9230008C9230008C9230008E0
:10203000C9230008C9230008C9230008C9230008D0
:10204000AD230008E7220008FD2200081323000842
:10205000292300083F230008552300086B230008AC
:102060008123000897230008C9230008C92300081A
:10207000C9230008C9230008C9230008C923000890
:10208000C9230008C9230008C9230008C923000880
:10209000C9230008C9230008C9230008C923000870
:1020A000C9230008C9230008C9230008C923000860
:1020B000C9230008C9230008C9230008C923000850
:1020C000C9230008C9230008C9230008C923000840
:1020D000C9230008C9230008C9230008C923000830
:1020E000C9230008C9230008C9230008C923000820
:1020F000C9230008C9230008C9230008C923000810
:10210000C92300086D2100087721000889210008F3
:102110009B210008A9210008AF210008BF21000869
:10212000CD210008DF210008E9210008FB2100087B
:10213000092200081B220008252200082F2200087F
:102140003D2200084F220008612200086F2200088B
:102150007D2200088322000891220008A3220008A3
:10216000B1220008C3220008D5220008FFF706FFAD
:10217000FFF71EFF28E1FFF71BFFFFF7FFFEFFF74A
:10218000FDFEFFF7FBFE1FE1FFF712FFFFF7F6FE74
:10219000FFF70EFFFFF7F2FE16E1FFF709FFFFF76B
:1021A000EDFEFFF7EBFE0FE1FFF7E8FE0CE1FFF7B6
:1021B000E5FEFFF7E3FEFFF7FBFEFFF7DFFEFFF7AD
:1021C000F7FEFFF7F5FEFFF7D9FEFDE0FFF7D6FEBD
:1021D000FFF7D4FEFFF7D2FEFFF7D0FEF4E0FFF7E3
:1021E000CDFEFFF7CBFEEFE0FFF7C8FEFFF7E0FE06
:1021F000FFF7DEFEFFF7DCFEE6E0FFF7D9FEFFF7B4
:10220000BDFEFFF7D5FEDFE0FFF7B8FEFFF7D0FE1B
:10221000FFF7B4FEFFF7B2FED6E0FFF7C9FEFFF707
:10222000C7FED1E0FFF7C4FEFFF7A8FECCE0FFF742
:10223000BFFEFFF7BDFEFFF7BBFEC5E0FFF79EFE4A
:10224000FFF7B6FEFFF7B4FEFFF798FEBCE0FFF71E
:10225000AFFEFFF7ADFEFFF791FEFFF7A9FEB3E07B
:10226000FFF78CFEFFF7A4FEFFF788FEACE0FFF758
:1022700085FEFFF783FEFFF781FEA5E0FFF798FEDE
:10228000A2E0FFF77BFEFFF779FEFFF791FE9BE0F0
:10229000FFF774FEFFF772FEFFF770FEFFF788FE90
:1022A00092E0FFF76BFEFFF783FEFFF781FE8BE006
:1022B000FFF77EFEFFF762FEFFF760FEFFF778FE96
:1022C00082E0FFF775FEFFF759FEFFF771FEFFF79B
:1022D0006FFE79E0FFF76CFEFFF76AFEFFF74EFE38
:1022E000FFF74CFE70E0FFF749FEFFF761FEFFF7D6
:1022F0005FFEFFF75DFEFFF75BFE65E0FFF73EFE6A
:10230000FFF73CFEFFF754FEFFF752FEFFF750FECB
:102310005AE0FFF733FEFFF731FEFFF72FFEFFF71E
:1023200047FEFFF745FE4FE0FFF728FEFFF726FECA
:10233000FFF724FEFFF722FEFFF73AFE44E0FFF727
:102340001DFEFFF71BFEFFF719FEFFF717FEFFF755
:1023500015FE39E0FFF72CFEFFF710FEFFF70EFE2B
:10236000FFF70CFEFFF70AFE2EE0FFF721FEFFF756
:102370001FFEFFF703FEFFF701FEFFF7FFFD23E05F
:10238000FFF716FEFFF714FEFFF712FEFFF7F6FD4C
:10239000FFF7F4FD18E0FFF70BFEFFF709FEFFF76C
:1023A00007FEFFF705FEFFF7E9FD0DE0FFF700FE72
:1023B000FFF7FEFDFFF7FCFDFFF7FAFDFFF7F8FD65
:1023C00002E0FFF7CDFD00BFFFF7CAFD00BF0837F1
:1023D000BD4680BD80B584B000AF78603960FFF73E
:1023E000BFFDFFF7BDFD0023FB6009E0FB687A68D5
:1023F00013441B781846FFF7F5FDFB680133FB60BB
:10240000FA683B689A42F1DB00BF00BF1037BD4657
:1024100080BD80B582B000AF786040F688120021A0
:10242000786801F0F1F8786801F0E0F800BF08374B
:10243000BD4680BD80B584B000AFF860B9607A60F9
:102440003B603B687A68B968F86801F088F900BFBA
:102450001037BD4680BD80B48FB000AF7860396062
:1024600001233B6100237B617B69BB61BB69FB612D
:10247000FB693B623B6A7B627B6ABB62BB6AFB6255
:10248000FB6AFB6001233B633B68002B38D00123D0
:102490007B631AE07B69FB60BB697B61FB69BB61A5
:1024A0003B6AFB617A6AFB6853403B62BA6AFB682D
:1024B00053407B62FA6AFB685340BB623B6BFB6232
:1024C000FB683B637B6B01337B637A6B3B689A42AF
:1024D000E0DDFB6A5A003B6B1A44BB6A9B001A445E
:1024E0007B6ADB001A443B6A1B011A44FB695B01EF
:1024F0001A44BB699B011A447B69DB0113443B61AD
:102500003B6918463C37BD4680BC704780B493B0E9
:1025100000AFF860B9607A60BB68002B02D07B68BE
:10252000002B01D100235CE008237B6300237B6444
:1025300000233B6421E03B6C9B0007F148021344FD
:102540007A6843F8382C7B6B013B7A6842FA03F3D4
:1025500003F00103002B0AD07B685B007B607B6883
:1025600083F48E7383F00103DBB27B6002E07B684F
:102570005B007B603B6C01333B643A6C7B6B9A4243
:10258000D9DB00233B6427E001223B6C02FA03F312
:102590003B633A6BBB681340002B1AD00123FB63EB
:1025A0000023BB6311E03B6C9B0007F1480213441E
:1025B00053F8382CFB6B13407A6C53407B64FB6BF5
:1025C0005B00FB63BB6B0133BB63BA6B7B6B9A42F3
:1025D000E9DB3B6C01333B643A6C7B6B9A42D3DBA7
:1025E0007B6C18464C37BD4680BC7047B0B5ADF526
:1025F000067D02AF3B1D1860002387F807320023D9
:10260000C7F80C3207F5017307F18801381D40F651
:10261000B83200924FF49672006804F000FB034653
:1026200087F80632642001F0A1FC97F80632002BEF
:1026300075D10023C7F8083269E007F18802D7F89E
:1026400008321344197807F5DA72D7F80C321344BC
:102650000A461A70D7F80C320133C7F80C3207F16A
:102660008802D7F8083213441B780A2B0CBF0123C9
:102670000023DAB2D7F80C324F2BCCBF0123002352
:10268000DBB21343DBB2002B3CD097F8B431242BE0
:1026900035D107F5DA73033303221946B44804F041
:1026A0001DFD0346002B0FD150220021B14804F03C
:1026B0000DFDD7F80C2207F5DA731946AD4804F082
:1026C000F7FCAD4B01221A6007F5DA7303330322DE
:1026D0001946AA4804F002FD0346002B0FD15022F0
:1026E0000021A74804F0F2FCD7F80C2207F5DA73B2
:1026F0001946A34804F0DCFCA24B01221A60002317
:10270000C7F80C32D7F808320133C7F80832B7F8E7
:1027100004321A46D7F8083293428EDB02E00120D9
:1027200001F024FC944B1B68012B40F01981954B60
:102730001B68012B40F014819148FDF769FD0346A9
:102740009AB2914B1A808B48FDF762FD03469AB20C
:102750008E4B1A8007F1080310221A708B4B1B88CE
:102760003D2B06D8894B1B88DAB207F108035A7053
:1027700003E007F108033E225A7007F108035B7873
:102780001A4607F1080302337A49184604F090FC10
:1027900007F1480207F1080314461D460FCD0FC488
:1027A0000FCD0FC40FCD0FC495E80F0084E80F00C4
:1027B0004FF4967001F0DAFB07F148034021184608
:1027C00000F0B8FE034687F8063207F1080302332B
:1027D0003E220021184604F079FC6C4B1B883D2BEF
:1027E00004D807F1080300225A7012E0674B1B88D7
:1027F000DBB23E3BDAB207F108035A7007F1080377
:102800005B781A4607F1080302336149184604F061
:102810004FFC07F1080311221A7007F1480207F173
:10282000080314461D460FCD0FC40FCD0FC40FCDA6
:102830000FC495E80F0084E80F004FF4967001F084
:1028400095FB07F148034021184600F073FE03464C
:1028500087F8063207F1080312221A704A4B1B88C8
:102860003D2B06D8484B1B88DAB207F108035A7093
:1028700003E007F108033E225A7007F108035B7872
:102880001A4607F1080302333D49184604F010FCCC
:1028900007F1480207F1080314461D460FCD0FC487
:1028A0000FCD0FC40FCD0FC495E80F0084E80F00C3
:1028B0004FF4967001F05AFB07F148034021184687
:1028C00000F038FE034687F8063207F108030233AA
:1028D0003E220021184604F0F9FB2C4B1B883D2BAF
:1028E00004D807F1080300225A7012E0264B1B8817
:1028F000DBB23E3BDAB207F108035A7007F1080376
:102900005B781A4607F1080302332249184604F09F
:10291000CFFB07F1080313221A7007F1480207F1F1
:10292000080314461D460FCD0FC40FCD0FC40FCDA5
:102930000FC495E80F0084E80F004FF4967001F083
:1029400015FB07F148034021184600F0F3FD03464C
:1029500087F80632084B00221A600A4B00221A60E0
:1029600097F80732184607F50477BD46B0BD00BF9B
:1029700004720008CC0200201C030020087200082A
:102980002003002070030020740300207603002041
:102990000A0300205E030020B0B5A0B000AF78604D
:1029A0000123FB670023A7F87A3007F10C032C22E0
:1029B0000021184604F08AFB60233B7318237B73C5
:1029C0007B7B1A4607F10C0302331E49184604F0BC
:1029D0006FFB2223A7F87A30B7F87A2007F10C03AF
:1029E00011461846FFF736FA0346FB8507F10C033C
:1029F00007F10C0124227868FFF71CFD07F1380469
:102A000007F10C050FCD0FC40FCD0FC495E80700DB
:102A100084E807004FF4967001F0A8FA07F1380334
:102A20002C21184600F086FD034687F8793097F888
:102A30007930002B01D00023FB67FB6F18468037ED
:102A4000BD46B0BD0C72000880B598B000AF78608C
:102A50000123FB650023A7F85A3007F108030C2275
:102A60000021184604F032FBE021122000F050FC57
:102A7000034687F859300021132000F049FC034633
:102A800087F8593080210F2000F042FC034687F878
:102A90005930642001F06AFA07F117031946112032
:102AA00000F0F6FB034687F8593097F85930002BB1
:102AB0002ED1FB7D3C3BDBB27B7220233B72022399
:102AC000A7F85A30B7F85A2007F1080311461846FC
:102AD000FFF7C0F903467B8107F1080307F10801FE
:102AE00004227868FFF7A6FC07F1180307F1080233
:102AF00007CA83E807004FF4967001F037FA07F130
:102B000018030C21184600F015FD034687F85930CC
:102B1000FB6D18466037BD4680BD000080B5ADF541
:102B2000196D00AF002387F88F3901F0F6F900F036
:102B3000A5F800F011FA00F02FF900F0B9F900F053
:102B4000E1F900F05FF900F0E9F801228021414845
:102B500002F0B2F8002280213E4802F0ADF84FF4B6
:102B60007A6001F003FA01224FF48071394802F0D3
:102B7000A3F8394801F0B1F8034687F88F3909E026
:102B8000354801F0AAF8034687F88F39802131488B
:102B900002F0AAF897F88F39012BF1D02E4801F0F6
:102BA00045F9034687F88F3997F88F39012B02D002
:102BB000012387F88F39294800F0C6FA034687F8C1
:102BC0008E3997F88E39002B02D0012004F038FAA4
:102BD0003B1D1846FFF71DFC214B1B68002B06D040
:102BE0003B1D1846FEF7ECFB1D4B00221A601D4BE7
:102BF0001B68002B06D03B1D1846FFF7CDFE194B76
:102C000000221A60184B1B68002B06D03B1D18468B
:102C1000FFF71AFF144B00221A60144B1B68002B9D
:102C200007D03B1D12491846FEF70EFA0F4B002243
:102C30001A60104B1B68012B05D10748FFF7D6FC23
:102C40000C4B00221A603B1D19460B48FEF760FF33
:102C5000C2E700BF000C0140B8040020EC030020D4
:102C60001C0000202000002028000020240000205C
:102C700088040020780300204404002080B592B02E
:102C800000AF07F1200328220021184604F01EFAA5
:102C900007F10C0300221A605A609A60DA601A6128
:102CA0003B4600221A605A609A6002233B6201236D
:102CB0003B6310237B630023FB6307F1200318466B
:102CC00002F02CF80346002B01D000F037FA0F2356
:102CD000FB6000233B6100237B610023BB61002379
:102CE000FB6107F10C030021184602F097FA034636
:102CF000002B01D000F022FA02233B600023BB60CE
:102D00003B46184602F022FC0346002B01D000F09F
:102D100015FA00BF4837BD4680BD000080B584B0BD
:102D200000AF3B1D00221A605A609A60184B194A86
:102D30001A60174B00229A60154B00221A73144B2D
:102D400000221A75124B4FF46022DA61104B0022F8
:102D50005A600F4B01221A610D4801F02BF903460E
:102D6000002B01D000F0EAF905237B600123BB6052
:102D70000023FB603B1D1946054801F0A5FB0346F7
:102D8000002B01D000F0DAF900BF1037BD4680BD3E
:102D9000880400200024014080B500AF174B184A7A
:102DA0001A60164B4FF482725A60144B00229A60DC
:102DB000124B0022DA60114B00221A610F4B0022E5
:102DC0005A610E4B4FF400729A610C4B0022DA618B
:102DD0000A4B00221A62094B00225A62074B00225A
:102DE0009A62064B0A22DA62044802F0ADFC0346FE
:102DF000002B01D000F0A2F900BF80BDEC03002041
:102E00000038004080B586B000AF07F1080300220B
:102E10001A605A609A60DA603B4600221A605A6073
:102E2000224B4FF080421A60204B41F63F725A60AD
:102E30001E4B00229A601D4B43F69822DA601B4B12
:102E400000221A61194B00229A61184803F0E0F938
:102E50000346002B01D000F071F94FF48053BB60A2
:102E600007F108031946114803F084FB0346002BC1
:102E700001D000F063F900233B6000237B603B46F8
:102E800019460A4803F074FD0346002B01D000F0F8
:102E900055F9064803F00CFA0346002B01D000F068
:102EA0004DF900BF1837BD4680BD00BFFC040020AF
:102EB00080B500AF114B124A1A60104B4FF41652F6
:102EC0005A600E4B00229A600C4B0022DA600B4BCA
:102ED00000221A61094B0C225A61084B00229A61A8
:102EE000064B0022DA61054803F0BAFD0346002BC9
:102EF00001D000F023F900BF80BD00BFB80400205E
:102F00000038014080B500AF114B124A1A60104BD7
:102F10004FF4E1325A600E4B00229A600C4B0022B3
:102F2000DA600B4B00221A61094B0C225A61084BE4
:102F300000229A61064B0022DA61054803F090FDF9
:102F40000346002B01D000F0F9F800BF80BD00BFA0
:102F5000440400200048004080B588B000AF07F16D
:102F6000100300221A605A609A60DA60284B9B694D
:102F7000274A43F010039361254B9B6903F010032C
:102F8000FB60FB68224B9B69214A43F00403936179
:102F90001F4B9B6903F00403BB60BB681C4B9B6920
:102FA0001B4A43F008039361194B9B6903F0080324
:102FB0007B607B6800224FF40051164801F07CFED4
:102FC00000224FF4C071144801F076FE4FF4005314
:102FD0003B6101237B610023BB610223FB6107F19D
:102FE000100319460B4801F0E3FC4FF4C0733B613A
:102FF00001237B610023BB610223FB6107F1100306
:103000001946054801F0D4FC00BF2037BD4680BDFD
:103010000010024000100140000C014080B582B059
:1030200000AF78607B681B68384A934201D100F09A
:1030300081FF7B681B68B3F1804F63D1344B012261
:103040001A608021334801F04FFE334B1B68013377
:10305000314A1360314B1B680133304A1360304BE7
:103060001B6801332E4A13602E4B1B6801332D4A17
:103070001360294B19682C4B83FB01231A11CB17C2
:10308000D21A13469B001344DB00CA1A002A02D14D
:10309000264B01221A60204B1A68254B83FB021332
:1030A00013445911D317C91A0B461B015B1A9B0015
:1030B000D11A002902D11D4B01221A60184B196840
:1030C000194B83FB0123DA10CB17D21A13469B004E
:1030D00013449B00CA1A002A02D1164B01221A601F
:1030E000104B1A68124B83FB02131344D910D317E9
:1030F000C91A0B461B015B1AD11A002902D10E4BCB
:1031000001221A6000BF0837BD4680BD0010004094
:1031100078030020000C01407C0300208003002085
:103120008403002088030020676666661C00002078
:1031300089888888240000202800002080B400AFFF
:1031400072B600BFFEE7000080B584B000AF7860C3
:10315000374A7B6813608021072000F0D9F80346C6
:10316000FB734FF47A7000F001FF07216D2000F02F
:10317000CFF80346FB732F4800F016F90346FB73A4
:1031800059216E2000F0C4F80346FB7321216F2003
:1031900000F0BEF80346FB732C21702000F0B8F855
:1031A0000346FB731021722000F0B2F80346FB7354
:1031B00000F060F80346FB730E21332000F0A8F8FE
:1031C0000346FB730821362000F0A2F80346FB7388
:1031D0006D21372000F09CF80346FB735321382003
:1031E00000F096F80346FB738821392000F090F830
:1031F0000346FB730821302000F08AF800F02CF819
:103200000346FB730421052000F082F80346FB739C
:103210000021062000F07CF80346FB730022802189
:10322000054801F049FDFB7B18461037BD4680BDBF
:103230008C0300209A19D943000C014080B582B05C
:1032400000AF2021712000F063F80346FB71FB7989
:1032500018460837BD4680BD80B582B000AF232137
:10326000712000F055F80346FB71FB7918460837CA
:10327000BD4680BD80B582B000AF1021342000F083
:1032800047F80346FB71FB7918460837BD4680BDF9
:1032900080B584B000AF03463960FB7100224FF463
:1032A0000051194801F008FDFB799BB21B02FB811C
:1032B000FB891B0A9BB2DBB23B73144B186807F106
:1032C0000C014FF47A73012202F0BAFA03467B73C1
:1032D000012000F04BFE0D4B186807F10B014FF475
:1032E0007A73012202F0E8FB03467B73FA7A3B68AB
:1032F0001A7001224FF40051034801F0DDFC7B7B82
:1033000018461037BD4680BD001001408C030020D8
:1033100080B584B000AF03460A46FB711346BB710B
:103320008023FB7300224FF400511D4801F0C4FCC0
:10333000FA79FB7B1343DBB21B021AB2BB791BB2D7
:1033400013431BB2BB81BB891B0A9BB2DBB2BB72AE
:10335000BB89DBB27B72134B186807F10A014FF48B
:103360007A73012202F06CFA0346FB72012000F02E
:10337000FDFD0C4B186807F109014FF47A73012227
:1033800002F05EFA0346FB7201224FF4005104483A
:1033900001F092FCFB7A18461037BD4680BD00BF95
:1033A000001001408C03002090B587B000AF78601A
:1033B0005A4B7B6179695A48FDF712FD03467968DB
:1033C0001846FDF759FC034656491846FDF706FE18
:1033D0000346002B01D0012300E00023FB74796930
:1033E0004F48FDF7FDFC034679681846FDF744FC9D
:1033F00003464D491846FDF7F3FC03461846FDF712
:1034000001FE0346DBB2A3F11801FA7C13469200D9
:103410009B1ADB00CA18FB7C013392FBF3F3BB74ED
:1034200003237B747B7C1846FDF7D2FB03461946C9
:103430007869FDF7D5FC03461C46FB7C0133184632
:10344000FDF7C6FB034619462046FDF715FC03466B
:1034500019467868FDF7C4FC03461C46BB7C184639
:10346000FDF7B6FB034619462046FDF7FBFA034677
:103470002E491846FDF7F6FA03462D491846FDF782
:10348000FBFB03461846FDF7BDFD0346FB8197F99C
:10349000123003F01F035BB243F040035AB2FB7CCF
:1034A0005B015BB203F020035BB213435BB2DBB2A0
:1034B00019467520FFF72CFF03467B73FB891B0A17
:1034C0009BB2DBB219467620FFF722FF03467B73DF
:1034D000FB89DBB219467720FFF71AFF03467B739F
:1034E00000217320FFF714FF03467B730021742033
:1034F000FFF70EFF03467B7300217A20FFF708FFDA
:1035000003467B7300217920FFF702FF03467B739C
:103510007B7B18461C37BD4690BD00BF0000D041E4
:103520000000F0410000F043000020410000C041D5
:1035300000007A4780B584B000AF78600B46FB701E
:10354000FB7819463E20FFF7E3FE0346FB7200239B
:10355000FB600CE0FB687A6813441B7819467F20F7
:10356000FFF7D6FE0346FB72FB680133FB60FB7876
:10357000FA689A42EEDB07F10A0319460320FFF7C7
:1035800087FE0346FB7207F10A0319460420FFF782
:103590007FFE0346FB7208210720FFF7B9FE0346B2
:1035A000FB720023BB7207E007F10A0319460320F0
:1035B000FFF76EFE0346FB72BB7A03F00403002B99
:1035C000F2D007F10A0319460420FFF761FE034613
:1035D000FB724FF48071044801F086FBFB7A1846B9
:1035E0001037BD4680BD00BF000C014080B582B0E1
:1035F00000AF78607B681A460821786800F056F8BA
:1036000000BF0837BD4680BD80B487B000AFF8600A
:10361000B9607A60BB687B6107E07B69FA68134434
:1036200000221A707B6901337B617A697B689A4258
:10363000F3DB00BF00BF1C37BD4680BC704780B4C1
:1036400087B000AFF860B9607A603B6000237B61AF
:103650000AE07B69BA681A447B6939680B441278BE
:103660001A707B6901337B617A697B689A42F0DB6F
:1036700000237B6111E07B69C3F10702FB68203204
:1036800053F822107A697B6813441A463B68134446
:10369000CAB21A707B6901337B617B69072BEADD53
:1036A00000BF00BF1C37BD4680BC704780B5ADF67B
:1036B000180D00AF07F10C03186007F1080319603B
:1036C0003B1D1A6007F1140207F10C03114618683C
:1036D000FDF795FD07F1140301221A600123C7F8D5
:1036E00014382FE007F2144207F10C031146186852
:1036F000FDF785FD07F10C03D7F814181868FEF7DD
:10370000AAFE024607F214431A6007F2144301228C
:103710005A6007F1140307F21442391D07F10C0037
:1037200009680068FDF785FD3A1D07F1140107F1EE
:103730000C0312681868FDF743FDD7F814380133FD
:10374000C7F8143807F10803D7F814281B689A4201
:10375000C8DD00BF00BF07F61807BD4680BD90B5A5
:1037600091B000AFF860B9607A603B600023FB6302
:103770000AE0FB6B9B0007F140021344002243F870
:10378000302CFB6B0133FB63FB6B082BF1DD00235B
:10379000FB6337E0FB6BBA6813441B781A46FB6A7D
:1037A00053407B630723BB631DE0BB6B013B9B0066
:1037B00007F14002134453F8304CFB68BA6B53F8DE
:1037C00022307A6B1946F868FEF7A0FE034684EAB9
:1037D0000302BB6B9B0007F140010B4443F8302C04
:1037E000BB6B013BBB63BB6B002BDEDCFB681B6868
:1037F0007A6B1946F868FEF789FE03463B61FB6B5E
:103800000133FB63FA6B7B689A42C3DB0023FB63E3
:103810000EE0FB6B9B0007F14002134453F8301C91
:10382000FB68FA6B203243F82210FB6B0133FB6319
:10383000FB6B072BEDDD3B687A68B968F868FFF72A
:10384000FEFE00BF4437BD4690BD000080B485B089
:1038500000AF154B9B69144A43F001039361124B6F
:103860009B6903F00103BB60BB680F4BDB690E4A29
:1038700043F08053D3610C4BDB6903F080537B60D2
:103880007B680A4B5B68FB60FB6823F0E063FB60CE
:10389000FB6843F00073FB60044AFB68536000BFA1
:1038A0001437BD4680BC7047001002400000014044
:1038B00080B588B000AF786007F1100300221A606D
:1038C0005A609A60DA607B681B68144A934221D17F
:1038D000134B9B69124A43F400739361104B9B692D
:1038E00003F40073FB60FB680D4B9B690C4A43F0CB
:1038F000040393610A4B9B6903F00403BB60BB683C
:1039000020233B6103237B6107F11003194605481F
:1039100001F04EF800BF2037BD4680BD00240140B5
:10392000001002400008014080B588B000AF786008
:1039300007F1100300221A605A609A60DA607B680F
:103940001B681C4A934231D11B4BDB691A4A43F472
:103950008043D361184BDB6903F48043FB60FB6851
:10396000154B9B69144A43F008039361124B9B6902
:1039700003F00803BB60BB684FF420433B610223A4
:103980007B610323FB6107F1100319460B4801F02B
:103990000FF84FF480433B6100237B610023BB6140
:1039A00007F110031946054801F002F800BF20375F
:1039B000BD4680BD0038004000100240000C0140B0
:1039C00080B584B000AF78607B681B68B3F1804F2E
:1039D00013D10C4BDB690B4A43F00103D361094B54
:1039E000DB6903F00103FB60FB68002200211C205F
:1039F00000F0B3FF1C2000F0CCFF00BF1037BD4625
:103A000080BD00BF0010024080B58AB000AF786072
:103A100007F1180300221A605A609A60DA607B6826
:103A20001B68384A934232D1374B9B69364A43F47C
:103A300080439361344B9B6903F480437B617B69D2
:103A4000314B9B69304A43F0040393612E4B9B69D1
:103A500003F004033B613B694FF40073BB61022335
:103A6000FB6103237B6207F118031946274800F026
:103A70009FFF4FF48063BB610023FB6100233B6227
:103A800007F118031946214800F092FF36E07B68E1
:103A90001B681F4A934231D11B4BDB691A4A43F41E
:103AA0008023D361184BDB6903F48023FB60FB6840
:103AB000154B9B69144A43F008039361124B9B69B1
:103AC00003F00803BB60BB684FF48063BB61022353
:103AD000FB6103237B6207F1180319460D4800F0D0
:103AE00067FF4FF40063BB610023FB6100233B626F
:103AF00007F118031946074800F05AFF00BF28379E
:103B0000BD4680BD00380140001002400008014061
:103B100000480040000C014080B58CB000AF7860D8
:103B20000023FB620023BB6200227968362000F08C
:103B300014FF362000F02DFF1E4BDB691D4A43F0B9
:103B40001003D3611B4BDB6903F01003FB60FB68C0
:103B500007F1100207F114031146184601F0ACFCFE
:103B600001F082FCF862FB6A134AA2FB03239B0C60
:103B7000013BBB62114B124A1A60104B40F2E73214
:103B8000DA600E4ABB6A53600C4B00221A610B4B81
:103B900000229A60094802F03BFB0346002B04D147
:103BA000064802F085FB034600E001231846303743
:103BB000BD4680BD0010024083DE1B43440500204B
:103BC0000010004080B400AFFEE780B400AFFEE715
:103BD00080B400AFFEE780B400AFFEE780B400AF72
:103BE000FEE780B400AF00BFBD4680BC704780B424
:103BF00000AF00BFBD4680BC704780B400AF00BFBF
:103C0000BD4680BC704780B400AF00BFBD4680BCDD
:103C10007047000080B500AF024802F0A3FB00BF70
:103C200080BD00BFFC04002080B500AF024802F058
:103C300099FB00BF80BD00BF4405002080B582B065
:103C400000AF7860396003F0F5F9034616221A6078
:103C50004FF0FF3318460837BD4680BD80B582B0AF
:103C600000AF78604FF0FF317868FFF7E7FFFEE7BD
:103C700080B400AF00BFBD4680BC704780B487B041
:103C800000AF78600B467B8000233B7300237B737F
:103C900000237B610FE03A7B7B6979680B441B78DA
:103CA0001344DBB23B737A7B3B7B1344DBB27B7305
:103CB0007B6901337B617B887A699A42EBDBBB8944
:103CC0003B8200233A7C62F307037A7C62F30F2382
:103CD00018461C37BD4680BC704780B59AB002AF0D
:103CE0007860002387F85F30FF23FB7307F1280318
:103CF0002C220021184603F0E9F9B52387F8283073
:103D0000622387F82930062387F82A30242387F88E
:103D10002B302423BB850323FB85062387F8303013
:103D2000032387F8313007F128030233282118468E
:103D3000FFF7A4FF0346A7F8523097F828303B74EA
:103D400097F829307B740523BB740123FB7402238D
:103D50003B7500237B7597F82A30BB7597F82B309D
:103D6000FB7532233B765B237B7607F10F014FF423
:103D70007A730122786802F0C0FE034687F8573054
:103D80004FF47A7000F0F2F897F85730002B03D018
:103D9000012387F85F3043E007F128014FF47A737D
:103DA0002C22786802F0A9FE034687F8573097F86E
:103DB0005730002B03D0012387F85F3030E007F144
:103DC0001A0307F11C0140F6B83200920A22786803
:103DD00002F025FF034687F857307B8B0A2B03D070
:103DE000012387F85F301BE097F85730002B17D17D
:103DF0000023BB6511E007F11C02BB6D13441A7868
:103E000007F11001BB6D0B441B789A4202D00123CD
:103E100087F85F30BB6D0133BB65BB6D092BEAD9F9
:103E200097F85F3018466037BD4680BD80B58AB0D0
:103E300000AF7860002387F82730244A07F1180381
:103E400092E80300186004331970B5233B736223B2
:103E50007B730623BB730123FB7303233B82F02395
:103E6000BB7400233B7500233B6226E007F1180278
:103E70003B6A13441B78FB7407F10C0302330721E0
:103E80001846FFF7FBFE03461BB21A467A75C3F3CA
:103E90000723BB7507F10C014FF47A730B22786886
:103EA00002F02BFE0346FB77FB7F002B02D00123A1
:103EB00087F827303B6A01333B623B6A042BD5D934
:103EC00097F8273018462837BD4680BD287200086D
:103ED0000C480D490D4A002302E0D458C450043365
:103EE000C4188C42F9D30A4A0A4C002301E013603B
:103EF0000432A242FBD3FFF7BBFE03F0B5F8FEF796
:103F00000DFE7047000000209C000020D4720008C5
:103F10009C00002090050020FEE780B500AF032044
:103F200000F010FD0F20FFF7F7FDFFF78FFC0023D7
:103F3000184680BD80B400AF054B1B781A46054B70
:103F40001B681344034A136000BFBD4680BC704722
:103F5000340000208C05002080B400AF024B1B68A9
:103F60001846BD4680BC70478C05002080B584B0E3
:103F700000AF7860FFF7F0FFB8607B68FB60FB681C
:103F8000B3F1FF3F05D00A4B1B781A46FB68134478
:103F9000FB6000BFFFF7E0FF0246BB68D31AFA6878
:103FA0009A42F7D800BF00BF1037BD4680BD00BFA2
:103FB0003400002080B586B000AF78600023FB7528
:103FC00000233B610023BB600023FB607B68002B68
:103FD00001D10123BEE07B689B68002B7B689B6A54
:103FE000002B09D17B680022DA627B68002283F80B
:103FF00024207868FFF75CFC786800F0B7FB034684
:10400000FB757B689B6A03F01003002B40F09980DE
:10401000FB7D002B40F095807B689B6A23F48853DE
:1040200023F0020343F002027B689A627B685A68BD
:104030007B68DB691A437B681B7B5B001343BA68B0
:104040001343BB607B689B68B3F5807F03D07B68BC
:104050009B68012B02D14FF4807300E000233A6982
:1040600013433B617B681B7D012B19D17B681B7B54
:10407000002B09D17B689B69013B5A033B691343C1
:1040800043F400633B610BE07B689B6A43F02002D2
:104090007B689A627B68DB6A43F001027B68DA62C4
:1040A0007B681B685B6823F469417B681B683A691D
:1040B0000A435A607B681B689A68284B13407A68E9
:1040C0001268B9680B4393607B689B68B3F5807F87
:1040D00003D07B689B68012B04D17B681B69013B83
:1040E0001B05FB607B681B68DB6A23F470017B683F
:1040F0001B68FA680A43DA627B681B689A68184B87
:104100001340BA689A420BD17B680022DA627B685E
:104110009B6A23F0030343F001027B689A6218E074
:104120007B689B6A23F0120343F010027B689A625B
:104130007B68DB6A43F001027B68DA620123FB756E
:1041400007E07B689B6A43F010027B689A62012358
:10415000FB75FB7D18461837BD4680BDFDF7E1FFB6
:10416000FE0E1FFF80B584B000AF78600023FB73A4
:104170007B6893F82430012B01D1022362E07B6835
:10418000012283F82420786800F096FA0346FB7336
:10419000FB7B002B51D17B689B6A23F4407323F097
:1041A000010343F480727B689A627B689B6A23F404
:1041B00080127B689A627B681B685B6803F480638B
:1041C000002B07D07B689B6A23F4405343F4805252
:1041D0007B689A627B689B6A03F48053002B06D04D
:1041E0007B68DB6A23F006027B68DA6202E07B68A8
:1041F0000022DA627B68002283F824207B681B6837
:104200006FF002021A607B681B689B6803F46023EE
:10421000B3F5602F08D17B681B689A687B681B68C0
:1042200042F4A0029A600CE07B681B689A687B6885
:104230001B6842F480129A6003E07B68002283F8D6
:104240002420FB7B18461037BD4680BD80B584B066
:1042500000AF78600023FB737B6893F82430012B58
:1042600001D102231AE07B68012283F824207868B8
:1042700000F07CFA0346FB73FB7B002B09D17B68C3
:104280009B6A23F4885323F0010343F001027B6807
:104290009A627B68002283F82420FB7B1846103743
:1042A000BD4680BD90B587B000AF7860396000230F
:1042B0007B610023FB6000233B61FFF74DFE7861CB
:1042C0007B681B689B6803F48073002B0BD07B68B2
:1042D0009B6A43F020027B689A627B68002283F825
:1042E00024200123D3E07B681B685B6803F48073A0
:1042F000002B31D17B681B68DB6A03F47003002B51
:104300002AD121E03B68B3F1FF3F1DD03B68002B71
:1043100007D0FFF721FE02467B69D31A3A689A421A
:1043200012D27B681B681B6803F00203002B0BD1C1
:104330007B689B6A43F004027B689A627B68002278
:1043400083F824200323A2E07B681B681B6803F02A
:104350000203002BD6D070E04F4B1C68022001F006
:104360009BF90346B4FBF3F27B681B6819694B4B5E
:104370000B40002B18D17B681B68D968484B0B4059
:10438000002B11D17B681B681969464B0B40002B31
:1043900008D17B681B68D968434B0B40002B01D1C7
:1043A000142320E029231EE07B681B6819693D4B1C
:1043B0000B40002B06D17B681B68D9683A4B0B4039
:1043C000002B0DD07B681B681969384B0B40002B04
:1043D00008D17B681B68D968344B0B40002B01D196
:1043E000542300E0FC2302FB03F33B6121E03B6824
:1043F000B3F1FF3F1AD03B68002B07D0FFF7ACFDAD
:1044000002467B69D31A3A689A420FD2FB683A692E
:104410009A420BD97B689B6A43F004027B689A62DC
:104420007B68002283F82420032330E0FB680133FB
:10443000FB60FB683A699A42D9D87B681B686FF0C9
:1044400012021A607B689B6A43F400727B689A626E
:104450007B681B689B6803F46023B3F5602F15D15C
:104460007B681B7B002B11D17B689B6A23F48072D5
:104470007B689A627B689B6A03F48053002B05D1AA
:104480007B689B6A43F001027B689A6200231846AE
:104490001C37BD4690BD00BF2C000020244992244B
:1044A00024499200922449129224490049922400FE
:1044B00080B483B000AF78607B681B68DB6C184603
:1044C0000C37BD4680BC704780B485B000AF7860C3
:1044D00039600023FB730023BB607B6893F82430B2
:1044E000012B01D10223DCE07B68012283F8242028
:1044F0003B685B68062B1CD87B681B68596B3B6864
:104500005A6813469B001344053B1F2202FA03F32B
:10451000DB4319403B6818683B685A6813469B00A8
:104520001344053B00FA03F27B681B680A435A6395
:104530003CE03B685B680C2B1CD87B681B68196BE4
:104540003B685A6813469B001344233B1F2202FA20
:1045500003F3DB4319403B6818683B685A6813460D
:104560009B001344233B00FA03F27B681B680A4359
:104570001A631BE07B681B68D96A3B685A6813465C
:104580009B001344413B1F2202FA03F3DB43194013
:104590003B6818683B685A6813469B001344413BCC
:1045A00000FA03F27B681B680A43DA623B681B6807
:1045B000092B1CD97B681B68D9683B681A681346AD
:1045C0005B0013441E3B072202FA03F3DB4319404E
:1045D0003B6898683B681A6813465B0013441E3BAF
:1045E00000FA03F27B681B680A43DA6019E07B6813
:1045F0001B6819693B681A6813465B00134407225D
:1046000002FA03F3DB4319403B6898683B681A6879
:1046100013465B00134400FA03F27B681B680A43ED
:104620001A613B681B68102B03D03B681B68112B79
:1046300032D17B681B681D4A934225D17B681B6879
:104640009B6803F40003002B26D17B681B689A68E3
:104650007B681B6842F400029A603B681B68102B61
:104660001AD1134B1B68134AA2FB03239A0C13465F
:104670009B0013445B00BB6002E0BB68013BBB6076
:10468000BB68002BF9D107E07B689B6A43F02002EE
:104690007B689A620123FB737B68002283F82420E5
:1046A000FB7B18461437BD4680BC70470024014090
:1046B0002C00002083DE1B4380B584B000AF7860FF
:1046C0000023FB600023BB607B681B689B6803F0D2
:1046D0000103012B40D07B681B689A687B681B68CC
:1046E00042F001029A601F4B1B681F4AA2FB032382
:1046F0009B0CBB6002E0BB68013BBB60BB68002B4E
:10470000F9D1FFF729FCF8601FE0FFF725FC02460E
:10471000FB68D31A022B18D97B681B689B6803F0CF
:104720000103012B11D07B689B6A43F010027B6868
:104730009A627B68DB6A43F001027B68DA627B681D
:10474000002283F82420012307E07B681B689B6814
:1047500003F00103012BD8D1002318461037BD46C2
:1047600080BD00BF2C00002083DE1B4380B584B0D9
:1047700000AF78600023FB607B681B689B6803F0D8
:104780000103012B2ED17B681B689A687B681B682C
:1047900022F001029A60FFF7DFFBF8601BE0FFF7F1
:1047A000DBFB0246FB68D31A022B14D97B681B681B
:1047B0009B6803F00103012B0DD17B689B6A43F0DA
:1047C00010027B689A627B68DB6A43F001027B68B7
:1047D000DA62012307E07B681B689B6803F0010332
:1047E000012BDCD0002318461037BD4680BD0000E9
:1047F00080B485B000AF78607B6803F00703FB608E
:104800000C4BDB68BB60BA684FF6FF031340BB601C
:10481000FB681A02BB68134343F0BF6343F40033E1
:10482000BB60044ABB68D36000BF1437BD4680BC80
:10483000704700BF00ED00E080B400AF044BDB68C0
:104840001B0A03F007031846BD4680BC704700BF33
:1048500000ED00E080B483B000AF0346FB7197F930
:104860000730002B0BDBFB7903F01F02064997F999
:1048700007305B09012000FA02F241F8232000BF53
:104880000C37BD4680BC704700E100E080B483B0C7
:1048900000AF03463960FB7197F90730002B0ADB44
:1048A0003B68DAB20C4997F907301201D2B20B44D7
:1048B00083F800230AE03B68DAB20849FB7903F089
:1048C0000F03043B1201D2B20B441A7600BF0C371F
:1048D000BD4680BC704700BF00E100E000ED00E095
:1048E00080B489B000AFF860B9607A60FB6803F00B
:1048F0000703FB61FB69C3F10703042B28BF0423F3
:10490000BB61FB690433062B02D9FB69033B00E062
:1049100000237B614FF0FF32BB6902FA03F3DA43F5
:10492000BB681A407B699A404FF0FF317B6901FAFE
:1049300003F3D9437B680B40134318462437BD4625
:1049400080BC704780B582B000AF78607868FFF7B0
:104950004FFF00BF0837BD4680BD80B586B000AFB1
:104960000346B9607A60FB7300237B61FFF764FF45
:1049700078617A68B9687869FFF7B2FF024697F9FB
:104980000F3011461846FFF781FF00BF1837BD46AC
:1049900080BD80B582B000AF0346FB7197F9073048
:1049A0001846FFF757FF00BF0837BD4680BD00001F
:1049B00080B48BB000AF7860396000237B62002345
:1049C0003B6269E101227B6A02FA03F3FB613B6807
:1049D0001B68FA691340BB61BA69FB699A4240F0EF
:1049E00058813B685B689A4A93425ED0984A9342EA
:1049F00075D8984A934258D0964A93426FD8964AAF
:104A0000934252D0944A934269D8944A93424CD0EC
:104A1000924A934263D8924A934246D0904A934234
:104A20005DD8122B2AD8122B59D801A252F823F0A4
:104A3000AB4A0008854A0008974A0008D94A00088E
:104A4000DF4A0008DF4A0008DF4A0008DF4A0008A2
:104A5000DF4A0008DF4A0008DF4A0008DF4A000892
:104A6000DF4A0008DF4A0008DF4A0008DF4A000882
:104A7000DF4A00088D4A0008A14A0008794A93429B
:104A800013D02CE03B68DB683B6229E03B68DB68C5
:104A900004333B6224E03B68DB6808333B621FE081
:104AA0003B68DB680C333B621AE03B689B68002B79
:104AB00002D104233B6213E03B689B68012B05D1C4
:104AC00008233B627B68FA691A6109E008233B62AC
:104AD0007B68FA695A6103E000233B6200E000BF93
:104AE000BB69FF2B01D87B6801E07B6804337B61E5
:104AF000BB69FF2B02D87B6A9B0002E07B6A083B04
:104B00009B003B617B691A680F213B6901FA03F343
:104B1000DB431A40396A3B6901FA03F31A437B69A4
:104B20001A603B685B6803F08053002B00F0B18093
:104B30004D4B9B694C4A43F0010393614A4B9B697F
:104B400003F00103BB60BB68484A7B6A9B080233E1
:104B500052F82330FB607B6A03F003039B000F22B3
:104B600002FA03F3DB43FA681340FB607B68404AB8
:104B7000934213D07B683F4A93420DD07B683E4AF4
:104B8000934207D07B683D4A934201D1032306E05C
:104B9000042304E0022302E0012300E000237A6AF8
:104BA00002F0030292009340FA681343FB602F491E
:104BB0007B6A9B080233FA6841F823203B685B68F4
:104BC00003F48033002B06D02D4B1A682C49BB69A7
:104BD00013430B6006E02A4B1A68BB69DB43284984
:104BE00013400B603B685B6803F40033002B06D076
:104BF000234B5A682249BB6913434B6006E0204BA4
:104C00005A68BB69DB431E4913404B603B685B68D5
:104C100003F48013002B06D0194B9A681849BB691E
:104C200013438B6006E0164B9A68BB69DB4314495B
:104C300013408B603B685B6803F40013002B21D0AA
:104C40000F4BDA680E49BB691343CB6021E000BF0C
:104C5000000032100000311000002210000021106E
:104C6000000012100000111000100240000001406E
:104C700000080140000C01400010014000140140F8
:104C8000000401400B4BDA68BB69DB430949134060
:104C9000CB607B6A01337B623B681A687B6A22FACD
:104CA00003F3002B7FF48EAE00BF00BF2C37BD4650
:104CB00080BC70470004014080B483B000AF7860CE
:104CC0000B467B8013467B707B78002B03D07A8861
:104CD0007B681A6103E07B881A047B681A6100BF55
:104CE0000C37BD4680BC704780B485B000AF78609B
:104CF0000B467B807B68DB68FB607A88FB6813402F
:104D00001A04FB68D9437B880B401A437B681A61FD
:104D100000BF1437BD4680BC7047000080B586B028
:104D200000AF78607B68002B01D101236CE27B68C7
:104D30001B6803F00103002B00F08780924B5B6837
:104D400003F00C03042B0CD08F4B5B6803F00C03B7
:104D5000082B12D18C4B5B6803F48033B3F5803F92
:104D60000BD1894B1B6803F40033002B6CD07B689C
:104D70005B68002B68D1012346E27B685B68B3F572
:104D8000803F06D1804B1B687F4A43F48033136019
:104D90002EE07B685B68002B0CD17B4B1B687A4A4A
:104DA00023F480331360784B1B68774A23F4802305
:104DB00013601DE07B685B68B3F5A02F0CD1724BCC
:104DC0001B68714A43F4802313606F4B1B686E4A63
:104DD00043F4803313600BE06B4B1B686A4A23F487
:104DE00080331360684B1B68674A23F48023136089
:104DF0007B685B68002B13D0FFF7AEF8386108E0E2
:104E0000FFF7AAF802463B69D31A642B01D90323A2
:104E1000FAE15D4B1B6803F40033002BF0D014E083
:104E2000FFF79AF8386108E0FFF796F802463B6909
:104E3000D31A642B01D90323E6E1534B1B6803F417
:104E40000033002BF0D100E000BF7B681B6803F04B
:104E50000203002B63D04C4B5B6803F00C03002B68
:104E60000BD0494B5B6803F00C03082B1CD1464B5D
:104E70005B6803F48033002B16D1434B1B6803F0AF
:104E80000203002B05D07B681B69012B01D0012395
:104E9000BAE13D4B1B6823F0F8027B685B69DB00DD
:104EA000394913430B603AE07B681B69002B20D023
:104EB000364B01221A60FFF74FF8386108E0FFF720
:104EC0004BF802463B69D31A022B01D903239BE11D
:104ED0002D4B1B6803F00203002BF0D02A4B1B68FC
:104EE00023F0F8027B685B69DB00274913430B6002
:104EF00015E0264B00221A60FFF72EF8386108E013
:104F0000FFF72AF802463B69D31A022B01D9032383
:104F10007AE11D4B1B6803F00203002BF0D17B6884
:104F20001B6803F00803002B3AD07B689B69002BB9
:104F300019D0174B01221A60FFF70EF8386108E00C
:104F4000FFF70AF802463B69D31A022B01D9032363
:104F50005AE10D4B5B6A03F00203002BF0D00120F5
:104F600000F0D6FA1CE00A4B00221A60FEF7F4FFAC
:104F700038610FE0FEF7F0FF02463B69D31A022BBF
:104F800008D9032340E100BF001002400000424264
:104F9000800442429E4B5B6A03F00203002BE9D17E
:104FA0007B681B6803F00403002B00F0A68000233D
:104FB000FB75974BDB6903F08053002B0DD1944BAD
:104FC000DB69934A43F08053D361914BDB6903F073
:104FD0008053BB60BB680123FB758E4B1B6803F4D9
:104FE0008073002B18D18B4B1B688A4A43F4807363
:104FF0001360FEF7B1FF386108E0FEF7ADFF02462F
:105000003B69D31A642B01D90323FDE0814B1B6854
:1050100003F48073002BF0D07B68DB68012B06D192
:105020007B4B1B6A7A4A43F0010313622DE07B68D5
:10503000DB68002B0CD1764B1B6A754A23F0010309
:105040001362734B1B6A724A23F0040313621CE061
:105050007B68DB68052B0CD16D4B1B6A6C4A43F0F7
:10506000040313626A4B1B6A694A43F0010313622B
:105070000BE0674B1B6A664A23F001031362644B23
:105080001B6A634A23F0040313627B68DB68002B0E
:1050900015D0FEF761FF38610AE0FEF75DFF0246BA
:1050A0003B69D31A41F28832934201D90323ABE022
:1050B000574B1B6A03F00203002BEED014E0FEF7FF
:1050C0004BFF38610AE0FEF747FF02463B69D31AFF
:1050D00041F28832934201D9032395E04C4B1B6A7D
:1050E00003F00203002BEED1FB7D012B05D1484BD1
:1050F000DB69474A23F08053D3617B68DB69002B6F
:1051000000F08180424B5B6803F00C03082B61D0F8
:105110007B68DB69022B46D13F4B00221A60FEF709
:105120001BFF386108E0FEF717FF02463B69D31A00
:10513000022B01D9032367E0354B1B6803F0007392
:10514000002BF0D17B681B6AB3F5803F08D1304B50
:10515000DB6A23F00F027B689B682D491343CB6207
:105160002B4B5B6823F474127B68196A7B685B6A5B
:105170000B43274913434B60274B01221A60FEF76C
:10518000EBFE386108E0FEF7E7FE02463B69D31A02
:10519000022B01D9032337E01D4B1B6803F000737A
:1051A000002BF0D02FE01C4B00221A60FEF7D4FE3B
:1051B000386108E0FEF7D0FE02463B69D31A022BA5
:1051C00001D9032320E0124B1B6803F00073002B6E
:1051D000F0D118E07B68DB69012B01D1012313E0DA
:1051E0000B4B5B68FB60FB6803F480327B681B6AD7
:1051F0009A4206D1FB6803F470127B685B6A9A429C
:1052000001D0012300E0002318461837BD4680BDB9
:1052100000100240007000406000424280B584B03F
:1052200000AF786039607B68002B01D10123A0E0DA
:105230007B681B6803F00203002B20D07B681B688F
:1052400003F00403002B05D04C4B5B684B4A43F43E
:10525000E06353607B681B6803F00803002B05D0F4
:10526000464B5B68454A43F460535360434B5B686D
:1052700023F0F0027B689B68404913434B607B68D6
:105280001B6803F00103002B40D07B685B68012B97
:1052900007D13A4B1B6803F40033002B15D10123CF
:1052A00067E07B685B68022B07D1344B1B6803F017
:1052B0000073002B09D101235BE0304B1B6803F026
:1052C0000203002B01D1012353E02C4B5B6823F038
:1052D00003027B685B68294913434B60FEF73CFE81
:1052E000F8600AE0FEF738FE0246FB68D31A41F286
:1052F0008832934201D903233BE0204B5B6803F0E3
:105300000C027B685B689B009A42EBD17B681B6850
:1053100003F00403002B08D0184B5B6823F4E06211
:105320007B68DB68154913434B607B681B6803F09F
:105330000803002B09D0114B5B6823F460527B6893
:105340001B69DB000D4913434B6000F01FF8024658
:105350000A4B5B681B0903F00F030949CB5C22FA77
:1053600003F3084A1360084B1B681846FEF7D4FB8A
:10537000002318461037BD4680BD00BF0010024014
:10538000507200082C0000203000002090B48EB035
:1053900000AF2B4B07F114040FCB84E80F00294B0F
:1053A0003C1D0FCB84E80F000023FB620023BB628F
:1053B00000237B6300237B6200233B63224B5B68FB
:1053C000FB62FB6A03F00C03042B02D0082B03D012
:1053D0002CE01E4B3B632CE0FB6A9B0C03F00F039D
:1053E00007F13802134413F8243C7B62FB6A03F490
:1053F0008033002B12D0144BDB6A03F00F0307F14C
:105400003802134413F8343CBB627B6A0F4A02FB38
:1054100003F2BB6AB2FBF3F37B6304E07B6A0C4AE2
:1054200002FB03F37B637B6B3B6302E0074B3B6355
:1054300000BF3B6B18463837BD4690BC704700BF75
:1054400030720008407200080010024000127A001A
:1054500000093D0080B400AF024B1B681846BD46F2
:1054600080BC70472C00002080B500AFFFF7F2FF32
:105470000246054B5B681B0A03F007030349CB5C3C
:1054800022FA03F3184680BD001002406072000843
:1054900080B500AFFFF7DEFF0246054B5B68DB0A15
:1054A00003F007030349CB5C22FA03F3184680BDDF
:1054B000001002406072000880B483B000AF7860D2
:1054C00039607B680F221A60104B5B6803F003029F
:1054D0007B685A600D4B5B6803F0F0027B689A6052
:1054E0000A4B5B6803F4E0627B68DA60074B5B6839
:1054F000DB0803F4E0627B681A613B6800221A60F3
:1055000000BF0C37BD4680BC704700BF0010024092
:1055100080B485B000AF78600A4B1B680A4AA2FBD2
:1055200003235B0A7A6802FB03F3FB6000BFFB689E
:105530005A1EFA60002BF9D100BF00BF1437BD46D8
:1055400080BC70472C000020D34D621080B586B01F
:1055500000AF786000233B610023FB607B681B6821
:1055600003F00103002B7DD00023FB75474BDB6963
:1055700003F08053002B0DD1444BDB69434A43F0C9
:105580008053D361414BDB6903F08053BB60BB6840
:105590000123FB753E4B1B6803F48073002B18D16D
:1055A0003B4B1B683A4A43F480731360FEF7D4FC0C
:1055B000386108E0FEF7D0FC02463B69D31A642B41
:1055C00001D903235EE0324B1B6803F48073002B88
:1055D000F0D02E4B1B6A03F44073FB60FB68002B7A
:1055E0002ED07B685B6803F44073FA689A4227D038
:1055F000264B1B6A23F44073FB60264B01221A6082
:10560000244B00221A60214AFB681362FB6803F0F6
:105610000103002B14D0FEF79FFC38610AE0FEF76F
:105620009BFC02463B69D31A41F28832934201D96E
:10563000032327E0154B1B6A03F00203002BEED077
:10564000124B1B6A23F440727B685B680F4913435B
:105650000B62FB7D012B05D10C4BDB690B4A23F060
:105660008053D3617B681B6803F00203002B08D0D2
:10567000064B5B6823F440427B689B6803491343F5
:105680004B60002318461837BD4680BD001002400D
:10569000007000404004424280B584B000AF7860A2
:1056A0000023BB600023FB607B68012B03D07B6879
:1056B000022B33D041E0234B1B6ABB60BB6803F471
:1056C0004073B3F5807F08D1BB6803F00203002B61
:1056D00003D04FF40043FB601FE0BB6803F440734A
:1056E000B3F5007F09D1174B5B6A03F00203002B6F
:1056F00003D049F64043FB600FE0BB6803F44073FE
:10570000B3F5407F18D10F4B1B6803F40033002B17
:1057100012D04FF22443FB600EE00DE0FFF7B8FE1D
:105720000246084B5B689B0B03F0030301335B00ED
:10573000B2FBF3F3FB6000E000BFFB6818461037D4
:10574000BD4680BD0010024080B582B000AF7860D9
:105750007B68002B01D101236EE07B685B6A002B24
:1057600008D17B685B68B3F5827F09D07B68002233
:10577000DA6105E07B6800221A617B6800225A61C9
:105780007B6800229A627B6893F85130DBB2002B71
:1057900006D17B68002283F850207868FEF7C4F8B1
:1057A0007B68022283F851207B681B681A687B683B
:1057B0001B6822F040021A607B685B6803F4827207
:1057C0007B689B6803F404431A437B68DB6803F43B
:1057D00000631A437B681B6903F002031A437B686A
:1057E0005B6903F001031A437B689B6903F4007350
:1057F0001A437B68DB6903F038031A437B681B6A32
:1058000003F0800342EA03017B689B6A03F40052C1
:105810007B681B680A431A607B689B691A0C7B686B
:105820001B6802F004025A607B6800225A657B689C
:10583000012283F85120002318460837BD4680BD59
:1058400080B588B000AFF860B9603B601346FB805C
:105850000023FB77FB6893F85030012B01D1022322
:1058600026E1FB68012283F85020FEF775FBB86142
:10587000FB88FB82FB6893F85130DBB2012B02D02E
:105880000223FB770BE1BB68002B02D0FB88002BC7
:1058900002D10123FB7702E1FB68032283F8512048
:1058A000FB6800225A65FB68BA681A63FB68FA88CD
:1058B0009A86FB68FA88DA86FB6800229A63FB689E
:1058C00000229A87FB680022DA87FB6800225A646C
:1058D000FB6800221A64FB689B68B3F5004F0FD188
:1058E000FB681B681A68FB681B6822F040021A609C
:1058F000FB681B681A68FB681B6842F480421A60E8
:10590000FB681B681B6803F04003402B07D0FB6853
:105910001B681A68FB681B6842F040021A60FB684B
:10592000DB68B3F5006F4BD1FB685B68002B02D0DE
:10593000FB8A012B3ED1FB681B6B1A88FB681B6836
:10594000DA60FB681B6B9A1CFB681A63FB68DB8ED2
:105950009BB2013B9AB2FB68DA862BE0FB681B68BE
:105960009B6803F00203022B12D1FB681B6B1A88A1
:10597000FB681B68DA60FB681B6B9A1CFB681A6388
:10598000FB68DB8E9BB2013B9AB2FB68DA8611E0C2
:10599000FEF7E2FA0246BB69D31A3A689A4203D884
:1059A0003B68B3F1FF3F02D13B68002B02D10323D8
:1059B000FB7774E0FB68DB8E9BB2002BCED14CE012
:1059C000FB685B68002B02D0FB8A012B40D1FB688F
:1059D0001A6BFB681B680C3312781A70FB681B6B20
:1059E0005A1CFB681A63FB68DB8E9BB2013B9AB2C0
:1059F000FB68DA862CE0FB681B689B6803F00203F7
:105A0000022B13D1FB681A6BFB681B680C331278EE
:105A10001A70FB681B6B5A1CFB681A63FB68DB8EF1
:105A20009BB2013B9AB2FB68DA8611E0FEF794FA6A
:105A30000246BB69D31A3A689A4203D83B68B3F16D
:105A4000FF3F02D13B68002B02D10323FB7726E006
:105A5000FB68DB8E9BB2002BCDD1BA693968F86840
:105A600000F0B8FB0346002B02D0FB6820225A65E9
:105A7000FB689B68002B0AD100233B61FB681B6815
:105A8000DB683B61FB681B689B683B613B69FB68AB
:105A90005B6D002B02D00123FB7700E000BFFB68A9
:105AA000012283F85120FB68002283F85020FB7FFD
:105AB00018462037BD4680BD80B588B002AFF8607B
:105AC000B9603B601346FB800023FB75FB685B6895
:105AD000B3F5827F12D1FB689B68002B0ED1FB6867
